{
	"contracts/CoinMusme.sol": {
		"CoinMusme": {
			"abi": [
				{
					"inputs": [
						{
							"internalType": "string",
							"name": "name",
							"type": "string"
						},
						{
							"internalType": "string",
							"name": "symbol",
							"type": "string"
						}
					],
					"stateMutability": "nonpayable",
					"type": "constructor"
				},
				{
					"inputs": [
						{
							"internalType": "address",
							"name": "spender",
							"type": "address"
						},
						{
							"internalType": "uint256",
							"name": "allowance",
							"type": "uint256"
						},
						{
							"internalType": "uint256",
							"name": "needed",
							"type": "uint256"
						}
					],
					"name": "ERC20InsufficientAllowance",
					"type": "error"
				},
				{
					"inputs": [
						{
							"internalType": "address",
							"name": "sender",
							"type": "address"
						},
						{
							"internalType": "uint256",
							"name": "balance",
							"type": "uint256"
						},
						{
							"internalType": "uint256",
							"name": "needed",
							"type": "uint256"
						}
					],
					"name": "ERC20InsufficientBalance",
					"type": "error"
				},
				{
					"inputs": [
						{
							"internalType": "address",
							"name": "approver",
							"type": "address"
						}
					],
					"name": "ERC20InvalidApprover",
					"type": "error"
				},
				{
					"inputs": [
						{
							"internalType": "address",
							"name": "receiver",
							"type": "address"
						}
					],
					"name": "ERC20InvalidReceiver",
					"type": "error"
				},
				{
					"inputs": [
						{
							"internalType": "address",
							"name": "sender",
							"type": "address"
						}
					],
					"name": "ERC20InvalidSender",
					"type": "error"
				},
				{
					"inputs": [
						{
							"internalType": "address",
							"name": "spender",
							"type": "address"
						}
					],
					"name": "ERC20InvalidSpender",
					"type": "error"
				},
				{
					"anonymous": false,
					"inputs": [
						{
							"indexed": true,
							"internalType": "address",
							"name": "owner",
							"type": "address"
						},
						{
							"indexed": true,
							"internalType": "address",
							"name": "spender",
							"type": "address"
						},
						{
							"indexed": false,
							"internalType": "uint256",
							"name": "value",
							"type": "uint256"
						}
					],
					"name": "Approval",
					"type": "event"
				},
				{
					"anonymous": false,
					"inputs": [
						{
							"indexed": true,
							"internalType": "address",
							"name": "from",
							"type": "address"
						},
						{
							"indexed": true,
							"internalType": "address",
							"name": "to",
							"type": "address"
						},
						{
							"indexed": false,
							"internalType": "uint256",
							"name": "value",
							"type": "uint256"
						}
					],
					"name": "Transfer",
					"type": "event"
				},
				{
					"inputs": [
						{
							"internalType": "address",
							"name": "owner",
							"type": "address"
						},
						{
							"internalType": "address",
							"name": "spender",
							"type": "address"
						}
					],
					"name": "allowance",
					"outputs": [
						{
							"internalType": "uint256",
							"name": "",
							"type": "uint256"
						}
					],
					"stateMutability": "view",
					"type": "function"
				},
				{
					"inputs": [
						{
							"internalType": "address",
							"name": "spender",
							"type": "address"
						},
						{
							"internalType": "uint256",
							"name": "value",
							"type": "uint256"
						}
					],
					"name": "approve",
					"outputs": [
						{
							"internalType": "bool",
							"name": "",
							"type": "bool"
						}
					],
					"stateMutability": "nonpayable",
					"type": "function"
				},
				{
					"inputs": [
						{
							"internalType": "address",
							"name": "account",
							"type": "address"
						}
					],
					"name": "balanceOf",
					"outputs": [
						{
							"internalType": "uint256",
							"name": "",
							"type": "uint256"
						}
					],
					"stateMutability": "view",
					"type": "function"
				},
				{
					"inputs": [],
					"name": "buyMusme",
					"outputs": [],
					"stateMutability": "nonpayable",
					"type": "function"
				},
				{
					"inputs": [],
					"name": "decimals",
					"outputs": [
						{
							"internalType": "uint8",
							"name": "",
							"type": "uint8"
						}
					],
					"stateMutability": "view",
					"type": "function"
				},
				{
					"inputs": [],
					"name": "getMusme",
					"outputs": [
						{
							"components": [
								{
									"internalType": "string",
									"name": "url",
									"type": "string"
								},
								{
									"internalType": "string",
									"name": "name",
									"type": "string"
								}
							],
							"internalType": "struct CoinMusme.Museme[]",
							"name": "",
							"type": "tuple[]"
						}
					],
					"stateMutability": "view",
					"type": "function"
				},
				{
					"inputs": [],
					"name": "getMusmeUser",
					"outputs": [
						{
							"components": [
								{
									"internalType": "address",
									"name": "account",
									"type": "address"
								}
							],
							"internalType": "struct CoinMusme.User[]",
							"name": "",
							"type": "tuple[]"
						}
					],
					"stateMutability": "view",
					"type": "function"
				},
				{
					"inputs": [
						{
							"internalType": "address",
							"name": "",
							"type": "address"
						},
						{
							"internalType": "uint256",
							"name": "",
							"type": "uint256"
						}
					],
					"name": "musmes",
					"outputs": [
						{
							"internalType": "string",
							"name": "url",
							"type": "string"
						},
						{
							"internalType": "string",
							"name": "name",
							"type": "string"
						}
					],
					"stateMutability": "view",
					"type": "function"
				},
				{
					"inputs": [],
					"name": "name",
					"outputs": [
						{
							"internalType": "string",
							"name": "",
							"type": "string"
						}
					],
					"stateMutability": "view",
					"type": "function"
				},
				{
					"inputs": [],
					"name": "symbol",
					"outputs": [
						{
							"internalType": "string",
							"name": "",
							"type": "string"
						}
					],
					"stateMutability": "view",
					"type": "function"
				},
				{
					"inputs": [],
					"name": "totalSupply",
					"outputs": [
						{
							"internalType": "uint256",
							"name": "",
							"type": "uint256"
						}
					],
					"stateMutability": "view",
					"type": "function"
				},
				{
					"inputs": [
						{
							"internalType": "address",
							"name": "to",
							"type": "address"
						},
						{
							"internalType": "uint256",
							"name": "value",
							"type": "uint256"
						}
					],
					"name": "transfer",
					"outputs": [
						{
							"internalType": "bool",
							"name": "",
							"type": "bool"
						}
					],
					"stateMutability": "nonpayable",
					"type": "function"
				},
				{
					"inputs": [
						{
							"internalType": "address",
							"name": "from",
							"type": "address"
						},
						{
							"internalType": "address",
							"name": "to",
							"type": "address"
						},
						{
							"internalType": "uint256",
							"name": "value",
							"type": "uint256"
						}
					],
					"name": "transferFrom",
					"outputs": [
						{
							"internalType": "bool",
							"name": "",
							"type": "bool"
						}
					],
					"stateMutability": "nonpayable",
					"type": "function"
				},
				{
					"inputs": [
						{
							"internalType": "uint256",
							"name": "",
							"type": "uint256"
						}
					],
					"name": "users",
					"outputs": [
						{
							"internalType": "address",
							"name": "account",
							"type": "address"
						}
					],
					"stateMutability": "view",
					"type": "function"
				}
			],
			"devdoc": {
				"errors": {
					"ERC20InsufficientAllowance(address,uint256,uint256)": [
						{
							"details": "Indicates a failure with the `spender`’s `allowance`. Used in transfers.",
							"params": {
								"allowance": "Amount of tokens a `spender` is allowed to operate with.",
								"needed": "Minimum amount required to perform a transfer.",
								"spender": "Address that may be allowed to operate on tokens without being their owner."
							}
						}
					],
					"ERC20InsufficientBalance(address,uint256,uint256)": [
						{
							"details": "Indicates an error related to the current `balance` of a `sender`. Used in transfers.",
							"params": {
								"balance": "Current balance for the interacting account.",
								"needed": "Minimum amount required to perform a transfer.",
								"sender": "Address whose tokens are being transferred."
							}
						}
					],
					"ERC20InvalidApprover(address)": [
						{
							"details": "Indicates a failure with the `approver` of a token to be approved. Used in approvals.",
							"params": {
								"approver": "Address initiating an approval operation."
							}
						}
					],
					"ERC20InvalidReceiver(address)": [
						{
							"details": "Indicates a failure with the token `receiver`. Used in transfers.",
							"params": {
								"receiver": "Address to which tokens are being transferred."
							}
						}
					],
					"ERC20InvalidSender(address)": [
						{
							"details": "Indicates a failure with the token `sender`. Used in transfers.",
							"params": {
								"sender": "Address whose tokens are being transferred."
							}
						}
					],
					"ERC20InvalidSpender(address)": [
						{
							"details": "Indicates a failure with the `spender` to be approved. Used in approvals.",
							"params": {
								"spender": "Address that may be allowed to operate on tokens without being their owner."
							}
						}
					]
				},
				"events": {
					"Approval(address,address,uint256)": {
						"details": "Emitted when the allowance of a `spender` for an `owner` is set by a call to {approve}. `value` is the new allowance."
					},
					"Transfer(address,address,uint256)": {
						"details": "Emitted when `value` tokens are moved from one account (`from`) to another (`to`). Note that `value` may be zero."
					}
				},
				"kind": "dev",
				"methods": {
					"allowance(address,address)": {
						"details": "See {IERC20-allowance}."
					},
					"approve(address,uint256)": {
						"details": "See {IERC20-approve}. NOTE: If `value` is the maximum `uint256`, the allowance is not updated on `transferFrom`. This is semantically equivalent to an infinite approval. Requirements: - `spender` cannot be the zero address."
					},
					"balanceOf(address)": {
						"details": "See {IERC20-balanceOf}."
					},
					"decimals()": {
						"details": "Returns the number of decimals used to get its user representation. For example, if `decimals` equals `2`, a balance of `505` tokens should be displayed to a user as `5.05` (`505 / 10 ** 2`). Tokens usually opt for a value of 18, imitating the relationship between Ether and Wei. This is the default value returned by this function, unless it's overridden. NOTE: This information is only used for _display_ purposes: it in no way affects any of the arithmetic of the contract, including {IERC20-balanceOf} and {IERC20-transfer}."
					},
					"name()": {
						"details": "Returns the name of the token."
					},
					"symbol()": {
						"details": "Returns the symbol of the token, usually a shorter version of the name."
					},
					"totalSupply()": {
						"details": "See {IERC20-totalSupply}."
					},
					"transfer(address,uint256)": {
						"details": "See {IERC20-transfer}. Requirements: - `to` cannot be the zero address. - the caller must have a balance of at least `value`."
					},
					"transferFrom(address,address,uint256)": {
						"details": "See {IERC20-transferFrom}. Emits an {Approval} event indicating the updated allowance. This is not required by the EIP. See the note at the beginning of {ERC20}. NOTE: Does not update the allowance if the current allowance is the maximum `uint256`. Requirements: - `from` and `to` cannot be the zero address. - `from` must have a balance of at least `value`. - the caller must have allowance for ``from``'s tokens of at least `value`."
					}
				},
				"version": 1
			},
			"evm": {
				"assembly": "    /* \"contracts/CoinMusme.sol\":136:3233  contract CoinMusme is ERC20 {... */\n  mstore(0x40, 0x80)\n    /* \"contracts/CoinMusme.sol\":711:719  10 ether */\n  0x8ac7230489e80000\n    /* \"contracts/CoinMusme.sol\":682:719  uint256 private tokenPrice = 10 ether */\n  0x05\n  sstore\n    /* \"contracts/CoinMusme.sol\":832:880  string[] musmeName = [\"MArblex\",\"GMTEE\",\"MATIC\"] */\n  mload(0x40)\n  dup1\n  0x60\n  add\n  0x40\n  mstore\n  dup1\n  mload(0x40)\n  dup1\n  0x40\n  add\n  0x40\n  mstore\n  dup1\n  0x07\n  dup2\n  mstore\n  0x20\n  add\n  0x4d4172626c657800000000000000000000000000000000000000000000000000\n  dup2\n  mstore\n  pop\n  dup2\n  mstore\n  0x20\n  add\n  mload(0x40)\n  dup1\n  0x40\n  add\n  0x40\n  mstore\n  dup1\n  0x05\n  dup2\n  mstore\n  0x20\n  add\n  0x474d544545000000000000000000000000000000000000000000000000000000\n  dup2\n  mstore\n  pop\n  dup2\n  mstore\n  0x20\n  add\n  mload(0x40)\n  dup1\n  0x40\n  add\n  0x40\n  mstore\n  dup1\n  0x05\n  dup2\n  mstore\n  0x20\n  add\n  0x4d41544943000000000000000000000000000000000000000000000000000000\n  dup2\n  mstore\n  pop\n  dup2\n  mstore\n  pop\n  0x06\n  swap1\n  0x03\n  tag_1\n  swap3\n  swap2\n  swap1\n  tag_2\n  jump\t// in\ntag_1:\n  pop\n    /* \"contracts/CoinMusme.sol\":942:1229  string[] musmeUrl = [... */\n  mload(0x40)\n  dup1\n  0x60\n  add\n  0x40\n  mstore\n  dup1\n  mload(0x40)\n  dup1\n  0xa0\n  add\n  0x40\n  mstore\n  dup1\n  0x6f\n  dup2\n  mstore\n  0x20\n  add\n  data_d13ba52582fcd0f179f13e75f1522d826281a9b824a34210a641df595d98cb69\n  0x6f\n  swap2\n  codecopy\n  dup2\n  mstore\n  0x20\n  add\n  mload(0x40)\n  dup1\n  0x60\n  add\n  0x40\n  mstore\n  dup1\n  0x2e\n  dup2\n  mstore\n  0x20\n  add\n  data_611fcf90768f533ea33192c536b5d2c3db5d6c8c19f817c4a6bbc68d54b0ca17\n  0x2e\n  swap2\n  codecopy\n  dup2\n  mstore\n  0x20\n  add\n  mload(0x40)\n  dup1\n  0x60\n  add\n  0x40\n  mstore\n  dup1\n  0x40\n  dup2\n  mstore\n  0x20\n  add\n  data_73a6d2e6e759531154c1a0bb0e95f01a832acc61cefdfa266b8e61f5b6eeac7a\n  0x40\n  swap2\n  codecopy\n  dup2\n  mstore\n  pop\n  0x07\n  swap1\n  0x03\n  tag_3\n  swap3\n  swap2\n  swap1\n  tag_2\n  jump\t// in\ntag_3:\n  pop\n    /* \"contracts/CoinMusme.sol\":171:310  constructor (string memory name, string memory symbol) ERC20(name,symbol) {... */\n  callvalue\n  dup1\n  iszero\n  tag_4\n  jumpi\n  0x00\n  dup1\n  revert\ntag_4:\n  pop\n  mload(0x40)\n  sub(codesize, bytecodeSize)\n  dup1\n  bytecodeSize\n  dup4\n  codecopy\n  dup2\n  dup2\n  add\n  0x40\n  mstore\n  dup2\n  add\n  swap1\n  tag_5\n  swap2\n  swap1\n  tag_6\n  jump\t// in\ntag_5:\n    /* \"contracts/CoinMusme.sol\":232:236  name */\n  dup2\n    /* \"contracts/CoinMusme.sol\":237:243  symbol */\n  dup2\n    /* \"node_modules/@openzeppelin/contracts/token/ERC20/ERC20.sol\":1970:1975  name_ */\n  dup2\n    /* \"node_modules/@openzeppelin/contracts/token/ERC20/ERC20.sol\":1962:1967  _name */\n  0x03\n    /* \"node_modules/@openzeppelin/contracts/token/ERC20/ERC20.sol\":1962:1975  _name = name_ */\n  swap1\n  dup2\n  tag_10\n  swap2\n  swap1\n  tag_11\n  jump\t// in\ntag_10:\n  pop\n    /* \"node_modules/@openzeppelin/contracts/token/ERC20/ERC20.sol\":1995:2002  symbol_ */\n  dup1\n    /* \"node_modules/@openzeppelin/contracts/token/ERC20/ERC20.sol\":1985:1992  _symbol */\n  0x04\n    /* \"node_modules/@openzeppelin/contracts/token/ERC20/ERC20.sol\":1985:2002  _symbol = symbol_ */\n  swap1\n  dup2\n  tag_12\n  swap2\n  swap1\n  tag_11\n  jump\t// in\ntag_12:\n  pop\n    /* \"node_modules/@openzeppelin/contracts/token/ERC20/ERC20.sol\":1896:2009  constructor(string memory name_, string memory symbol_) {... */\n  pop\n  pop\n    /* \"contracts/CoinMusme.sol\":256:302  _mint(msg.sender, 100000 * (10 ** decimals())) */\n  tag_14\n    /* \"contracts/CoinMusme.sol\":262:272  msg.sender */\n  caller\n    /* \"contracts/CoinMusme.sol\":290:300  decimals() */\n  tag_15\n    /* \"contracts/CoinMusme.sol\":290:298  decimals */\n  shl(0x20, tag_16)\n    /* \"contracts/CoinMusme.sol\":290:300  decimals() */\n  0x20\n  shr\n  jump\t// in\ntag_15:\n    /* \"contracts/CoinMusme.sol\":284:286  10 */\n  0x0a\n    /* \"contracts/CoinMusme.sol\":284:300  10 ** decimals() */\n  tag_17\n  swap2\n  swap1\n  tag_18\n  jump\t// in\ntag_17:\n    /* \"contracts/CoinMusme.sol\":274:280  100000 */\n  0x0186a0\n    /* \"contracts/CoinMusme.sol\":274:301  100000 * (10 ** decimals()) */\n  tag_19\n  swap2\n  swap1\n  tag_20\n  jump\t// in\ntag_19:\n    /* \"contracts/CoinMusme.sol\":256:261  _mint */\n  shl(0x20, tag_21)\n    /* \"contracts/CoinMusme.sol\":256:302  _mint(msg.sender, 100000 * (10 ** decimals())) */\n  0x20\n  shr\n  jump\t// in\ntag_14:\n    /* \"contracts/CoinMusme.sol\":171:310  constructor (string memory name, string memory symbol) ERC20(name,symbol) {... */\n  pop\n  pop\n    /* \"contracts/CoinMusme.sol\":136:3233  contract CoinMusme is ERC20 {... */\n  jump(tag_22)\n    /* \"node_modules/@openzeppelin/contracts/token/ERC20/ERC20.sol\":3002:3084  function decimals() public view virtual returns (uint8) {... */\ntag_16:\n    /* \"node_modules/@openzeppelin/contracts/token/ERC20/ERC20.sol\":3051:3056  uint8 */\n  0x00\n    /* \"node_modules/@openzeppelin/contracts/token/ERC20/ERC20.sol\":3075:3077  18 */\n  0x12\n    /* \"node_modules/@openzeppelin/contracts/token/ERC20/ERC20.sol\":3068:3077  return 18 */\n  swap1\n  pop\n    /* \"node_modules/@openzeppelin/contracts/token/ERC20/ERC20.sol\":3002:3084  function decimals() public view virtual returns (uint8) {... */\n  swap1\n  jump\t// out\n    /* \"node_modules/@openzeppelin/contracts/token/ERC20/ERC20.sol\":7721:7929  function _mint(address account, uint256 value) internal {... */\ntag_21:\n    /* \"node_modules/@openzeppelin/contracts/token/ERC20/ERC20.sol\":7810:7811  0 */\n  0x00\n    /* \"node_modules/@openzeppelin/contracts/token/ERC20/ERC20.sol\":7791:7812  account == address(0) */\n  0xffffffffffffffffffffffffffffffffffffffff\n  and\n    /* \"node_modules/@openzeppelin/contracts/token/ERC20/ERC20.sol\":7791:7798  account */\n  dup3\n    /* \"node_modules/@openzeppelin/contracts/token/ERC20/ERC20.sol\":7791:7812  account == address(0) */\n  0xffffffffffffffffffffffffffffffffffffffff\n  and\n  sub\n    /* \"node_modules/@openzeppelin/contracts/token/ERC20/ERC20.sol\":7787:7878  if (account == address(0)) {... */\n  tag_25\n  jumpi\n    /* \"node_modules/@openzeppelin/contracts/token/ERC20/ERC20.sol\":7864:7865  0 */\n  0x00\n    /* \"node_modules/@openzeppelin/contracts/token/ERC20/ERC20.sol\":7835:7867  ERC20InvalidReceiver(address(0)) */\n  mload(0x40)\n  0xec442f0500000000000000000000000000000000000000000000000000000000\n  dup2\n  mstore\n  0x04\n  add\n  tag_26\n  swap2\n  swap1\n  tag_27\n  jump\t// in\ntag_26:\n  mload(0x40)\n  dup1\n  swap2\n  sub\n  swap1\n  revert\n    /* \"node_modules/@openzeppelin/contracts/token/ERC20/ERC20.sol\":7787:7878  if (account == address(0)) {... */\ntag_25:\n    /* \"node_modules/@openzeppelin/contracts/token/ERC20/ERC20.sol\":7887:7922  _update(address(0), account, value) */\n  tag_28\n    /* \"node_modules/@openzeppelin/contracts/token/ERC20/ERC20.sol\":7903:7904  0 */\n  0x00\n    /* \"node_modules/@openzeppelin/contracts/token/ERC20/ERC20.sol\":7907:7914  account */\n  dup4\n    /* \"node_modules/@openzeppelin/contracts/token/ERC20/ERC20.sol\":7916:7921  value */\n  dup4\n    /* \"node_modules/@openzeppelin/contracts/token/ERC20/ERC20.sol\":7887:7894  _update */\n  shl(0x20, tag_29)\n    /* \"node_modules/@openzeppelin/contracts/token/ERC20/ERC20.sol\":7887:7922  _update(address(0), account, value) */\n  0x20\n  shr\n  jump\t// in\ntag_28:\n    /* \"node_modules/@openzeppelin/contracts/token/ERC20/ERC20.sol\":7721:7929  function _mint(address account, uint256 value) internal {... */\n  pop\n  pop\n  jump\t// out\n    /* \"node_modules/@openzeppelin/contracts/token/ERC20/ERC20.sol\":6271:7378  function _update(address from, address to, uint256 value) internal virtual {... */\ntag_29:\n    /* \"node_modules/@openzeppelin/contracts/token/ERC20/ERC20.sol\":6376:6377  0 */\n  0x00\n    /* \"node_modules/@openzeppelin/contracts/token/ERC20/ERC20.sol\":6360:6378  from == address(0) */\n  0xffffffffffffffffffffffffffffffffffffffff\n  and\n    /* \"node_modules/@openzeppelin/contracts/token/ERC20/ERC20.sol\":6360:6364  from */\n  dup4\n    /* \"node_modules/@openzeppelin/contracts/token/ERC20/ERC20.sol\":6360:6378  from == address(0) */\n  0xffffffffffffffffffffffffffffffffffffffff\n  and\n  sub\n    /* \"node_modules/@openzeppelin/contracts/token/ERC20/ERC20.sol\":6356:6896  if (from == address(0)) {... */\n  tag_31\n  jumpi\n    /* \"node_modules/@openzeppelin/contracts/token/ERC20/ERC20.sol\":6512:6517  value */\n  dup1\n    /* \"node_modules/@openzeppelin/contracts/token/ERC20/ERC20.sol\":6496:6508  _totalSupply */\n  0x02\n  0x00\n    /* \"node_modules/@openzeppelin/contracts/token/ERC20/ERC20.sol\":6496:6517  _totalSupply += value */\n  dup3\n  dup3\n  sload\n  tag_32\n  swap2\n  swap1\n  tag_33\n  jump\t// in\ntag_32:\n  swap3\n  pop\n  pop\n  dup2\n  swap1\n  sstore\n  pop\n    /* \"node_modules/@openzeppelin/contracts/token/ERC20/ERC20.sol\":6356:6896  if (from == address(0)) {... */\n  jump(tag_34)\ntag_31:\n    /* \"node_modules/@openzeppelin/contracts/token/ERC20/ERC20.sol\":6548:6567  uint256 fromBalance */\n  0x00\n    /* \"node_modules/@openzeppelin/contracts/token/ERC20/ERC20.sol\":6570:6579  _balances */\n  dup1\n    /* \"node_modules/@openzeppelin/contracts/token/ERC20/ERC20.sol\":6570:6585  _balances[from] */\n  0x00\n    /* \"node_modules/@openzeppelin/contracts/token/ERC20/ERC20.sol\":6580:6584  from */\n  dup6\n    /* \"node_modules/@openzeppelin/contracts/token/ERC20/ERC20.sol\":6570:6585  _balances[from] */\n  0xffffffffffffffffffffffffffffffffffffffff\n  and\n  0xffffffffffffffffffffffffffffffffffffffff\n  and\n  dup2\n  mstore\n  0x20\n  add\n  swap1\n  dup2\n  mstore\n  0x20\n  add\n  0x00\n  keccak256\n  sload\n    /* \"node_modules/@openzeppelin/contracts/token/ERC20/ERC20.sol\":6548:6585  uint256 fromBalance = _balances[from] */\n  swap1\n  pop\n    /* \"node_modules/@openzeppelin/contracts/token/ERC20/ERC20.sol\":6617:6622  value */\n  dup2\n    /* \"node_modules/@openzeppelin/contracts/token/ERC20/ERC20.sol\":6603:6614  fromBalance */\n  dup2\n    /* \"node_modules/@openzeppelin/contracts/token/ERC20/ERC20.sol\":6603:6622  fromBalance < value */\n  lt\n    /* \"node_modules/@openzeppelin/contracts/token/ERC20/ERC20.sol\":6599:6714  if (fromBalance < value) {... */\n  iszero\n  tag_35\n  jumpi\n    /* \"node_modules/@openzeppelin/contracts/token/ERC20/ERC20.sol\":6674:6678  from */\n  dup4\n    /* \"node_modules/@openzeppelin/contracts/token/ERC20/ERC20.sol\":6680:6691  fromBalance */\n  dup2\n    /* \"node_modules/@openzeppelin/contracts/token/ERC20/ERC20.sol\":6693:6698  value */\n  dup4\n    /* \"node_modules/@openzeppelin/contracts/token/ERC20/ERC20.sol\":6649:6699  ERC20InsufficientBalance(from, fromBalance, value) */\n  mload(0x40)\n  0xe450d38c00000000000000000000000000000000000000000000000000000000\n  dup2\n  mstore\n  0x04\n  add\n  tag_36\n  swap4\n  swap3\n  swap2\n  swap1\n  tag_37\n  jump\t// in\ntag_36:\n  mload(0x40)\n  dup1\n  swap2\n  sub\n  swap1\n  revert\n    /* \"node_modules/@openzeppelin/contracts/token/ERC20/ERC20.sol\":6599:6714  if (fromBalance < value) {... */\ntag_35:\n    /* \"node_modules/@openzeppelin/contracts/token/ERC20/ERC20.sol\":6866:6871  value */\n  dup2\n    /* \"node_modules/@openzeppelin/contracts/token/ERC20/ERC20.sol\":6852:6863  fromBalance */\n  dup2\n    /* \"node_modules/@openzeppelin/contracts/token/ERC20/ERC20.sol\":6852:6871  fromBalance - value */\n  sub\n    /* \"node_modules/@openzeppelin/contracts/token/ERC20/ERC20.sol\":6834:6843  _balances */\n  0x00\n    /* \"node_modules/@openzeppelin/contracts/token/ERC20/ERC20.sol\":6834:6849  _balances[from] */\n  dup1\n    /* \"node_modules/@openzeppelin/contracts/token/ERC20/ERC20.sol\":6844:6848  from */\n  dup7\n    /* \"node_modules/@openzeppelin/contracts/token/ERC20/ERC20.sol\":6834:6849  _balances[from] */\n  0xffffffffffffffffffffffffffffffffffffffff\n  and\n  0xffffffffffffffffffffffffffffffffffffffff\n  and\n  dup2\n  mstore\n  0x20\n  add\n  swap1\n  dup2\n  mstore\n  0x20\n  add\n  0x00\n  keccak256\n    /* \"node_modules/@openzeppelin/contracts/token/ERC20/ERC20.sol\":6834:6871  _balances[from] = fromBalance - value */\n  dup2\n  swap1\n  sstore\n  pop\n    /* \"node_modules/@openzeppelin/contracts/token/ERC20/ERC20.sol\":6534:6896  {... */\n  pop\n    /* \"node_modules/@openzeppelin/contracts/token/ERC20/ERC20.sol\":6356:6896  if (from == address(0)) {... */\ntag_34:\n    /* \"node_modules/@openzeppelin/contracts/token/ERC20/ERC20.sol\":6924:6925  0 */\n  0x00\n    /* \"node_modules/@openzeppelin/contracts/token/ERC20/ERC20.sol\":6910:6926  to == address(0) */\n  0xffffffffffffffffffffffffffffffffffffffff\n  and\n    /* \"node_modules/@openzeppelin/contracts/token/ERC20/ERC20.sol\":6910:6912  to */\n  dup3\n    /* \"node_modules/@openzeppelin/contracts/token/ERC20/ERC20.sol\":6910:6926  to == address(0) */\n  0xffffffffffffffffffffffffffffffffffffffff\n  and\n  sub\n    /* \"node_modules/@openzeppelin/contracts/token/ERC20/ERC20.sol\":6906:7331  if (to == address(0)) {... */\n  tag_38\n  jumpi\n    /* \"node_modules/@openzeppelin/contracts/token/ERC20/ERC20.sol\":7089:7094  value */\n  dup1\n    /* \"node_modules/@openzeppelin/contracts/token/ERC20/ERC20.sol\":7073:7085  _totalSupply */\n  0x02\n  0x00\n    /* \"node_modules/@openzeppelin/contracts/token/ERC20/ERC20.sol\":7073:7094  _totalSupply -= value */\n  dup3\n  dup3\n  sload\n  sub\n  swap3\n  pop\n  pop\n  dup2\n  swap1\n  sstore\n  pop\n    /* \"node_modules/@openzeppelin/contracts/token/ERC20/ERC20.sol\":6906:7331  if (to == address(0)) {... */\n  jump(tag_39)\ntag_38:\n    /* \"node_modules/@openzeppelin/contracts/token/ERC20/ERC20.sol\":7301:7306  value */\n  dup1\n    /* \"node_modules/@openzeppelin/contracts/token/ERC20/ERC20.sol\":7284:7293  _balances */\n  0x00\n    /* \"node_modules/@openzeppelin/contracts/token/ERC20/ERC20.sol\":7284:7297  _balances[to] */\n  dup1\n    /* \"node_modules/@openzeppelin/contracts/token/ERC20/ERC20.sol\":7294:7296  to */\n  dup5\n    /* \"node_modules/@openzeppelin/contracts/token/ERC20/ERC20.sol\":7284:7297  _balances[to] */\n  0xffffffffffffffffffffffffffffffffffffffff\n  and\n  0xffffffffffffffffffffffffffffffffffffffff\n  and\n  dup2\n  mstore\n  0x20\n  add\n  swap1\n  dup2\n  mstore\n  0x20\n  add\n  0x00\n  keccak256\n  0x00\n    /* \"node_modules/@openzeppelin/contracts/token/ERC20/ERC20.sol\":7284:7306  _balances[to] += value */\n  dup3\n  dup3\n  sload\n  add\n  swap3\n  pop\n  pop\n  dup2\n  swap1\n  sstore\n  pop\n    /* \"node_modules/@openzeppelin/contracts/token/ERC20/ERC20.sol\":6906:7331  if (to == address(0)) {... */\ntag_39:\n    /* \"node_modules/@openzeppelin/contracts/token/ERC20/ERC20.sol\":7361:7363  to */\n  dup2\n    /* \"node_modules/@openzeppelin/contracts/token/ERC20/ERC20.sol\":7346:7371  Transfer(from, to, value) */\n  0xffffffffffffffffffffffffffffffffffffffff\n  and\n    /* \"node_modules/@openzeppelin/contracts/token/ERC20/ERC20.sol\":7355:7359  from */\n  dup4\n    /* \"node_modules/@openzeppelin/contracts/token/ERC20/ERC20.sol\":7346:7371  Transfer(from, to, value) */\n  0xffffffffffffffffffffffffffffffffffffffff\n  and\n  0xddf252ad1be2c89b69c2b068fc378daa952ba7f163c4a11628f55a4df523b3ef\n    /* \"node_modules/@openzeppelin/contracts/token/ERC20/ERC20.sol\":7365:7370  value */\n  dup4\n    /* \"node_modules/@openzeppelin/contracts/token/ERC20/ERC20.sol\":7346:7371  Transfer(from, to, value) */\n  mload(0x40)\n  tag_40\n  swap2\n  swap1\n  tag_41\n  jump\t// in\ntag_40:\n  mload(0x40)\n  dup1\n  swap2\n  sub\n  swap1\n  log3\n    /* \"node_modules/@openzeppelin/contracts/token/ERC20/ERC20.sol\":6271:7378  function _update(address from, address to, uint256 value) internal virtual {... */\n  pop\n  pop\n  pop\n  jump\t// out\n    /* \"contracts/CoinMusme.sol\":136:3233  contract CoinMusme is ERC20 {... */\ntag_2:\n  dup3\n  dup1\n  sload\n  dup3\n  dup3\n  sstore\n  swap1\n  0x00\n  mstore\n  keccak256(0x00, 0x20)\n  swap1\n  dup2\n  add\n  swap3\n  dup3\n  iszero\n  tag_42\n  jumpi\n  swap2\n  0x20\n  mul\n  dup3\n  add\ntag_43:\n  dup3\n  dup2\n  gt\n  iszero\n  tag_44\n  jumpi\n  dup3\n  mload\n  dup3\n  swap1\n  dup2\n  tag_45\n  swap2\n  swap1\n  tag_11\n  jump\t// in\ntag_45:\n  pop\n  swap2\n  0x20\n  add\n  swap2\n  swap1\n  0x01\n  add\n  swap1\n  jump(tag_43)\ntag_44:\ntag_42:\n  pop\n  swap1\n  pop\n  tag_46\n  swap2\n  swap1\n  tag_47\n  jump\t// in\ntag_46:\n  pop\n  swap1\n  jump\t// out\ntag_47:\ntag_48:\n  dup1\n  dup3\n  gt\n  iszero\n  tag_49\n  jumpi\n  0x00\n  dup2\n  dup2\n  tag_50\n  swap2\n  swap1\n  tag_51\n  jump\t// in\ntag_50:\n  pop\n  0x01\n  add\n  jump(tag_48)\ntag_49:\n  pop\n  swap1\n  jump\t// out\ntag_51:\n  pop\n  dup1\n  sload\n  tag_52\n  swap1\n  tag_53\n  jump\t// in\ntag_52:\n  0x00\n  dup3\n  sstore\n  dup1\n  0x1f\n  lt\n  tag_55\n  jumpi\n  pop\n  jump(tag_54)\ntag_55:\n  0x1f\n  add\n  0x20\n  swap1\n  div\n  swap1\n  0x00\n  mstore\n  keccak256(0x00, 0x20)\n  swap1\n  dup2\n  add\n  swap1\n  tag_56\n  swap2\n  swap1\n  tag_57\n  jump\t// in\ntag_56:\ntag_54:\n  pop\n  jump\t// out\ntag_57:\ntag_58:\n  dup1\n  dup3\n  gt\n  iszero\n  tag_59\n  jumpi\n  0x00\n  dup2\n  0x00\n  swap1\n  sstore\n  pop\n  0x01\n  add\n  jump(tag_58)\ntag_59:\n  pop\n  swap1\n  jump\t// out\n    /* \"#utility.yul\":7:82   */\ntag_60:\n    /* \"#utility.yul\":40:46   */\n  0x00\n    /* \"#utility.yul\":73:75   */\n  0x40\n    /* \"#utility.yul\":67:76   */\n  mload\n    /* \"#utility.yul\":57:76   */\n  swap1\n  pop\n    /* \"#utility.yul\":7:82   */\n  swap1\n  jump\t// out\n    /* \"#utility.yul\":88:205   */\ntag_61:\n    /* \"#utility.yul\":197:198   */\n  0x00\n    /* \"#utility.yul\":194:195   */\n  dup1\n    /* \"#utility.yul\":187:199   */\n  revert\n    /* \"#utility.yul\":211:328   */\ntag_62:\n    /* \"#utility.yul\":320:321   */\n  0x00\n    /* \"#utility.yul\":317:318   */\n  dup1\n    /* \"#utility.yul\":310:322   */\n  revert\n    /* \"#utility.yul\":334:451   */\ntag_63:\n    /* \"#utility.yul\":443:444   */\n  0x00\n    /* \"#utility.yul\":440:441   */\n  dup1\n    /* \"#utility.yul\":433:445   */\n  revert\n    /* \"#utility.yul\":457:574   */\ntag_64:\n    /* \"#utility.yul\":566:567   */\n  0x00\n    /* \"#utility.yul\":563:564   */\n  dup1\n    /* \"#utility.yul\":556:568   */\n  revert\n    /* \"#utility.yul\":580:682   */\ntag_65:\n    /* \"#utility.yul\":621:627   */\n  0x00\n    /* \"#utility.yul\":672:674   */\n  0x1f\n    /* \"#utility.yul\":668:675   */\n  not\n    /* \"#utility.yul\":663:665   */\n  0x1f\n    /* \"#utility.yul\":656:661   */\n  dup4\n    /* \"#utility.yul\":652:666   */\n  add\n    /* \"#utility.yul\":648:676   */\n  and\n    /* \"#utility.yul\":638:676   */\n  swap1\n  pop\n    /* \"#utility.yul\":580:682   */\n  swap2\n  swap1\n  pop\n  jump\t// out\n    /* \"#utility.yul\":688:868   */\ntag_66:\n    /* \"#utility.yul\":736:813   */\n  0x4e487b7100000000000000000000000000000000000000000000000000000000\n    /* \"#utility.yul\":733:734   */\n  0x00\n    /* \"#utility.yul\":726:814   */\n  mstore\n    /* \"#utility.yul\":833:837   */\n  0x41\n    /* \"#utility.yul\":830:831   */\n  0x04\n    /* \"#utility.yul\":823:838   */\n  mstore\n    /* \"#utility.yul\":857:861   */\n  0x24\n    /* \"#utility.yul\":854:855   */\n  0x00\n    /* \"#utility.yul\":847:862   */\n  revert\n    /* \"#utility.yul\":874:1155   */\ntag_67:\n    /* \"#utility.yul\":957:984   */\n  tag_109\n    /* \"#utility.yul\":979:983   */\n  dup3\n    /* \"#utility.yul\":957:984   */\n  tag_65\n  jump\t// in\ntag_109:\n    /* \"#utility.yul\":949:955   */\n  dup2\n    /* \"#utility.yul\":945:985   */\n  add\n    /* \"#utility.yul\":1087:1093   */\n  dup2\n    /* \"#utility.yul\":1075:1085   */\n  dup2\n    /* \"#utility.yul\":1072:1094   */\n  lt\n    /* \"#utility.yul\":1051:1069   */\n  0xffffffffffffffff\n    /* \"#utility.yul\":1039:1049   */\n  dup3\n    /* \"#utility.yul\":1036:1070   */\n  gt\n    /* \"#utility.yul\":1033:1095   */\n  or\n    /* \"#utility.yul\":1030:1118   */\n  iszero\n  tag_110\n  jumpi\n    /* \"#utility.yul\":1098:1116   */\n  tag_111\n  tag_66\n  jump\t// in\ntag_111:\n    /* \"#utility.yul\":1030:1118   */\ntag_110:\n    /* \"#utility.yul\":1138:1148   */\n  dup1\n    /* \"#utility.yul\":1134:1136   */\n  0x40\n    /* \"#utility.yul\":1127:1149   */\n  mstore\n    /* \"#utility.yul\":917:1155   */\n  pop\n    /* \"#utility.yul\":874:1155   */\n  pop\n  pop\n  jump\t// out\n    /* \"#utility.yul\":1161:1290   */\ntag_68:\n    /* \"#utility.yul\":1195:1201   */\n  0x00\n    /* \"#utility.yul\":1222:1242   */\n  tag_113\n  tag_60\n  jump\t// in\ntag_113:\n    /* \"#utility.yul\":1212:1242   */\n  swap1\n  pop\n    /* \"#utility.yul\":1251:1284   */\n  tag_114\n    /* \"#utility.yul\":1279:1283   */\n  dup3\n    /* \"#utility.yul\":1271:1277   */\n  dup3\n    /* \"#utility.yul\":1251:1284   */\n  tag_67\n  jump\t// in\ntag_114:\n    /* \"#utility.yul\":1161:1290   */\n  swap2\n  swap1\n  pop\n  jump\t// out\n    /* \"#utility.yul\":1296:1604   */\ntag_69:\n    /* \"#utility.yul\":1358:1362   */\n  0x00\n    /* \"#utility.yul\":1448:1466   */\n  0xffffffffffffffff\n    /* \"#utility.yul\":1440:1446   */\n  dup3\n    /* \"#utility.yul\":1437:1467   */\n  gt\n    /* \"#utility.yul\":1434:1490   */\n  iszero\n  tag_116\n  jumpi\n    /* \"#utility.yul\":1470:1488   */\n  tag_117\n  tag_66\n  jump\t// in\ntag_117:\n    /* \"#utility.yul\":1434:1490   */\ntag_116:\n    /* \"#utility.yul\":1508:1537   */\n  tag_118\n    /* \"#utility.yul\":1530:1536   */\n  dup3\n    /* \"#utility.yul\":1508:1537   */\n  tag_65\n  jump\t// in\ntag_118:\n    /* \"#utility.yul\":1500:1537   */\n  swap1\n  pop\n    /* \"#utility.yul\":1592:1596   */\n  0x20\n    /* \"#utility.yul\":1586:1590   */\n  dup2\n    /* \"#utility.yul\":1582:1597   */\n  add\n    /* \"#utility.yul\":1574:1597   */\n  swap1\n  pop\n    /* \"#utility.yul\":1296:1604   */\n  swap2\n  swap1\n  pop\n  jump\t// out\n    /* \"#utility.yul\":1610:1856   */\ntag_70:\n    /* \"#utility.yul\":1691:1692   */\n  0x00\n    /* \"#utility.yul\":1701:1814   */\ntag_120:\n    /* \"#utility.yul\":1715:1721   */\n  dup4\n    /* \"#utility.yul\":1712:1713   */\n  dup2\n    /* \"#utility.yul\":1709:1722   */\n  lt\n    /* \"#utility.yul\":1701:1814   */\n  iszero\n  tag_122\n  jumpi\n    /* \"#utility.yul\":1800:1801   */\n  dup1\n    /* \"#utility.yul\":1795:1798   */\n  dup3\n    /* \"#utility.yul\":1791:1802   */\n  add\n    /* \"#utility.yul\":1785:1803   */\n  mload\n    /* \"#utility.yul\":1781:1782   */\n  dup2\n    /* \"#utility.yul\":1776:1779   */\n  dup5\n    /* \"#utility.yul\":1772:1783   */\n  add\n    /* \"#utility.yul\":1765:1804   */\n  mstore\n    /* \"#utility.yul\":1737:1739   */\n  0x20\n    /* \"#utility.yul\":1734:1735   */\n  dup2\n    /* \"#utility.yul\":1730:1740   */\n  add\n    /* \"#utility.yul\":1725:1740   */\n  swap1\n  pop\n    /* \"#utility.yul\":1701:1814   */\n  jump(tag_120)\ntag_122:\n    /* \"#utility.yul\":1848:1849   */\n  0x00\n    /* \"#utility.yul\":1839:1845   */\n  dup5\n    /* \"#utility.yul\":1834:1837   */\n  dup5\n    /* \"#utility.yul\":1830:1846   */\n  add\n    /* \"#utility.yul\":1823:1850   */\n  mstore\n    /* \"#utility.yul\":1672:1856   */\n  pop\n    /* \"#utility.yul\":1610:1856   */\n  pop\n  pop\n  pop\n  jump\t// out\n    /* \"#utility.yul\":1862:2296   */\ntag_71:\n    /* \"#utility.yul\":1951:1956   */\n  0x00\n    /* \"#utility.yul\":1976:2042   */\n  tag_124\n    /* \"#utility.yul\":1992:2041   */\n  tag_125\n    /* \"#utility.yul\":2034:2040   */\n  dup5\n    /* \"#utility.yul\":1992:2041   */\n  tag_69\n  jump\t// in\ntag_125:\n    /* \"#utility.yul\":1976:2042   */\n  tag_68\n  jump\t// in\ntag_124:\n    /* \"#utility.yul\":1967:2042   */\n  swap1\n  pop\n    /* \"#utility.yul\":2065:2071   */\n  dup3\n    /* \"#utility.yul\":2058:2063   */\n  dup2\n    /* \"#utility.yul\":2051:2072   */\n  mstore\n    /* \"#utility.yul\":2103:2107   */\n  0x20\n    /* \"#utility.yul\":2096:2101   */\n  dup2\n    /* \"#utility.yul\":2092:2108   */\n  add\n    /* \"#utility.yul\":2141:2144   */\n  dup5\n    /* \"#utility.yul\":2132:2138   */\n  dup5\n    /* \"#utility.yul\":2127:2130   */\n  dup5\n    /* \"#utility.yul\":2123:2139   */\n  add\n    /* \"#utility.yul\":2120:2145   */\n  gt\n    /* \"#utility.yul\":2117:2229   */\n  iszero\n  tag_126\n  jumpi\n    /* \"#utility.yul\":2148:2227   */\n  tag_127\n  tag_64\n  jump\t// in\ntag_127:\n    /* \"#utility.yul\":2117:2229   */\ntag_126:\n    /* \"#utility.yul\":2238:2290   */\n  tag_128\n    /* \"#utility.yul\":2283:2289   */\n  dup5\n    /* \"#utility.yul\":2278:2281   */\n  dup3\n    /* \"#utility.yul\":2273:2276   */\n  dup6\n    /* \"#utility.yul\":2238:2290   */\n  tag_70\n  jump\t// in\ntag_128:\n    /* \"#utility.yul\":1957:2296   */\n  pop\n    /* \"#utility.yul\":1862:2296   */\n  swap4\n  swap3\n  pop\n  pop\n  pop\n  jump\t// out\n    /* \"#utility.yul\":2316:2671   */\ntag_72:\n    /* \"#utility.yul\":2383:2388   */\n  0x00\n    /* \"#utility.yul\":2432:2435   */\n  dup3\n    /* \"#utility.yul\":2425:2429   */\n  0x1f\n    /* \"#utility.yul\":2417:2423   */\n  dup4\n    /* \"#utility.yul\":2413:2430   */\n  add\n    /* \"#utility.yul\":2409:2436   */\n  slt\n    /* \"#utility.yul\":2399:2521   */\n  tag_130\n  jumpi\n    /* \"#utility.yul\":2440:2519   */\n  tag_131\n  tag_63\n  jump\t// in\ntag_131:\n    /* \"#utility.yul\":2399:2521   */\ntag_130:\n    /* \"#utility.yul\":2550:2556   */\n  dup2\n    /* \"#utility.yul\":2544:2557   */\n  mload\n    /* \"#utility.yul\":2575:2665   */\n  tag_132\n    /* \"#utility.yul\":2661:2664   */\n  dup5\n    /* \"#utility.yul\":2653:2659   */\n  dup3\n    /* \"#utility.yul\":2646:2650   */\n  0x20\n    /* \"#utility.yul\":2638:2644   */\n  dup7\n    /* \"#utility.yul\":2634:2651   */\n  add\n    /* \"#utility.yul\":2575:2665   */\n  tag_71\n  jump\t// in\ntag_132:\n    /* \"#utility.yul\":2566:2665   */\n  swap2\n  pop\n    /* \"#utility.yul\":2389:2671   */\n  pop\n    /* \"#utility.yul\":2316:2671   */\n  swap3\n  swap2\n  pop\n  pop\n  jump\t// out\n    /* \"#utility.yul\":2677:3530   */\ntag_6:\n    /* \"#utility.yul\":2776:2782   */\n  0x00\n    /* \"#utility.yul\":2784:2790   */\n  dup1\n    /* \"#utility.yul\":2833:2835   */\n  0x40\n    /* \"#utility.yul\":2821:2830   */\n  dup4\n    /* \"#utility.yul\":2812:2819   */\n  dup6\n    /* \"#utility.yul\":2808:2831   */\n  sub\n    /* \"#utility.yul\":2804:2836   */\n  slt\n    /* \"#utility.yul\":2801:2920   */\n  iszero\n  tag_134\n  jumpi\n    /* \"#utility.yul\":2839:2918   */\n  tag_135\n  tag_61\n  jump\t// in\ntag_135:\n    /* \"#utility.yul\":2801:2920   */\ntag_134:\n    /* \"#utility.yul\":2980:2981   */\n  0x00\n    /* \"#utility.yul\":2969:2978   */\n  dup4\n    /* \"#utility.yul\":2965:2982   */\n  add\n    /* \"#utility.yul\":2959:2983   */\n  mload\n    /* \"#utility.yul\":3010:3028   */\n  0xffffffffffffffff\n    /* \"#utility.yul\":3002:3008   */\n  dup2\n    /* \"#utility.yul\":2999:3029   */\n  gt\n    /* \"#utility.yul\":2996:3113   */\n  iszero\n  tag_136\n  jumpi\n    /* \"#utility.yul\":3032:3111   */\n  tag_137\n  tag_62\n  jump\t// in\ntag_137:\n    /* \"#utility.yul\":2996:3113   */\ntag_136:\n    /* \"#utility.yul\":3137:3211   */\n  tag_138\n    /* \"#utility.yul\":3203:3210   */\n  dup6\n    /* \"#utility.yul\":3194:3200   */\n  dup3\n    /* \"#utility.yul\":3183:3192   */\n  dup7\n    /* \"#utility.yul\":3179:3201   */\n  add\n    /* \"#utility.yul\":3137:3211   */\n  tag_72\n  jump\t// in\ntag_138:\n    /* \"#utility.yul\":3127:3211   */\n  swap3\n  pop\n    /* \"#utility.yul\":2930:3221   */\n  pop\n    /* \"#utility.yul\":3281:3283   */\n  0x20\n    /* \"#utility.yul\":3270:3279   */\n  dup4\n    /* \"#utility.yul\":3266:3284   */\n  add\n    /* \"#utility.yul\":3260:3285   */\n  mload\n    /* \"#utility.yul\":3312:3330   */\n  0xffffffffffffffff\n    /* \"#utility.yul\":3304:3310   */\n  dup2\n    /* \"#utility.yul\":3301:3331   */\n  gt\n    /* \"#utility.yul\":3298:3415   */\n  iszero\n  tag_139\n  jumpi\n    /* \"#utility.yul\":3334:3413   */\n  tag_140\n  tag_62\n  jump\t// in\ntag_140:\n    /* \"#utility.yul\":3298:3415   */\ntag_139:\n    /* \"#utility.yul\":3439:3513   */\n  tag_141\n    /* \"#utility.yul\":3505:3512   */\n  dup6\n    /* \"#utility.yul\":3496:3502   */\n  dup3\n    /* \"#utility.yul\":3485:3494   */\n  dup7\n    /* \"#utility.yul\":3481:3503   */\n  add\n    /* \"#utility.yul\":3439:3513   */\n  tag_72\n  jump\t// in\ntag_141:\n    /* \"#utility.yul\":3429:3513   */\n  swap2\n  pop\n    /* \"#utility.yul\":3231:3523   */\n  pop\n    /* \"#utility.yul\":2677:3530   */\n  swap3\n  pop\n  swap3\n  swap1\n  pop\n  jump\t// out\n    /* \"#utility.yul\":3536:3635   */\ntag_73:\n    /* \"#utility.yul\":3588:3594   */\n  0x00\n    /* \"#utility.yul\":3622:3627   */\n  dup2\n    /* \"#utility.yul\":3616:3628   */\n  mload\n    /* \"#utility.yul\":3606:3628   */\n  swap1\n  pop\n    /* \"#utility.yul\":3536:3635   */\n  swap2\n  swap1\n  pop\n  jump\t// out\n    /* \"#utility.yul\":3641:3821   */\ntag_74:\n    /* \"#utility.yul\":3689:3766   */\n  0x4e487b7100000000000000000000000000000000000000000000000000000000\n    /* \"#utility.yul\":3686:3687   */\n  0x00\n    /* \"#utility.yul\":3679:3767   */\n  mstore\n    /* \"#utility.yul\":3786:3790   */\n  0x22\n    /* \"#utility.yul\":3783:3784   */\n  0x04\n    /* \"#utility.yul\":3776:3791   */\n  mstore\n    /* \"#utility.yul\":3810:3814   */\n  0x24\n    /* \"#utility.yul\":3807:3808   */\n  0x00\n    /* \"#utility.yul\":3800:3815   */\n  revert\n    /* \"#utility.yul\":3827:4147   */\ntag_53:\n    /* \"#utility.yul\":3871:3877   */\n  0x00\n    /* \"#utility.yul\":3908:3909   */\n  0x02\n    /* \"#utility.yul\":3902:3906   */\n  dup3\n    /* \"#utility.yul\":3898:3910   */\n  div\n    /* \"#utility.yul\":3888:3910   */\n  swap1\n  pop\n    /* \"#utility.yul\":3955:3956   */\n  0x01\n    /* \"#utility.yul\":3949:3953   */\n  dup3\n    /* \"#utility.yul\":3945:3957   */\n  and\n    /* \"#utility.yul\":3976:3994   */\n  dup1\n    /* \"#utility.yul\":3966:4047   */\n  tag_145\n  jumpi\n    /* \"#utility.yul\":4032:4036   */\n  0x7f\n    /* \"#utility.yul\":4024:4030   */\n  dup3\n    /* \"#utility.yul\":4020:4037   */\n  and\n    /* \"#utility.yul\":4010:4037   */\n  swap2\n  pop\n    /* \"#utility.yul\":3966:4047   */\ntag_145:\n    /* \"#utility.yul\":4094:4096   */\n  0x20\n    /* \"#utility.yul\":4086:4092   */\n  dup3\n    /* \"#utility.yul\":4083:4097   */\n  lt\n    /* \"#utility.yul\":4063:4081   */\n  dup2\n    /* \"#utility.yul\":4060:4098   */\n  sub\n    /* \"#utility.yul\":4057:4141   */\n  tag_146\n  jumpi\n    /* \"#utility.yul\":4113:4131   */\n  tag_147\n  tag_74\n  jump\t// in\ntag_147:\n    /* \"#utility.yul\":4057:4141   */\ntag_146:\n    /* \"#utility.yul\":3878:4147   */\n  pop\n    /* \"#utility.yul\":3827:4147   */\n  swap2\n  swap1\n  pop\n  jump\t// out\n    /* \"#utility.yul\":4153:4294   */\ntag_75:\n    /* \"#utility.yul\":4202:4206   */\n  0x00\n    /* \"#utility.yul\":4225:4228   */\n  dup2\n    /* \"#utility.yul\":4217:4228   */\n  swap1\n  pop\n    /* \"#utility.yul\":4248:4251   */\n  dup2\n    /* \"#utility.yul\":4245:4246   */\n  0x00\n    /* \"#utility.yul\":4238:4252   */\n  mstore\n    /* \"#utility.yul\":4282:4286   */\n  0x20\n    /* \"#utility.yul\":4279:4280   */\n  0x00\n    /* \"#utility.yul\":4269:4287   */\n  keccak256\n    /* \"#utility.yul\":4261:4287   */\n  swap1\n  pop\n    /* \"#utility.yul\":4153:4294   */\n  swap2\n  swap1\n  pop\n  jump\t// out\n    /* \"#utility.yul\":4300:4393   */\ntag_76:\n    /* \"#utility.yul\":4337:4343   */\n  0x00\n    /* \"#utility.yul\":4384:4386   */\n  0x20\n    /* \"#utility.yul\":4379:4381   */\n  0x1f\n    /* \"#utility.yul\":4372:4377   */\n  dup4\n    /* \"#utility.yul\":4368:4382   */\n  add\n    /* \"#utility.yul\":4364:4387   */\n  div\n    /* \"#utility.yul\":4354:4387   */\n  swap1\n  pop\n    /* \"#utility.yul\":4300:4393   */\n  swap2\n  swap1\n  pop\n  jump\t// out\n    /* \"#utility.yul\":4399:4506   */\ntag_77:\n    /* \"#utility.yul\":4443:4451   */\n  0x00\n    /* \"#utility.yul\":4493:4498   */\n  dup3\n    /* \"#utility.yul\":4487:4491   */\n  dup3\n    /* \"#utility.yul\":4483:4499   */\n  shl\n    /* \"#utility.yul\":4462:4499   */\n  swap1\n  pop\n    /* \"#utility.yul\":4399:4506   */\n  swap3\n  swap2\n  pop\n  pop\n  jump\t// out\n    /* \"#utility.yul\":4512:4905   */\ntag_78:\n    /* \"#utility.yul\":4581:4587   */\n  0x00\n    /* \"#utility.yul\":4631:4632   */\n  0x08\n    /* \"#utility.yul\":4619:4629   */\n  dup4\n    /* \"#utility.yul\":4615:4633   */\n  mul\n    /* \"#utility.yul\":4654:4751   */\n  tag_152\n    /* \"#utility.yul\":4684:4750   */\n  0xffffffffffffffffffffffffffffffffffffffffffffffffffffffffffffffff\n    /* \"#utility.yul\":4673:4682   */\n  dup3\n    /* \"#utility.yul\":4654:4751   */\n  tag_77\n  jump\t// in\ntag_152:\n    /* \"#utility.yul\":4772:4811   */\n  tag_153\n    /* \"#utility.yul\":4802:4810   */\n  dup7\n    /* \"#utility.yul\":4791:4800   */\n  dup4\n    /* \"#utility.yul\":4772:4811   */\n  tag_77\n  jump\t// in\ntag_153:\n    /* \"#utility.yul\":4760:4811   */\n  swap6\n  pop\n    /* \"#utility.yul\":4844:4848   */\n  dup1\n    /* \"#utility.yul\":4840:4849   */\n  not\n    /* \"#utility.yul\":4833:4838   */\n  dup5\n    /* \"#utility.yul\":4829:4850   */\n  and\n    /* \"#utility.yul\":4820:4850   */\n  swap4\n  pop\n    /* \"#utility.yul\":4893:4897   */\n  dup1\n    /* \"#utility.yul\":4883:4891   */\n  dup7\n    /* \"#utility.yul\":4879:4898   */\n  and\n    /* \"#utility.yul\":4872:4877   */\n  dup5\n    /* \"#utility.yul\":4869:4899   */\n  or\n    /* \"#utility.yul\":4859:4899   */\n  swap3\n  pop\n    /* \"#utility.yul\":4588:4905   */\n  pop\n  pop\n    /* \"#utility.yul\":4512:4905   */\n  swap4\n  swap3\n  pop\n  pop\n  pop\n  jump\t// out\n    /* \"#utility.yul\":4911:4988   */\ntag_79:\n    /* \"#utility.yul\":4948:4955   */\n  0x00\n    /* \"#utility.yul\":4977:4982   */\n  dup2\n    /* \"#utility.yul\":4966:4982   */\n  swap1\n  pop\n    /* \"#utility.yul\":4911:4988   */\n  swap2\n  swap1\n  pop\n  jump\t// out\n    /* \"#utility.yul\":4994:5054   */\ntag_80:\n    /* \"#utility.yul\":5022:5025   */\n  0x00\n    /* \"#utility.yul\":5043:5048   */\n  dup2\n    /* \"#utility.yul\":5036:5048   */\n  swap1\n  pop\n    /* \"#utility.yul\":4994:5054   */\n  swap2\n  swap1\n  pop\n  jump\t// out\n    /* \"#utility.yul\":5060:5202   */\ntag_81:\n    /* \"#utility.yul\":5110:5119   */\n  0x00\n    /* \"#utility.yul\":5143:5196   */\n  tag_157\n    /* \"#utility.yul\":5161:5195   */\n  tag_158\n    /* \"#utility.yul\":5170:5194   */\n  tag_159\n    /* \"#utility.yul\":5188:5193   */\n  dup5\n    /* \"#utility.yul\":5170:5194   */\n  tag_79\n  jump\t// in\ntag_159:\n    /* \"#utility.yul\":5161:5195   */\n  tag_80\n  jump\t// in\ntag_158:\n    /* \"#utility.yul\":5143:5196   */\n  tag_79\n  jump\t// in\ntag_157:\n    /* \"#utility.yul\":5130:5196   */\n  swap1\n  pop\n    /* \"#utility.yul\":5060:5202   */\n  swap2\n  swap1\n  pop\n  jump\t// out\n    /* \"#utility.yul\":5208:5283   */\ntag_82:\n    /* \"#utility.yul\":5251:5254   */\n  0x00\n    /* \"#utility.yul\":5272:5277   */\n  dup2\n    /* \"#utility.yul\":5265:5277   */\n  swap1\n  pop\n    /* \"#utility.yul\":5208:5283   */\n  swap2\n  swap1\n  pop\n  jump\t// out\n    /* \"#utility.yul\":5289:5558   */\ntag_83:\n    /* \"#utility.yul\":5399:5438   */\n  tag_162\n    /* \"#utility.yul\":5430:5437   */\n  dup4\n    /* \"#utility.yul\":5399:5438   */\n  tag_81\n  jump\t// in\ntag_162:\n    /* \"#utility.yul\":5460:5551   */\n  tag_163\n    /* \"#utility.yul\":5509:5550   */\n  tag_164\n    /* \"#utility.yul\":5533:5549   */\n  dup3\n    /* \"#utility.yul\":5509:5550   */\n  tag_82\n  jump\t// in\ntag_164:\n    /* \"#utility.yul\":5501:5507   */\n  dup5\n    /* \"#utility.yul\":5494:5498   */\n  dup5\n    /* \"#utility.yul\":5488:5499   */\n  sload\n    /* \"#utility.yul\":5460:5551   */\n  tag_78\n  jump\t// in\ntag_163:\n    /* \"#utility.yul\":5454:5458   */\n  dup3\n    /* \"#utility.yul\":5447:5552   */\n  sstore\n    /* \"#utility.yul\":5365:5558   */\n  pop\n    /* \"#utility.yul\":5289:5558   */\n  pop\n  pop\n  pop\n  jump\t// out\n    /* \"#utility.yul\":5564:5637   */\ntag_84:\n    /* \"#utility.yul\":5609:5612   */\n  0x00\n    /* \"#utility.yul\":5564:5637   */\n  swap1\n  jump\t// out\n    /* \"#utility.yul\":5643:5832   */\ntag_85:\n    /* \"#utility.yul\":5720:5752   */\n  tag_167\n  tag_84\n  jump\t// in\ntag_167:\n    /* \"#utility.yul\":5761:5826   */\n  tag_168\n    /* \"#utility.yul\":5819:5825   */\n  dup2\n    /* \"#utility.yul\":5811:5817   */\n  dup5\n    /* \"#utility.yul\":5805:5809   */\n  dup5\n    /* \"#utility.yul\":5761:5826   */\n  tag_83\n  jump\t// in\ntag_168:\n    /* \"#utility.yul\":5696:5832   */\n  pop\n    /* \"#utility.yul\":5643:5832   */\n  pop\n  pop\n  jump\t// out\n    /* \"#utility.yul\":5838:6024   */\ntag_86:\n    /* \"#utility.yul\":5898:6018   */\ntag_170:\n    /* \"#utility.yul\":5915:5918   */\n  dup2\n    /* \"#utility.yul\":5908:5913   */\n  dup2\n    /* \"#utility.yul\":5905:5919   */\n  lt\n    /* \"#utility.yul\":5898:6018   */\n  iszero\n  tag_172\n  jumpi\n    /* \"#utility.yul\":5969:6008   */\n  tag_173\n    /* \"#utility.yul\":6006:6007   */\n  0x00\n    /* \"#utility.yul\":5999:6004   */\n  dup3\n    /* \"#utility.yul\":5969:6008   */\n  tag_85\n  jump\t// in\ntag_173:\n    /* \"#utility.yul\":5942:5943   */\n  0x01\n    /* \"#utility.yul\":5935:5940   */\n  dup2\n    /* \"#utility.yul\":5931:5944   */\n  add\n    /* \"#utility.yul\":5922:5944   */\n  swap1\n  pop\n    /* \"#utility.yul\":5898:6018   */\n  jump(tag_170)\ntag_172:\n    /* \"#utility.yul\":5838:6024   */\n  pop\n  pop\n  jump\t// out\n    /* \"#utility.yul\":6030:6573   */\ntag_87:\n    /* \"#utility.yul\":6131:6133   */\n  0x1f\n    /* \"#utility.yul\":6126:6129   */\n  dup3\n    /* \"#utility.yul\":6123:6134   */\n  gt\n    /* \"#utility.yul\":6120:6566   */\n  iszero\n  tag_175\n  jumpi\n    /* \"#utility.yul\":6165:6203   */\n  tag_176\n    /* \"#utility.yul\":6197:6202   */\n  dup2\n    /* \"#utility.yul\":6165:6203   */\n  tag_75\n  jump\t// in\ntag_176:\n    /* \"#utility.yul\":6249:6278   */\n  tag_177\n    /* \"#utility.yul\":6267:6277   */\n  dup5\n    /* \"#utility.yul\":6249:6278   */\n  tag_76\n  jump\t// in\ntag_177:\n    /* \"#utility.yul\":6239:6247   */\n  dup2\n    /* \"#utility.yul\":6235:6279   */\n  add\n    /* \"#utility.yul\":6432:6434   */\n  0x20\n    /* \"#utility.yul\":6420:6430   */\n  dup6\n    /* \"#utility.yul\":6417:6435   */\n  lt\n    /* \"#utility.yul\":6414:6463   */\n  iszero\n  tag_178\n  jumpi\n    /* \"#utility.yul\":6453:6461   */\n  dup2\n    /* \"#utility.yul\":6438:6461   */\n  swap1\n  pop\n    /* \"#utility.yul\":6414:6463   */\ntag_178:\n    /* \"#utility.yul\":6476:6556   */\n  tag_179\n    /* \"#utility.yul\":6532:6554   */\n  tag_180\n    /* \"#utility.yul\":6550:6553   */\n  dup6\n    /* \"#utility.yul\":6532:6554   */\n  tag_76\n  jump\t// in\ntag_180:\n    /* \"#utility.yul\":6522:6530   */\n  dup4\n    /* \"#utility.yul\":6518:6555   */\n  add\n    /* \"#utility.yul\":6505:6516   */\n  dup3\n    /* \"#utility.yul\":6476:6556   */\n  tag_86\n  jump\t// in\ntag_179:\n    /* \"#utility.yul\":6135:6566   */\n  pop\n  pop\n    /* \"#utility.yul\":6120:6566   */\ntag_175:\n    /* \"#utility.yul\":6030:6573   */\n  pop\n  pop\n  pop\n  jump\t// out\n    /* \"#utility.yul\":6579:6696   */\ntag_88:\n    /* \"#utility.yul\":6633:6641   */\n  0x00\n    /* \"#utility.yul\":6683:6688   */\n  dup3\n    /* \"#utility.yul\":6677:6681   */\n  dup3\n    /* \"#utility.yul\":6673:6689   */\n  shr\n    /* \"#utility.yul\":6652:6689   */\n  swap1\n  pop\n    /* \"#utility.yul\":6579:6696   */\n  swap3\n  swap2\n  pop\n  pop\n  jump\t// out\n    /* \"#utility.yul\":6702:6871   */\ntag_89:\n    /* \"#utility.yul\":6746:6752   */\n  0x00\n    /* \"#utility.yul\":6779:6830   */\n  tag_183\n    /* \"#utility.yul\":6827:6828   */\n  0x00\n    /* \"#utility.yul\":6823:6829   */\n  not\n    /* \"#utility.yul\":6815:6820   */\n  dup5\n    /* \"#utility.yul\":6812:6813   */\n  0x08\n    /* \"#utility.yul\":6808:6821   */\n  mul\n    /* \"#utility.yul\":6779:6830   */\n  tag_88\n  jump\t// in\ntag_183:\n    /* \"#utility.yul\":6775:6831   */\n  not\n    /* \"#utility.yul\":6860:6864   */\n  dup1\n    /* \"#utility.yul\":6854:6858   */\n  dup4\n    /* \"#utility.yul\":6850:6865   */\n  and\n    /* \"#utility.yul\":6840:6865   */\n  swap2\n  pop\n    /* \"#utility.yul\":6753:6871   */\n  pop\n    /* \"#utility.yul\":6702:6871   */\n  swap3\n  swap2\n  pop\n  pop\n  jump\t// out\n    /* \"#utility.yul\":6876:7171   */\ntag_90:\n    /* \"#utility.yul\":6952:6956   */\n  0x00\n    /* \"#utility.yul\":7098:7127   */\n  tag_185\n    /* \"#utility.yul\":7123:7126   */\n  dup4\n    /* \"#utility.yul\":7117:7121   */\n  dup4\n    /* \"#utility.yul\":7098:7127   */\n  tag_89\n  jump\t// in\ntag_185:\n    /* \"#utility.yul\":7090:7127   */\n  swap2\n  pop\n    /* \"#utility.yul\":7160:7163   */\n  dup3\n    /* \"#utility.yul\":7157:7158   */\n  0x02\n    /* \"#utility.yul\":7153:7164   */\n  mul\n    /* \"#utility.yul\":7147:7151   */\n  dup3\n    /* \"#utility.yul\":7144:7165   */\n  or\n    /* \"#utility.yul\":7136:7165   */\n  swap1\n  pop\n    /* \"#utility.yul\":6876:7171   */\n  swap3\n  swap2\n  pop\n  pop\n  jump\t// out\n    /* \"#utility.yul\":7176:8571   */\ntag_11:\n    /* \"#utility.yul\":7293:7330   */\n  tag_187\n    /* \"#utility.yul\":7326:7329   */\n  dup3\n    /* \"#utility.yul\":7293:7330   */\n  tag_73\n  jump\t// in\ntag_187:\n    /* \"#utility.yul\":7395:7413   */\n  0xffffffffffffffff\n    /* \"#utility.yul\":7387:7393   */\n  dup2\n    /* \"#utility.yul\":7384:7414   */\n  gt\n    /* \"#utility.yul\":7381:7437   */\n  iszero\n  tag_188\n  jumpi\n    /* \"#utility.yul\":7417:7435   */\n  tag_189\n  tag_66\n  jump\t// in\ntag_189:\n    /* \"#utility.yul\":7381:7437   */\ntag_188:\n    /* \"#utility.yul\":7461:7499   */\n  tag_190\n    /* \"#utility.yul\":7493:7497   */\n  dup3\n    /* \"#utility.yul\":7487:7498   */\n  sload\n    /* \"#utility.yul\":7461:7499   */\n  tag_53\n  jump\t// in\ntag_190:\n    /* \"#utility.yul\":7546:7613   */\n  tag_191\n    /* \"#utility.yul\":7606:7612   */\n  dup3\n    /* \"#utility.yul\":7598:7604   */\n  dup3\n    /* \"#utility.yul\":7592:7596   */\n  dup6\n    /* \"#utility.yul\":7546:7613   */\n  tag_87\n  jump\t// in\ntag_191:\n    /* \"#utility.yul\":7640:7641   */\n  0x00\n    /* \"#utility.yul\":7664:7668   */\n  0x20\n    /* \"#utility.yul\":7651:7668   */\n  swap1\n  pop\n    /* \"#utility.yul\":7696:7698   */\n  0x1f\n    /* \"#utility.yul\":7688:7694   */\n  dup4\n    /* \"#utility.yul\":7685:7699   */\n  gt\n    /* \"#utility.yul\":7713:7714   */\n  0x01\n    /* \"#utility.yul\":7708:8326   */\n  dup2\n  eq\n  tag_193\n  jumpi\n    /* \"#utility.yul\":8370:8371   */\n  0x00\n    /* \"#utility.yul\":8387:8393   */\n  dup5\n    /* \"#utility.yul\":8384:8461   */\n  iszero\n  tag_194\n  jumpi\n    /* \"#utility.yul\":8436:8445   */\n  dup3\n    /* \"#utility.yul\":8431:8434   */\n  dup8\n    /* \"#utility.yul\":8427:8446   */\n  add\n    /* \"#utility.yul\":8421:8447   */\n  mload\n    /* \"#utility.yul\":8412:8447   */\n  swap1\n  pop\n    /* \"#utility.yul\":8384:8461   */\ntag_194:\n    /* \"#utility.yul\":8487:8554   */\n  tag_195\n    /* \"#utility.yul\":8547:8553   */\n  dup6\n    /* \"#utility.yul\":8540:8545   */\n  dup3\n    /* \"#utility.yul\":8487:8554   */\n  tag_90\n  jump\t// in\ntag_195:\n    /* \"#utility.yul\":8481:8485   */\n  dup7\n    /* \"#utility.yul\":8474:8555   */\n  sstore\n    /* \"#utility.yul\":8343:8565   */\n  pop\n    /* \"#utility.yul\":7678:8565   */\n  jump(tag_192)\n    /* \"#utility.yul\":7708:8326   */\ntag_193:\n    /* \"#utility.yul\":7760:7764   */\n  0x1f\n    /* \"#utility.yul\":7756:7765   */\n  not\n    /* \"#utility.yul\":7748:7754   */\n  dup5\n    /* \"#utility.yul\":7744:7766   */\n  and\n    /* \"#utility.yul\":7794:7831   */\n  tag_196\n    /* \"#utility.yul\":7826:7830   */\n  dup7\n    /* \"#utility.yul\":7794:7831   */\n  tag_75\n  jump\t// in\ntag_196:\n    /* \"#utility.yul\":7853:7854   */\n  0x00\n    /* \"#utility.yul\":7867:8075   */\ntag_197:\n    /* \"#utility.yul\":7881:7888   */\n  dup3\n    /* \"#utility.yul\":7878:7879   */\n  dup2\n    /* \"#utility.yul\":7875:7889   */\n  lt\n    /* \"#utility.yul\":7867:8075   */\n  iszero\n  tag_199\n  jumpi\n    /* \"#utility.yul\":7960:7969   */\n  dup5\n    /* \"#utility.yul\":7955:7958   */\n  dup10\n    /* \"#utility.yul\":7951:7970   */\n  add\n    /* \"#utility.yul\":7945:7971   */\n  mload\n    /* \"#utility.yul\":7937:7943   */\n  dup3\n    /* \"#utility.yul\":7930:7972   */\n  sstore\n    /* \"#utility.yul\":8011:8012   */\n  0x01\n    /* \"#utility.yul\":8003:8009   */\n  dup3\n    /* \"#utility.yul\":7999:8013   */\n  add\n    /* \"#utility.yul\":7989:8013   */\n  swap2\n  pop\n    /* \"#utility.yul\":8058:8060   */\n  0x20\n    /* \"#utility.yul\":8047:8056   */\n  dup6\n    /* \"#utility.yul\":8043:8061   */\n  add\n    /* \"#utility.yul\":8030:8061   */\n  swap5\n  pop\n    /* \"#utility.yul\":7904:7908   */\n  0x20\n    /* \"#utility.yul\":7901:7902   */\n  dup2\n    /* \"#utility.yul\":7897:7909   */\n  add\n    /* \"#utility.yul\":7892:7909   */\n  swap1\n  pop\n    /* \"#utility.yul\":7867:8075   */\n  jump(tag_197)\ntag_199:\n    /* \"#utility.yul\":8103:8109   */\n  dup7\n    /* \"#utility.yul\":8094:8101   */\n  dup4\n    /* \"#utility.yul\":8091:8110   */\n  lt\n    /* \"#utility.yul\":8088:8267   */\n  iszero\n  tag_200\n  jumpi\n    /* \"#utility.yul\":8161:8170   */\n  dup5\n    /* \"#utility.yul\":8156:8159   */\n  dup10\n    /* \"#utility.yul\":8152:8171   */\n  add\n    /* \"#utility.yul\":8146:8172   */\n  mload\n    /* \"#utility.yul\":8204:8252   */\n  tag_201\n    /* \"#utility.yul\":8246:8250   */\n  0x1f\n    /* \"#utility.yul\":8238:8244   */\n  dup10\n    /* \"#utility.yul\":8234:8251   */\n  and\n    /* \"#utility.yul\":8223:8232   */\n  dup3\n    /* \"#utility.yul\":8204:8252   */\n  tag_89\n  jump\t// in\ntag_201:\n    /* \"#utility.yul\":8196:8202   */\n  dup4\n    /* \"#utility.yul\":8189:8253   */\n  sstore\n    /* \"#utility.yul\":8111:8267   */\n  pop\n    /* \"#utility.yul\":8088:8267   */\ntag_200:\n    /* \"#utility.yul\":8313:8314   */\n  0x01\n    /* \"#utility.yul\":8309:8310   */\n  0x02\n    /* \"#utility.yul\":8301:8307   */\n  dup9\n    /* \"#utility.yul\":8297:8311   */\n  mul\n    /* \"#utility.yul\":8293:8315   */\n  add\n    /* \"#utility.yul\":8287:8291   */\n  dup9\n    /* \"#utility.yul\":8280:8316   */\n  sstore\n    /* \"#utility.yul\":7715:8326   */\n  pop\n  pop\n  pop\n    /* \"#utility.yul\":7678:8565   */\ntag_192:\n  pop\n    /* \"#utility.yul\":7268:8571   */\n  pop\n  pop\n  pop\n    /* \"#utility.yul\":7176:8571   */\n  pop\n  pop\n  jump\t// out\n    /* \"#utility.yul\":8577:8757   */\ntag_91:\n    /* \"#utility.yul\":8625:8702   */\n  0x4e487b7100000000000000000000000000000000000000000000000000000000\n    /* \"#utility.yul\":8622:8623   */\n  0x00\n    /* \"#utility.yul\":8615:8703   */\n  mstore\n    /* \"#utility.yul\":8722:8726   */\n  0x11\n    /* \"#utility.yul\":8719:8720   */\n  0x04\n    /* \"#utility.yul\":8712:8727   */\n  mstore\n    /* \"#utility.yul\":8746:8750   */\n  0x24\n    /* \"#utility.yul\":8743:8744   */\n  0x00\n    /* \"#utility.yul\":8736:8751   */\n  revert\n    /* \"#utility.yul\":8763:8865   */\ntag_92:\n    /* \"#utility.yul\":8805:8813   */\n  0x00\n    /* \"#utility.yul\":8852:8857   */\n  dup2\n    /* \"#utility.yul\":8849:8850   */\n  0x01\n    /* \"#utility.yul\":8845:8858   */\n  shr\n    /* \"#utility.yul\":8824:8858   */\n  swap1\n  pop\n    /* \"#utility.yul\":8763:8865   */\n  swap2\n  swap1\n  pop\n  jump\t// out\n    /* \"#utility.yul\":8871:9719   */\ntag_93:\n    /* \"#utility.yul\":8932:8937   */\n  0x00\n    /* \"#utility.yul\":8939:8943   */\n  dup1\n    /* \"#utility.yul\":8963:8969   */\n  dup3\n    /* \"#utility.yul\":8954:8969   */\n  swap2\n  pop\n    /* \"#utility.yul\":8987:8992   */\n  dup4\n    /* \"#utility.yul\":8978:8992   */\n  swap1\n  pop\n    /* \"#utility.yul\":9001:9713   */\ntag_205:\n    /* \"#utility.yul\":9022:9023   */\n  0x01\n    /* \"#utility.yul\":9012:9020   */\n  dup6\n    /* \"#utility.yul\":9009:9024   */\n  gt\n    /* \"#utility.yul\":9001:9713   */\n  iszero\n  tag_207\n  jumpi\n    /* \"#utility.yul\":9117:9121   */\n  dup1\n    /* \"#utility.yul\":9112:9115   */\n  dup7\n    /* \"#utility.yul\":9108:9122   */\n  div\n    /* \"#utility.yul\":9102:9106   */\n  dup2\n    /* \"#utility.yul\":9099:9123   */\n  gt\n    /* \"#utility.yul\":9096:9146   */\n  iszero\n  tag_208\n  jumpi\n    /* \"#utility.yul\":9126:9144   */\n  tag_209\n  tag_91\n  jump\t// in\ntag_209:\n    /* \"#utility.yul\":9096:9146   */\ntag_208:\n    /* \"#utility.yul\":9176:9177   */\n  0x01\n    /* \"#utility.yul\":9166:9174   */\n  dup6\n    /* \"#utility.yul\":9162:9178   */\n  and\n    /* \"#utility.yul\":9159:9610   */\n  iszero\n  tag_210\n  jumpi\n    /* \"#utility.yul\":9591:9595   */\n  dup1\n    /* \"#utility.yul\":9584:9589   */\n  dup3\n    /* \"#utility.yul\":9580:9596   */\n  mul\n    /* \"#utility.yul\":9571:9596   */\n  swap2\n  pop\n    /* \"#utility.yul\":9159:9610   */\ntag_210:\n    /* \"#utility.yul\":9641:9645   */\n  dup1\n    /* \"#utility.yul\":9635:9639   */\n  dup2\n    /* \"#utility.yul\":9631:9646   */\n  mul\n    /* \"#utility.yul\":9623:9646   */\n  swap1\n  pop\n    /* \"#utility.yul\":9671:9703   */\n  tag_211\n    /* \"#utility.yul\":9694:9702   */\n  dup6\n    /* \"#utility.yul\":9671:9703   */\n  tag_92\n  jump\t// in\ntag_211:\n    /* \"#utility.yul\":9659:9703   */\n  swap5\n  pop\n    /* \"#utility.yul\":9001:9713   */\n  jump(tag_205)\ntag_207:\n    /* \"#utility.yul\":8871:9719   */\n  swap5\n  pop\n  swap5\n  swap3\n  pop\n  pop\n  pop\n  jump\t// out\n    /* \"#utility.yul\":9725:10798   */\ntag_94:\n    /* \"#utility.yul\":9779:9784   */\n  0x00\n    /* \"#utility.yul\":9970:9978   */\n  dup3\n    /* \"#utility.yul\":9960:10000   */\n  tag_213\n  jumpi\n    /* \"#utility.yul\":9991:9992   */\n  0x01\n    /* \"#utility.yul\":9982:9992   */\n  swap1\n  pop\n    /* \"#utility.yul\":9993:9998   */\n  jump(tag_212)\n    /* \"#utility.yul\":9960:10000   */\ntag_213:\n    /* \"#utility.yul\":10019:10023   */\n  dup2\n    /* \"#utility.yul\":10009:10045   */\n  tag_214\n  jumpi\n    /* \"#utility.yul\":10036:10037   */\n  0x00\n    /* \"#utility.yul\":10027:10037   */\n  swap1\n  pop\n    /* \"#utility.yul\":10038:10043   */\n  jump(tag_212)\n    /* \"#utility.yul\":10009:10045   */\ntag_214:\n    /* \"#utility.yul\":10105:10109   */\n  dup2\n    /* \"#utility.yul\":10153:10154   */\n  0x01\n    /* \"#utility.yul\":10148:10175   */\n  dup2\n  eq\n  tag_216\n  jumpi\n    /* \"#utility.yul\":10189:10190   */\n  0x02\n    /* \"#utility.yul\":10184:10375   */\n  dup2\n  eq\n  tag_217\n  jumpi\n    /* \"#utility.yul\":10098:10375   */\n  jump(tag_215)\n    /* \"#utility.yul\":10148:10175   */\ntag_216:\n    /* \"#utility.yul\":10166:10167   */\n  0x01\n    /* \"#utility.yul\":10157:10167   */\n  swap2\n  pop\n    /* \"#utility.yul\":10168:10173   */\n  pop\n  jump(tag_212)\n    /* \"#utility.yul\":10184:10375   */\ntag_217:\n    /* \"#utility.yul\":10229:10232   */\n  0xff\n    /* \"#utility.yul\":10219:10227   */\n  dup5\n    /* \"#utility.yul\":10216:10233   */\n  gt\n    /* \"#utility.yul\":10213:10256   */\n  iszero\n  tag_218\n  jumpi\n    /* \"#utility.yul\":10236:10254   */\n  tag_219\n  tag_91\n  jump\t// in\ntag_219:\n    /* \"#utility.yul\":10213:10256   */\ntag_218:\n    /* \"#utility.yul\":10285:10293   */\n  dup4\n    /* \"#utility.yul\":10282:10283   */\n  0x02\n    /* \"#utility.yul\":10278:10294   */\n  exp\n    /* \"#utility.yul\":10269:10294   */\n  swap2\n  pop\n    /* \"#utility.yul\":10320:10323   */\n  dup5\n    /* \"#utility.yul\":10313:10318   */\n  dup3\n    /* \"#utility.yul\":10310:10324   */\n  gt\n    /* \"#utility.yul\":10307:10347   */\n  iszero\n  tag_220\n  jumpi\n    /* \"#utility.yul\":10327:10345   */\n  tag_221\n  tag_91\n  jump\t// in\ntag_221:\n    /* \"#utility.yul\":10307:10347   */\ntag_220:\n    /* \"#utility.yul\":10360:10365   */\n  pop\n  jump(tag_212)\n    /* \"#utility.yul\":10098:10375   */\ntag_215:\n  pop\n    /* \"#utility.yul\":10484:10486   */\n  0x20\n    /* \"#utility.yul\":10474:10482   */\n  dup4\n    /* \"#utility.yul\":10471:10487   */\n  lt\n    /* \"#utility.yul\":10465:10468   */\n  0x0133\n    /* \"#utility.yul\":10459:10463   */\n  dup4\n    /* \"#utility.yul\":10456:10469   */\n  lt\n    /* \"#utility.yul\":10452:10488   */\n  and\n    /* \"#utility.yul\":10434:10436   */\n  0x4e\n    /* \"#utility.yul\":10424:10432   */\n  dup5\n    /* \"#utility.yul\":10421:10437   */\n  lt\n    /* \"#utility.yul\":10416:10418   */\n  0x0b\n    /* \"#utility.yul\":10410:10414   */\n  dup5\n    /* \"#utility.yul\":10407:10419   */\n  lt\n    /* \"#utility.yul\":10403:10438   */\n  and\n    /* \"#utility.yul\":10387:10498   */\n  or\n    /* \"#utility.yul\":10384:10630   */\n  iszero\n  tag_222\n  jumpi\n    /* \"#utility.yul\":10540:10548   */\n  dup3\n    /* \"#utility.yul\":10534:10538   */\n  dup3\n    /* \"#utility.yul\":10530:10549   */\n  exp\n    /* \"#utility.yul\":10521:10549   */\n  swap1\n  pop\n    /* \"#utility.yul\":10575:10578   */\n  dup4\n    /* \"#utility.yul\":10568:10573   */\n  dup2\n    /* \"#utility.yul\":10565:10579   */\n  gt\n    /* \"#utility.yul\":10562:10602   */\n  iszero\n  tag_223\n  jumpi\n    /* \"#utility.yul\":10582:10600   */\n  tag_224\n  tag_91\n  jump\t// in\ntag_224:\n    /* \"#utility.yul\":10562:10602   */\ntag_223:\n    /* \"#utility.yul\":10615:10620   */\n  jump(tag_212)\n    /* \"#utility.yul\":10384:10630   */\ntag_222:\n    /* \"#utility.yul\":10655:10697   */\n  tag_225\n    /* \"#utility.yul\":10693:10696   */\n  dup5\n    /* \"#utility.yul\":10683:10691   */\n  dup5\n    /* \"#utility.yul\":10677:10681   */\n  dup5\n    /* \"#utility.yul\":10674:10675   */\n  0x01\n    /* \"#utility.yul\":10655:10697   */\n  tag_93\n  jump\t// in\ntag_225:\n    /* \"#utility.yul\":10640:10697   */\n  swap3\n  pop\n  swap1\n  pop\n    /* \"#utility.yul\":10729:10733   */\n  dup2\n    /* \"#utility.yul\":10724:10727   */\n  dup5\n    /* \"#utility.yul\":10720:10734   */\n  div\n    /* \"#utility.yul\":10713:10718   */\n  dup2\n    /* \"#utility.yul\":10710:10735   */\n  gt\n    /* \"#utility.yul\":10707:10758   */\n  iszero\n  tag_226\n  jumpi\n    /* \"#utility.yul\":10738:10756   */\n  tag_227\n  tag_91\n  jump\t// in\ntag_227:\n    /* \"#utility.yul\":10707:10758   */\ntag_226:\n    /* \"#utility.yul\":10787:10791   */\n  dup2\n    /* \"#utility.yul\":10780:10785   */\n  dup2\n    /* \"#utility.yul\":10776:10792   */\n  mul\n    /* \"#utility.yul\":10767:10792   */\n  swap1\n  pop\n    /* \"#utility.yul\":9725:10798   */\ntag_212:\n  swap4\n  swap3\n  pop\n  pop\n  pop\n  jump\t// out\n    /* \"#utility.yul\":10804:10890   */\ntag_95:\n    /* \"#utility.yul\":10839:10846   */\n  0x00\n    /* \"#utility.yul\":10879:10883   */\n  0xff\n    /* \"#utility.yul\":10872:10877   */\n  dup3\n    /* \"#utility.yul\":10868:10884   */\n  and\n    /* \"#utility.yul\":10857:10884   */\n  swap1\n  pop\n    /* \"#utility.yul\":10804:10890   */\n  swap2\n  swap1\n  pop\n  jump\t// out\n    /* \"#utility.yul\":10896:11177   */\ntag_18:\n    /* \"#utility.yul\":10954:10959   */\n  0x00\n    /* \"#utility.yul\":10978:11001   */\n  tag_230\n    /* \"#utility.yul\":10996:11000   */\n  dup3\n    /* \"#utility.yul\":10978:11001   */\n  tag_79\n  jump\t// in\ntag_230:\n    /* \"#utility.yul\":10970:11001   */\n  swap2\n  pop\n    /* \"#utility.yul\":11022:11047   */\n  tag_231\n    /* \"#utility.yul\":11038:11046   */\n  dup4\n    /* \"#utility.yul\":11022:11047   */\n  tag_95\n  jump\t// in\ntag_231:\n    /* \"#utility.yul\":11010:11047   */\n  swap3\n  pop\n    /* \"#utility.yul\":11066:11170   */\n  tag_232\n    /* \"#utility.yul\":11103:11169   */\n  0xffffffffffffffffffffffffffffffffffffffffffffffffffffffffffffffff\n    /* \"#utility.yul\":11093:11101   */\n  dup5\n    /* \"#utility.yul\":11087:11091   */\n  dup5\n    /* \"#utility.yul\":11066:11170   */\n  tag_94\n  jump\t// in\ntag_232:\n    /* \"#utility.yul\":11057:11170   */\n  swap1\n  pop\n    /* \"#utility.yul\":10896:11177   */\n  swap3\n  swap2\n  pop\n  pop\n  jump\t// out\n    /* \"#utility.yul\":11183:11593   */\ntag_20:\n    /* \"#utility.yul\":11223:11230   */\n  0x00\n    /* \"#utility.yul\":11246:11266   */\n  tag_234\n    /* \"#utility.yul\":11264:11265   */\n  dup3\n    /* \"#utility.yul\":11246:11266   */\n  tag_79\n  jump\t// in\ntag_234:\n    /* \"#utility.yul\":11241:11266   */\n  swap2\n  pop\n    /* \"#utility.yul\":11280:11300   */\n  tag_235\n    /* \"#utility.yul\":11298:11299   */\n  dup4\n    /* \"#utility.yul\":11280:11300   */\n  tag_79\n  jump\t// in\ntag_235:\n    /* \"#utility.yul\":11275:11300   */\n  swap3\n  pop\n    /* \"#utility.yul\":11335:11336   */\n  dup3\n    /* \"#utility.yul\":11332:11333   */\n  dup3\n    /* \"#utility.yul\":11328:11337   */\n  mul\n    /* \"#utility.yul\":11357:11387   */\n  tag_236\n    /* \"#utility.yul\":11375:11386   */\n  dup2\n    /* \"#utility.yul\":11357:11387   */\n  tag_79\n  jump\t// in\ntag_236:\n    /* \"#utility.yul\":11346:11387   */\n  swap2\n  pop\n    /* \"#utility.yul\":11536:11537   */\n  dup3\n    /* \"#utility.yul\":11527:11534   */\n  dup3\n    /* \"#utility.yul\":11523:11538   */\n  div\n    /* \"#utility.yul\":11520:11521   */\n  dup5\n    /* \"#utility.yul\":11517:11539   */\n  eq\n    /* \"#utility.yul\":11497:11498   */\n  dup4\n    /* \"#utility.yul\":11490:11499   */\n  iszero\n    /* \"#utility.yul\":11470:11553   */\n  or\n    /* \"#utility.yul\":11447:11586   */\n  tag_237\n  jumpi\n    /* \"#utility.yul\":11566:11584   */\n  tag_238\n  tag_91\n  jump\t// in\ntag_238:\n    /* \"#utility.yul\":11447:11586   */\ntag_237:\n    /* \"#utility.yul\":11231:11593   */\n  pop\n    /* \"#utility.yul\":11183:11593   */\n  swap3\n  swap2\n  pop\n  pop\n  jump\t// out\n    /* \"#utility.yul\":11599:11725   */\ntag_96:\n    /* \"#utility.yul\":11636:11643   */\n  0x00\n    /* \"#utility.yul\":11676:11718   */\n  0xffffffffffffffffffffffffffffffffffffffff\n    /* \"#utility.yul\":11669:11674   */\n  dup3\n    /* \"#utility.yul\":11665:11719   */\n  and\n    /* \"#utility.yul\":11654:11719   */\n  swap1\n  pop\n    /* \"#utility.yul\":11599:11725   */\n  swap2\n  swap1\n  pop\n  jump\t// out\n    /* \"#utility.yul\":11731:11827   */\ntag_97:\n    /* \"#utility.yul\":11768:11775   */\n  0x00\n    /* \"#utility.yul\":11797:11821   */\n  tag_241\n    /* \"#utility.yul\":11815:11820   */\n  dup3\n    /* \"#utility.yul\":11797:11821   */\n  tag_96\n  jump\t// in\ntag_241:\n    /* \"#utility.yul\":11786:11821   */\n  swap1\n  pop\n    /* \"#utility.yul\":11731:11827   */\n  swap2\n  swap1\n  pop\n  jump\t// out\n    /* \"#utility.yul\":11833:11951   */\ntag_98:\n    /* \"#utility.yul\":11920:11944   */\n  tag_243\n    /* \"#utility.yul\":11938:11943   */\n  dup2\n    /* \"#utility.yul\":11920:11944   */\n  tag_97\n  jump\t// in\ntag_243:\n    /* \"#utility.yul\":11915:11918   */\n  dup3\n    /* \"#utility.yul\":11908:11945   */\n  mstore\n    /* \"#utility.yul\":11833:11951   */\n  pop\n  pop\n  jump\t// out\n    /* \"#utility.yul\":11957:12179   */\ntag_27:\n    /* \"#utility.yul\":12050:12054   */\n  0x00\n    /* \"#utility.yul\":12088:12090   */\n  0x20\n    /* \"#utility.yul\":12077:12086   */\n  dup3\n    /* \"#utility.yul\":12073:12091   */\n  add\n    /* \"#utility.yul\":12065:12091   */\n  swap1\n  pop\n    /* \"#utility.yul\":12101:12172   */\n  tag_245\n    /* \"#utility.yul\":12169:12170   */\n  0x00\n    /* \"#utility.yul\":12158:12167   */\n  dup4\n    /* \"#utility.yul\":12154:12171   */\n  add\n    /* \"#utility.yul\":12145:12151   */\n  dup5\n    /* \"#utility.yul\":12101:12172   */\n  tag_98\n  jump\t// in\ntag_245:\n    /* \"#utility.yul\":11957:12179   */\n  swap3\n  swap2\n  pop\n  pop\n  jump\t// out\n    /* \"#utility.yul\":12185:12376   */\ntag_33:\n    /* \"#utility.yul\":12225:12228   */\n  0x00\n    /* \"#utility.yul\":12244:12264   */\n  tag_247\n    /* \"#utility.yul\":12262:12263   */\n  dup3\n    /* \"#utility.yul\":12244:12264   */\n  tag_79\n  jump\t// in\ntag_247:\n    /* \"#utility.yul\":12239:12264   */\n  swap2\n  pop\n    /* \"#utility.yul\":12278:12298   */\n  tag_248\n    /* \"#utility.yul\":12296:12297   */\n  dup4\n    /* \"#utility.yul\":12278:12298   */\n  tag_79\n  jump\t// in\ntag_248:\n    /* \"#utility.yul\":12273:12298   */\n  swap3\n  pop\n    /* \"#utility.yul\":12321:12322   */\n  dup3\n    /* \"#utility.yul\":12318:12319   */\n  dup3\n    /* \"#utility.yul\":12314:12323   */\n  add\n    /* \"#utility.yul\":12307:12323   */\n  swap1\n  pop\n    /* \"#utility.yul\":12342:12345   */\n  dup1\n    /* \"#utility.yul\":12339:12340   */\n  dup3\n    /* \"#utility.yul\":12336:12346   */\n  gt\n    /* \"#utility.yul\":12333:12369   */\n  iszero\n  tag_249\n  jumpi\n    /* \"#utility.yul\":12349:12367   */\n  tag_250\n  tag_91\n  jump\t// in\ntag_250:\n    /* \"#utility.yul\":12333:12369   */\ntag_249:\n    /* \"#utility.yul\":12185:12376   */\n  swap3\n  swap2\n  pop\n  pop\n  jump\t// out\n    /* \"#utility.yul\":12382:12500   */\ntag_99:\n    /* \"#utility.yul\":12469:12493   */\n  tag_252\n    /* \"#utility.yul\":12487:12492   */\n  dup2\n    /* \"#utility.yul\":12469:12493   */\n  tag_79\n  jump\t// in\ntag_252:\n    /* \"#utility.yul\":12464:12467   */\n  dup3\n    /* \"#utility.yul\":12457:12494   */\n  mstore\n    /* \"#utility.yul\":12382:12500   */\n  pop\n  pop\n  jump\t// out\n    /* \"#utility.yul\":12506:12948   */\ntag_37:\n    /* \"#utility.yul\":12655:12659   */\n  0x00\n    /* \"#utility.yul\":12693:12695   */\n  0x60\n    /* \"#utility.yul\":12682:12691   */\n  dup3\n    /* \"#utility.yul\":12678:12696   */\n  add\n    /* \"#utility.yul\":12670:12696   */\n  swap1\n  pop\n    /* \"#utility.yul\":12706:12777   */\n  tag_254\n    /* \"#utility.yul\":12774:12775   */\n  0x00\n    /* \"#utility.yul\":12763:12772   */\n  dup4\n    /* \"#utility.yul\":12759:12776   */\n  add\n    /* \"#utility.yul\":12750:12756   */\n  dup7\n    /* \"#utility.yul\":12706:12777   */\n  tag_98\n  jump\t// in\ntag_254:\n    /* \"#utility.yul\":12787:12859   */\n  tag_255\n    /* \"#utility.yul\":12855:12857   */\n  0x20\n    /* \"#utility.yul\":12844:12853   */\n  dup4\n    /* \"#utility.yul\":12840:12858   */\n  add\n    /* \"#utility.yul\":12831:12837   */\n  dup6\n    /* \"#utility.yul\":12787:12859   */\n  tag_99\n  jump\t// in\ntag_255:\n    /* \"#utility.yul\":12869:12941   */\n  tag_256\n    /* \"#utility.yul\":12937:12939   */\n  0x40\n    /* \"#utility.yul\":12926:12935   */\n  dup4\n    /* \"#utility.yul\":12922:12940   */\n  add\n    /* \"#utility.yul\":12913:12919   */\n  dup5\n    /* \"#utility.yul\":12869:12941   */\n  tag_99\n  jump\t// in\ntag_256:\n    /* \"#utility.yul\":12506:12948   */\n  swap5\n  swap4\n  pop\n  pop\n  pop\n  pop\n  jump\t// out\n    /* \"#utility.yul\":12954:13176   */\ntag_41:\n    /* \"#utility.yul\":13047:13051   */\n  0x00\n    /* \"#utility.yul\":13085:13087   */\n  0x20\n    /* \"#utility.yul\":13074:13083   */\n  dup3\n    /* \"#utility.yul\":13070:13088   */\n  add\n    /* \"#utility.yul\":13062:13088   */\n  swap1\n  pop\n    /* \"#utility.yul\":13098:13169   */\n  tag_258\n    /* \"#utility.yul\":13166:13167   */\n  0x00\n    /* \"#utility.yul\":13155:13164   */\n  dup4\n    /* \"#utility.yul\":13151:13168   */\n  add\n    /* \"#utility.yul\":13142:13148   */\n  dup5\n    /* \"#utility.yul\":13098:13169   */\n  tag_99\n  jump\t// in\ntag_258:\n    /* \"#utility.yul\":12954:13176   */\n  swap3\n  swap2\n  pop\n  pop\n  jump\t// out\n    /* \"contracts/CoinMusme.sol\":136:3233  contract CoinMusme is ERC20 {... */\ntag_22:\n  dataSize(sub_0)\n  dup1\n  dataOffset(sub_0)\n  0x00\n  codecopy\n  0x00\n  return\nstop\ndata_611fcf90768f533ea33192c536b5d2c3db5d6c8c19f817c4a6bbc68d54b0ca17 68747470733a2f2f66312e746f6b656e706f73742e6b722f323032332f30392f396c6f7332676b356e742e706e67\ndata_73a6d2e6e759531154c1a0bb0e95f01a832acc61cefdfa266b8e61f5b6eeac7a 68747470733a2f2f63646e2e6e626e74762e636f2e6b722f6e6577732f70686f746f2f3230323330372f333030313034335f3230313531335f3332312e6a7067\ndata_d13ba52582fcd0f179f13e75f1522d826281a9b824a34210a641df595d98cb69 68747470733a2f2f6e696d6167652e672d656e6577732e636f6d2f7068707761732f726573746d625f616c6c6964786d616b652e7068703f6964783d352673696d673d323032333130313231333131303630323632386335666137356566383632313131383031323536312e6a7067\n\nsub_0: assembly {\n        /* \"contracts/CoinMusme.sol\":136:3233  contract CoinMusme is ERC20 {... */\n      mstore(0x40, 0x80)\n      callvalue\n      dup1\n      iszero\n      tag_1\n      jumpi\n      0x00\n      dup1\n      revert\n    tag_1:\n      pop\n      jumpi(tag_2, lt(calldatasize, 0x04))\n      shr(0xe0, calldataload(0x00))\n      dup1\n      0x545e163e\n      gt\n      tag_17\n      jumpi\n      dup1\n      0x95d89b41\n      gt\n      tag_18\n      jumpi\n      dup1\n      0x95d89b41\n      eq\n      tag_13\n      jumpi\n      dup1\n      0xa9059cbb\n      eq\n      tag_14\n      jumpi\n      dup1\n      0xbfaede13\n      eq\n      tag_15\n      jumpi\n      dup1\n      0xdd62ed3e\n      eq\n      tag_16\n      jumpi\n      jump(tag_2)\n    tag_18:\n      dup1\n      0x545e163e\n      eq\n      tag_10\n      jumpi\n      dup1\n      0x5dfac4e4\n      eq\n      tag_11\n      jumpi\n      dup1\n      0x70a08231\n      eq\n      tag_12\n      jumpi\n      jump(tag_2)\n    tag_17:\n      dup1\n      0x18160ddd\n      gt\n      tag_19\n      jumpi\n      dup1\n      0x18160ddd\n      eq\n      tag_6\n      jumpi\n      dup1\n      0x23b872dd\n      eq\n      tag_7\n      jumpi\n      dup1\n      0x313ce567\n      eq\n      tag_8\n      jumpi\n      dup1\n      0x365b98b2\n      eq\n      tag_9\n      jumpi\n      jump(tag_2)\n    tag_19:\n      dup1\n      0x03e276af\n      eq\n      tag_3\n      jumpi\n      dup1\n      0x06fdde03\n      eq\n      tag_4\n      jumpi\n      dup1\n      0x095ea7b3\n      eq\n      tag_5\n      jumpi\n    tag_2:\n      0x00\n      dup1\n      revert\n        /* \"contracts/CoinMusme.sol\":1762:1861  function getMusme() public view returns(Museme[] memory){... */\n    tag_3:\n      tag_20\n      tag_21\n      jump\t// in\n    tag_20:\n      mload(0x40)\n      tag_22\n      swap2\n      swap1\n      tag_23\n      jump\t// in\n    tag_22:\n      mload(0x40)\n      dup1\n      swap2\n      sub\n      swap1\n      return\n        /* \"node_modules/@openzeppelin/contracts/token/ERC20/ERC20.sol\":2074:2163  function name() public view virtual returns (string memory) {... */\n    tag_4:\n      tag_24\n      tag_25\n      jump\t// in\n    tag_24:\n      mload(0x40)\n      tag_26\n      swap2\n      swap1\n      tag_27\n      jump\t// in\n    tag_26:\n      mload(0x40)\n      dup1\n      swap2\n      sub\n      swap1\n      return\n        /* \"node_modules/@openzeppelin/contracts/token/ERC20/ERC20.sol\":4293:4479  function approve(address spender, uint256 value) public virtual returns (bool) {... */\n    tag_5:\n      tag_28\n      0x04\n      dup1\n      calldatasize\n      sub\n      dup2\n      add\n      swap1\n      tag_29\n      swap2\n      swap1\n      tag_30\n      jump\t// in\n    tag_29:\n      tag_31\n      jump\t// in\n    tag_28:\n      mload(0x40)\n      tag_32\n      swap2\n      swap1\n      tag_33\n      jump\t// in\n    tag_32:\n      mload(0x40)\n      dup1\n      swap2\n      sub\n      swap1\n      return\n        /* \"node_modules/@openzeppelin/contracts/token/ERC20/ERC20.sol\":3144:3241  function totalSupply() public view virtual returns (uint256) {... */\n    tag_6:\n      tag_34\n      tag_35\n      jump\t// in\n    tag_34:\n      mload(0x40)\n      tag_36\n      swap2\n      swap1\n      tag_37\n      jump\t// in\n    tag_36:\n      mload(0x40)\n      dup1\n      swap2\n      sub\n      swap1\n      return\n        /* \"node_modules/@openzeppelin/contracts/token/ERC20/ERC20.sol\":5039:5283  function transferFrom(address from, address to, uint256 value) public virtual returns (bool) {... */\n    tag_7:\n      tag_38\n      0x04\n      dup1\n      calldatasize\n      sub\n      dup2\n      add\n      swap1\n      tag_39\n      swap2\n      swap1\n      tag_40\n      jump\t// in\n    tag_39:\n      tag_41\n      jump\t// in\n    tag_38:\n      mload(0x40)\n      tag_42\n      swap2\n      swap1\n      tag_33\n      jump\t// in\n    tag_42:\n      mload(0x40)\n      dup1\n      swap2\n      sub\n      swap1\n      return\n        /* \"node_modules/@openzeppelin/contracts/token/ERC20/ERC20.sol\":3002:3084  function decimals() public view virtual returns (uint8) {... */\n    tag_8:\n      tag_43\n      tag_44\n      jump\t// in\n    tag_43:\n      mload(0x40)\n      tag_45\n      swap2\n      swap1\n      tag_46\n      jump\t// in\n    tag_45:\n      mload(0x40)\n      dup1\n      swap2\n      sub\n      swap1\n      return\n        /* \"contracts/CoinMusme.sol\":1617:1636  User[] public users */\n    tag_9:\n      tag_47\n      0x04\n      dup1\n      calldatasize\n      sub\n      dup2\n      add\n      swap1\n      tag_48\n      swap2\n      swap1\n      tag_49\n      jump\t// in\n    tag_48:\n      tag_50\n      jump\t// in\n    tag_47:\n      mload(0x40)\n      tag_51\n      swap2\n      swap1\n      tag_52\n      jump\t// in\n    tag_51:\n      mload(0x40)\n      dup1\n      swap2\n      sub\n      swap1\n      return\n        /* \"contracts/CoinMusme.sol\":1315:1357  mapping(address => Museme[]) public musmes */\n    tag_10:\n      tag_53\n      0x04\n      dup1\n      calldatasize\n      sub\n      dup2\n      add\n      swap1\n      tag_54\n      swap2\n      swap1\n      tag_30\n      jump\t// in\n    tag_54:\n      tag_55\n      jump\t// in\n    tag_53:\n      mload(0x40)\n      tag_56\n      swap3\n      swap2\n      swap1\n      tag_57\n      jump\t// in\n    tag_56:\n      mload(0x40)\n      dup1\n      swap2\n      sub\n      swap1\n      return\n        /* \"contracts/CoinMusme.sol\":1927:2012  function getMusmeUser() public view returns(User[] memory) {... */\n    tag_11:\n      tag_58\n      tag_59\n      jump\t// in\n    tag_58:\n      mload(0x40)\n      tag_60\n      swap2\n      swap1\n      tag_61\n      jump\t// in\n    tag_60:\n      mload(0x40)\n      dup1\n      swap2\n      sub\n      swap1\n      return\n        /* \"node_modules/@openzeppelin/contracts/token/ERC20/ERC20.sol\":3299:3415  function balanceOf(address account) public view virtual returns (uint256) {... */\n    tag_12:\n      tag_62\n      0x04\n      dup1\n      calldatasize\n      sub\n      dup2\n      add\n      swap1\n      tag_63\n      swap2\n      swap1\n      tag_64\n      jump\t// in\n    tag_63:\n      tag_65\n      jump\t// in\n    tag_62:\n      mload(0x40)\n      tag_66\n      swap2\n      swap1\n      tag_37\n      jump\t// in\n    tag_66:\n      mload(0x40)\n      dup1\n      swap2\n      sub\n      swap1\n      return\n        /* \"node_modules/@openzeppelin/contracts/token/ERC20/ERC20.sol\":2276:2369  function symbol() public view virtual returns (string memory) {... */\n    tag_13:\n      tag_67\n      tag_68\n      jump\t// in\n    tag_67:\n      mload(0x40)\n      tag_69\n      swap2\n      swap1\n      tag_27\n      jump\t// in\n    tag_69:\n      mload(0x40)\n      dup1\n      swap2\n      sub\n      swap1\n      return\n        /* \"node_modules/@openzeppelin/contracts/token/ERC20/ERC20.sol\":3610:3788  function transfer(address to, uint256 value) public virtual returns (bool) {... */\n    tag_14:\n      tag_70\n      0x04\n      dup1\n      calldatasize\n      sub\n      dup2\n      add\n      swap1\n      tag_71\n      swap2\n      swap1\n      tag_30\n      jump\t// in\n    tag_71:\n      tag_72\n      jump\t// in\n    tag_70:\n      mload(0x40)\n      tag_73\n      swap2\n      swap1\n      tag_33\n      jump\t// in\n    tag_73:\n      mload(0x40)\n      dup1\n      swap2\n      sub\n      swap1\n      return\n        /* \"contracts/CoinMusme.sol\":2044:3226  function buyMusme() public {... */\n    tag_15:\n      tag_74\n      tag_75\n      jump\t// in\n    tag_74:\n      stop\n        /* \"node_modules/@openzeppelin/contracts/token/ERC20/ERC20.sol\":3846:3986  function allowance(address owner, address spender) public view virtual returns (uint256) {... */\n    tag_16:\n      tag_76\n      0x04\n      dup1\n      calldatasize\n      sub\n      dup2\n      add\n      swap1\n      tag_77\n      swap2\n      swap1\n      tag_78\n      jump\t// in\n    tag_77:\n      tag_79\n      jump\t// in\n    tag_76:\n      mload(0x40)\n      tag_80\n      swap2\n      swap1\n      tag_37\n      jump\t// in\n    tag_80:\n      mload(0x40)\n      dup1\n      swap2\n      sub\n      swap1\n      return\n        /* \"contracts/CoinMusme.sol\":1762:1861  function getMusme() public view returns(Museme[] memory){... */\n    tag_21:\n        /* \"contracts/CoinMusme.sol\":1802:1817  Museme[] memory */\n      0x60\n        /* \"contracts/CoinMusme.sol\":1836:1842  musmes */\n      0x08\n        /* \"contracts/CoinMusme.sol\":1836:1854  musmes[msg.sender] */\n      0x00\n        /* \"contracts/CoinMusme.sol\":1843:1853  msg.sender */\n      caller\n        /* \"contracts/CoinMusme.sol\":1836:1854  musmes[msg.sender] */\n      0xffffffffffffffffffffffffffffffffffffffff\n      and\n      0xffffffffffffffffffffffffffffffffffffffff\n      and\n      dup2\n      mstore\n      0x20\n      add\n      swap1\n      dup2\n      mstore\n      0x20\n      add\n      0x00\n      keccak256\n        /* \"contracts/CoinMusme.sol\":1829:1854  return musmes[msg.sender] */\n      dup1\n      sload\n      dup1\n      0x20\n      mul\n      0x20\n      add\n      mload(0x40)\n      swap1\n      dup2\n      add\n      0x40\n      mstore\n      dup1\n      swap3\n      swap2\n      swap1\n      dup2\n      dup2\n      mstore\n      0x20\n      add\n      0x00\n      swap1\n    tag_82:\n      dup3\n      dup3\n      lt\n      iszero\n      tag_83\n      jumpi\n      dup4\n      dup3\n      swap1\n      0x00\n      mstore\n      keccak256(0x00, 0x20)\n      swap1\n      0x02\n      mul\n      add\n      mload(0x40)\n      dup1\n      0x40\n      add\n      0x40\n      mstore\n      swap1\n      dup2\n      0x00\n      dup3\n      add\n      dup1\n      sload\n      tag_85\n      swap1\n      tag_86\n      jump\t// in\n    tag_85:\n      dup1\n      0x1f\n      add\n      0x20\n      dup1\n      swap2\n      div\n      mul\n      0x20\n      add\n      mload(0x40)\n      swap1\n      dup2\n      add\n      0x40\n      mstore\n      dup1\n      swap3\n      swap2\n      swap1\n      dup2\n      dup2\n      mstore\n      0x20\n      add\n      dup3\n      dup1\n      sload\n      tag_87\n      swap1\n      tag_86\n      jump\t// in\n    tag_87:\n      dup1\n      iszero\n      tag_88\n      jumpi\n      dup1\n      0x1f\n      lt\n      tag_89\n      jumpi\n      0x0100\n      dup1\n      dup4\n      sload\n      div\n      mul\n      dup4\n      mstore\n      swap2\n      0x20\n      add\n      swap2\n      jump(tag_88)\n    tag_89:\n      dup3\n      add\n      swap2\n      swap1\n      0x00\n      mstore\n      keccak256(0x00, 0x20)\n      swap1\n    tag_90:\n      dup2\n      sload\n      dup2\n      mstore\n      swap1\n      0x01\n      add\n      swap1\n      0x20\n      add\n      dup1\n      dup4\n      gt\n      tag_90\n      jumpi\n      dup3\n      swap1\n      sub\n      0x1f\n      and\n      dup3\n      add\n      swap2\n    tag_88:\n      pop\n      pop\n      pop\n      pop\n      pop\n      dup2\n      mstore\n      0x20\n      add\n      0x01\n      dup3\n      add\n      dup1\n      sload\n      tag_91\n      swap1\n      tag_86\n      jump\t// in\n    tag_91:\n      dup1\n      0x1f\n      add\n      0x20\n      dup1\n      swap2\n      div\n      mul\n      0x20\n      add\n      mload(0x40)\n      swap1\n      dup2\n      add\n      0x40\n      mstore\n      dup1\n      swap3\n      swap2\n      swap1\n      dup2\n      dup2\n      mstore\n      0x20\n      add\n      dup3\n      dup1\n      sload\n      tag_92\n      swap1\n      tag_86\n      jump\t// in\n    tag_92:\n      dup1\n      iszero\n      tag_93\n      jumpi\n      dup1\n      0x1f\n      lt\n      tag_94\n      jumpi\n      0x0100\n      dup1\n      dup4\n      sload\n      div\n      mul\n      dup4\n      mstore\n      swap2\n      0x20\n      add\n      swap2\n      jump(tag_93)\n    tag_94:\n      dup3\n      add\n      swap2\n      swap1\n      0x00\n      mstore\n      keccak256(0x00, 0x20)\n      swap1\n    tag_95:\n      dup2\n      sload\n      dup2\n      mstore\n      swap1\n      0x01\n      add\n      swap1\n      0x20\n      add\n      dup1\n      dup4\n      gt\n      tag_95\n      jumpi\n      dup3\n      swap1\n      sub\n      0x1f\n      and\n      dup3\n      add\n      swap2\n    tag_93:\n      pop\n      pop\n      pop\n      pop\n      pop\n      dup2\n      mstore\n      pop\n      pop\n      dup2\n      mstore\n      0x20\n      add\n      swap1\n      0x01\n      add\n      swap1\n      jump(tag_82)\n    tag_83:\n      pop\n      pop\n      pop\n      pop\n      swap1\n      pop\n        /* \"contracts/CoinMusme.sol\":1762:1861  function getMusme() public view returns(Museme[] memory){... */\n      swap1\n      jump\t// out\n        /* \"node_modules/@openzeppelin/contracts/token/ERC20/ERC20.sol\":2074:2163  function name() public view virtual returns (string memory) {... */\n    tag_25:\n        /* \"node_modules/@openzeppelin/contracts/token/ERC20/ERC20.sol\":2119:2132  string memory */\n      0x60\n        /* \"node_modules/@openzeppelin/contracts/token/ERC20/ERC20.sol\":2151:2156  _name */\n      0x03\n        /* \"node_modules/@openzeppelin/contracts/token/ERC20/ERC20.sol\":2144:2156  return _name */\n      dup1\n      sload\n      tag_97\n      swap1\n      tag_86\n      jump\t// in\n    tag_97:\n      dup1\n      0x1f\n      add\n      0x20\n      dup1\n      swap2\n      div\n      mul\n      0x20\n      add\n      mload(0x40)\n      swap1\n      dup2\n      add\n      0x40\n      mstore\n      dup1\n      swap3\n      swap2\n      swap1\n      dup2\n      dup2\n      mstore\n      0x20\n      add\n      dup3\n      dup1\n      sload\n      tag_98\n      swap1\n      tag_86\n      jump\t// in\n    tag_98:\n      dup1\n      iszero\n      tag_99\n      jumpi\n      dup1\n      0x1f\n      lt\n      tag_100\n      jumpi\n      0x0100\n      dup1\n      dup4\n      sload\n      div\n      mul\n      dup4\n      mstore\n      swap2\n      0x20\n      add\n      swap2\n      jump(tag_99)\n    tag_100:\n      dup3\n      add\n      swap2\n      swap1\n      0x00\n      mstore\n      keccak256(0x00, 0x20)\n      swap1\n    tag_101:\n      dup2\n      sload\n      dup2\n      mstore\n      swap1\n      0x01\n      add\n      swap1\n      0x20\n      add\n      dup1\n      dup4\n      gt\n      tag_101\n      jumpi\n      dup3\n      swap1\n      sub\n      0x1f\n      and\n      dup3\n      add\n      swap2\n    tag_99:\n      pop\n      pop\n      pop\n      pop\n      pop\n      swap1\n      pop\n        /* \"node_modules/@openzeppelin/contracts/token/ERC20/ERC20.sol\":2074:2163  function name() public view virtual returns (string memory) {... */\n      swap1\n      jump\t// out\n        /* \"node_modules/@openzeppelin/contracts/token/ERC20/ERC20.sol\":4293:4479  function approve(address spender, uint256 value) public virtual returns (bool) {... */\n    tag_31:\n        /* \"node_modules/@openzeppelin/contracts/token/ERC20/ERC20.sol\":4366:4370  bool */\n      0x00\n        /* \"node_modules/@openzeppelin/contracts/token/ERC20/ERC20.sol\":4382:4395  address owner */\n      dup1\n        /* \"node_modules/@openzeppelin/contracts/token/ERC20/ERC20.sol\":4398:4410  _msgSender() */\n      tag_103\n        /* \"node_modules/@openzeppelin/contracts/token/ERC20/ERC20.sol\":4398:4408  _msgSender */\n      tag_104\n        /* \"node_modules/@openzeppelin/contracts/token/ERC20/ERC20.sol\":4398:4410  _msgSender() */\n      jump\t// in\n    tag_103:\n        /* \"node_modules/@openzeppelin/contracts/token/ERC20/ERC20.sol\":4382:4410  address owner = _msgSender() */\n      swap1\n      pop\n        /* \"node_modules/@openzeppelin/contracts/token/ERC20/ERC20.sol\":4420:4451  _approve(owner, spender, value) */\n      tag_105\n        /* \"node_modules/@openzeppelin/contracts/token/ERC20/ERC20.sol\":4429:4434  owner */\n      dup2\n        /* \"node_modules/@openzeppelin/contracts/token/ERC20/ERC20.sol\":4436:4443  spender */\n      dup6\n        /* \"node_modules/@openzeppelin/contracts/token/ERC20/ERC20.sol\":4445:4450  value */\n      dup6\n        /* \"node_modules/@openzeppelin/contracts/token/ERC20/ERC20.sol\":4420:4428  _approve */\n      tag_106\n        /* \"node_modules/@openzeppelin/contracts/token/ERC20/ERC20.sol\":4420:4451  _approve(owner, spender, value) */\n      jump\t// in\n    tag_105:\n        /* \"node_modules/@openzeppelin/contracts/token/ERC20/ERC20.sol\":4468:4472  true */\n      0x01\n        /* \"node_modules/@openzeppelin/contracts/token/ERC20/ERC20.sol\":4461:4472  return true */\n      swap2\n      pop\n      pop\n        /* \"node_modules/@openzeppelin/contracts/token/ERC20/ERC20.sol\":4293:4479  function approve(address spender, uint256 value) public virtual returns (bool) {... */\n      swap3\n      swap2\n      pop\n      pop\n      jump\t// out\n        /* \"node_modules/@openzeppelin/contracts/token/ERC20/ERC20.sol\":3144:3241  function totalSupply() public view virtual returns (uint256) {... */\n    tag_35:\n        /* \"node_modules/@openzeppelin/contracts/token/ERC20/ERC20.sol\":3196:3203  uint256 */\n      0x00\n        /* \"node_modules/@openzeppelin/contracts/token/ERC20/ERC20.sol\":3222:3234  _totalSupply */\n      sload(0x02)\n        /* \"node_modules/@openzeppelin/contracts/token/ERC20/ERC20.sol\":3215:3234  return _totalSupply */\n      swap1\n      pop\n        /* \"node_modules/@openzeppelin/contracts/token/ERC20/ERC20.sol\":3144:3241  function totalSupply() public view virtual returns (uint256) {... */\n      swap1\n      jump\t// out\n        /* \"node_modules/@openzeppelin/contracts/token/ERC20/ERC20.sol\":5039:5283  function transferFrom(address from, address to, uint256 value) public virtual returns (bool) {... */\n    tag_41:\n        /* \"node_modules/@openzeppelin/contracts/token/ERC20/ERC20.sol\":5126:5130  bool */\n      0x00\n        /* \"node_modules/@openzeppelin/contracts/token/ERC20/ERC20.sol\":5142:5157  address spender */\n      dup1\n        /* \"node_modules/@openzeppelin/contracts/token/ERC20/ERC20.sol\":5160:5172  _msgSender() */\n      tag_109\n        /* \"node_modules/@openzeppelin/contracts/token/ERC20/ERC20.sol\":5160:5170  _msgSender */\n      tag_104\n        /* \"node_modules/@openzeppelin/contracts/token/ERC20/ERC20.sol\":5160:5172  _msgSender() */\n      jump\t// in\n    tag_109:\n        /* \"node_modules/@openzeppelin/contracts/token/ERC20/ERC20.sol\":5142:5172  address spender = _msgSender() */\n      swap1\n      pop\n        /* \"node_modules/@openzeppelin/contracts/token/ERC20/ERC20.sol\":5182:5219  _spendAllowance(from, spender, value) */\n      tag_110\n        /* \"node_modules/@openzeppelin/contracts/token/ERC20/ERC20.sol\":5198:5202  from */\n      dup6\n        /* \"node_modules/@openzeppelin/contracts/token/ERC20/ERC20.sol\":5204:5211  spender */\n      dup3\n        /* \"node_modules/@openzeppelin/contracts/token/ERC20/ERC20.sol\":5213:5218  value */\n      dup6\n        /* \"node_modules/@openzeppelin/contracts/token/ERC20/ERC20.sol\":5182:5197  _spendAllowance */\n      tag_111\n        /* \"node_modules/@openzeppelin/contracts/token/ERC20/ERC20.sol\":5182:5219  _spendAllowance(from, spender, value) */\n      jump\t// in\n    tag_110:\n        /* \"node_modules/@openzeppelin/contracts/token/ERC20/ERC20.sol\":5229:5255  _transfer(from, to, value) */\n      tag_112\n        /* \"node_modules/@openzeppelin/contracts/token/ERC20/ERC20.sol\":5239:5243  from */\n      dup6\n        /* \"node_modules/@openzeppelin/contracts/token/ERC20/ERC20.sol\":5245:5247  to */\n      dup6\n        /* \"node_modules/@openzeppelin/contracts/token/ERC20/ERC20.sol\":5249:5254  value */\n      dup6\n        /* \"node_modules/@openzeppelin/contracts/token/ERC20/ERC20.sol\":5229:5238  _transfer */\n      tag_113\n        /* \"node_modules/@openzeppelin/contracts/token/ERC20/ERC20.sol\":5229:5255  _transfer(from, to, value) */\n      jump\t// in\n    tag_112:\n        /* \"node_modules/@openzeppelin/contracts/token/ERC20/ERC20.sol\":5272:5276  true */\n      0x01\n        /* \"node_modules/@openzeppelin/contracts/token/ERC20/ERC20.sol\":5265:5276  return true */\n      swap2\n      pop\n      pop\n        /* \"node_modules/@openzeppelin/contracts/token/ERC20/ERC20.sol\":5039:5283  function transferFrom(address from, address to, uint256 value) public virtual returns (bool) {... */\n      swap4\n      swap3\n      pop\n      pop\n      pop\n      jump\t// out\n        /* \"node_modules/@openzeppelin/contracts/token/ERC20/ERC20.sol\":3002:3084  function decimals() public view virtual returns (uint8) {... */\n    tag_44:\n        /* \"node_modules/@openzeppelin/contracts/token/ERC20/ERC20.sol\":3051:3056  uint8 */\n      0x00\n        /* \"node_modules/@openzeppelin/contracts/token/ERC20/ERC20.sol\":3075:3077  18 */\n      0x12\n        /* \"node_modules/@openzeppelin/contracts/token/ERC20/ERC20.sol\":3068:3077  return 18 */\n      swap1\n      pop\n        /* \"node_modules/@openzeppelin/contracts/token/ERC20/ERC20.sol\":3002:3084  function decimals() public view virtual returns (uint8) {... */\n      swap1\n      jump\t// out\n        /* \"contracts/CoinMusme.sol\":1617:1636  User[] public users */\n    tag_50:\n      0x09\n      dup2\n      dup2\n      sload\n      dup2\n      lt\n      tag_115\n      jumpi\n      0x00\n      dup1\n      revert\n    tag_115:\n      swap1\n      0x00\n      mstore\n      keccak256(0x00, 0x20)\n      add\n      0x00\n      swap2\n      pop\n      swap1\n      pop\n      dup1\n      0x00\n      add\n      0x00\n      swap1\n      sload\n      swap1\n      0x0100\n      exp\n      swap1\n      div\n      0xffffffffffffffffffffffffffffffffffffffff\n      and\n      swap1\n      pop\n      dup2\n      jump\t// out\n        /* \"contracts/CoinMusme.sol\":1315:1357  mapping(address => Museme[]) public musmes */\n    tag_55:\n      mstore(0x20, 0x08)\n      dup2\n      0x00\n      mstore\n      keccak256(0x00, 0x40)\n      dup2\n      dup2\n      sload\n      dup2\n      lt\n      tag_117\n      jumpi\n      0x00\n      dup1\n      revert\n    tag_117:\n      swap1\n      0x00\n      mstore\n      keccak256(0x00, 0x20)\n      swap1\n      0x02\n      mul\n      add\n      0x00\n      swap2\n      pop\n      swap2\n      pop\n      pop\n      dup1\n      0x00\n      add\n      dup1\n      sload\n      tag_119\n      swap1\n      tag_86\n      jump\t// in\n    tag_119:\n      dup1\n      0x1f\n      add\n      0x20\n      dup1\n      swap2\n      div\n      mul\n      0x20\n      add\n      mload(0x40)\n      swap1\n      dup2\n      add\n      0x40\n      mstore\n      dup1\n      swap3\n      swap2\n      swap1\n      dup2\n      dup2\n      mstore\n      0x20\n      add\n      dup3\n      dup1\n      sload\n      tag_120\n      swap1\n      tag_86\n      jump\t// in\n    tag_120:\n      dup1\n      iszero\n      tag_121\n      jumpi\n      dup1\n      0x1f\n      lt\n      tag_122\n      jumpi\n      0x0100\n      dup1\n      dup4\n      sload\n      div\n      mul\n      dup4\n      mstore\n      swap2\n      0x20\n      add\n      swap2\n      jump(tag_121)\n    tag_122:\n      dup3\n      add\n      swap2\n      swap1\n      0x00\n      mstore\n      keccak256(0x00, 0x20)\n      swap1\n    tag_123:\n      dup2\n      sload\n      dup2\n      mstore\n      swap1\n      0x01\n      add\n      swap1\n      0x20\n      add\n      dup1\n      dup4\n      gt\n      tag_123\n      jumpi\n      dup3\n      swap1\n      sub\n      0x1f\n      and\n      dup3\n      add\n      swap2\n    tag_121:\n      pop\n      pop\n      pop\n      pop\n      pop\n      swap1\n      dup1\n      0x01\n      add\n      dup1\n      sload\n      tag_124\n      swap1\n      tag_86\n      jump\t// in\n    tag_124:\n      dup1\n      0x1f\n      add\n      0x20\n      dup1\n      swap2\n      div\n      mul\n      0x20\n      add\n      mload(0x40)\n      swap1\n      dup2\n      add\n      0x40\n      mstore\n      dup1\n      swap3\n      swap2\n      swap1\n      dup2\n      dup2\n      mstore\n      0x20\n      add\n      dup3\n      dup1\n      sload\n      tag_125\n      swap1\n      tag_86\n      jump\t// in\n    tag_125:\n      dup1\n      iszero\n      tag_126\n      jumpi\n      dup1\n      0x1f\n      lt\n      tag_127\n      jumpi\n      0x0100\n      dup1\n      dup4\n      sload\n      div\n      mul\n      dup4\n      mstore\n      swap2\n      0x20\n      add\n      swap2\n      jump(tag_126)\n    tag_127:\n      dup3\n      add\n      swap2\n      swap1\n      0x00\n      mstore\n      keccak256(0x00, 0x20)\n      swap1\n    tag_128:\n      dup2\n      sload\n      dup2\n      mstore\n      swap1\n      0x01\n      add\n      swap1\n      0x20\n      add\n      dup1\n      dup4\n      gt\n      tag_128\n      jumpi\n      dup3\n      swap1\n      sub\n      0x1f\n      and\n      dup3\n      add\n      swap2\n    tag_126:\n      pop\n      pop\n      pop\n      pop\n      pop\n      swap1\n      pop\n      dup3\n      jump\t// out\n        /* \"contracts/CoinMusme.sol\":1927:2012  function getMusmeUser() public view returns(User[] memory) {... */\n    tag_59:\n        /* \"contracts/CoinMusme.sol\":1971:1984  User[] memory */\n      0x60\n        /* \"contracts/CoinMusme.sol\":2000:2005  users */\n      0x09\n        /* \"contracts/CoinMusme.sol\":1993:2005  return users */\n      dup1\n      sload\n      dup1\n      0x20\n      mul\n      0x20\n      add\n      mload(0x40)\n      swap1\n      dup2\n      add\n      0x40\n      mstore\n      dup1\n      swap3\n      swap2\n      swap1\n      dup2\n      dup2\n      mstore\n      0x20\n      add\n      0x00\n      swap1\n    tag_130:\n      dup3\n      dup3\n      lt\n      iszero\n      tag_131\n      jumpi\n      dup4\n      dup3\n      swap1\n      0x00\n      mstore\n      keccak256(0x00, 0x20)\n      add\n      mload(0x40)\n      dup1\n      0x20\n      add\n      0x40\n      mstore\n      swap1\n      dup2\n      0x00\n      dup3\n      add\n      0x00\n      swap1\n      sload\n      swap1\n      0x0100\n      exp\n      swap1\n      div\n      0xffffffffffffffffffffffffffffffffffffffff\n      and\n      0xffffffffffffffffffffffffffffffffffffffff\n      and\n      0xffffffffffffffffffffffffffffffffffffffff\n      and\n      dup2\n      mstore\n      pop\n      pop\n      dup2\n      mstore\n      0x20\n      add\n      swap1\n      0x01\n      add\n      swap1\n      jump(tag_130)\n    tag_131:\n      pop\n      pop\n      pop\n      pop\n      swap1\n      pop\n        /* \"contracts/CoinMusme.sol\":1927:2012  function getMusmeUser() public view returns(User[] memory) {... */\n      swap1\n      jump\t// out\n        /* \"node_modules/@openzeppelin/contracts/token/ERC20/ERC20.sol\":3299:3415  function balanceOf(address account) public view virtual returns (uint256) {... */\n    tag_65:\n        /* \"node_modules/@openzeppelin/contracts/token/ERC20/ERC20.sol\":3364:3371  uint256 */\n      0x00\n        /* \"node_modules/@openzeppelin/contracts/token/ERC20/ERC20.sol\":3390:3399  _balances */\n      dup1\n        /* \"node_modules/@openzeppelin/contracts/token/ERC20/ERC20.sol\":3390:3408  _balances[account] */\n      0x00\n        /* \"node_modules/@openzeppelin/contracts/token/ERC20/ERC20.sol\":3400:3407  account */\n      dup4\n        /* \"node_modules/@openzeppelin/contracts/token/ERC20/ERC20.sol\":3390:3408  _balances[account] */\n      0xffffffffffffffffffffffffffffffffffffffff\n      and\n      0xffffffffffffffffffffffffffffffffffffffff\n      and\n      dup2\n      mstore\n      0x20\n      add\n      swap1\n      dup2\n      mstore\n      0x20\n      add\n      0x00\n      keccak256\n      sload\n        /* \"node_modules/@openzeppelin/contracts/token/ERC20/ERC20.sol\":3383:3408  return _balances[account] */\n      swap1\n      pop\n        /* \"node_modules/@openzeppelin/contracts/token/ERC20/ERC20.sol\":3299:3415  function balanceOf(address account) public view virtual returns (uint256) {... */\n      swap2\n      swap1\n      pop\n      jump\t// out\n        /* \"node_modules/@openzeppelin/contracts/token/ERC20/ERC20.sol\":2276:2369  function symbol() public view virtual returns (string memory) {... */\n    tag_68:\n        /* \"node_modules/@openzeppelin/contracts/token/ERC20/ERC20.sol\":2323:2336  string memory */\n      0x60\n        /* \"node_modules/@openzeppelin/contracts/token/ERC20/ERC20.sol\":2355:2362  _symbol */\n      0x04\n        /* \"node_modules/@openzeppelin/contracts/token/ERC20/ERC20.sol\":2348:2362  return _symbol */\n      dup1\n      sload\n      tag_135\n      swap1\n      tag_86\n      jump\t// in\n    tag_135:\n      dup1\n      0x1f\n      add\n      0x20\n      dup1\n      swap2\n      div\n      mul\n      0x20\n      add\n      mload(0x40)\n      swap1\n      dup2\n      add\n      0x40\n      mstore\n      dup1\n      swap3\n      swap2\n      swap1\n      dup2\n      dup2\n      mstore\n      0x20\n      add\n      dup3\n      dup1\n      sload\n      tag_136\n      swap1\n      tag_86\n      jump\t// in\n    tag_136:\n      dup1\n      iszero\n      tag_137\n      jumpi\n      dup1\n      0x1f\n      lt\n      tag_138\n      jumpi\n      0x0100\n      dup1\n      dup4\n      sload\n      div\n      mul\n      dup4\n      mstore\n      swap2\n      0x20\n      add\n      swap2\n      jump(tag_137)\n    tag_138:\n      dup3\n      add\n      swap2\n      swap1\n      0x00\n      mstore\n      keccak256(0x00, 0x20)\n      swap1\n    tag_139:\n      dup2\n      sload\n      dup2\n      mstore\n      swap1\n      0x01\n      add\n      swap1\n      0x20\n      add\n      dup1\n      dup4\n      gt\n      tag_139\n      jumpi\n      dup3\n      swap1\n      sub\n      0x1f\n      and\n      dup3\n      add\n      swap2\n    tag_137:\n      pop\n      pop\n      pop\n      pop\n      pop\n      swap1\n      pop\n        /* \"node_modules/@openzeppelin/contracts/token/ERC20/ERC20.sol\":2276:2369  function symbol() public view virtual returns (string memory) {... */\n      swap1\n      jump\t// out\n        /* \"node_modules/@openzeppelin/contracts/token/ERC20/ERC20.sol\":3610:3788  function transfer(address to, uint256 value) public virtual returns (bool) {... */\n    tag_72:\n        /* \"node_modules/@openzeppelin/contracts/token/ERC20/ERC20.sol\":3679:3683  bool */\n      0x00\n        /* \"node_modules/@openzeppelin/contracts/token/ERC20/ERC20.sol\":3695:3708  address owner */\n      dup1\n        /* \"node_modules/@openzeppelin/contracts/token/ERC20/ERC20.sol\":3711:3723  _msgSender() */\n      tag_141\n        /* \"node_modules/@openzeppelin/contracts/token/ERC20/ERC20.sol\":3711:3721  _msgSender */\n      tag_104\n        /* \"node_modules/@openzeppelin/contracts/token/ERC20/ERC20.sol\":3711:3723  _msgSender() */\n      jump\t// in\n    tag_141:\n        /* \"node_modules/@openzeppelin/contracts/token/ERC20/ERC20.sol\":3695:3723  address owner = _msgSender() */\n      swap1\n      pop\n        /* \"node_modules/@openzeppelin/contracts/token/ERC20/ERC20.sol\":3733:3760  _transfer(owner, to, value) */\n      tag_142\n        /* \"node_modules/@openzeppelin/contracts/token/ERC20/ERC20.sol\":3743:3748  owner */\n      dup2\n        /* \"node_modules/@openzeppelin/contracts/token/ERC20/ERC20.sol\":3750:3752  to */\n      dup6\n        /* \"node_modules/@openzeppelin/contracts/token/ERC20/ERC20.sol\":3754:3759  value */\n      dup6\n        /* \"node_modules/@openzeppelin/contracts/token/ERC20/ERC20.sol\":3733:3742  _transfer */\n      tag_113\n        /* \"node_modules/@openzeppelin/contracts/token/ERC20/ERC20.sol\":3733:3760  _transfer(owner, to, value) */\n      jump\t// in\n    tag_142:\n        /* \"node_modules/@openzeppelin/contracts/token/ERC20/ERC20.sol\":3777:3781  true */\n      0x01\n        /* \"node_modules/@openzeppelin/contracts/token/ERC20/ERC20.sol\":3770:3781  return true */\n      swap2\n      pop\n      pop\n        /* \"node_modules/@openzeppelin/contracts/token/ERC20/ERC20.sol\":3610:3788  function transfer(address to, uint256 value) public virtual returns (bool) {... */\n      swap3\n      swap2\n      pop\n      pop\n      jump\t// out\n        /* \"contracts/CoinMusme.sol\":2044:3226  function buyMusme() public {... */\n    tag_75:\n        /* \"contracts/CoinMusme.sol\":2337:2347  tokenPrice */\n      sload(0x05)\n        /* \"contracts/CoinMusme.sol\":2312:2333  balanceOf(msg.sender) */\n      tag_144\n        /* \"contracts/CoinMusme.sol\":2322:2332  msg.sender */\n      caller\n        /* \"contracts/CoinMusme.sol\":2312:2321  balanceOf */\n      tag_65\n        /* \"contracts/CoinMusme.sol\":2312:2333  balanceOf(msg.sender) */\n      jump\t// in\n    tag_144:\n        /* \"contracts/CoinMusme.sol\":2312:2347  balanceOf(msg.sender) >= tokenPrice */\n      lt\n      iszero\n        /* \"contracts/CoinMusme.sol\":2304:2348  require(balanceOf(msg.sender) >= tokenPrice) */\n      tag_145\n      jumpi\n      0x00\n      dup1\n      revert\n    tag_145:\n        /* \"contracts/CoinMusme.sol\":2359:2402  _update(msg.sender, address(0), tokenPrice) */\n      tag_146\n        /* \"contracts/CoinMusme.sol\":2367:2377  msg.sender */\n      caller\n        /* \"contracts/CoinMusme.sol\":2387:2388  0 */\n      0x00\n        /* \"contracts/CoinMusme.sol\":2391:2401  tokenPrice */\n      sload(0x05)\n        /* \"contracts/CoinMusme.sol\":2359:2366  _update */\n      tag_147\n        /* \"contracts/CoinMusme.sol\":2359:2402  _update(msg.sender, address(0), tokenPrice) */\n      jump\t// in\n    tag_146:\n        /* \"contracts/CoinMusme.sol\":2453:2464  uint random */\n      0x00\n        /* \"contracts/CoinMusme.sol\":2513:2528  block.timestamp */\n      timestamp\n        /* \"contracts/CoinMusme.sol\":2530:2544  block.coinbase */\n      coinbase\n        /* \"contracts/CoinMusme.sol\":2546:2558  block.number */\n      number\n        /* \"contracts/CoinMusme.sol\":2496:2559  abi.encodePacked(block.timestamp, block.coinbase, block.number) */\n      add(0x20, mload(0x40))\n      tag_148\n      swap4\n      swap3\n      swap2\n      swap1\n      tag_149\n      jump\t// in\n    tag_148:\n      mload(0x40)\n      0x20\n      dup2\n      dup4\n      sub\n      sub\n      dup2\n      mstore\n      swap1\n      0x40\n      mstore\n        /* \"contracts/CoinMusme.sol\":2486:2574  keccak256(abi.encodePacked(block.timestamp, block.coinbase, block.number)... */\n      dup1\n      mload\n      swap1\n      0x20\n      add\n      keccak256\n        /* \"contracts/CoinMusme.sol\":2467:2585  uint(... */\n      0x00\n      shr\n        /* \"contracts/CoinMusme.sol\":2453:2585  uint random = uint(... */\n      swap1\n      pop\n        /* \"contracts/CoinMusme.sol\":2659:2660  3 */\n      0x03\n        /* \"contracts/CoinMusme.sol\":2650:2656  random */\n      dup2\n        /* \"contracts/CoinMusme.sol\":2650:2660  random % 3 */\n      tag_150\n      swap2\n      swap1\n      tag_151\n      jump\t// in\n    tag_150:\n        /* \"contracts/CoinMusme.sol\":2636:2661  random = uint(random % 3) */\n      swap1\n      pop\n        /* \"contracts/CoinMusme.sol\":2730:2736  musmes */\n      0x08\n        /* \"contracts/CoinMusme.sol\":2730:2748  musmes[msg.sender] */\n      0x00\n        /* \"contracts/CoinMusme.sol\":2737:2747  msg.sender */\n      caller\n        /* \"contracts/CoinMusme.sol\":2730:2748  musmes[msg.sender] */\n      0xffffffffffffffffffffffffffffffffffffffff\n      and\n      0xffffffffffffffffffffffffffffffffffffffff\n      and\n      dup2\n      mstore\n      0x20\n      add\n      swap1\n      dup2\n      mstore\n      0x20\n      add\n      0x00\n      keccak256\n        /* \"contracts/CoinMusme.sol\":2754:2797  Museme( musmeUrl[random],musmeName[random]) */\n      mload(0x40)\n      dup1\n      0x40\n      add\n      0x40\n      mstore\n      dup1\n        /* \"contracts/CoinMusme.sol\":2762:2770  musmeUrl */\n      0x07\n        /* \"contracts/CoinMusme.sol\":2771:2777  random */\n      dup5\n        /* \"contracts/CoinMusme.sol\":2762:2778  musmeUrl[random] */\n      dup2\n      sload\n      dup2\n      lt\n      tag_152\n      jumpi\n      tag_153\n      tag_154\n      jump\t// in\n    tag_153:\n    tag_152:\n      swap1\n      0x00\n      mstore\n      keccak256(0x00, 0x20)\n      add\n        /* \"contracts/CoinMusme.sol\":2754:2797  Museme( musmeUrl[random],musmeName[random]) */\n      dup1\n      sload\n      tag_156\n      swap1\n      tag_86\n      jump\t// in\n    tag_156:\n      dup1\n      0x1f\n      add\n      0x20\n      dup1\n      swap2\n      div\n      mul\n      0x20\n      add\n      mload(0x40)\n      swap1\n      dup2\n      add\n      0x40\n      mstore\n      dup1\n      swap3\n      swap2\n      swap1\n      dup2\n      dup2\n      mstore\n      0x20\n      add\n      dup3\n      dup1\n      sload\n      tag_157\n      swap1\n      tag_86\n      jump\t// in\n    tag_157:\n      dup1\n      iszero\n      tag_158\n      jumpi\n      dup1\n      0x1f\n      lt\n      tag_159\n      jumpi\n      0x0100\n      dup1\n      dup4\n      sload\n      div\n      mul\n      dup4\n      mstore\n      swap2\n      0x20\n      add\n      swap2\n      jump(tag_158)\n    tag_159:\n      dup3\n      add\n      swap2\n      swap1\n      0x00\n      mstore\n      keccak256(0x00, 0x20)\n      swap1\n    tag_160:\n      dup2\n      sload\n      dup2\n      mstore\n      swap1\n      0x01\n      add\n      swap1\n      0x20\n      add\n      dup1\n      dup4\n      gt\n      tag_160\n      jumpi\n      dup3\n      swap1\n      sub\n      0x1f\n      and\n      dup3\n      add\n      swap2\n    tag_158:\n      pop\n      pop\n      pop\n      pop\n      pop\n      dup2\n      mstore\n      0x20\n      add\n        /* \"contracts/CoinMusme.sol\":2779:2788  musmeName */\n      0x06\n        /* \"contracts/CoinMusme.sol\":2789:2795  random */\n      dup5\n        /* \"contracts/CoinMusme.sol\":2779:2796  musmeName[random] */\n      dup2\n      sload\n      dup2\n      lt\n      tag_161\n      jumpi\n      tag_162\n      tag_154\n      jump\t// in\n    tag_162:\n    tag_161:\n      swap1\n      0x00\n      mstore\n      keccak256(0x00, 0x20)\n      add\n        /* \"contracts/CoinMusme.sol\":2754:2797  Museme( musmeUrl[random],musmeName[random]) */\n      dup1\n      sload\n      tag_164\n      swap1\n      tag_86\n      jump\t// in\n    tag_164:\n      dup1\n      0x1f\n      add\n      0x20\n      dup1\n      swap2\n      div\n      mul\n      0x20\n      add\n      mload(0x40)\n      swap1\n      dup2\n      add\n      0x40\n      mstore\n      dup1\n      swap3\n      swap2\n      swap1\n      dup2\n      dup2\n      mstore\n      0x20\n      add\n      dup3\n      dup1\n      sload\n      tag_165\n      swap1\n      tag_86\n      jump\t// in\n    tag_165:\n      dup1\n      iszero\n      tag_166\n      jumpi\n      dup1\n      0x1f\n      lt\n      tag_167\n      jumpi\n      0x0100\n      dup1\n      dup4\n      sload\n      div\n      mul\n      dup4\n      mstore\n      swap2\n      0x20\n      add\n      swap2\n      jump(tag_166)\n    tag_167:\n      dup3\n      add\n      swap2\n      swap1\n      0x00\n      mstore\n      keccak256(0x00, 0x20)\n      swap1\n    tag_168:\n      dup2\n      sload\n      dup2\n      mstore\n      swap1\n      0x01\n      add\n      swap1\n      0x20\n      add\n      dup1\n      dup4\n      gt\n      tag_168\n      jumpi\n      dup3\n      swap1\n      sub\n      0x1f\n      and\n      dup3\n      add\n      swap2\n    tag_166:\n      pop\n      pop\n      pop\n      pop\n      pop\n      dup2\n      mstore\n      pop\n        /* \"contracts/CoinMusme.sol\":2730:2798  musmes[msg.sender].push(Museme( musmeUrl[random],musmeName[random])) */\n      swap1\n      dup1\n      0x01\n      dup2\n      sload\n      add\n      dup1\n      dup3\n      sstore\n      dup1\n      swap2\n      pop\n      pop\n      0x01\n      swap1\n      sub\n      swap1\n      0x00\n      mstore\n      keccak256(0x00, 0x20)\n      swap1\n      0x02\n      mul\n      add\n      0x00\n      swap1\n      swap2\n      swap1\n      swap2\n      swap1\n      swap2\n      pop\n      0x00\n      dup3\n      add\n      mload\n      dup2\n      0x00\n      add\n      swap1\n      dup2\n      tag_170\n      swap2\n      swap1\n      tag_171\n      jump\t// in\n    tag_170:\n      pop\n      0x20\n      dup3\n      add\n      mload\n      dup2\n      0x01\n      add\n      swap1\n      dup2\n      tag_172\n      swap2\n      swap1\n      tag_171\n      jump\t// in\n    tag_172:\n      pop\n      pop\n      pop\n        /* \"contracts/CoinMusme.sol\":2869:2880  bool isUser */\n      0x00\n        /* \"contracts/CoinMusme.sol\":2905:2914  uint256 i */\n      dup1\n        /* \"contracts/CoinMusme.sol\":2901:3075  for(uint256 i = 0; i < users.length; i++){... */\n    tag_173:\n        /* \"contracts/CoinMusme.sol\":2924:2929  users */\n      0x09\n        /* \"contracts/CoinMusme.sol\":2924:2936  users.length */\n      dup1\n      sload\n      swap1\n      pop\n        /* \"contracts/CoinMusme.sol\":2920:2921  i */\n      dup2\n        /* \"contracts/CoinMusme.sol\":2920:2936  i < users.length */\n      lt\n        /* \"contracts/CoinMusme.sol\":2901:3075  for(uint256 i = 0; i < users.length; i++){... */\n      iszero\n      tag_174\n      jumpi\n        /* \"contracts/CoinMusme.sol\":2980:2990  msg.sender */\n      caller\n        /* \"contracts/CoinMusme.sol\":2960:2990  users[i].account == msg.sender */\n      0xffffffffffffffffffffffffffffffffffffffff\n      and\n        /* \"contracts/CoinMusme.sol\":2960:2965  users */\n      0x09\n        /* \"contracts/CoinMusme.sol\":2966:2967  i */\n      dup3\n        /* \"contracts/CoinMusme.sol\":2960:2968  users[i] */\n      dup2\n      sload\n      dup2\n      lt\n      tag_176\n      jumpi\n      tag_177\n      tag_154\n      jump\t// in\n    tag_177:\n    tag_176:\n      swap1\n      0x00\n      mstore\n      keccak256(0x00, 0x20)\n      add\n        /* \"contracts/CoinMusme.sol\":2960:2976  users[i].account */\n      0x00\n      add\n      0x00\n      swap1\n      sload\n      swap1\n      0x0100\n      exp\n      swap1\n      div\n      0xffffffffffffffffffffffffffffffffffffffff\n      and\n        /* \"contracts/CoinMusme.sol\":2960:2990  users[i].account == msg.sender */\n      0xffffffffffffffffffffffffffffffffffffffff\n      and\n      sub\n        /* \"contracts/CoinMusme.sol\":2957:3064  if(users[i].account == msg.sender) {... */\n      tag_179\n      jumpi\n        /* \"contracts/CoinMusme.sol\":3020:3024  true */\n      0x01\n        /* \"contracts/CoinMusme.sol\":3011:3024  isUser = true */\n      swap2\n      pop\n        /* \"contracts/CoinMusme.sol\":3043:3048  break */\n      jump(tag_174)\n        /* \"contracts/CoinMusme.sol\":2957:3064  if(users[i].account == msg.sender) {... */\n    tag_179:\n        /* \"contracts/CoinMusme.sol\":2938:2941  i++ */\n      dup1\n      dup1\n      tag_180\n      swap1\n      tag_181\n      jump\t// in\n    tag_180:\n      swap2\n      pop\n      pop\n        /* \"contracts/CoinMusme.sol\":2901:3075  for(uint256 i = 0; i < users.length; i++){... */\n      jump(tag_173)\n    tag_174:\n      pop\n        /* \"contracts/CoinMusme.sol\":3158:3164  isUser */\n      dup1\n        /* \"contracts/CoinMusme.sol\":3154:3220  if(!isUser){... */\n      tag_182\n      jumpi\n        /* \"contracts/CoinMusme.sol\":3180:3185  users */\n      0x09\n        /* \"contracts/CoinMusme.sol\":3191:3207  User(msg.sender) */\n      mload(0x40)\n      dup1\n      0x20\n      add\n      0x40\n      mstore\n      dup1\n        /* \"contracts/CoinMusme.sol\":3196:3206  msg.sender */\n      caller\n        /* \"contracts/CoinMusme.sol\":3191:3207  User(msg.sender) */\n      0xffffffffffffffffffffffffffffffffffffffff\n      and\n      dup2\n      mstore\n      pop\n        /* \"contracts/CoinMusme.sol\":3180:3208  users.push(User(msg.sender)) */\n      swap1\n      dup1\n      0x01\n      dup2\n      sload\n      add\n      dup1\n      dup3\n      sstore\n      dup1\n      swap2\n      pop\n      pop\n      0x01\n      swap1\n      sub\n      swap1\n      0x00\n      mstore\n      keccak256(0x00, 0x20)\n      add\n      0x00\n      swap1\n      swap2\n      swap1\n      swap2\n      swap1\n      swap2\n      pop\n      0x00\n      dup3\n      add\n      mload\n      dup2\n      0x00\n      add\n      exp(0x0100, 0x00)\n      dup2\n      sload\n      dup2\n      0xffffffffffffffffffffffffffffffffffffffff\n      mul\n      not\n      and\n      swap1\n      dup4\n      0xffffffffffffffffffffffffffffffffffffffff\n      and\n      mul\n      or\n      swap1\n      sstore\n      pop\n      pop\n      pop\n        /* \"contracts/CoinMusme.sol\":3154:3220  if(!isUser){... */\n    tag_182:\n        /* \"contracts/CoinMusme.sol\":2071:3226  {... */\n      pop\n      pop\n        /* \"contracts/CoinMusme.sol\":2044:3226  function buyMusme() public {... */\n      jump\t// out\n        /* \"node_modules/@openzeppelin/contracts/token/ERC20/ERC20.sol\":3846:3986  function allowance(address owner, address spender) public view virtual returns (uint256) {... */\n    tag_79:\n        /* \"node_modules/@openzeppelin/contracts/token/ERC20/ERC20.sol\":3926:3933  uint256 */\n      0x00\n        /* \"node_modules/@openzeppelin/contracts/token/ERC20/ERC20.sol\":3952:3963  _allowances */\n      0x01\n        /* \"node_modules/@openzeppelin/contracts/token/ERC20/ERC20.sol\":3952:3970  _allowances[owner] */\n      0x00\n        /* \"node_modules/@openzeppelin/contracts/token/ERC20/ERC20.sol\":3964:3969  owner */\n      dup5\n        /* \"node_modules/@openzeppelin/contracts/token/ERC20/ERC20.sol\":3952:3970  _allowances[owner] */\n      0xffffffffffffffffffffffffffffffffffffffff\n      and\n      0xffffffffffffffffffffffffffffffffffffffff\n      and\n      dup2\n      mstore\n      0x20\n      add\n      swap1\n      dup2\n      mstore\n      0x20\n      add\n      0x00\n      keccak256\n        /* \"node_modules/@openzeppelin/contracts/token/ERC20/ERC20.sol\":3952:3979  _allowances[owner][spender] */\n      0x00\n        /* \"node_modules/@openzeppelin/contracts/token/ERC20/ERC20.sol\":3971:3978  spender */\n      dup4\n        /* \"node_modules/@openzeppelin/contracts/token/ERC20/ERC20.sol\":3952:3979  _allowances[owner][spender] */\n      0xffffffffffffffffffffffffffffffffffffffff\n      and\n      0xffffffffffffffffffffffffffffffffffffffff\n      and\n      dup2\n      mstore\n      0x20\n      add\n      swap1\n      dup2\n      mstore\n      0x20\n      add\n      0x00\n      keccak256\n      sload\n        /* \"node_modules/@openzeppelin/contracts/token/ERC20/ERC20.sol\":3945:3979  return _allowances[owner][spender] */\n      swap1\n      pop\n        /* \"node_modules/@openzeppelin/contracts/token/ERC20/ERC20.sol\":3846:3986  function allowance(address owner, address spender) public view virtual returns (uint256) {... */\n      swap3\n      swap2\n      pop\n      pop\n      jump\t// out\n        /* \"node_modules/@openzeppelin/contracts/utils/Context.sol\":656:752  function _msgSender() internal view virtual returns (address) {... */\n    tag_104:\n        /* \"node_modules/@openzeppelin/contracts/utils/Context.sol\":709:716  address */\n      0x00\n        /* \"node_modules/@openzeppelin/contracts/utils/Context.sol\":735:745  msg.sender */\n      caller\n        /* \"node_modules/@openzeppelin/contracts/utils/Context.sol\":728:745  return msg.sender */\n      swap1\n      pop\n        /* \"node_modules/@openzeppelin/contracts/utils/Context.sol\":656:752  function _msgSender() internal view virtual returns (address) {... */\n      swap1\n      jump\t// out\n        /* \"node_modules/@openzeppelin/contracts/token/ERC20/ERC20.sol\":8989:9117  function _approve(address owner, address spender, uint256 value) internal {... */\n    tag_106:\n        /* \"node_modules/@openzeppelin/contracts/token/ERC20/ERC20.sol\":9073:9110  _approve(owner, spender, value, true) */\n      tag_187\n        /* \"node_modules/@openzeppelin/contracts/token/ERC20/ERC20.sol\":9082:9087  owner */\n      dup4\n        /* \"node_modules/@openzeppelin/contracts/token/ERC20/ERC20.sol\":9089:9096  spender */\n      dup4\n        /* \"node_modules/@openzeppelin/contracts/token/ERC20/ERC20.sol\":9098:9103  value */\n      dup4\n        /* \"node_modules/@openzeppelin/contracts/token/ERC20/ERC20.sol\":9105:9109  true */\n      0x01\n        /* \"node_modules/@openzeppelin/contracts/token/ERC20/ERC20.sol\":9073:9081  _approve */\n      tag_188\n        /* \"node_modules/@openzeppelin/contracts/token/ERC20/ERC20.sol\":9073:9110  _approve(owner, spender, value, true) */\n      jump\t// in\n    tag_187:\n        /* \"node_modules/@openzeppelin/contracts/token/ERC20/ERC20.sol\":8989:9117  function _approve(address owner, address spender, uint256 value) internal {... */\n      pop\n      pop\n      pop\n      jump\t// out\n        /* \"node_modules/@openzeppelin/contracts/token/ERC20/ERC20.sol\":10663:11140  function _spendAllowance(address owner, address spender, uint256 value) internal virtual {... */\n    tag_111:\n        /* \"node_modules/@openzeppelin/contracts/token/ERC20/ERC20.sol\":10762:10786  uint256 currentAllowance */\n      0x00\n        /* \"node_modules/@openzeppelin/contracts/token/ERC20/ERC20.sol\":10789:10814  allowance(owner, spender) */\n      tag_190\n        /* \"node_modules/@openzeppelin/contracts/token/ERC20/ERC20.sol\":10799:10804  owner */\n      dup5\n        /* \"node_modules/@openzeppelin/contracts/token/ERC20/ERC20.sol\":10806:10813  spender */\n      dup5\n        /* \"node_modules/@openzeppelin/contracts/token/ERC20/ERC20.sol\":10789:10798  allowance */\n      tag_79\n        /* \"node_modules/@openzeppelin/contracts/token/ERC20/ERC20.sol\":10789:10814  allowance(owner, spender) */\n      jump\t// in\n    tag_190:\n        /* \"node_modules/@openzeppelin/contracts/token/ERC20/ERC20.sol\":10762:10814  uint256 currentAllowance = allowance(owner, spender) */\n      swap1\n      pop\n        /* \"node_modules/@openzeppelin/contracts/token/ERC20/ERC20.sol\":10848:10865  type(uint256).max */\n      0xffffffffffffffffffffffffffffffffffffffffffffffffffffffffffffffff\n        /* \"node_modules/@openzeppelin/contracts/token/ERC20/ERC20.sol\":10828:10844  currentAllowance */\n      dup2\n        /* \"node_modules/@openzeppelin/contracts/token/ERC20/ERC20.sol\":10828:10865  currentAllowance != type(uint256).max */\n      eq\n        /* \"node_modules/@openzeppelin/contracts/token/ERC20/ERC20.sol\":10824:11134  if (currentAllowance != type(uint256).max) {... */\n      tag_191\n      jumpi\n        /* \"node_modules/@openzeppelin/contracts/token/ERC20/ERC20.sol\":10904:10909  value */\n      dup2\n        /* \"node_modules/@openzeppelin/contracts/token/ERC20/ERC20.sol\":10885:10901  currentAllowance */\n      dup2\n        /* \"node_modules/@openzeppelin/contracts/token/ERC20/ERC20.sol\":10885:10909  currentAllowance < value */\n      lt\n        /* \"node_modules/@openzeppelin/contracts/token/ERC20/ERC20.sol\":10881:11011  if (currentAllowance < value) {... */\n      iszero\n      tag_192\n      jumpi\n        /* \"node_modules/@openzeppelin/contracts/token/ERC20/ERC20.sol\":10963:10970  spender */\n      dup3\n        /* \"node_modules/@openzeppelin/contracts/token/ERC20/ERC20.sol\":10972:10988  currentAllowance */\n      dup2\n        /* \"node_modules/@openzeppelin/contracts/token/ERC20/ERC20.sol\":10990:10995  value */\n      dup4\n        /* \"node_modules/@openzeppelin/contracts/token/ERC20/ERC20.sol\":10936:10996  ERC20InsufficientAllowance(spender, currentAllowance, value) */\n      mload(0x40)\n      0xfb8f41b200000000000000000000000000000000000000000000000000000000\n      dup2\n      mstore\n      0x04\n      add\n      tag_193\n      swap4\n      swap3\n      swap2\n      swap1\n      tag_194\n      jump\t// in\n    tag_193:\n      mload(0x40)\n      dup1\n      swap2\n      sub\n      swap1\n      revert\n        /* \"node_modules/@openzeppelin/contracts/token/ERC20/ERC20.sol\":10881:11011  if (currentAllowance < value) {... */\n    tag_192:\n        /* \"node_modules/@openzeppelin/contracts/token/ERC20/ERC20.sol\":11052:11109  _approve(owner, spender, currentAllowance - value, false) */\n      tag_195\n        /* \"node_modules/@openzeppelin/contracts/token/ERC20/ERC20.sol\":11061:11066  owner */\n      dup5\n        /* \"node_modules/@openzeppelin/contracts/token/ERC20/ERC20.sol\":11068:11075  spender */\n      dup5\n        /* \"node_modules/@openzeppelin/contracts/token/ERC20/ERC20.sol\":11096:11101  value */\n      dup5\n        /* \"node_modules/@openzeppelin/contracts/token/ERC20/ERC20.sol\":11077:11093  currentAllowance */\n      dup5\n        /* \"node_modules/@openzeppelin/contracts/token/ERC20/ERC20.sol\":11077:11101  currentAllowance - value */\n      sub\n        /* \"node_modules/@openzeppelin/contracts/token/ERC20/ERC20.sol\":11103:11108  false */\n      0x00\n        /* \"node_modules/@openzeppelin/contracts/token/ERC20/ERC20.sol\":11052:11060  _approve */\n      tag_188\n        /* \"node_modules/@openzeppelin/contracts/token/ERC20/ERC20.sol\":11052:11109  _approve(owner, spender, currentAllowance - value, false) */\n      jump\t// in\n    tag_195:\n        /* \"node_modules/@openzeppelin/contracts/token/ERC20/ERC20.sol\":10824:11134  if (currentAllowance != type(uint256).max) {... */\n    tag_191:\n        /* \"node_modules/@openzeppelin/contracts/token/ERC20/ERC20.sol\":10752:11140  {... */\n      pop\n        /* \"node_modules/@openzeppelin/contracts/token/ERC20/ERC20.sol\":10663:11140  function _spendAllowance(address owner, address spender, uint256 value) internal virtual {... */\n      pop\n      pop\n      pop\n      jump\t// out\n        /* \"node_modules/@openzeppelin/contracts/token/ERC20/ERC20.sol\":5656:5956  function _transfer(address from, address to, uint256 value) internal {... */\n    tag_113:\n        /* \"node_modules/@openzeppelin/contracts/token/ERC20/ERC20.sol\":5755:5756  0 */\n      0x00\n        /* \"node_modules/@openzeppelin/contracts/token/ERC20/ERC20.sol\":5739:5757  from == address(0) */\n      0xffffffffffffffffffffffffffffffffffffffff\n      and\n        /* \"node_modules/@openzeppelin/contracts/token/ERC20/ERC20.sol\":5739:5743  from */\n      dup4\n        /* \"node_modules/@openzeppelin/contracts/token/ERC20/ERC20.sol\":5739:5757  from == address(0) */\n      0xffffffffffffffffffffffffffffffffffffffff\n      and\n      sub\n        /* \"node_modules/@openzeppelin/contracts/token/ERC20/ERC20.sol\":5735:5821  if (from == address(0)) {... */\n      tag_197\n      jumpi\n        /* \"node_modules/@openzeppelin/contracts/token/ERC20/ERC20.sol\":5807:5808  0 */\n      0x00\n        /* \"node_modules/@openzeppelin/contracts/token/ERC20/ERC20.sol\":5780:5810  ERC20InvalidSender(address(0)) */\n      mload(0x40)\n      0x96c6fd1e00000000000000000000000000000000000000000000000000000000\n      dup2\n      mstore\n      0x04\n      add\n      tag_198\n      swap2\n      swap1\n      tag_52\n      jump\t// in\n    tag_198:\n      mload(0x40)\n      dup1\n      swap2\n      sub\n      swap1\n      revert\n        /* \"node_modules/@openzeppelin/contracts/token/ERC20/ERC20.sol\":5735:5821  if (from == address(0)) {... */\n    tag_197:\n        /* \"node_modules/@openzeppelin/contracts/token/ERC20/ERC20.sol\":5848:5849  0 */\n      0x00\n        /* \"node_modules/@openzeppelin/contracts/token/ERC20/ERC20.sol\":5834:5850  to == address(0) */\n      0xffffffffffffffffffffffffffffffffffffffff\n      and\n        /* \"node_modules/@openzeppelin/contracts/token/ERC20/ERC20.sol\":5834:5836  to */\n      dup3\n        /* \"node_modules/@openzeppelin/contracts/token/ERC20/ERC20.sol\":5834:5850  to == address(0) */\n      0xffffffffffffffffffffffffffffffffffffffff\n      and\n      sub\n        /* \"node_modules/@openzeppelin/contracts/token/ERC20/ERC20.sol\":5830:5916  if (to == address(0)) {... */\n      tag_199\n      jumpi\n        /* \"node_modules/@openzeppelin/contracts/token/ERC20/ERC20.sol\":5902:5903  0 */\n      0x00\n        /* \"node_modules/@openzeppelin/contracts/token/ERC20/ERC20.sol\":5873:5905  ERC20InvalidReceiver(address(0)) */\n      mload(0x40)\n      0xec442f0500000000000000000000000000000000000000000000000000000000\n      dup2\n      mstore\n      0x04\n      add\n      tag_200\n      swap2\n      swap1\n      tag_52\n      jump\t// in\n    tag_200:\n      mload(0x40)\n      dup1\n      swap2\n      sub\n      swap1\n      revert\n        /* \"node_modules/@openzeppelin/contracts/token/ERC20/ERC20.sol\":5830:5916  if (to == address(0)) {... */\n    tag_199:\n        /* \"node_modules/@openzeppelin/contracts/token/ERC20/ERC20.sol\":5925:5949  _update(from, to, value) */\n      tag_201\n        /* \"node_modules/@openzeppelin/contracts/token/ERC20/ERC20.sol\":5933:5937  from */\n      dup4\n        /* \"node_modules/@openzeppelin/contracts/token/ERC20/ERC20.sol\":5939:5941  to */\n      dup4\n        /* \"node_modules/@openzeppelin/contracts/token/ERC20/ERC20.sol\":5943:5948  value */\n      dup4\n        /* \"node_modules/@openzeppelin/contracts/token/ERC20/ERC20.sol\":5925:5932  _update */\n      tag_147\n        /* \"node_modules/@openzeppelin/contracts/token/ERC20/ERC20.sol\":5925:5949  _update(from, to, value) */\n      jump\t// in\n    tag_201:\n        /* \"node_modules/@openzeppelin/contracts/token/ERC20/ERC20.sol\":5656:5956  function _transfer(address from, address to, uint256 value) internal {... */\n      pop\n      pop\n      pop\n      jump\t// out\n        /* \"node_modules/@openzeppelin/contracts/token/ERC20/ERC20.sol\":6271:7378  function _update(address from, address to, uint256 value) internal virtual {... */\n    tag_147:\n        /* \"node_modules/@openzeppelin/contracts/token/ERC20/ERC20.sol\":6376:6377  0 */\n      0x00\n        /* \"node_modules/@openzeppelin/contracts/token/ERC20/ERC20.sol\":6360:6378  from == address(0) */\n      0xffffffffffffffffffffffffffffffffffffffff\n      and\n        /* \"node_modules/@openzeppelin/contracts/token/ERC20/ERC20.sol\":6360:6364  from */\n      dup4\n        /* \"node_modules/@openzeppelin/contracts/token/ERC20/ERC20.sol\":6360:6378  from == address(0) */\n      0xffffffffffffffffffffffffffffffffffffffff\n      and\n      sub\n        /* \"node_modules/@openzeppelin/contracts/token/ERC20/ERC20.sol\":6356:6896  if (from == address(0)) {... */\n      tag_203\n      jumpi\n        /* \"node_modules/@openzeppelin/contracts/token/ERC20/ERC20.sol\":6512:6517  value */\n      dup1\n        /* \"node_modules/@openzeppelin/contracts/token/ERC20/ERC20.sol\":6496:6508  _totalSupply */\n      0x02\n      0x00\n        /* \"node_modules/@openzeppelin/contracts/token/ERC20/ERC20.sol\":6496:6517  _totalSupply += value */\n      dup3\n      dup3\n      sload\n      tag_204\n      swap2\n      swap1\n      tag_205\n      jump\t// in\n    tag_204:\n      swap3\n      pop\n      pop\n      dup2\n      swap1\n      sstore\n      pop\n        /* \"node_modules/@openzeppelin/contracts/token/ERC20/ERC20.sol\":6356:6896  if (from == address(0)) {... */\n      jump(tag_206)\n    tag_203:\n        /* \"node_modules/@openzeppelin/contracts/token/ERC20/ERC20.sol\":6548:6567  uint256 fromBalance */\n      0x00\n        /* \"node_modules/@openzeppelin/contracts/token/ERC20/ERC20.sol\":6570:6579  _balances */\n      dup1\n        /* \"node_modules/@openzeppelin/contracts/token/ERC20/ERC20.sol\":6570:6585  _balances[from] */\n      0x00\n        /* \"node_modules/@openzeppelin/contracts/token/ERC20/ERC20.sol\":6580:6584  from */\n      dup6\n        /* \"node_modules/@openzeppelin/contracts/token/ERC20/ERC20.sol\":6570:6585  _balances[from] */\n      0xffffffffffffffffffffffffffffffffffffffff\n      and\n      0xffffffffffffffffffffffffffffffffffffffff\n      and\n      dup2\n      mstore\n      0x20\n      add\n      swap1\n      dup2\n      mstore\n      0x20\n      add\n      0x00\n      keccak256\n      sload\n        /* \"node_modules/@openzeppelin/contracts/token/ERC20/ERC20.sol\":6548:6585  uint256 fromBalance = _balances[from] */\n      swap1\n      pop\n        /* \"node_modules/@openzeppelin/contracts/token/ERC20/ERC20.sol\":6617:6622  value */\n      dup2\n        /* \"node_modules/@openzeppelin/contracts/token/ERC20/ERC20.sol\":6603:6614  fromBalance */\n      dup2\n        /* \"node_modules/@openzeppelin/contracts/token/ERC20/ERC20.sol\":6603:6622  fromBalance < value */\n      lt\n        /* \"node_modules/@openzeppelin/contracts/token/ERC20/ERC20.sol\":6599:6714  if (fromBalance < value) {... */\n      iszero\n      tag_207\n      jumpi\n        /* \"node_modules/@openzeppelin/contracts/token/ERC20/ERC20.sol\":6674:6678  from */\n      dup4\n        /* \"node_modules/@openzeppelin/contracts/token/ERC20/ERC20.sol\":6680:6691  fromBalance */\n      dup2\n        /* \"node_modules/@openzeppelin/contracts/token/ERC20/ERC20.sol\":6693:6698  value */\n      dup4\n        /* \"node_modules/@openzeppelin/contracts/token/ERC20/ERC20.sol\":6649:6699  ERC20InsufficientBalance(from, fromBalance, value) */\n      mload(0x40)\n      0xe450d38c00000000000000000000000000000000000000000000000000000000\n      dup2\n      mstore\n      0x04\n      add\n      tag_208\n      swap4\n      swap3\n      swap2\n      swap1\n      tag_194\n      jump\t// in\n    tag_208:\n      mload(0x40)\n      dup1\n      swap2\n      sub\n      swap1\n      revert\n        /* \"node_modules/@openzeppelin/contracts/token/ERC20/ERC20.sol\":6599:6714  if (fromBalance < value) {... */\n    tag_207:\n        /* \"node_modules/@openzeppelin/contracts/token/ERC20/ERC20.sol\":6866:6871  value */\n      dup2\n        /* \"node_modules/@openzeppelin/contracts/token/ERC20/ERC20.sol\":6852:6863  fromBalance */\n      dup2\n        /* \"node_modules/@openzeppelin/contracts/token/ERC20/ERC20.sol\":6852:6871  fromBalance - value */\n      sub\n        /* \"node_modules/@openzeppelin/contracts/token/ERC20/ERC20.sol\":6834:6843  _balances */\n      0x00\n        /* \"node_modules/@openzeppelin/contracts/token/ERC20/ERC20.sol\":6834:6849  _balances[from] */\n      dup1\n        /* \"node_modules/@openzeppelin/contracts/token/ERC20/ERC20.sol\":6844:6848  from */\n      dup7\n        /* \"node_modules/@openzeppelin/contracts/token/ERC20/ERC20.sol\":6834:6849  _balances[from] */\n      0xffffffffffffffffffffffffffffffffffffffff\n      and\n      0xffffffffffffffffffffffffffffffffffffffff\n      and\n      dup2\n      mstore\n      0x20\n      add\n      swap1\n      dup2\n      mstore\n      0x20\n      add\n      0x00\n      keccak256\n        /* \"node_modules/@openzeppelin/contracts/token/ERC20/ERC20.sol\":6834:6871  _balances[from] = fromBalance - value */\n      dup2\n      swap1\n      sstore\n      pop\n        /* \"node_modules/@openzeppelin/contracts/token/ERC20/ERC20.sol\":6534:6896  {... */\n      pop\n        /* \"node_modules/@openzeppelin/contracts/token/ERC20/ERC20.sol\":6356:6896  if (from == address(0)) {... */\n    tag_206:\n        /* \"node_modules/@openzeppelin/contracts/token/ERC20/ERC20.sol\":6924:6925  0 */\n      0x00\n        /* \"node_modules/@openzeppelin/contracts/token/ERC20/ERC20.sol\":6910:6926  to == address(0) */\n      0xffffffffffffffffffffffffffffffffffffffff\n      and\n        /* \"node_modules/@openzeppelin/contracts/token/ERC20/ERC20.sol\":6910:6912  to */\n      dup3\n        /* \"node_modules/@openzeppelin/contracts/token/ERC20/ERC20.sol\":6910:6926  to == address(0) */\n      0xffffffffffffffffffffffffffffffffffffffff\n      and\n      sub\n        /* \"node_modules/@openzeppelin/contracts/token/ERC20/ERC20.sol\":6906:7331  if (to == address(0)) {... */\n      tag_209\n      jumpi\n        /* \"node_modules/@openzeppelin/contracts/token/ERC20/ERC20.sol\":7089:7094  value */\n      dup1\n        /* \"node_modules/@openzeppelin/contracts/token/ERC20/ERC20.sol\":7073:7085  _totalSupply */\n      0x02\n      0x00\n        /* \"node_modules/@openzeppelin/contracts/token/ERC20/ERC20.sol\":7073:7094  _totalSupply -= value */\n      dup3\n      dup3\n      sload\n      sub\n      swap3\n      pop\n      pop\n      dup2\n      swap1\n      sstore\n      pop\n        /* \"node_modules/@openzeppelin/contracts/token/ERC20/ERC20.sol\":6906:7331  if (to == address(0)) {... */\n      jump(tag_210)\n    tag_209:\n        /* \"node_modules/@openzeppelin/contracts/token/ERC20/ERC20.sol\":7301:7306  value */\n      dup1\n        /* \"node_modules/@openzeppelin/contracts/token/ERC20/ERC20.sol\":7284:7293  _balances */\n      0x00\n        /* \"node_modules/@openzeppelin/contracts/token/ERC20/ERC20.sol\":7284:7297  _balances[to] */\n      dup1\n        /* \"node_modules/@openzeppelin/contracts/token/ERC20/ERC20.sol\":7294:7296  to */\n      dup5\n        /* \"node_modules/@openzeppelin/contracts/token/ERC20/ERC20.sol\":7284:7297  _balances[to] */\n      0xffffffffffffffffffffffffffffffffffffffff\n      and\n      0xffffffffffffffffffffffffffffffffffffffff\n      and\n      dup2\n      mstore\n      0x20\n      add\n      swap1\n      dup2\n      mstore\n      0x20\n      add\n      0x00\n      keccak256\n      0x00\n        /* \"node_modules/@openzeppelin/contracts/token/ERC20/ERC20.sol\":7284:7306  _balances[to] += value */\n      dup3\n      dup3\n      sload\n      add\n      swap3\n      pop\n      pop\n      dup2\n      swap1\n      sstore\n      pop\n        /* \"node_modules/@openzeppelin/contracts/token/ERC20/ERC20.sol\":6906:7331  if (to == address(0)) {... */\n    tag_210:\n        /* \"node_modules/@openzeppelin/contracts/token/ERC20/ERC20.sol\":7361:7363  to */\n      dup2\n        /* \"node_modules/@openzeppelin/contracts/token/ERC20/ERC20.sol\":7346:7371  Transfer(from, to, value) */\n      0xffffffffffffffffffffffffffffffffffffffff\n      and\n        /* \"node_modules/@openzeppelin/contracts/token/ERC20/ERC20.sol\":7355:7359  from */\n      dup4\n        /* \"node_modules/@openzeppelin/contracts/token/ERC20/ERC20.sol\":7346:7371  Transfer(from, to, value) */\n      0xffffffffffffffffffffffffffffffffffffffff\n      and\n      0xddf252ad1be2c89b69c2b068fc378daa952ba7f163c4a11628f55a4df523b3ef\n        /* \"node_modules/@openzeppelin/contracts/token/ERC20/ERC20.sol\":7365:7370  value */\n      dup4\n        /* \"node_modules/@openzeppelin/contracts/token/ERC20/ERC20.sol\":7346:7371  Transfer(from, to, value) */\n      mload(0x40)\n      tag_211\n      swap2\n      swap1\n      tag_37\n      jump\t// in\n    tag_211:\n      mload(0x40)\n      dup1\n      swap2\n      sub\n      swap1\n      log3\n        /* \"node_modules/@openzeppelin/contracts/token/ERC20/ERC20.sol\":6271:7378  function _update(address from, address to, uint256 value) internal virtual {... */\n      pop\n      pop\n      pop\n      jump\t// out\n        /* \"node_modules/@openzeppelin/contracts/token/ERC20/ERC20.sol\":9949:10381  function _approve(address owner, address spender, uint256 value, bool emitEvent) internal virtual {... */\n    tag_188:\n        /* \"node_modules/@openzeppelin/contracts/token/ERC20/ERC20.sol\":10078:10079  0 */\n      0x00\n        /* \"node_modules/@openzeppelin/contracts/token/ERC20/ERC20.sol\":10061:10080  owner == address(0) */\n      0xffffffffffffffffffffffffffffffffffffffff\n      and\n        /* \"node_modules/@openzeppelin/contracts/token/ERC20/ERC20.sol\":10061:10066  owner */\n      dup5\n        /* \"node_modules/@openzeppelin/contracts/token/ERC20/ERC20.sol\":10061:10080  owner == address(0) */\n      0xffffffffffffffffffffffffffffffffffffffff\n      and\n      sub\n        /* \"node_modules/@openzeppelin/contracts/token/ERC20/ERC20.sol\":10057:10146  if (owner == address(0)) {... */\n      tag_213\n      jumpi\n        /* \"node_modules/@openzeppelin/contracts/token/ERC20/ERC20.sol\":10132:10133  0 */\n      0x00\n        /* \"node_modules/@openzeppelin/contracts/token/ERC20/ERC20.sol\":10103:10135  ERC20InvalidApprover(address(0)) */\n      mload(0x40)\n      0xe602df0500000000000000000000000000000000000000000000000000000000\n      dup2\n      mstore\n      0x04\n      add\n      tag_214\n      swap2\n      swap1\n      tag_52\n      jump\t// in\n    tag_214:\n      mload(0x40)\n      dup1\n      swap2\n      sub\n      swap1\n      revert\n        /* \"node_modules/@openzeppelin/contracts/token/ERC20/ERC20.sol\":10057:10146  if (owner == address(0)) {... */\n    tag_213:\n        /* \"node_modules/@openzeppelin/contracts/token/ERC20/ERC20.sol\":10178:10179  0 */\n      0x00\n        /* \"node_modules/@openzeppelin/contracts/token/ERC20/ERC20.sol\":10159:10180  spender == address(0) */\n      0xffffffffffffffffffffffffffffffffffffffff\n      and\n        /* \"node_modules/@openzeppelin/contracts/token/ERC20/ERC20.sol\":10159:10166  spender */\n      dup4\n        /* \"node_modules/@openzeppelin/contracts/token/ERC20/ERC20.sol\":10159:10180  spender == address(0) */\n      0xffffffffffffffffffffffffffffffffffffffff\n      and\n      sub\n        /* \"node_modules/@openzeppelin/contracts/token/ERC20/ERC20.sol\":10155:10245  if (spender == address(0)) {... */\n      tag_215\n      jumpi\n        /* \"node_modules/@openzeppelin/contracts/token/ERC20/ERC20.sol\":10231:10232  0 */\n      0x00\n        /* \"node_modules/@openzeppelin/contracts/token/ERC20/ERC20.sol\":10203:10234  ERC20InvalidSpender(address(0)) */\n      mload(0x40)\n      0x94280d6200000000000000000000000000000000000000000000000000000000\n      dup2\n      mstore\n      0x04\n      add\n      tag_216\n      swap2\n      swap1\n      tag_52\n      jump\t// in\n    tag_216:\n      mload(0x40)\n      dup1\n      swap2\n      sub\n      swap1\n      revert\n        /* \"node_modules/@openzeppelin/contracts/token/ERC20/ERC20.sol\":10155:10245  if (spender == address(0)) {... */\n    tag_215:\n        /* \"node_modules/@openzeppelin/contracts/token/ERC20/ERC20.sol\":10284:10289  value */\n      dup2\n        /* \"node_modules/@openzeppelin/contracts/token/ERC20/ERC20.sol\":10254:10265  _allowances */\n      0x01\n        /* \"node_modules/@openzeppelin/contracts/token/ERC20/ERC20.sol\":10254:10272  _allowances[owner] */\n      0x00\n        /* \"node_modules/@openzeppelin/contracts/token/ERC20/ERC20.sol\":10266:10271  owner */\n      dup7\n        /* \"node_modules/@openzeppelin/contracts/token/ERC20/ERC20.sol\":10254:10272  _allowances[owner] */\n      0xffffffffffffffffffffffffffffffffffffffff\n      and\n      0xffffffffffffffffffffffffffffffffffffffff\n      and\n      dup2\n      mstore\n      0x20\n      add\n      swap1\n      dup2\n      mstore\n      0x20\n      add\n      0x00\n      keccak256\n        /* \"node_modules/@openzeppelin/contracts/token/ERC20/ERC20.sol\":10254:10281  _allowances[owner][spender] */\n      0x00\n        /* \"node_modules/@openzeppelin/contracts/token/ERC20/ERC20.sol\":10273:10280  spender */\n      dup6\n        /* \"node_modules/@openzeppelin/contracts/token/ERC20/ERC20.sol\":10254:10281  _allowances[owner][spender] */\n      0xffffffffffffffffffffffffffffffffffffffff\n      and\n      0xffffffffffffffffffffffffffffffffffffffff\n      and\n      dup2\n      mstore\n      0x20\n      add\n      swap1\n      dup2\n      mstore\n      0x20\n      add\n      0x00\n      keccak256\n        /* \"node_modules/@openzeppelin/contracts/token/ERC20/ERC20.sol\":10254:10289  _allowances[owner][spender] = value */\n      dup2\n      swap1\n      sstore\n      pop\n        /* \"node_modules/@openzeppelin/contracts/token/ERC20/ERC20.sol\":10303:10312  emitEvent */\n      dup1\n        /* \"node_modules/@openzeppelin/contracts/token/ERC20/ERC20.sol\":10299:10375  if (emitEvent) {... */\n      iszero\n      tag_217\n      jumpi\n        /* \"node_modules/@openzeppelin/contracts/token/ERC20/ERC20.sol\":10349:10356  spender */\n      dup3\n        /* \"node_modules/@openzeppelin/contracts/token/ERC20/ERC20.sol\":10333:10364  Approval(owner, spender, value) */\n      0xffffffffffffffffffffffffffffffffffffffff\n      and\n        /* \"node_modules/@openzeppelin/contracts/token/ERC20/ERC20.sol\":10342:10347  owner */\n      dup5\n        /* \"node_modules/@openzeppelin/contracts/token/ERC20/ERC20.sol\":10333:10364  Approval(owner, spender, value) */\n      0xffffffffffffffffffffffffffffffffffffffff\n      and\n      0x8c5be1e5ebec7d5bd14f71427d1e84f3dd0314c0f7b2291e5b200ac8c7c3b925\n        /* \"node_modules/@openzeppelin/contracts/token/ERC20/ERC20.sol\":10358:10363  value */\n      dup5\n        /* \"node_modules/@openzeppelin/contracts/token/ERC20/ERC20.sol\":10333:10364  Approval(owner, spender, value) */\n      mload(0x40)\n      tag_218\n      swap2\n      swap1\n      tag_37\n      jump\t// in\n    tag_218:\n      mload(0x40)\n      dup1\n      swap2\n      sub\n      swap1\n      log3\n        /* \"node_modules/@openzeppelin/contracts/token/ERC20/ERC20.sol\":10299:10375  if (emitEvent) {... */\n    tag_217:\n        /* \"node_modules/@openzeppelin/contracts/token/ERC20/ERC20.sol\":9949:10381  function _approve(address owner, address spender, uint256 value, bool emitEvent) internal virtual {... */\n      pop\n      pop\n      pop\n      pop\n      jump\t// out\n        /* \"#utility.yul\":7:143   */\n    tag_219:\n        /* \"#utility.yul\":96:102   */\n      0x00\n        /* \"#utility.yul\":130:135   */\n      dup2\n        /* \"#utility.yul\":124:136   */\n      mload\n        /* \"#utility.yul\":114:136   */\n      swap1\n      pop\n        /* \"#utility.yul\":7:143   */\n      swap2\n      swap1\n      pop\n      jump\t// out\n        /* \"#utility.yul\":149:355   */\n    tag_220:\n        /* \"#utility.yul\":270:281   */\n      0x00\n        /* \"#utility.yul\":304:310   */\n      dup3\n        /* \"#utility.yul\":299:302   */\n      dup3\n        /* \"#utility.yul\":292:311   */\n      mstore\n        /* \"#utility.yul\":344:348   */\n      0x20\n        /* \"#utility.yul\":339:342   */\n      dup3\n        /* \"#utility.yul\":335:349   */\n      add\n        /* \"#utility.yul\":320:349   */\n      swap1\n      pop\n        /* \"#utility.yul\":149:355   */\n      swap3\n      swap2\n      pop\n      pop\n      jump\t// out\n        /* \"#utility.yul\":361:515   */\n    tag_221:\n        /* \"#utility.yul\":450:454   */\n      0x00\n        /* \"#utility.yul\":473:476   */\n      dup2\n        /* \"#utility.yul\":465:476   */\n      swap1\n      pop\n        /* \"#utility.yul\":503:507   */\n      0x20\n        /* \"#utility.yul\":498:501   */\n      dup3\n        /* \"#utility.yul\":494:508   */\n      add\n        /* \"#utility.yul\":486:508   */\n      swap1\n      pop\n        /* \"#utility.yul\":361:515   */\n      swap2\n      swap1\n      pop\n      jump\t// out\n        /* \"#utility.yul\":521:620   */\n    tag_222:\n        /* \"#utility.yul\":573:579   */\n      0x00\n        /* \"#utility.yul\":607:612   */\n      dup2\n        /* \"#utility.yul\":601:613   */\n      mload\n        /* \"#utility.yul\":591:613   */\n      swap1\n      pop\n        /* \"#utility.yul\":521:620   */\n      swap2\n      swap1\n      pop\n      jump\t// out\n        /* \"#utility.yul\":626:785   */\n    tag_223:\n        /* \"#utility.yul\":700:711   */\n      0x00\n        /* \"#utility.yul\":734:740   */\n      dup3\n        /* \"#utility.yul\":729:732   */\n      dup3\n        /* \"#utility.yul\":722:741   */\n      mstore\n        /* \"#utility.yul\":774:778   */\n      0x20\n        /* \"#utility.yul\":769:772   */\n      dup3\n        /* \"#utility.yul\":765:779   */\n      add\n        /* \"#utility.yul\":750:779   */\n      swap1\n      pop\n        /* \"#utility.yul\":626:785   */\n      swap3\n      swap2\n      pop\n      pop\n      jump\t// out\n        /* \"#utility.yul\":791:1037   */\n    tag_224:\n        /* \"#utility.yul\":872:873   */\n      0x00\n        /* \"#utility.yul\":882:995   */\n    tag_290:\n        /* \"#utility.yul\":896:902   */\n      dup4\n        /* \"#utility.yul\":893:894   */\n      dup2\n        /* \"#utility.yul\":890:903   */\n      lt\n        /* \"#utility.yul\":882:995   */\n      iszero\n      tag_292\n      jumpi\n        /* \"#utility.yul\":981:982   */\n      dup1\n        /* \"#utility.yul\":976:979   */\n      dup3\n        /* \"#utility.yul\":972:983   */\n      add\n        /* \"#utility.yul\":966:984   */\n      mload\n        /* \"#utility.yul\":962:963   */\n      dup2\n        /* \"#utility.yul\":957:960   */\n      dup5\n        /* \"#utility.yul\":953:964   */\n      add\n        /* \"#utility.yul\":946:985   */\n      mstore\n        /* \"#utility.yul\":918:920   */\n      0x20\n        /* \"#utility.yul\":915:916   */\n      dup2\n        /* \"#utility.yul\":911:921   */\n      add\n        /* \"#utility.yul\":906:921   */\n      swap1\n      pop\n        /* \"#utility.yul\":882:995   */\n      jump(tag_290)\n    tag_292:\n        /* \"#utility.yul\":1029:1030   */\n      0x00\n        /* \"#utility.yul\":1020:1026   */\n      dup5\n        /* \"#utility.yul\":1015:1018   */\n      dup5\n        /* \"#utility.yul\":1011:1027   */\n      add\n        /* \"#utility.yul\":1004:1031   */\n      mstore\n        /* \"#utility.yul\":853:1037   */\n      pop\n        /* \"#utility.yul\":791:1037   */\n      pop\n      pop\n      pop\n      jump\t// out\n        /* \"#utility.yul\":1043:1145   */\n    tag_225:\n        /* \"#utility.yul\":1084:1090   */\n      0x00\n        /* \"#utility.yul\":1135:1137   */\n      0x1f\n        /* \"#utility.yul\":1131:1138   */\n      not\n        /* \"#utility.yul\":1126:1128   */\n      0x1f\n        /* \"#utility.yul\":1119:1124   */\n      dup4\n        /* \"#utility.yul\":1115:1129   */\n      add\n        /* \"#utility.yul\":1111:1139   */\n      and\n        /* \"#utility.yul\":1101:1139   */\n      swap1\n      pop\n        /* \"#utility.yul\":1043:1145   */\n      swap2\n      swap1\n      pop\n      jump\t// out\n        /* \"#utility.yul\":1151:1508   */\n    tag_226:\n        /* \"#utility.yul\":1229:1232   */\n      0x00\n        /* \"#utility.yul\":1257:1296   */\n      tag_295\n        /* \"#utility.yul\":1290:1295   */\n      dup3\n        /* \"#utility.yul\":1257:1296   */\n      tag_222\n      jump\t// in\n    tag_295:\n        /* \"#utility.yul\":1312:1373   */\n      tag_296\n        /* \"#utility.yul\":1366:1372   */\n      dup2\n        /* \"#utility.yul\":1361:1364   */\n      dup6\n        /* \"#utility.yul\":1312:1373   */\n      tag_223\n      jump\t// in\n    tag_296:\n        /* \"#utility.yul\":1305:1373   */\n      swap4\n      pop\n        /* \"#utility.yul\":1382:1447   */\n      tag_297\n        /* \"#utility.yul\":1440:1446   */\n      dup2\n        /* \"#utility.yul\":1435:1438   */\n      dup6\n        /* \"#utility.yul\":1428:1432   */\n      0x20\n        /* \"#utility.yul\":1421:1426   */\n      dup7\n        /* \"#utility.yul\":1417:1433   */\n      add\n        /* \"#utility.yul\":1382:1447   */\n      tag_224\n      jump\t// in\n    tag_297:\n        /* \"#utility.yul\":1472:1501   */\n      tag_298\n        /* \"#utility.yul\":1494:1500   */\n      dup2\n        /* \"#utility.yul\":1472:1501   */\n      tag_225\n      jump\t// in\n    tag_298:\n        /* \"#utility.yul\":1467:1470   */\n      dup5\n        /* \"#utility.yul\":1463:1502   */\n      add\n        /* \"#utility.yul\":1456:1502   */\n      swap2\n      pop\n        /* \"#utility.yul\":1233:1508   */\n      pop\n        /* \"#utility.yul\":1151:1508   */\n      swap3\n      swap2\n      pop\n      pop\n      jump\t// out\n        /* \"#utility.yul\":1572:2232   */\n    tag_227:\n        /* \"#utility.yul\":1675:1678   */\n      0x00\n        /* \"#utility.yul\":1711:1715   */\n      0x40\n        /* \"#utility.yul\":1706:1709   */\n      dup4\n        /* \"#utility.yul\":1702:1716   */\n      add\n        /* \"#utility.yul\":1797:1801   */\n      0x00\n        /* \"#utility.yul\":1790:1795   */\n      dup4\n        /* \"#utility.yul\":1786:1802   */\n      add\n        /* \"#utility.yul\":1780:1803   */\n      mload\n        /* \"#utility.yul\":1850:1853   */\n      dup5\n        /* \"#utility.yul\":1844:1848   */\n      dup3\n        /* \"#utility.yul\":1840:1854   */\n      sub\n        /* \"#utility.yul\":1833:1837   */\n      0x00\n        /* \"#utility.yul\":1828:1831   */\n      dup7\n        /* \"#utility.yul\":1824:1838   */\n      add\n        /* \"#utility.yul\":1817:1855   */\n      mstore\n        /* \"#utility.yul\":1876:1949   */\n      tag_300\n        /* \"#utility.yul\":1944:1948   */\n      dup3\n        /* \"#utility.yul\":1930:1942   */\n      dup3\n        /* \"#utility.yul\":1876:1949   */\n      tag_226\n      jump\t// in\n    tag_300:\n        /* \"#utility.yul\":1868:1949   */\n      swap2\n      pop\n        /* \"#utility.yul\":1726:1960   */\n      pop\n        /* \"#utility.yul\":2042:2046   */\n      0x20\n        /* \"#utility.yul\":2035:2040   */\n      dup4\n        /* \"#utility.yul\":2031:2047   */\n      add\n        /* \"#utility.yul\":2025:2048   */\n      mload\n        /* \"#utility.yul\":2095:2098   */\n      dup5\n        /* \"#utility.yul\":2089:2093   */\n      dup3\n        /* \"#utility.yul\":2085:2099   */\n      sub\n        /* \"#utility.yul\":2078:2082   */\n      0x20\n        /* \"#utility.yul\":2073:2076   */\n      dup7\n        /* \"#utility.yul\":2069:2083   */\n      add\n        /* \"#utility.yul\":2062:2100   */\n      mstore\n        /* \"#utility.yul\":2121:2194   */\n      tag_301\n        /* \"#utility.yul\":2189:2193   */\n      dup3\n        /* \"#utility.yul\":2175:2187   */\n      dup3\n        /* \"#utility.yul\":2121:2194   */\n      tag_226\n      jump\t// in\n    tag_301:\n        /* \"#utility.yul\":2113:2194   */\n      swap2\n      pop\n        /* \"#utility.yul\":1970:2205   */\n      pop\n        /* \"#utility.yul\":2222:2226   */\n      dup1\n        /* \"#utility.yul\":2215:2226   */\n      swap2\n      pop\n        /* \"#utility.yul\":1680:2232   */\n      pop\n        /* \"#utility.yul\":1572:2232   */\n      swap3\n      swap2\n      pop\n      pop\n      jump\t// out\n        /* \"#utility.yul\":2238:2482   */\n    tag_228:\n        /* \"#utility.yul\":2351:2361   */\n      0x00\n        /* \"#utility.yul\":2386:2476   */\n      tag_303\n        /* \"#utility.yul\":2472:2475   */\n      dup4\n        /* \"#utility.yul\":2464:2470   */\n      dup4\n        /* \"#utility.yul\":2386:2476   */\n      tag_227\n      jump\t// in\n    tag_303:\n        /* \"#utility.yul\":2372:2476   */\n      swap1\n      pop\n        /* \"#utility.yul\":2238:2482   */\n      swap3\n      swap2\n      pop\n      pop\n      jump\t// out\n        /* \"#utility.yul\":2488:2623   */\n    tag_229:\n        /* \"#utility.yul\":2580:2584   */\n      0x00\n        /* \"#utility.yul\":2612:2616   */\n      0x20\n        /* \"#utility.yul\":2607:2610   */\n      dup3\n        /* \"#utility.yul\":2603:2617   */\n      add\n        /* \"#utility.yul\":2595:2617   */\n      swap1\n      pop\n        /* \"#utility.yul\":2488:2623   */\n      swap2\n      swap1\n      pop\n      jump\t// out\n        /* \"#utility.yul\":2691:3778   */\n    tag_230:\n        /* \"#utility.yul\":2854:2857   */\n      0x00\n        /* \"#utility.yul\":2883:2959   */\n      tag_306\n        /* \"#utility.yul\":2953:2958   */\n      dup3\n        /* \"#utility.yul\":2883:2959   */\n      tag_219\n      jump\t// in\n    tag_306:\n        /* \"#utility.yul\":2975:3083   */\n      tag_307\n        /* \"#utility.yul\":3076:3082   */\n      dup2\n        /* \"#utility.yul\":3071:3074   */\n      dup6\n        /* \"#utility.yul\":2975:3083   */\n      tag_220\n      jump\t// in\n    tag_307:\n        /* \"#utility.yul\":2968:3083   */\n      swap4\n      pop\n        /* \"#utility.yul\":3109:3112   */\n      dup4\n        /* \"#utility.yul\":3154:3158   */\n      0x20\n        /* \"#utility.yul\":3146:3152   */\n      dup3\n        /* \"#utility.yul\":3142:3159   */\n      mul\n        /* \"#utility.yul\":3137:3140   */\n      dup6\n        /* \"#utility.yul\":3133:3160   */\n      add\n        /* \"#utility.yul\":3184:3262   */\n      tag_308\n        /* \"#utility.yul\":3256:3261   */\n      dup6\n        /* \"#utility.yul\":3184:3262   */\n      tag_221\n      jump\t// in\n    tag_308:\n        /* \"#utility.yul\":3285:3292   */\n      dup1\n        /* \"#utility.yul\":3316:3317   */\n      0x00\n        /* \"#utility.yul\":3301:3733   */\n    tag_309:\n        /* \"#utility.yul\":3326:3332   */\n      dup6\n        /* \"#utility.yul\":3323:3324   */\n      dup2\n        /* \"#utility.yul\":3320:3333   */\n      lt\n        /* \"#utility.yul\":3301:3733   */\n      iszero\n      tag_311\n      jumpi\n        /* \"#utility.yul\":3397:3406   */\n      dup5\n        /* \"#utility.yul\":3391:3395   */\n      dup5\n        /* \"#utility.yul\":3387:3407   */\n      sub\n        /* \"#utility.yul\":3382:3385   */\n      dup10\n        /* \"#utility.yul\":3375:3408   */\n      mstore\n        /* \"#utility.yul\":3448:3454   */\n      dup2\n        /* \"#utility.yul\":3442:3455   */\n      mload\n        /* \"#utility.yul\":3476:3584   */\n      tag_312\n        /* \"#utility.yul\":3579:3583   */\n      dup6\n        /* \"#utility.yul\":3564:3577   */\n      dup3\n        /* \"#utility.yul\":3476:3584   */\n      tag_228\n      jump\t// in\n    tag_312:\n        /* \"#utility.yul\":3468:3584   */\n      swap5\n      pop\n        /* \"#utility.yul\":3607:3689   */\n      tag_313\n        /* \"#utility.yul\":3682:3688   */\n      dup4\n        /* \"#utility.yul\":3607:3689   */\n      tag_229\n      jump\t// in\n    tag_313:\n        /* \"#utility.yul\":3597:3689   */\n      swap3\n      pop\n        /* \"#utility.yul\":3718:3722   */\n      0x20\n        /* \"#utility.yul\":3713:3716   */\n      dup11\n        /* \"#utility.yul\":3709:3723   */\n      add\n        /* \"#utility.yul\":3702:3723   */\n      swap10\n      pop\n        /* \"#utility.yul\":3361:3733   */\n      pop\n        /* \"#utility.yul\":3348:3349   */\n      0x01\n        /* \"#utility.yul\":3345:3346   */\n      dup2\n        /* \"#utility.yul\":3341:3350   */\n      add\n        /* \"#utility.yul\":3336:3350   */\n      swap1\n      pop\n        /* \"#utility.yul\":3301:3733   */\n      jump(tag_309)\n    tag_311:\n        /* \"#utility.yul\":3305:3319   */\n      pop\n        /* \"#utility.yul\":3749:3753   */\n      dup3\n        /* \"#utility.yul\":3742:3753   */\n      swap8\n      pop\n        /* \"#utility.yul\":3769:3772   */\n      dup8\n        /* \"#utility.yul\":3762:3772   */\n      swap6\n      pop\n        /* \"#utility.yul\":2859:3778   */\n      pop\n      pop\n      pop\n      pop\n      pop\n        /* \"#utility.yul\":2691:3778   */\n      swap3\n      swap2\n      pop\n      pop\n      jump\t// out\n        /* \"#utility.yul\":3784:4245   */\n    tag_23:\n        /* \"#utility.yul\":3971:3975   */\n      0x00\n        /* \"#utility.yul\":4009:4011   */\n      0x20\n        /* \"#utility.yul\":3998:4007   */\n      dup3\n        /* \"#utility.yul\":3994:4012   */\n      add\n        /* \"#utility.yul\":3986:4012   */\n      swap1\n      pop\n        /* \"#utility.yul\":4058:4067   */\n      dup2\n        /* \"#utility.yul\":4052:4056   */\n      dup2\n        /* \"#utility.yul\":4048:4068   */\n      sub\n        /* \"#utility.yul\":4044:4045   */\n      0x00\n        /* \"#utility.yul\":4033:4042   */\n      dup4\n        /* \"#utility.yul\":4029:4046   */\n      add\n        /* \"#utility.yul\":4022:4069   */\n      mstore\n        /* \"#utility.yul\":4086:4238   */\n      tag_315\n        /* \"#utility.yul\":4233:4237   */\n      dup2\n        /* \"#utility.yul\":4224:4230   */\n      dup5\n        /* \"#utility.yul\":4086:4238   */\n      tag_230\n      jump\t// in\n    tag_315:\n        /* \"#utility.yul\":4078:4238   */\n      swap1\n      pop\n        /* \"#utility.yul\":3784:4245   */\n      swap3\n      swap2\n      pop\n      pop\n      jump\t// out\n        /* \"#utility.yul\":4251:4420   */\n    tag_231:\n        /* \"#utility.yul\":4335:4346   */\n      0x00\n        /* \"#utility.yul\":4369:4375   */\n      dup3\n        /* \"#utility.yul\":4364:4367   */\n      dup3\n        /* \"#utility.yul\":4357:4376   */\n      mstore\n        /* \"#utility.yul\":4409:4413   */\n      0x20\n        /* \"#utility.yul\":4404:4407   */\n      dup3\n        /* \"#utility.yul\":4400:4414   */\n      add\n        /* \"#utility.yul\":4385:4414   */\n      swap1\n      pop\n        /* \"#utility.yul\":4251:4420   */\n      swap3\n      swap2\n      pop\n      pop\n      jump\t// out\n        /* \"#utility.yul\":4426:4803   */\n    tag_232:\n        /* \"#utility.yul\":4514:4517   */\n      0x00\n        /* \"#utility.yul\":4542:4581   */\n      tag_318\n        /* \"#utility.yul\":4575:4580   */\n      dup3\n        /* \"#utility.yul\":4542:4581   */\n      tag_222\n      jump\t// in\n    tag_318:\n        /* \"#utility.yul\":4597:4668   */\n      tag_319\n        /* \"#utility.yul\":4661:4667   */\n      dup2\n        /* \"#utility.yul\":4656:4659   */\n      dup6\n        /* \"#utility.yul\":4597:4668   */\n      tag_231\n      jump\t// in\n    tag_319:\n        /* \"#utility.yul\":4590:4668   */\n      swap4\n      pop\n        /* \"#utility.yul\":4677:4742   */\n      tag_320\n        /* \"#utility.yul\":4735:4741   */\n      dup2\n        /* \"#utility.yul\":4730:4733   */\n      dup6\n        /* \"#utility.yul\":4723:4727   */\n      0x20\n        /* \"#utility.yul\":4716:4721   */\n      dup7\n        /* \"#utility.yul\":4712:4728   */\n      add\n        /* \"#utility.yul\":4677:4742   */\n      tag_224\n      jump\t// in\n    tag_320:\n        /* \"#utility.yul\":4767:4796   */\n      tag_321\n        /* \"#utility.yul\":4789:4795   */\n      dup2\n        /* \"#utility.yul\":4767:4796   */\n      tag_225\n      jump\t// in\n    tag_321:\n        /* \"#utility.yul\":4762:4765   */\n      dup5\n        /* \"#utility.yul\":4758:4797   */\n      add\n        /* \"#utility.yul\":4751:4797   */\n      swap2\n      pop\n        /* \"#utility.yul\":4518:4803   */\n      pop\n        /* \"#utility.yul\":4426:4803   */\n      swap3\n      swap2\n      pop\n      pop\n      jump\t// out\n        /* \"#utility.yul\":4809:5122   */\n    tag_27:\n        /* \"#utility.yul\":4922:4926   */\n      0x00\n        /* \"#utility.yul\":4960:4962   */\n      0x20\n        /* \"#utility.yul\":4949:4958   */\n      dup3\n        /* \"#utility.yul\":4945:4963   */\n      add\n        /* \"#utility.yul\":4937:4963   */\n      swap1\n      pop\n        /* \"#utility.yul\":5009:5018   */\n      dup2\n        /* \"#utility.yul\":5003:5007   */\n      dup2\n        /* \"#utility.yul\":4999:5019   */\n      sub\n        /* \"#utility.yul\":4995:4996   */\n      0x00\n        /* \"#utility.yul\":4984:4993   */\n      dup4\n        /* \"#utility.yul\":4980:4997   */\n      add\n        /* \"#utility.yul\":4973:5020   */\n      mstore\n        /* \"#utility.yul\":5037:5115   */\n      tag_323\n        /* \"#utility.yul\":5110:5114   */\n      dup2\n        /* \"#utility.yul\":5101:5107   */\n      dup5\n        /* \"#utility.yul\":5037:5115   */\n      tag_232\n      jump\t// in\n    tag_323:\n        /* \"#utility.yul\":5029:5115   */\n      swap1\n      pop\n        /* \"#utility.yul\":4809:5122   */\n      swap3\n      swap2\n      pop\n      pop\n      jump\t// out\n        /* \"#utility.yul\":5209:5326   */\n    tag_234:\n        /* \"#utility.yul\":5318:5319   */\n      0x00\n        /* \"#utility.yul\":5315:5316   */\n      dup1\n        /* \"#utility.yul\":5308:5320   */\n      revert\n        /* \"#utility.yul\":5455:5581   */\n    tag_236:\n        /* \"#utility.yul\":5492:5499   */\n      0x00\n        /* \"#utility.yul\":5532:5574   */\n      0xffffffffffffffffffffffffffffffffffffffff\n        /* \"#utility.yul\":5525:5530   */\n      dup3\n        /* \"#utility.yul\":5521:5575   */\n      and\n        /* \"#utility.yul\":5510:5575   */\n      swap1\n      pop\n        /* \"#utility.yul\":5455:5581   */\n      swap2\n      swap1\n      pop\n      jump\t// out\n        /* \"#utility.yul\":5587:5683   */\n    tag_237:\n        /* \"#utility.yul\":5624:5631   */\n      0x00\n        /* \"#utility.yul\":5653:5677   */\n      tag_329\n        /* \"#utility.yul\":5671:5676   */\n      dup3\n        /* \"#utility.yul\":5653:5677   */\n      tag_236\n      jump\t// in\n    tag_329:\n        /* \"#utility.yul\":5642:5677   */\n      swap1\n      pop\n        /* \"#utility.yul\":5587:5683   */\n      swap2\n      swap1\n      pop\n      jump\t// out\n        /* \"#utility.yul\":5689:5811   */\n    tag_238:\n        /* \"#utility.yul\":5762:5786   */\n      tag_331\n        /* \"#utility.yul\":5780:5785   */\n      dup2\n        /* \"#utility.yul\":5762:5786   */\n      tag_237\n      jump\t// in\n    tag_331:\n        /* \"#utility.yul\":5755:5760   */\n      dup2\n        /* \"#utility.yul\":5752:5787   */\n      eq\n        /* \"#utility.yul\":5742:5805   */\n      tag_332\n      jumpi\n        /* \"#utility.yul\":5801:5802   */\n      0x00\n        /* \"#utility.yul\":5798:5799   */\n      dup1\n        /* \"#utility.yul\":5791:5803   */\n      revert\n        /* \"#utility.yul\":5742:5805   */\n    tag_332:\n        /* \"#utility.yul\":5689:5811   */\n      pop\n      jump\t// out\n        /* \"#utility.yul\":5817:5956   */\n    tag_239:\n        /* \"#utility.yul\":5863:5868   */\n      0x00\n        /* \"#utility.yul\":5901:5907   */\n      dup2\n        /* \"#utility.yul\":5888:5908   */\n      calldataload\n        /* \"#utility.yul\":5879:5908   */\n      swap1\n      pop\n        /* \"#utility.yul\":5917:5950   */\n      tag_334\n        /* \"#utility.yul\":5944:5949   */\n      dup2\n        /* \"#utility.yul\":5917:5950   */\n      tag_238\n      jump\t// in\n    tag_334:\n        /* \"#utility.yul\":5817:5956   */\n      swap3\n      swap2\n      pop\n      pop\n      jump\t// out\n        /* \"#utility.yul\":5962:6039   */\n    tag_240:\n        /* \"#utility.yul\":5999:6006   */\n      0x00\n        /* \"#utility.yul\":6028:6033   */\n      dup2\n        /* \"#utility.yul\":6017:6033   */\n      swap1\n      pop\n        /* \"#utility.yul\":5962:6039   */\n      swap2\n      swap1\n      pop\n      jump\t// out\n        /* \"#utility.yul\":6045:6167   */\n    tag_241:\n        /* \"#utility.yul\":6118:6142   */\n      tag_337\n        /* \"#utility.yul\":6136:6141   */\n      dup2\n        /* \"#utility.yul\":6118:6142   */\n      tag_240\n      jump\t// in\n    tag_337:\n        /* \"#utility.yul\":6111:6116   */\n      dup2\n        /* \"#utility.yul\":6108:6143   */\n      eq\n        /* \"#utility.yul\":6098:6161   */\n      tag_338\n      jumpi\n        /* \"#utility.yul\":6157:6158   */\n      0x00\n        /* \"#utility.yul\":6154:6155   */\n      dup1\n        /* \"#utility.yul\":6147:6159   */\n      revert\n        /* \"#utility.yul\":6098:6161   */\n    tag_338:\n        /* \"#utility.yul\":6045:6167   */\n      pop\n      jump\t// out\n        /* \"#utility.yul\":6173:6312   */\n    tag_242:\n        /* \"#utility.yul\":6219:6224   */\n      0x00\n        /* \"#utility.yul\":6257:6263   */\n      dup2\n        /* \"#utility.yul\":6244:6264   */\n      calldataload\n        /* \"#utility.yul\":6235:6264   */\n      swap1\n      pop\n        /* \"#utility.yul\":6273:6306   */\n      tag_340\n        /* \"#utility.yul\":6300:6305   */\n      dup2\n        /* \"#utility.yul\":6273:6306   */\n      tag_241\n      jump\t// in\n    tag_340:\n        /* \"#utility.yul\":6173:6312   */\n      swap3\n      swap2\n      pop\n      pop\n      jump\t// out\n        /* \"#utility.yul\":6318:6792   */\n    tag_30:\n        /* \"#utility.yul\":6386:6392   */\n      0x00\n        /* \"#utility.yul\":6394:6400   */\n      dup1\n        /* \"#utility.yul\":6443:6445   */\n      0x40\n        /* \"#utility.yul\":6431:6440   */\n      dup4\n        /* \"#utility.yul\":6422:6429   */\n      dup6\n        /* \"#utility.yul\":6418:6441   */\n      sub\n        /* \"#utility.yul\":6414:6446   */\n      slt\n        /* \"#utility.yul\":6411:6530   */\n      iszero\n      tag_342\n      jumpi\n        /* \"#utility.yul\":6449:6528   */\n      tag_343\n      tag_234\n      jump\t// in\n    tag_343:\n        /* \"#utility.yul\":6411:6530   */\n    tag_342:\n        /* \"#utility.yul\":6569:6570   */\n      0x00\n        /* \"#utility.yul\":6594:6647   */\n      tag_344\n        /* \"#utility.yul\":6639:6646   */\n      dup6\n        /* \"#utility.yul\":6630:6636   */\n      dup3\n        /* \"#utility.yul\":6619:6628   */\n      dup7\n        /* \"#utility.yul\":6615:6637   */\n      add\n        /* \"#utility.yul\":6594:6647   */\n      tag_239\n      jump\t// in\n    tag_344:\n        /* \"#utility.yul\":6584:6647   */\n      swap3\n      pop\n        /* \"#utility.yul\":6540:6657   */\n      pop\n        /* \"#utility.yul\":6696:6698   */\n      0x20\n        /* \"#utility.yul\":6722:6775   */\n      tag_345\n        /* \"#utility.yul\":6767:6774   */\n      dup6\n        /* \"#utility.yul\":6758:6764   */\n      dup3\n        /* \"#utility.yul\":6747:6756   */\n      dup7\n        /* \"#utility.yul\":6743:6765   */\n      add\n        /* \"#utility.yul\":6722:6775   */\n      tag_242\n      jump\t// in\n    tag_345:\n        /* \"#utility.yul\":6712:6775   */\n      swap2\n      pop\n        /* \"#utility.yul\":6667:6785   */\n      pop\n        /* \"#utility.yul\":6318:6792   */\n      swap3\n      pop\n      swap3\n      swap1\n      pop\n      jump\t// out\n        /* \"#utility.yul\":6798:6888   */\n    tag_243:\n        /* \"#utility.yul\":6832:6839   */\n      0x00\n        /* \"#utility.yul\":6875:6880   */\n      dup2\n        /* \"#utility.yul\":6868:6881   */\n      iszero\n        /* \"#utility.yul\":6861:6882   */\n      iszero\n        /* \"#utility.yul\":6850:6882   */\n      swap1\n      pop\n        /* \"#utility.yul\":6798:6888   */\n      swap2\n      swap1\n      pop\n      jump\t// out\n        /* \"#utility.yul\":6894:7003   */\n    tag_244:\n        /* \"#utility.yul\":6975:6996   */\n      tag_348\n        /* \"#utility.yul\":6990:6995   */\n      dup2\n        /* \"#utility.yul\":6975:6996   */\n      tag_243\n      jump\t// in\n    tag_348:\n        /* \"#utility.yul\":6970:6973   */\n      dup3\n        /* \"#utility.yul\":6963:6997   */\n      mstore\n        /* \"#utility.yul\":6894:7003   */\n      pop\n      pop\n      jump\t// out\n        /* \"#utility.yul\":7009:7219   */\n    tag_33:\n        /* \"#utility.yul\":7096:7100   */\n      0x00\n        /* \"#utility.yul\":7134:7136   */\n      0x20\n        /* \"#utility.yul\":7123:7132   */\n      dup3\n        /* \"#utility.yul\":7119:7137   */\n      add\n        /* \"#utility.yul\":7111:7137   */\n      swap1\n      pop\n        /* \"#utility.yul\":7147:7212   */\n      tag_350\n        /* \"#utility.yul\":7209:7210   */\n      0x00\n        /* \"#utility.yul\":7198:7207   */\n      dup4\n        /* \"#utility.yul\":7194:7211   */\n      add\n        /* \"#utility.yul\":7185:7191   */\n      dup5\n        /* \"#utility.yul\":7147:7212   */\n      tag_244\n      jump\t// in\n    tag_350:\n        /* \"#utility.yul\":7009:7219   */\n      swap3\n      swap2\n      pop\n      pop\n      jump\t// out\n        /* \"#utility.yul\":7225:7343   */\n    tag_245:\n        /* \"#utility.yul\":7312:7336   */\n      tag_352\n        /* \"#utility.yul\":7330:7335   */\n      dup2\n        /* \"#utility.yul\":7312:7336   */\n      tag_240\n      jump\t// in\n    tag_352:\n        /* \"#utility.yul\":7307:7310   */\n      dup3\n        /* \"#utility.yul\":7300:7337   */\n      mstore\n        /* \"#utility.yul\":7225:7343   */\n      pop\n      pop\n      jump\t// out\n        /* \"#utility.yul\":7349:7571   */\n    tag_37:\n        /* \"#utility.yul\":7442:7446   */\n      0x00\n        /* \"#utility.yul\":7480:7482   */\n      0x20\n        /* \"#utility.yul\":7469:7478   */\n      dup3\n        /* \"#utility.yul\":7465:7483   */\n      add\n        /* \"#utility.yul\":7457:7483   */\n      swap1\n      pop\n        /* \"#utility.yul\":7493:7564   */\n      tag_354\n        /* \"#utility.yul\":7561:7562   */\n      0x00\n        /* \"#utility.yul\":7550:7559   */\n      dup4\n        /* \"#utility.yul\":7546:7563   */\n      add\n        /* \"#utility.yul\":7537:7543   */\n      dup5\n        /* \"#utility.yul\":7493:7564   */\n      tag_245\n      jump\t// in\n    tag_354:\n        /* \"#utility.yul\":7349:7571   */\n      swap3\n      swap2\n      pop\n      pop\n      jump\t// out\n        /* \"#utility.yul\":7577:8196   */\n    tag_40:\n        /* \"#utility.yul\":7654:7660   */\n      0x00\n        /* \"#utility.yul\":7662:7668   */\n      dup1\n        /* \"#utility.yul\":7670:7676   */\n      0x00\n        /* \"#utility.yul\":7719:7721   */\n      0x60\n        /* \"#utility.yul\":7707:7716   */\n      dup5\n        /* \"#utility.yul\":7698:7705   */\n      dup7\n        /* \"#utility.yul\":7694:7717   */\n      sub\n        /* \"#utility.yul\":7690:7722   */\n      slt\n        /* \"#utility.yul\":7687:7806   */\n      iszero\n      tag_356\n      jumpi\n        /* \"#utility.yul\":7725:7804   */\n      tag_357\n      tag_234\n      jump\t// in\n    tag_357:\n        /* \"#utility.yul\":7687:7806   */\n    tag_356:\n        /* \"#utility.yul\":7845:7846   */\n      0x00\n        /* \"#utility.yul\":7870:7923   */\n      tag_358\n        /* \"#utility.yul\":7915:7922   */\n      dup7\n        /* \"#utility.yul\":7906:7912   */\n      dup3\n        /* \"#utility.yul\":7895:7904   */\n      dup8\n        /* \"#utility.yul\":7891:7913   */\n      add\n        /* \"#utility.yul\":7870:7923   */\n      tag_239\n      jump\t// in\n    tag_358:\n        /* \"#utility.yul\":7860:7923   */\n      swap4\n      pop\n        /* \"#utility.yul\":7816:7933   */\n      pop\n        /* \"#utility.yul\":7972:7974   */\n      0x20\n        /* \"#utility.yul\":7998:8051   */\n      tag_359\n        /* \"#utility.yul\":8043:8050   */\n      dup7\n        /* \"#utility.yul\":8034:8040   */\n      dup3\n        /* \"#utility.yul\":8023:8032   */\n      dup8\n        /* \"#utility.yul\":8019:8041   */\n      add\n        /* \"#utility.yul\":7998:8051   */\n      tag_239\n      jump\t// in\n    tag_359:\n        /* \"#utility.yul\":7988:8051   */\n      swap3\n      pop\n        /* \"#utility.yul\":7943:8061   */\n      pop\n        /* \"#utility.yul\":8100:8102   */\n      0x40\n        /* \"#utility.yul\":8126:8179   */\n      tag_360\n        /* \"#utility.yul\":8171:8178   */\n      dup7\n        /* \"#utility.yul\":8162:8168   */\n      dup3\n        /* \"#utility.yul\":8151:8160   */\n      dup8\n        /* \"#utility.yul\":8147:8169   */\n      add\n        /* \"#utility.yul\":8126:8179   */\n      tag_242\n      jump\t// in\n    tag_360:\n        /* \"#utility.yul\":8116:8179   */\n      swap2\n      pop\n        /* \"#utility.yul\":8071:8189   */\n      pop\n        /* \"#utility.yul\":7577:8196   */\n      swap3\n      pop\n      swap3\n      pop\n      swap3\n      jump\t// out\n        /* \"#utility.yul\":8202:8288   */\n    tag_246:\n        /* \"#utility.yul\":8237:8244   */\n      0x00\n        /* \"#utility.yul\":8277:8281   */\n      0xff\n        /* \"#utility.yul\":8270:8275   */\n      dup3\n        /* \"#utility.yul\":8266:8282   */\n      and\n        /* \"#utility.yul\":8255:8282   */\n      swap1\n      pop\n        /* \"#utility.yul\":8202:8288   */\n      swap2\n      swap1\n      pop\n      jump\t// out\n        /* \"#utility.yul\":8294:8406   */\n    tag_247:\n        /* \"#utility.yul\":8377:8399   */\n      tag_363\n        /* \"#utility.yul\":8393:8398   */\n      dup2\n        /* \"#utility.yul\":8377:8399   */\n      tag_246\n      jump\t// in\n    tag_363:\n        /* \"#utility.yul\":8372:8375   */\n      dup3\n        /* \"#utility.yul\":8365:8400   */\n      mstore\n        /* \"#utility.yul\":8294:8406   */\n      pop\n      pop\n      jump\t// out\n        /* \"#utility.yul\":8412:8626   */\n    tag_46:\n        /* \"#utility.yul\":8501:8505   */\n      0x00\n        /* \"#utility.yul\":8539:8541   */\n      0x20\n        /* \"#utility.yul\":8528:8537   */\n      dup3\n        /* \"#utility.yul\":8524:8542   */\n      add\n        /* \"#utility.yul\":8516:8542   */\n      swap1\n      pop\n        /* \"#utility.yul\":8552:8619   */\n      tag_365\n        /* \"#utility.yul\":8616:8617   */\n      0x00\n        /* \"#utility.yul\":8605:8614   */\n      dup4\n        /* \"#utility.yul\":8601:8618   */\n      add\n        /* \"#utility.yul\":8592:8598   */\n      dup5\n        /* \"#utility.yul\":8552:8619   */\n      tag_247\n      jump\t// in\n    tag_365:\n        /* \"#utility.yul\":8412:8626   */\n      swap3\n      swap2\n      pop\n      pop\n      jump\t// out\n        /* \"#utility.yul\":8632:8961   */\n    tag_49:\n        /* \"#utility.yul\":8691:8697   */\n      0x00\n        /* \"#utility.yul\":8740:8742   */\n      0x20\n        /* \"#utility.yul\":8728:8737   */\n      dup3\n        /* \"#utility.yul\":8719:8726   */\n      dup5\n        /* \"#utility.yul\":8715:8738   */\n      sub\n        /* \"#utility.yul\":8711:8743   */\n      slt\n        /* \"#utility.yul\":8708:8827   */\n      iszero\n      tag_367\n      jumpi\n        /* \"#utility.yul\":8746:8825   */\n      tag_368\n      tag_234\n      jump\t// in\n    tag_368:\n        /* \"#utility.yul\":8708:8827   */\n    tag_367:\n        /* \"#utility.yul\":8866:8867   */\n      0x00\n        /* \"#utility.yul\":8891:8944   */\n      tag_369\n        /* \"#utility.yul\":8936:8943   */\n      dup5\n        /* \"#utility.yul\":8927:8933   */\n      dup3\n        /* \"#utility.yul\":8916:8925   */\n      dup6\n        /* \"#utility.yul\":8912:8934   */\n      add\n        /* \"#utility.yul\":8891:8944   */\n      tag_242\n      jump\t// in\n    tag_369:\n        /* \"#utility.yul\":8881:8944   */\n      swap2\n      pop\n        /* \"#utility.yul\":8837:8954   */\n      pop\n        /* \"#utility.yul\":8632:8961   */\n      swap3\n      swap2\n      pop\n      pop\n      jump\t// out\n        /* \"#utility.yul\":8967:9085   */\n    tag_248:\n        /* \"#utility.yul\":9054:9078   */\n      tag_371\n        /* \"#utility.yul\":9072:9077   */\n      dup2\n        /* \"#utility.yul\":9054:9078   */\n      tag_237\n      jump\t// in\n    tag_371:\n        /* \"#utility.yul\":9049:9052   */\n      dup3\n        /* \"#utility.yul\":9042:9079   */\n      mstore\n        /* \"#utility.yul\":8967:9085   */\n      pop\n      pop\n      jump\t// out\n        /* \"#utility.yul\":9091:9313   */\n    tag_52:\n        /* \"#utility.yul\":9184:9188   */\n      0x00\n        /* \"#utility.yul\":9222:9224   */\n      0x20\n        /* \"#utility.yul\":9211:9220   */\n      dup3\n        /* \"#utility.yul\":9207:9225   */\n      add\n        /* \"#utility.yul\":9199:9225   */\n      swap1\n      pop\n        /* \"#utility.yul\":9235:9306   */\n      tag_373\n        /* \"#utility.yul\":9303:9304   */\n      0x00\n        /* \"#utility.yul\":9292:9301   */\n      dup4\n        /* \"#utility.yul\":9288:9305   */\n      add\n        /* \"#utility.yul\":9279:9285   */\n      dup5\n        /* \"#utility.yul\":9235:9306   */\n      tag_248\n      jump\t// in\n    tag_373:\n        /* \"#utility.yul\":9091:9313   */\n      swap3\n      swap2\n      pop\n      pop\n      jump\t// out\n        /* \"#utility.yul\":9319:9833   */\n    tag_57:\n        /* \"#utility.yul\":9480:9484   */\n      0x00\n        /* \"#utility.yul\":9518:9520   */\n      0x40\n        /* \"#utility.yul\":9507:9516   */\n      dup3\n        /* \"#utility.yul\":9503:9521   */\n      add\n        /* \"#utility.yul\":9495:9521   */\n      swap1\n      pop\n        /* \"#utility.yul\":9567:9576   */\n      dup2\n        /* \"#utility.yul\":9561:9565   */\n      dup2\n        /* \"#utility.yul\":9557:9577   */\n      sub\n        /* \"#utility.yul\":9553:9554   */\n      0x00\n        /* \"#utility.yul\":9542:9551   */\n      dup4\n        /* \"#utility.yul\":9538:9555   */\n      add\n        /* \"#utility.yul\":9531:9578   */\n      mstore\n        /* \"#utility.yul\":9595:9673   */\n      tag_375\n        /* \"#utility.yul\":9668:9672   */\n      dup2\n        /* \"#utility.yul\":9659:9665   */\n      dup6\n        /* \"#utility.yul\":9595:9673   */\n      tag_232\n      jump\t// in\n    tag_375:\n        /* \"#utility.yul\":9587:9673   */\n      swap1\n      pop\n        /* \"#utility.yul\":9720:9729   */\n      dup2\n        /* \"#utility.yul\":9714:9718   */\n      dup2\n        /* \"#utility.yul\":9710:9730   */\n      sub\n        /* \"#utility.yul\":9705:9707   */\n      0x20\n        /* \"#utility.yul\":9694:9703   */\n      dup4\n        /* \"#utility.yul\":9690:9708   */\n      add\n        /* \"#utility.yul\":9683:9731   */\n      mstore\n        /* \"#utility.yul\":9748:9826   */\n      tag_376\n        /* \"#utility.yul\":9821:9825   */\n      dup2\n        /* \"#utility.yul\":9812:9818   */\n      dup5\n        /* \"#utility.yul\":9748:9826   */\n      tag_232\n      jump\t// in\n    tag_376:\n        /* \"#utility.yul\":9740:9826   */\n      swap1\n      pop\n        /* \"#utility.yul\":9319:9833   */\n      swap4\n      swap3\n      pop\n      pop\n      pop\n      jump\t// out\n        /* \"#utility.yul\":9839:9973   */\n    tag_249:\n        /* \"#utility.yul\":9926:9932   */\n      0x00\n        /* \"#utility.yul\":9960:9965   */\n      dup2\n        /* \"#utility.yul\":9954:9966   */\n      mload\n        /* \"#utility.yul\":9944:9966   */\n      swap1\n      pop\n        /* \"#utility.yul\":9839:9973   */\n      swap2\n      swap1\n      pop\n      jump\t// out\n        /* \"#utility.yul\":9979:10183   */\n    tag_250:\n        /* \"#utility.yul\":10098:10109   */\n      0x00\n        /* \"#utility.yul\":10132:10138   */\n      dup3\n        /* \"#utility.yul\":10127:10130   */\n      dup3\n        /* \"#utility.yul\":10120:10139   */\n      mstore\n        /* \"#utility.yul\":10172:10176   */\n      0x20\n        /* \"#utility.yul\":10167:10170   */\n      dup3\n        /* \"#utility.yul\":10163:10177   */\n      add\n        /* \"#utility.yul\":10148:10177   */\n      swap1\n      pop\n        /* \"#utility.yul\":9979:10183   */\n      swap3\n      swap2\n      pop\n      pop\n      jump\t// out\n        /* \"#utility.yul\":10189:10341   */\n    tag_251:\n        /* \"#utility.yul\":10276:10280   */\n      0x00\n        /* \"#utility.yul\":10299:10302   */\n      dup2\n        /* \"#utility.yul\":10291:10302   */\n      swap1\n      pop\n        /* \"#utility.yul\":10329:10333   */\n      0x20\n        /* \"#utility.yul\":10324:10327   */\n      dup3\n        /* \"#utility.yul\":10320:10334   */\n      add\n        /* \"#utility.yul\":10312:10334   */\n      swap1\n      pop\n        /* \"#utility.yul\":10189:10341   */\n      swap2\n      swap1\n      pop\n      jump\t// out\n        /* \"#utility.yul\":10347:10455   */\n    tag_252:\n        /* \"#utility.yul\":10424:10448   */\n      tag_381\n        /* \"#utility.yul\":10442:10447   */\n      dup2\n        /* \"#utility.yul\":10424:10448   */\n      tag_237\n      jump\t// in\n    tag_381:\n        /* \"#utility.yul\":10419:10422   */\n      dup3\n        /* \"#utility.yul\":10412:10449   */\n      mstore\n        /* \"#utility.yul\":10347:10455   */\n      pop\n      pop\n      jump\t// out\n        /* \"#utility.yul\":10515:10831   */\n    tag_253:\n        /* \"#utility.yul\":10642:10646   */\n      0x20\n        /* \"#utility.yul\":10637:10640   */\n      dup3\n        /* \"#utility.yul\":10633:10647   */\n      add\n        /* \"#utility.yul\":10732:10736   */\n      0x00\n        /* \"#utility.yul\":10725:10730   */\n      dup3\n        /* \"#utility.yul\":10721:10737   */\n      add\n        /* \"#utility.yul\":10715:10738   */\n      mload\n        /* \"#utility.yul\":10751:10814   */\n      tag_383\n        /* \"#utility.yul\":10808:10812   */\n      0x00\n        /* \"#utility.yul\":10803:10806   */\n      dup6\n        /* \"#utility.yul\":10799:10813   */\n      add\n        /* \"#utility.yul\":10785:10797   */\n      dup3\n        /* \"#utility.yul\":10751:10814   */\n      tag_252\n      jump\t// in\n    tag_383:\n        /* \"#utility.yul\":10657:10824   */\n      pop\n        /* \"#utility.yul\":10611:10831   */\n      pop\n        /* \"#utility.yul\":10515:10831   */\n      pop\n      pop\n      jump\t// out\n        /* \"#utility.yul\":10837:11096   */\n    tag_254:\n        /* \"#utility.yul\":10946:10956   */\n      0x00\n        /* \"#utility.yul\":10967:11053   */\n      tag_385\n        /* \"#utility.yul\":11049:11052   */\n      dup4\n        /* \"#utility.yul\":11041:11047   */\n      dup4\n        /* \"#utility.yul\":10967:11053   */\n      tag_253\n      jump\t// in\n    tag_385:\n        /* \"#utility.yul\":11085:11089   */\n      0x20\n        /* \"#utility.yul\":11080:11083   */\n      dup4\n        /* \"#utility.yul\":11076:11090   */\n      add\n        /* \"#utility.yul\":11062:11090   */\n      swap1\n      pop\n        /* \"#utility.yul\":10837:11096   */\n      swap3\n      swap2\n      pop\n      pop\n      jump\t// out\n        /* \"#utility.yul\":11102:11235   */\n    tag_255:\n        /* \"#utility.yul\":11192:11196   */\n      0x00\n        /* \"#utility.yul\":11224:11228   */\n      0x20\n        /* \"#utility.yul\":11219:11222   */\n      dup3\n        /* \"#utility.yul\":11215:11229   */\n      add\n        /* \"#utility.yul\":11207:11229   */\n      swap1\n      pop\n        /* \"#utility.yul\":11102:11235   */\n      swap2\n      swap1\n      pop\n      jump\t// out\n        /* \"#utility.yul\":11299:12191   */\n    tag_256:\n        /* \"#utility.yul\":11458:11461   */\n      0x00\n        /* \"#utility.yul\":11487:11561   */\n      tag_388\n        /* \"#utility.yul\":11555:11560   */\n      dup3\n        /* \"#utility.yul\":11487:11561   */\n      tag_249\n      jump\t// in\n    tag_388:\n        /* \"#utility.yul\":11577:11683   */\n      tag_389\n        /* \"#utility.yul\":11676:11682   */\n      dup2\n        /* \"#utility.yul\":11671:11674   */\n      dup6\n        /* \"#utility.yul\":11577:11683   */\n      tag_250\n      jump\t// in\n    tag_389:\n        /* \"#utility.yul\":11570:11683   */\n      swap4\n      pop\n        /* \"#utility.yul\":11707:11783   */\n      tag_390\n        /* \"#utility.yul\":11777:11782   */\n      dup4\n        /* \"#utility.yul\":11707:11783   */\n      tag_251\n      jump\t// in\n    tag_390:\n        /* \"#utility.yul\":11806:11813   */\n      dup1\n        /* \"#utility.yul\":11837:11838   */\n      0x00\n        /* \"#utility.yul\":11822:12166   */\n    tag_391:\n        /* \"#utility.yul\":11847:11853   */\n      dup4\n        /* \"#utility.yul\":11844:11845   */\n      dup2\n        /* \"#utility.yul\":11841:11854   */\n      lt\n        /* \"#utility.yul\":11822:12166   */\n      iszero\n      tag_393\n      jumpi\n        /* \"#utility.yul\":11923:11929   */\n      dup2\n        /* \"#utility.yul\":11917:11930   */\n      mload\n        /* \"#utility.yul\":11950:12053   */\n      tag_394\n        /* \"#utility.yul\":12049:12052   */\n      dup9\n        /* \"#utility.yul\":12034:12047   */\n      dup3\n        /* \"#utility.yul\":11950:12053   */\n      tag_254\n      jump\t// in\n    tag_394:\n        /* \"#utility.yul\":11943:12053   */\n      swap8\n      pop\n        /* \"#utility.yul\":12076:12156   */\n      tag_395\n        /* \"#utility.yul\":12149:12155   */\n      dup4\n        /* \"#utility.yul\":12076:12156   */\n      tag_255\n      jump\t// in\n    tag_395:\n        /* \"#utility.yul\":12066:12156   */\n      swap3\n      pop\n        /* \"#utility.yul\":11882:12166   */\n      pop\n        /* \"#utility.yul\":11869:11870   */\n      0x01\n        /* \"#utility.yul\":11866:11867   */\n      dup2\n        /* \"#utility.yul\":11862:11871   */\n      add\n        /* \"#utility.yul\":11857:11871   */\n      swap1\n      pop\n        /* \"#utility.yul\":11822:12166   */\n      jump(tag_391)\n    tag_393:\n        /* \"#utility.yul\":11826:11840   */\n      pop\n        /* \"#utility.yul\":12182:12185   */\n      dup6\n        /* \"#utility.yul\":12175:12185   */\n      swap4\n      pop\n        /* \"#utility.yul\":11463:12191   */\n      pop\n      pop\n      pop\n        /* \"#utility.yul\":11299:12191   */\n      swap3\n      swap2\n      pop\n      pop\n      jump\t// out\n        /* \"#utility.yul\":12197:12650   */\n    tag_61:\n        /* \"#utility.yul\":12380:12384   */\n      0x00\n        /* \"#utility.yul\":12418:12420   */\n      0x20\n        /* \"#utility.yul\":12407:12416   */\n      dup3\n        /* \"#utility.yul\":12403:12421   */\n      add\n        /* \"#utility.yul\":12395:12421   */\n      swap1\n      pop\n        /* \"#utility.yul\":12467:12476   */\n      dup2\n        /* \"#utility.yul\":12461:12465   */\n      dup2\n        /* \"#utility.yul\":12457:12477   */\n      sub\n        /* \"#utility.yul\":12453:12454   */\n      0x00\n        /* \"#utility.yul\":12442:12451   */\n      dup4\n        /* \"#utility.yul\":12438:12455   */\n      add\n        /* \"#utility.yul\":12431:12478   */\n      mstore\n        /* \"#utility.yul\":12495:12643   */\n      tag_397\n        /* \"#utility.yul\":12638:12642   */\n      dup2\n        /* \"#utility.yul\":12629:12635   */\n      dup5\n        /* \"#utility.yul\":12495:12643   */\n      tag_256\n      jump\t// in\n    tag_397:\n        /* \"#utility.yul\":12487:12643   */\n      swap1\n      pop\n        /* \"#utility.yul\":12197:12650   */\n      swap3\n      swap2\n      pop\n      pop\n      jump\t// out\n        /* \"#utility.yul\":12656:12985   */\n    tag_64:\n        /* \"#utility.yul\":12715:12721   */\n      0x00\n        /* \"#utility.yul\":12764:12766   */\n      0x20\n        /* \"#utility.yul\":12752:12761   */\n      dup3\n        /* \"#utility.yul\":12743:12750   */\n      dup5\n        /* \"#utility.yul\":12739:12762   */\n      sub\n        /* \"#utility.yul\":12735:12767   */\n      slt\n        /* \"#utility.yul\":12732:12851   */\n      iszero\n      tag_399\n      jumpi\n        /* \"#utility.yul\":12770:12849   */\n      tag_400\n      tag_234\n      jump\t// in\n    tag_400:\n        /* \"#utility.yul\":12732:12851   */\n    tag_399:\n        /* \"#utility.yul\":12890:12891   */\n      0x00\n        /* \"#utility.yul\":12915:12968   */\n      tag_401\n        /* \"#utility.yul\":12960:12967   */\n      dup5\n        /* \"#utility.yul\":12951:12957   */\n      dup3\n        /* \"#utility.yul\":12940:12949   */\n      dup6\n        /* \"#utility.yul\":12936:12958   */\n      add\n        /* \"#utility.yul\":12915:12968   */\n      tag_239\n      jump\t// in\n    tag_401:\n        /* \"#utility.yul\":12905:12968   */\n      swap2\n      pop\n        /* \"#utility.yul\":12861:12978   */\n      pop\n        /* \"#utility.yul\":12656:12985   */\n      swap3\n      swap2\n      pop\n      pop\n      jump\t// out\n        /* \"#utility.yul\":12991:13465   */\n    tag_78:\n        /* \"#utility.yul\":13059:13065   */\n      0x00\n        /* \"#utility.yul\":13067:13073   */\n      dup1\n        /* \"#utility.yul\":13116:13118   */\n      0x40\n        /* \"#utility.yul\":13104:13113   */\n      dup4\n        /* \"#utility.yul\":13095:13102   */\n      dup6\n        /* \"#utility.yul\":13091:13114   */\n      sub\n        /* \"#utility.yul\":13087:13119   */\n      slt\n        /* \"#utility.yul\":13084:13203   */\n      iszero\n      tag_403\n      jumpi\n        /* \"#utility.yul\":13122:13201   */\n      tag_404\n      tag_234\n      jump\t// in\n    tag_404:\n        /* \"#utility.yul\":13084:13203   */\n    tag_403:\n        /* \"#utility.yul\":13242:13243   */\n      0x00\n        /* \"#utility.yul\":13267:13320   */\n      tag_405\n        /* \"#utility.yul\":13312:13319   */\n      dup6\n        /* \"#utility.yul\":13303:13309   */\n      dup3\n        /* \"#utility.yul\":13292:13301   */\n      dup7\n        /* \"#utility.yul\":13288:13310   */\n      add\n        /* \"#utility.yul\":13267:13320   */\n      tag_239\n      jump\t// in\n    tag_405:\n        /* \"#utility.yul\":13257:13320   */\n      swap3\n      pop\n        /* \"#utility.yul\":13213:13330   */\n      pop\n        /* \"#utility.yul\":13369:13371   */\n      0x20\n        /* \"#utility.yul\":13395:13448   */\n      tag_406\n        /* \"#utility.yul\":13440:13447   */\n      dup6\n        /* \"#utility.yul\":13431:13437   */\n      dup3\n        /* \"#utility.yul\":13420:13429   */\n      dup7\n        /* \"#utility.yul\":13416:13438   */\n      add\n        /* \"#utility.yul\":13395:13448   */\n      tag_239\n      jump\t// in\n    tag_406:\n        /* \"#utility.yul\":13385:13448   */\n      swap2\n      pop\n        /* \"#utility.yul\":13340:13458   */\n      pop\n        /* \"#utility.yul\":12991:13465   */\n      swap3\n      pop\n      swap3\n      swap1\n      pop\n      jump\t// out\n        /* \"#utility.yul\":13471:13651   */\n    tag_257:\n        /* \"#utility.yul\":13519:13596   */\n      0x4e487b7100000000000000000000000000000000000000000000000000000000\n        /* \"#utility.yul\":13516:13517   */\n      0x00\n        /* \"#utility.yul\":13509:13597   */\n      mstore\n        /* \"#utility.yul\":13616:13620   */\n      0x22\n        /* \"#utility.yul\":13613:13614   */\n      0x04\n        /* \"#utility.yul\":13606:13621   */\n      mstore\n        /* \"#utility.yul\":13640:13644   */\n      0x24\n        /* \"#utility.yul\":13637:13638   */\n      0x00\n        /* \"#utility.yul\":13630:13645   */\n      revert\n        /* \"#utility.yul\":13657:13977   */\n    tag_86:\n        /* \"#utility.yul\":13701:13707   */\n      0x00\n        /* \"#utility.yul\":13738:13739   */\n      0x02\n        /* \"#utility.yul\":13732:13736   */\n      dup3\n        /* \"#utility.yul\":13728:13740   */\n      div\n        /* \"#utility.yul\":13718:13740   */\n      swap1\n      pop\n        /* \"#utility.yul\":13785:13786   */\n      0x01\n        /* \"#utility.yul\":13779:13783   */\n      dup3\n        /* \"#utility.yul\":13775:13787   */\n      and\n        /* \"#utility.yul\":13806:13824   */\n      dup1\n        /* \"#utility.yul\":13796:13877   */\n      tag_409\n      jumpi\n        /* \"#utility.yul\":13862:13866   */\n      0x7f\n        /* \"#utility.yul\":13854:13860   */\n      dup3\n        /* \"#utility.yul\":13850:13867   */\n      and\n        /* \"#utility.yul\":13840:13867   */\n      swap2\n      pop\n        /* \"#utility.yul\":13796:13877   */\n    tag_409:\n        /* \"#utility.yul\":13924:13926   */\n      0x20\n        /* \"#utility.yul\":13916:13922   */\n      dup3\n        /* \"#utility.yul\":13913:13927   */\n      lt\n        /* \"#utility.yul\":13893:13911   */\n      dup2\n        /* \"#utility.yul\":13890:13928   */\n      sub\n        /* \"#utility.yul\":13887:13971   */\n      tag_410\n      jumpi\n        /* \"#utility.yul\":13943:13961   */\n      tag_411\n      tag_257\n      jump\t// in\n    tag_411:\n        /* \"#utility.yul\":13887:13971   */\n    tag_410:\n        /* \"#utility.yul\":13708:13977   */\n      pop\n        /* \"#utility.yul\":13657:13977   */\n      swap2\n      swap1\n      pop\n      jump\t// out\n        /* \"#utility.yul\":13983:14062   */\n    tag_258:\n        /* \"#utility.yul\":14022:14029   */\n      0x00\n        /* \"#utility.yul\":14051:14056   */\n      dup2\n        /* \"#utility.yul\":14040:14056   */\n      swap1\n      pop\n        /* \"#utility.yul\":13983:14062   */\n      swap2\n      swap1\n      pop\n      jump\t// out\n        /* \"#utility.yul\":14068:14225   */\n    tag_259:\n        /* \"#utility.yul\":14173:14218   */\n      tag_414\n        /* \"#utility.yul\":14193:14217   */\n      tag_415\n        /* \"#utility.yul\":14211:14216   */\n      dup3\n        /* \"#utility.yul\":14193:14217   */\n      tag_240\n      jump\t// in\n    tag_415:\n        /* \"#utility.yul\":14173:14218   */\n      tag_258\n      jump\t// in\n    tag_414:\n        /* \"#utility.yul\":14168:14171   */\n      dup3\n        /* \"#utility.yul\":14161:14219   */\n      mstore\n        /* \"#utility.yul\":14068:14225   */\n      pop\n      pop\n      jump\t// out\n        /* \"#utility.yul\":14231:14335   */\n    tag_260:\n        /* \"#utility.yul\":14276:14283   */\n      0x00\n        /* \"#utility.yul\":14305:14329   */\n      tag_417\n        /* \"#utility.yul\":14323:14328   */\n      dup3\n        /* \"#utility.yul\":14305:14329   */\n      tag_236\n      jump\t// in\n    tag_417:\n        /* \"#utility.yul\":14294:14329   */\n      swap1\n      pop\n        /* \"#utility.yul\":14231:14335   */\n      swap2\n      swap1\n      pop\n      jump\t// out\n        /* \"#utility.yul\":14341:14435   */\n    tag_261:\n        /* \"#utility.yul\":14374:14382   */\n      0x00\n        /* \"#utility.yul\":14422:14427   */\n      dup2\n        /* \"#utility.yul\":14418:14420   */\n      0x60\n        /* \"#utility.yul\":14414:14428   */\n      shl\n        /* \"#utility.yul\":14393:14428   */\n      swap1\n      pop\n        /* \"#utility.yul\":14341:14435   */\n      swap2\n      swap1\n      pop\n      jump\t// out\n        /* \"#utility.yul\":14441:14535   */\n    tag_262:\n        /* \"#utility.yul\":14480:14487   */\n      0x00\n        /* \"#utility.yul\":14509:14529   */\n      tag_420\n        /* \"#utility.yul\":14523:14528   */\n      dup3\n        /* \"#utility.yul\":14509:14529   */\n      tag_261\n      jump\t// in\n    tag_420:\n        /* \"#utility.yul\":14498:14529   */\n      swap1\n      pop\n        /* \"#utility.yul\":14441:14535   */\n      swap2\n      swap1\n      pop\n      jump\t// out\n        /* \"#utility.yul\":14541:14649   */\n    tag_263:\n        /* \"#utility.yul\":14588:14595   */\n      0x00\n        /* \"#utility.yul\":14617:14643   */\n      tag_422\n        /* \"#utility.yul\":14637:14642   */\n      dup3\n        /* \"#utility.yul\":14617:14643   */\n      tag_262\n      jump\t// in\n    tag_422:\n        /* \"#utility.yul\":14606:14643   */\n      swap1\n      pop\n        /* \"#utility.yul\":14541:14649   */\n      swap2\n      swap1\n      pop\n      jump\t// out\n        /* \"#utility.yul\":14655:14844   */\n    tag_264:\n        /* \"#utility.yul\":14776:14837   */\n      tag_424\n        /* \"#utility.yul\":14804:14836   */\n      tag_425\n        /* \"#utility.yul\":14830:14835   */\n      dup3\n        /* \"#utility.yul\":14804:14836   */\n      tag_260\n      jump\t// in\n    tag_425:\n        /* \"#utility.yul\":14776:14837   */\n      tag_263\n      jump\t// in\n    tag_424:\n        /* \"#utility.yul\":14771:14774   */\n      dup3\n        /* \"#utility.yul\":14764:14838   */\n      mstore\n        /* \"#utility.yul\":14655:14844   */\n      pop\n      pop\n      jump\t// out\n        /* \"#utility.yul\":14850:15420   */\n    tag_149:\n        /* \"#utility.yul\":15034:15037   */\n      0x00\n        /* \"#utility.yul\":15049:15124   */\n      tag_427\n        /* \"#utility.yul\":15120:15123   */\n      dup3\n        /* \"#utility.yul\":15111:15117   */\n      dup7\n        /* \"#utility.yul\":15049:15124   */\n      tag_259\n      jump\t// in\n    tag_427:\n        /* \"#utility.yul\":15149:15151   */\n      0x20\n        /* \"#utility.yul\":15144:15147   */\n      dup3\n        /* \"#utility.yul\":15140:15152   */\n      add\n        /* \"#utility.yul\":15133:15152   */\n      swap2\n      pop\n        /* \"#utility.yul\":15162:15253   */\n      tag_428\n        /* \"#utility.yul\":15249:15252   */\n      dup3\n        /* \"#utility.yul\":15240:15246   */\n      dup6\n        /* \"#utility.yul\":15162:15253   */\n      tag_264\n      jump\t// in\n    tag_428:\n        /* \"#utility.yul\":15278:15280   */\n      0x14\n        /* \"#utility.yul\":15273:15276   */\n      dup3\n        /* \"#utility.yul\":15269:15281   */\n      add\n        /* \"#utility.yul\":15262:15281   */\n      swap2\n      pop\n        /* \"#utility.yul\":15291:15366   */\n      tag_429\n        /* \"#utility.yul\":15362:15365   */\n      dup3\n        /* \"#utility.yul\":15353:15359   */\n      dup5\n        /* \"#utility.yul\":15291:15366   */\n      tag_259\n      jump\t// in\n    tag_429:\n        /* \"#utility.yul\":15391:15393   */\n      0x20\n        /* \"#utility.yul\":15386:15389   */\n      dup3\n        /* \"#utility.yul\":15382:15394   */\n      add\n        /* \"#utility.yul\":15375:15394   */\n      swap2\n      pop\n        /* \"#utility.yul\":15411:15414   */\n      dup2\n        /* \"#utility.yul\":15404:15414   */\n      swap1\n      pop\n        /* \"#utility.yul\":14850:15420   */\n      swap5\n      swap4\n      pop\n      pop\n      pop\n      pop\n      jump\t// out\n        /* \"#utility.yul\":15426:15606   */\n    tag_265:\n        /* \"#utility.yul\":15474:15551   */\n      0x4e487b7100000000000000000000000000000000000000000000000000000000\n        /* \"#utility.yul\":15471:15472   */\n      0x00\n        /* \"#utility.yul\":15464:15552   */\n      mstore\n        /* \"#utility.yul\":15571:15575   */\n      0x12\n        /* \"#utility.yul\":15568:15569   */\n      0x04\n        /* \"#utility.yul\":15561:15576   */\n      mstore\n        /* \"#utility.yul\":15595:15599   */\n      0x24\n        /* \"#utility.yul\":15592:15593   */\n      0x00\n        /* \"#utility.yul\":15585:15600   */\n      revert\n        /* \"#utility.yul\":15612:15788   */\n    tag_151:\n        /* \"#utility.yul\":15644:15645   */\n      0x00\n        /* \"#utility.yul\":15661:15681   */\n      tag_432\n        /* \"#utility.yul\":15679:15680   */\n      dup3\n        /* \"#utility.yul\":15661:15681   */\n      tag_240\n      jump\t// in\n    tag_432:\n        /* \"#utility.yul\":15656:15681   */\n      swap2\n      pop\n        /* \"#utility.yul\":15695:15715   */\n      tag_433\n        /* \"#utility.yul\":15713:15714   */\n      dup4\n        /* \"#utility.yul\":15695:15715   */\n      tag_240\n      jump\t// in\n    tag_433:\n        /* \"#utility.yul\":15690:15715   */\n      swap3\n      pop\n        /* \"#utility.yul\":15734:15735   */\n      dup3\n        /* \"#utility.yul\":15724:15759   */\n      tag_434\n      jumpi\n        /* \"#utility.yul\":15739:15757   */\n      tag_435\n      tag_265\n      jump\t// in\n    tag_435:\n        /* \"#utility.yul\":15724:15759   */\n    tag_434:\n        /* \"#utility.yul\":15780:15781   */\n      dup3\n        /* \"#utility.yul\":15777:15778   */\n      dup3\n        /* \"#utility.yul\":15773:15782   */\n      mod\n        /* \"#utility.yul\":15768:15782   */\n      swap1\n      pop\n        /* \"#utility.yul\":15612:15788   */\n      swap3\n      swap2\n      pop\n      pop\n      jump\t// out\n        /* \"#utility.yul\":15794:15974   */\n    tag_154:\n        /* \"#utility.yul\":15842:15919   */\n      0x4e487b7100000000000000000000000000000000000000000000000000000000\n        /* \"#utility.yul\":15839:15840   */\n      0x00\n        /* \"#utility.yul\":15832:15920   */\n      mstore\n        /* \"#utility.yul\":15939:15943   */\n      0x32\n        /* \"#utility.yul\":15936:15937   */\n      0x04\n        /* \"#utility.yul\":15929:15944   */\n      mstore\n        /* \"#utility.yul\":15963:15967   */\n      0x24\n        /* \"#utility.yul\":15960:15961   */\n      0x00\n        /* \"#utility.yul\":15953:15968   */\n      revert\n        /* \"#utility.yul\":15980:16160   */\n    tag_266:\n        /* \"#utility.yul\":16028:16105   */\n      0x4e487b7100000000000000000000000000000000000000000000000000000000\n        /* \"#utility.yul\":16025:16026   */\n      0x00\n        /* \"#utility.yul\":16018:16106   */\n      mstore\n        /* \"#utility.yul\":16125:16129   */\n      0x41\n        /* \"#utility.yul\":16122:16123   */\n      0x04\n        /* \"#utility.yul\":16115:16130   */\n      mstore\n        /* \"#utility.yul\":16149:16153   */\n      0x24\n        /* \"#utility.yul\":16146:16147   */\n      0x00\n        /* \"#utility.yul\":16139:16154   */\n      revert\n        /* \"#utility.yul\":16166:16307   */\n    tag_267:\n        /* \"#utility.yul\":16215:16219   */\n      0x00\n        /* \"#utility.yul\":16238:16241   */\n      dup2\n        /* \"#utility.yul\":16230:16241   */\n      swap1\n      pop\n        /* \"#utility.yul\":16261:16264   */\n      dup2\n        /* \"#utility.yul\":16258:16259   */\n      0x00\n        /* \"#utility.yul\":16251:16265   */\n      mstore\n        /* \"#utility.yul\":16295:16299   */\n      0x20\n        /* \"#utility.yul\":16292:16293   */\n      0x00\n        /* \"#utility.yul\":16282:16300   */\n      keccak256\n        /* \"#utility.yul\":16274:16300   */\n      swap1\n      pop\n        /* \"#utility.yul\":16166:16307   */\n      swap2\n      swap1\n      pop\n      jump\t// out\n        /* \"#utility.yul\":16313:16406   */\n    tag_268:\n        /* \"#utility.yul\":16350:16356   */\n      0x00\n        /* \"#utility.yul\":16397:16399   */\n      0x20\n        /* \"#utility.yul\":16392:16394   */\n      0x1f\n        /* \"#utility.yul\":16385:16390   */\n      dup4\n        /* \"#utility.yul\":16381:16395   */\n      add\n        /* \"#utility.yul\":16377:16400   */\n      div\n        /* \"#utility.yul\":16367:16400   */\n      swap1\n      pop\n        /* \"#utility.yul\":16313:16406   */\n      swap2\n      swap1\n      pop\n      jump\t// out\n        /* \"#utility.yul\":16412:16519   */\n    tag_269:\n        /* \"#utility.yul\":16456:16464   */\n      0x00\n        /* \"#utility.yul\":16506:16511   */\n      dup3\n        /* \"#utility.yul\":16500:16504   */\n      dup3\n        /* \"#utility.yul\":16496:16512   */\n      shl\n        /* \"#utility.yul\":16475:16512   */\n      swap1\n      pop\n        /* \"#utility.yul\":16412:16519   */\n      swap3\n      swap2\n      pop\n      pop\n      jump\t// out\n        /* \"#utility.yul\":16525:16918   */\n    tag_270:\n        /* \"#utility.yul\":16594:16600   */\n      0x00\n        /* \"#utility.yul\":16644:16645   */\n      0x08\n        /* \"#utility.yul\":16632:16642   */\n      dup4\n        /* \"#utility.yul\":16628:16646   */\n      mul\n        /* \"#utility.yul\":16667:16764   */\n      tag_442\n        /* \"#utility.yul\":16697:16763   */\n      0xffffffffffffffffffffffffffffffffffffffffffffffffffffffffffffffff\n        /* \"#utility.yul\":16686:16695   */\n      dup3\n        /* \"#utility.yul\":16667:16764   */\n      tag_269\n      jump\t// in\n    tag_442:\n        /* \"#utility.yul\":16785:16824   */\n      tag_443\n        /* \"#utility.yul\":16815:16823   */\n      dup7\n        /* \"#utility.yul\":16804:16813   */\n      dup4\n        /* \"#utility.yul\":16785:16824   */\n      tag_269\n      jump\t// in\n    tag_443:\n        /* \"#utility.yul\":16773:16824   */\n      swap6\n      pop\n        /* \"#utility.yul\":16857:16861   */\n      dup1\n        /* \"#utility.yul\":16853:16862   */\n      not\n        /* \"#utility.yul\":16846:16851   */\n      dup5\n        /* \"#utility.yul\":16842:16863   */\n      and\n        /* \"#utility.yul\":16833:16863   */\n      swap4\n      pop\n        /* \"#utility.yul\":16906:16910   */\n      dup1\n        /* \"#utility.yul\":16896:16904   */\n      dup7\n        /* \"#utility.yul\":16892:16911   */\n      and\n        /* \"#utility.yul\":16885:16890   */\n      dup5\n        /* \"#utility.yul\":16882:16912   */\n      or\n        /* \"#utility.yul\":16872:16912   */\n      swap3\n      pop\n        /* \"#utility.yul\":16601:16918   */\n      pop\n      pop\n        /* \"#utility.yul\":16525:16918   */\n      swap4\n      swap3\n      pop\n      pop\n      pop\n      jump\t// out\n        /* \"#utility.yul\":16924:16984   */\n    tag_271:\n        /* \"#utility.yul\":16952:16955   */\n      0x00\n        /* \"#utility.yul\":16973:16978   */\n      dup2\n        /* \"#utility.yul\":16966:16978   */\n      swap1\n      pop\n        /* \"#utility.yul\":16924:16984   */\n      swap2\n      swap1\n      pop\n      jump\t// out\n        /* \"#utility.yul\":16990:17132   */\n    tag_272:\n        /* \"#utility.yul\":17040:17049   */\n      0x00\n        /* \"#utility.yul\":17073:17126   */\n      tag_446\n        /* \"#utility.yul\":17091:17125   */\n      tag_447\n        /* \"#utility.yul\":17100:17124   */\n      tag_448\n        /* \"#utility.yul\":17118:17123   */\n      dup5\n        /* \"#utility.yul\":17100:17124   */\n      tag_240\n      jump\t// in\n    tag_448:\n        /* \"#utility.yul\":17091:17125   */\n      tag_271\n      jump\t// in\n    tag_447:\n        /* \"#utility.yul\":17073:17126   */\n      tag_240\n      jump\t// in\n    tag_446:\n        /* \"#utility.yul\":17060:17126   */\n      swap1\n      pop\n        /* \"#utility.yul\":16990:17132   */\n      swap2\n      swap1\n      pop\n      jump\t// out\n        /* \"#utility.yul\":17138:17213   */\n    tag_273:\n        /* \"#utility.yul\":17181:17184   */\n      0x00\n        /* \"#utility.yul\":17202:17207   */\n      dup2\n        /* \"#utility.yul\":17195:17207   */\n      swap1\n      pop\n        /* \"#utility.yul\":17138:17213   */\n      swap2\n      swap1\n      pop\n      jump\t// out\n        /* \"#utility.yul\":17219:17488   */\n    tag_274:\n        /* \"#utility.yul\":17329:17368   */\n      tag_451\n        /* \"#utility.yul\":17360:17367   */\n      dup4\n        /* \"#utility.yul\":17329:17368   */\n      tag_272\n      jump\t// in\n    tag_451:\n        /* \"#utility.yul\":17390:17481   */\n      tag_452\n        /* \"#utility.yul\":17439:17480   */\n      tag_453\n        /* \"#utility.yul\":17463:17479   */\n      dup3\n        /* \"#utility.yul\":17439:17480   */\n      tag_273\n      jump\t// in\n    tag_453:\n        /* \"#utility.yul\":17431:17437   */\n      dup5\n        /* \"#utility.yul\":17424:17428   */\n      dup5\n        /* \"#utility.yul\":17418:17429   */\n      sload\n        /* \"#utility.yul\":17390:17481   */\n      tag_270\n      jump\t// in\n    tag_452:\n        /* \"#utility.yul\":17384:17388   */\n      dup3\n        /* \"#utility.yul\":17377:17482   */\n      sstore\n        /* \"#utility.yul\":17295:17488   */\n      pop\n        /* \"#utility.yul\":17219:17488   */\n      pop\n      pop\n      pop\n      jump\t// out\n        /* \"#utility.yul\":17494:17567   */\n    tag_275:\n        /* \"#utility.yul\":17539:17542   */\n      0x00\n        /* \"#utility.yul\":17494:17567   */\n      swap1\n      jump\t// out\n        /* \"#utility.yul\":17573:17762   */\n    tag_276:\n        /* \"#utility.yul\":17650:17682   */\n      tag_456\n      tag_275\n      jump\t// in\n    tag_456:\n        /* \"#utility.yul\":17691:17756   */\n      tag_457\n        /* \"#utility.yul\":17749:17755   */\n      dup2\n        /* \"#utility.yul\":17741:17747   */\n      dup5\n        /* \"#utility.yul\":17735:17739   */\n      dup5\n        /* \"#utility.yul\":17691:17756   */\n      tag_274\n      jump\t// in\n    tag_457:\n        /* \"#utility.yul\":17626:17762   */\n      pop\n        /* \"#utility.yul\":17573:17762   */\n      pop\n      pop\n      jump\t// out\n        /* \"#utility.yul\":17768:17954   */\n    tag_277:\n        /* \"#utility.yul\":17828:17948   */\n    tag_459:\n        /* \"#utility.yul\":17845:17848   */\n      dup2\n        /* \"#utility.yul\":17838:17843   */\n      dup2\n        /* \"#utility.yul\":17835:17849   */\n      lt\n        /* \"#utility.yul\":17828:17948   */\n      iszero\n      tag_461\n      jumpi\n        /* \"#utility.yul\":17899:17938   */\n      tag_462\n        /* \"#utility.yul\":17936:17937   */\n      0x00\n        /* \"#utility.yul\":17929:17934   */\n      dup3\n        /* \"#utility.yul\":17899:17938   */\n      tag_276\n      jump\t// in\n    tag_462:\n        /* \"#utility.yul\":17872:17873   */\n      0x01\n        /* \"#utility.yul\":17865:17870   */\n      dup2\n        /* \"#utility.yul\":17861:17874   */\n      add\n        /* \"#utility.yul\":17852:17874   */\n      swap1\n      pop\n        /* \"#utility.yul\":17828:17948   */\n      jump(tag_459)\n    tag_461:\n        /* \"#utility.yul\":17768:17954   */\n      pop\n      pop\n      jump\t// out\n        /* \"#utility.yul\":17960:18503   */\n    tag_278:\n        /* \"#utility.yul\":18061:18063   */\n      0x1f\n        /* \"#utility.yul\":18056:18059   */\n      dup3\n        /* \"#utility.yul\":18053:18064   */\n      gt\n        /* \"#utility.yul\":18050:18496   */\n      iszero\n      tag_464\n      jumpi\n        /* \"#utility.yul\":18095:18133   */\n      tag_465\n        /* \"#utility.yul\":18127:18132   */\n      dup2\n        /* \"#utility.yul\":18095:18133   */\n      tag_267\n      jump\t// in\n    tag_465:\n        /* \"#utility.yul\":18179:18208   */\n      tag_466\n        /* \"#utility.yul\":18197:18207   */\n      dup5\n        /* \"#utility.yul\":18179:18208   */\n      tag_268\n      jump\t// in\n    tag_466:\n        /* \"#utility.yul\":18169:18177   */\n      dup2\n        /* \"#utility.yul\":18165:18209   */\n      add\n        /* \"#utility.yul\":18362:18364   */\n      0x20\n        /* \"#utility.yul\":18350:18360   */\n      dup6\n        /* \"#utility.yul\":18347:18365   */\n      lt\n        /* \"#utility.yul\":18344:18393   */\n      iszero\n      tag_467\n      jumpi\n        /* \"#utility.yul\":18383:18391   */\n      dup2\n        /* \"#utility.yul\":18368:18391   */\n      swap1\n      pop\n        /* \"#utility.yul\":18344:18393   */\n    tag_467:\n        /* \"#utility.yul\":18406:18486   */\n      tag_468\n        /* \"#utility.yul\":18462:18484   */\n      tag_469\n        /* \"#utility.yul\":18480:18483   */\n      dup6\n        /* \"#utility.yul\":18462:18484   */\n      tag_268\n      jump\t// in\n    tag_469:\n        /* \"#utility.yul\":18452:18460   */\n      dup4\n        /* \"#utility.yul\":18448:18485   */\n      add\n        /* \"#utility.yul\":18435:18446   */\n      dup3\n        /* \"#utility.yul\":18406:18486   */\n      tag_277\n      jump\t// in\n    tag_468:\n        /* \"#utility.yul\":18065:18496   */\n      pop\n      pop\n        /* \"#utility.yul\":18050:18496   */\n    tag_464:\n        /* \"#utility.yul\":17960:18503   */\n      pop\n      pop\n      pop\n      jump\t// out\n        /* \"#utility.yul\":18509:18626   */\n    tag_279:\n        /* \"#utility.yul\":18563:18571   */\n      0x00\n        /* \"#utility.yul\":18613:18618   */\n      dup3\n        /* \"#utility.yul\":18607:18611   */\n      dup3\n        /* \"#utility.yul\":18603:18619   */\n      shr\n        /* \"#utility.yul\":18582:18619   */\n      swap1\n      pop\n        /* \"#utility.yul\":18509:18626   */\n      swap3\n      swap2\n      pop\n      pop\n      jump\t// out\n        /* \"#utility.yul\":18632:18801   */\n    tag_280:\n        /* \"#utility.yul\":18676:18682   */\n      0x00\n        /* \"#utility.yul\":18709:18760   */\n      tag_472\n        /* \"#utility.yul\":18757:18758   */\n      0x00\n        /* \"#utility.yul\":18753:18759   */\n      not\n        /* \"#utility.yul\":18745:18750   */\n      dup5\n        /* \"#utility.yul\":18742:18743   */\n      0x08\n        /* \"#utility.yul\":18738:18751   */\n      mul\n        /* \"#utility.yul\":18709:18760   */\n      tag_279\n      jump\t// in\n    tag_472:\n        /* \"#utility.yul\":18705:18761   */\n      not\n        /* \"#utility.yul\":18790:18794   */\n      dup1\n        /* \"#utility.yul\":18784:18788   */\n      dup4\n        /* \"#utility.yul\":18780:18795   */\n      and\n        /* \"#utility.yul\":18770:18795   */\n      swap2\n      pop\n        /* \"#utility.yul\":18683:18801   */\n      pop\n        /* \"#utility.yul\":18632:18801   */\n      swap3\n      swap2\n      pop\n      pop\n      jump\t// out\n        /* \"#utility.yul\":18806:19101   */\n    tag_281:\n        /* \"#utility.yul\":18882:18886   */\n      0x00\n        /* \"#utility.yul\":19028:19057   */\n      tag_474\n        /* \"#utility.yul\":19053:19056   */\n      dup4\n        /* \"#utility.yul\":19047:19051   */\n      dup4\n        /* \"#utility.yul\":19028:19057   */\n      tag_280\n      jump\t// in\n    tag_474:\n        /* \"#utility.yul\":19020:19057   */\n      swap2\n      pop\n        /* \"#utility.yul\":19090:19093   */\n      dup3\n        /* \"#utility.yul\":19087:19088   */\n      0x02\n        /* \"#utility.yul\":19083:19094   */\n      mul\n        /* \"#utility.yul\":19077:19081   */\n      dup3\n        /* \"#utility.yul\":19074:19095   */\n      or\n        /* \"#utility.yul\":19066:19095   */\n      swap1\n      pop\n        /* \"#utility.yul\":18806:19101   */\n      swap3\n      swap2\n      pop\n      pop\n      jump\t// out\n        /* \"#utility.yul\":19106:20501   */\n    tag_171:\n        /* \"#utility.yul\":19223:19260   */\n      tag_476\n        /* \"#utility.yul\":19256:19259   */\n      dup3\n        /* \"#utility.yul\":19223:19260   */\n      tag_222\n      jump\t// in\n    tag_476:\n        /* \"#utility.yul\":19325:19343   */\n      0xffffffffffffffff\n        /* \"#utility.yul\":19317:19323   */\n      dup2\n        /* \"#utility.yul\":19314:19344   */\n      gt\n        /* \"#utility.yul\":19311:19367   */\n      iszero\n      tag_477\n      jumpi\n        /* \"#utility.yul\":19347:19365   */\n      tag_478\n      tag_266\n      jump\t// in\n    tag_478:\n        /* \"#utility.yul\":19311:19367   */\n    tag_477:\n        /* \"#utility.yul\":19391:19429   */\n      tag_479\n        /* \"#utility.yul\":19423:19427   */\n      dup3\n        /* \"#utility.yul\":19417:19428   */\n      sload\n        /* \"#utility.yul\":19391:19429   */\n      tag_86\n      jump\t// in\n    tag_479:\n        /* \"#utility.yul\":19476:19543   */\n      tag_480\n        /* \"#utility.yul\":19536:19542   */\n      dup3\n        /* \"#utility.yul\":19528:19534   */\n      dup3\n        /* \"#utility.yul\":19522:19526   */\n      dup6\n        /* \"#utility.yul\":19476:19543   */\n      tag_278\n      jump\t// in\n    tag_480:\n        /* \"#utility.yul\":19570:19571   */\n      0x00\n        /* \"#utility.yul\":19594:19598   */\n      0x20\n        /* \"#utility.yul\":19581:19598   */\n      swap1\n      pop\n        /* \"#utility.yul\":19626:19628   */\n      0x1f\n        /* \"#utility.yul\":19618:19624   */\n      dup4\n        /* \"#utility.yul\":19615:19629   */\n      gt\n        /* \"#utility.yul\":19643:19644   */\n      0x01\n        /* \"#utility.yul\":19638:20256   */\n      dup2\n      eq\n      tag_482\n      jumpi\n        /* \"#utility.yul\":20300:20301   */\n      0x00\n        /* \"#utility.yul\":20317:20323   */\n      dup5\n        /* \"#utility.yul\":20314:20391   */\n      iszero\n      tag_483\n      jumpi\n        /* \"#utility.yul\":20366:20375   */\n      dup3\n        /* \"#utility.yul\":20361:20364   */\n      dup8\n        /* \"#utility.yul\":20357:20376   */\n      add\n        /* \"#utility.yul\":20351:20377   */\n      mload\n        /* \"#utility.yul\":20342:20377   */\n      swap1\n      pop\n        /* \"#utility.yul\":20314:20391   */\n    tag_483:\n        /* \"#utility.yul\":20417:20484   */\n      tag_484\n        /* \"#utility.yul\":20477:20483   */\n      dup6\n        /* \"#utility.yul\":20470:20475   */\n      dup3\n        /* \"#utility.yul\":20417:20484   */\n      tag_281\n      jump\t// in\n    tag_484:\n        /* \"#utility.yul\":20411:20415   */\n      dup7\n        /* \"#utility.yul\":20404:20485   */\n      sstore\n        /* \"#utility.yul\":20273:20495   */\n      pop\n        /* \"#utility.yul\":19608:20495   */\n      jump(tag_481)\n        /* \"#utility.yul\":19638:20256   */\n    tag_482:\n        /* \"#utility.yul\":19690:19694   */\n      0x1f\n        /* \"#utility.yul\":19686:19695   */\n      not\n        /* \"#utility.yul\":19678:19684   */\n      dup5\n        /* \"#utility.yul\":19674:19696   */\n      and\n        /* \"#utility.yul\":19724:19761   */\n      tag_485\n        /* \"#utility.yul\":19756:19760   */\n      dup7\n        /* \"#utility.yul\":19724:19761   */\n      tag_267\n      jump\t// in\n    tag_485:\n        /* \"#utility.yul\":19783:19784   */\n      0x00\n        /* \"#utility.yul\":19797:20005   */\n    tag_486:\n        /* \"#utility.yul\":19811:19818   */\n      dup3\n        /* \"#utility.yul\":19808:19809   */\n      dup2\n        /* \"#utility.yul\":19805:19819   */\n      lt\n        /* \"#utility.yul\":19797:20005   */\n      iszero\n      tag_488\n      jumpi\n        /* \"#utility.yul\":19890:19899   */\n      dup5\n        /* \"#utility.yul\":19885:19888   */\n      dup10\n        /* \"#utility.yul\":19881:19900   */\n      add\n        /* \"#utility.yul\":19875:19901   */\n      mload\n        /* \"#utility.yul\":19867:19873   */\n      dup3\n        /* \"#utility.yul\":19860:19902   */\n      sstore\n        /* \"#utility.yul\":19941:19942   */\n      0x01\n        /* \"#utility.yul\":19933:19939   */\n      dup3\n        /* \"#utility.yul\":19929:19943   */\n      add\n        /* \"#utility.yul\":19919:19943   */\n      swap2\n      pop\n        /* \"#utility.yul\":19988:19990   */\n      0x20\n        /* \"#utility.yul\":19977:19986   */\n      dup6\n        /* \"#utility.yul\":19973:19991   */\n      add\n        /* \"#utility.yul\":19960:19991   */\n      swap5\n      pop\n        /* \"#utility.yul\":19834:19838   */\n      0x20\n        /* \"#utility.yul\":19831:19832   */\n      dup2\n        /* \"#utility.yul\":19827:19839   */\n      add\n        /* \"#utility.yul\":19822:19839   */\n      swap1\n      pop\n        /* \"#utility.yul\":19797:20005   */\n      jump(tag_486)\n    tag_488:\n        /* \"#utility.yul\":20033:20039   */\n      dup7\n        /* \"#utility.yul\":20024:20031   */\n      dup4\n        /* \"#utility.yul\":20021:20040   */\n      lt\n        /* \"#utility.yul\":20018:20197   */\n      iszero\n      tag_489\n      jumpi\n        /* \"#utility.yul\":20091:20100   */\n      dup5\n        /* \"#utility.yul\":20086:20089   */\n      dup10\n        /* \"#utility.yul\":20082:20101   */\n      add\n        /* \"#utility.yul\":20076:20102   */\n      mload\n        /* \"#utility.yul\":20134:20182   */\n      tag_490\n        /* \"#utility.yul\":20176:20180   */\n      0x1f\n        /* \"#utility.yul\":20168:20174   */\n      dup10\n        /* \"#utility.yul\":20164:20181   */\n      and\n        /* \"#utility.yul\":20153:20162   */\n      dup3\n        /* \"#utility.yul\":20134:20182   */\n      tag_280\n      jump\t// in\n    tag_490:\n        /* \"#utility.yul\":20126:20132   */\n      dup4\n        /* \"#utility.yul\":20119:20183   */\n      sstore\n        /* \"#utility.yul\":20041:20197   */\n      pop\n        /* \"#utility.yul\":20018:20197   */\n    tag_489:\n        /* \"#utility.yul\":20243:20244   */\n      0x01\n        /* \"#utility.yul\":20239:20240   */\n      0x02\n        /* \"#utility.yul\":20231:20237   */\n      dup9\n        /* \"#utility.yul\":20227:20241   */\n      mul\n        /* \"#utility.yul\":20223:20245   */\n      add\n        /* \"#utility.yul\":20217:20221   */\n      dup9\n        /* \"#utility.yul\":20210:20246   */\n      sstore\n        /* \"#utility.yul\":19645:20256   */\n      pop\n      pop\n      pop\n        /* \"#utility.yul\":19608:20495   */\n    tag_481:\n      pop\n        /* \"#utility.yul\":19198:20501   */\n      pop\n      pop\n      pop\n        /* \"#utility.yul\":19106:20501   */\n      pop\n      pop\n      jump\t// out\n        /* \"#utility.yul\":20507:20687   */\n    tag_282:\n        /* \"#utility.yul\":20555:20632   */\n      0x4e487b7100000000000000000000000000000000000000000000000000000000\n        /* \"#utility.yul\":20552:20553   */\n      0x00\n        /* \"#utility.yul\":20545:20633   */\n      mstore\n        /* \"#utility.yul\":20652:20656   */\n      0x11\n        /* \"#utility.yul\":20649:20650   */\n      0x04\n        /* \"#utility.yul\":20642:20657   */\n      mstore\n        /* \"#utility.yul\":20676:20680   */\n      0x24\n        /* \"#utility.yul\":20673:20674   */\n      0x00\n        /* \"#utility.yul\":20666:20681   */\n      revert\n        /* \"#utility.yul\":20693:20926   */\n    tag_181:\n        /* \"#utility.yul\":20732:20735   */\n      0x00\n        /* \"#utility.yul\":20755:20779   */\n      tag_493\n        /* \"#utility.yul\":20773:20778   */\n      dup3\n        /* \"#utility.yul\":20755:20779   */\n      tag_240\n      jump\t// in\n    tag_493:\n        /* \"#utility.yul\":20746:20779   */\n      swap2\n      pop\n        /* \"#utility.yul\":20801:20867   */\n      0xffffffffffffffffffffffffffffffffffffffffffffffffffffffffffffffff\n        /* \"#utility.yul\":20794:20799   */\n      dup3\n        /* \"#utility.yul\":20791:20868   */\n      sub\n        /* \"#utility.yul\":20788:20891   */\n      tag_494\n      jumpi\n        /* \"#utility.yul\":20871:20889   */\n      tag_495\n      tag_282\n      jump\t// in\n    tag_495:\n        /* \"#utility.yul\":20788:20891   */\n    tag_494:\n        /* \"#utility.yul\":20918:20919   */\n      0x01\n        /* \"#utility.yul\":20911:20916   */\n      dup3\n        /* \"#utility.yul\":20907:20920   */\n      add\n        /* \"#utility.yul\":20900:20920   */\n      swap1\n      pop\n        /* \"#utility.yul\":20693:20926   */\n      swap2\n      swap1\n      pop\n      jump\t// out\n        /* \"#utility.yul\":20932:21374   */\n    tag_194:\n        /* \"#utility.yul\":21081:21085   */\n      0x00\n        /* \"#utility.yul\":21119:21121   */\n      0x60\n        /* \"#utility.yul\":21108:21117   */\n      dup3\n        /* \"#utility.yul\":21104:21122   */\n      add\n        /* \"#utility.yul\":21096:21122   */\n      swap1\n      pop\n        /* \"#utility.yul\":21132:21203   */\n      tag_497\n        /* \"#utility.yul\":21200:21201   */\n      0x00\n        /* \"#utility.yul\":21189:21198   */\n      dup4\n        /* \"#utility.yul\":21185:21202   */\n      add\n        /* \"#utility.yul\":21176:21182   */\n      dup7\n        /* \"#utility.yul\":21132:21203   */\n      tag_248\n      jump\t// in\n    tag_497:\n        /* \"#utility.yul\":21213:21285   */\n      tag_498\n        /* \"#utility.yul\":21281:21283   */\n      0x20\n        /* \"#utility.yul\":21270:21279   */\n      dup4\n        /* \"#utility.yul\":21266:21284   */\n      add\n        /* \"#utility.yul\":21257:21263   */\n      dup6\n        /* \"#utility.yul\":21213:21285   */\n      tag_245\n      jump\t// in\n    tag_498:\n        /* \"#utility.yul\":21295:21367   */\n      tag_499\n        /* \"#utility.yul\":21363:21365   */\n      0x40\n        /* \"#utility.yul\":21352:21361   */\n      dup4\n        /* \"#utility.yul\":21348:21366   */\n      add\n        /* \"#utility.yul\":21339:21345   */\n      dup5\n        /* \"#utility.yul\":21295:21367   */\n      tag_245\n      jump\t// in\n    tag_499:\n        /* \"#utility.yul\":20932:21374   */\n      swap5\n      swap4\n      pop\n      pop\n      pop\n      pop\n      jump\t// out\n        /* \"#utility.yul\":21380:21571   */\n    tag_205:\n        /* \"#utility.yul\":21420:21423   */\n      0x00\n        /* \"#utility.yul\":21439:21459   */\n      tag_501\n        /* \"#utility.yul\":21457:21458   */\n      dup3\n        /* \"#utility.yul\":21439:21459   */\n      tag_240\n      jump\t// in\n    tag_501:\n        /* \"#utility.yul\":21434:21459   */\n      swap2\n      pop\n        /* \"#utility.yul\":21473:21493   */\n      tag_502\n        /* \"#utility.yul\":21491:21492   */\n      dup4\n        /* \"#utility.yul\":21473:21493   */\n      tag_240\n      jump\t// in\n    tag_502:\n        /* \"#utility.yul\":21468:21493   */\n      swap3\n      pop\n        /* \"#utility.yul\":21516:21517   */\n      dup3\n        /* \"#utility.yul\":21513:21514   */\n      dup3\n        /* \"#utility.yul\":21509:21518   */\n      add\n        /* \"#utility.yul\":21502:21518   */\n      swap1\n      pop\n        /* \"#utility.yul\":21537:21540   */\n      dup1\n        /* \"#utility.yul\":21534:21535   */\n      dup3\n        /* \"#utility.yul\":21531:21541   */\n      gt\n        /* \"#utility.yul\":21528:21564   */\n      iszero\n      tag_503\n      jumpi\n        /* \"#utility.yul\":21544:21562   */\n      tag_504\n      tag_282\n      jump\t// in\n    tag_504:\n        /* \"#utility.yul\":21528:21564   */\n    tag_503:\n        /* \"#utility.yul\":21380:21571   */\n      swap3\n      swap2\n      pop\n      pop\n      jump\t// out\n\n    auxdata: 0xa2646970667358221220bd6fb1dbf710882cc1253b1b5dabdf072df35f55089ec87fdc0f7dd88ef5fa3a64736f6c63430008140033\n}\n",
				"bytecode": {
					"linkReferences": {},
					"object": "6080604052678ac7230489e8000060055560405180606001604052806040518060400160405280600781526020017f4d4172626c65780000000000000000000000000000000000000000000000000081525081526020016040518060400160405280600581526020017f474d54454500000000000000000000000000000000000000000000000000000081525081526020016040518060400160405280600581526020017f4d415449430000000000000000000000000000000000000000000000000000008152508152506006906003620000dc929190620004ad565b5060405180606001604052806040518060a00160405280606f815260200162002b89606f913981526020016040518060600160405280602e815260200162002b1b602e9139815260200160405180606001604052806040815260200162002b4960409139815250600790600362000155929190620004ad565b5034801562000162575f80fd5b5060405162002bf838038062002bf8833981810160405281019062000188919062000717565b818181600390816200019b9190620009d1565b508060049081620001ad9190620009d1565b505050620001ef33620001c5620001f760201b60201c565b600a620001d3919062000c3e565b620186a0620001e3919062000c8e565b620001ff60201b60201c565b505062000dd7565b5f6012905090565b5f73ffffffffffffffffffffffffffffffffffffffff168273ffffffffffffffffffffffffffffffffffffffff160362000272575f6040517fec442f0500000000000000000000000000000000000000000000000000000000815260040162000269919062000d1b565b60405180910390fd5b620002855f83836200028960201b60201c565b5050565b5f73ffffffffffffffffffffffffffffffffffffffff168373ffffffffffffffffffffffffffffffffffffffff1603620002dd578060025f828254620002d0919062000d36565b92505081905550620003ae565b5f805f8573ffffffffffffffffffffffffffffffffffffffff1673ffffffffffffffffffffffffffffffffffffffff1681526020019081526020015f205490508181101562000369578381836040517fe450d38c000000000000000000000000000000000000000000000000000000008152600401620003609392919062000d81565b60405180910390fd5b8181035f808673ffffffffffffffffffffffffffffffffffffffff1673ffffffffffffffffffffffffffffffffffffffff1681526020019081526020015f2081905550505b5f73ffffffffffffffffffffffffffffffffffffffff168273ffffffffffffffffffffffffffffffffffffffff1603620003f7578060025f828254039250508190555062000441565b805f808473ffffffffffffffffffffffffffffffffffffffff1673ffffffffffffffffffffffffffffffffffffffff1681526020019081526020015f205f82825401925050819055505b8173ffffffffffffffffffffffffffffffffffffffff168373ffffffffffffffffffffffffffffffffffffffff167fddf252ad1be2c89b69c2b068fc378daa952ba7f163c4a11628f55a4df523b3ef83604051620004a0919062000dbc565b60405180910390a3505050565b828054828255905f5260205f20908101928215620004f8579160200282015b82811115620004f7578251829081620004e69190620009d1565b5091602001919060010190620004cc565b5b5090506200050791906200050b565b5090565b5b808211156200052e575f818162000524919062000532565b506001016200050c565b5090565b5080546200054090620007d1565b5f825580601f1062000553575062000572565b601f0160209004905f5260205f209081019062000571919062000575565b5b50565b5b808211156200058e575f815f90555060010162000576565b5090565b5f604051905090565b5f80fd5b5f80fd5b5f80fd5b5f80fd5b5f601f19601f8301169050919050565b7f4e487b71000000000000000000000000000000000000000000000000000000005f52604160045260245ffd5b620005f382620005ab565b810181811067ffffffffffffffff82111715620006155762000614620005bb565b5b80604052505050565b5f6200062962000592565b9050620006378282620005e8565b919050565b5f67ffffffffffffffff821115620006595762000658620005bb565b5b6200066482620005ab565b9050602081019050919050565b5f5b838110156200069057808201518184015260208101905062000673565b5f8484015250505050565b5f620006b1620006ab846200063c565b6200061e565b905082815260208101848484011115620006d057620006cf620005a7565b5b620006dd84828562000671565b509392505050565b5f82601f830112620006fc57620006fb620005a3565b5b81516200070e8482602086016200069b565b91505092915050565b5f806040838503121562000730576200072f6200059b565b5b5f83015167ffffffffffffffff81111562000750576200074f6200059f565b5b6200075e85828601620006e5565b925050602083015167ffffffffffffffff8111156200078257620007816200059f565b5b6200079085828601620006e5565b9150509250929050565b5f81519050919050565b7f4e487b71000000000000000000000000000000000000000000000000000000005f52602260045260245ffd5b5f6002820490506001821680620007e957607f821691505b602082108103620007ff57620007fe620007a4565b5b50919050565b5f819050815f5260205f209050919050565b5f6020601f8301049050919050565b5f82821b905092915050565b5f60088302620008637fffffffffffffffffffffffffffffffffffffffffffffffffffffffffffffffff8262000826565b6200086f868362000826565b95508019841693508086168417925050509392505050565b5f819050919050565b5f819050919050565b5f620008b9620008b3620008ad8462000887565b62000890565b62000887565b9050919050565b5f819050919050565b620008d48362000899565b620008ec620008e382620008c0565b84845462000832565b825550505050565b5f90565b62000902620008f4565b6200090f818484620008c9565b505050565b5b8181101562000936576200092a5f82620008f8565b60018101905062000915565b5050565b601f82111562000985576200094f8162000805565b6200095a8462000817565b810160208510156200096a578190505b62000982620009798562000817565b83018262000914565b50505b505050565b5f82821c905092915050565b5f620009a75f19846008026200098a565b1980831691505092915050565b5f620009c1838362000996565b9150826002028217905092915050565b620009dc826200079a565b67ffffffffffffffff811115620009f857620009f7620005bb565b5b62000a048254620007d1565b62000a118282856200093a565b5f60209050601f83116001811462000a47575f841562000a32578287015190505b62000a3e8582620009b4565b86555062000aad565b601f19841662000a578662000805565b5f5b8281101562000a805784890151825560018201915060208501945060208101905062000a59565b8683101562000aa0578489015162000a9c601f89168262000996565b8355505b6001600288020188555050505b505050505050565b7f4e487b71000000000000000000000000000000000000000000000000000000005f52601160045260245ffd5b5f8160011c9050919050565b5f808291508390505b600185111562000b3f5780860481111562000b175762000b1662000ab5565b5b600185161562000b275780820291505b808102905062000b378562000ae2565b945062000af7565b94509492505050565b5f8262000b59576001905062000c2b565b8162000b68575f905062000c2b565b816001811462000b81576002811462000b8c5762000bc2565b600191505062000c2b565b60ff84111562000ba15762000ba062000ab5565b5b8360020a91508482111562000bbb5762000bba62000ab5565b5b5062000c2b565b5060208310610133831016604e8410600b841016171562000bfc5782820a90508381111562000bf65762000bf562000ab5565b5b62000c2b565b62000c0b848484600162000aee565b9250905081840481111562000c255762000c2462000ab5565b5b81810290505b9392505050565b5f60ff82169050919050565b5f62000c4a8262000887565b915062000c578362000c32565b925062000c867fffffffffffffffffffffffffffffffffffffffffffffffffffffffffffffffff848462000b48565b905092915050565b5f62000c9a8262000887565b915062000ca78362000887565b925082820262000cb78162000887565b9150828204841483151762000cd15762000cd062000ab5565b5b5092915050565b5f73ffffffffffffffffffffffffffffffffffffffff82169050919050565b5f62000d038262000cd8565b9050919050565b62000d158162000cf7565b82525050565b5f60208201905062000d305f83018462000d0a565b92915050565b5f62000d428262000887565b915062000d4f8362000887565b925082820190508082111562000d6a5762000d6962000ab5565b5b92915050565b62000d7b8162000887565b82525050565b5f60608201905062000d965f83018662000d0a565b62000da5602083018562000d70565b62000db4604083018462000d70565b949350505050565b5f60208201905062000dd15f83018462000d70565b92915050565b611d368062000de55f395ff3fe608060405234801561000f575f80fd5b50600436106100e8575f3560e01c8063545e163e1161008a57806395d89b411161006457806395d89b4114610273578063a9059cbb14610291578063bfaede13146102c1578063dd62ed3e146102cb576100e8565b8063545e163e146101f45780635dfac4e41461022557806370a0823114610243576100e8565b806318160ddd116100c657806318160ddd1461015857806323b872dd14610176578063313ce567146101a6578063365b98b2146101c4576100e8565b806303e276af146100ec57806306fdde031461010a578063095ea7b314610128575b5f80fd5b6100f46102fb565b60405161010191906113da565b60405180910390f35b6101126104b1565b60405161011f9190611442565b60405180910390f35b610142600480360381019061013d91906114f3565b610541565b60405161014f919061154b565b60405180910390f35b610160610563565b60405161016d9190611573565b60405180910390f35b610190600480360381019061018b919061158c565b61056c565b60405161019d919061154b565b60405180910390f35b6101ae61059a565b6040516101bb91906115f7565b60405180910390f35b6101de60048036038101906101d99190611610565b6105a2565b6040516101eb919061164a565b60405180910390f35b61020e600480360381019061020991906114f3565b6105e6565b60405161021c929190611663565b60405180910390f35b61022d61072c565b60405161023a9190611769565b60405180910390f35b61025d60048036038101906102589190611789565b6107d8565b60405161026a9190611573565b60405180910390f35b61027b61081d565b6040516102889190611442565b60405180910390f35b6102ab60048036038101906102a691906114f3565b6108ad565b6040516102b8919061154b565b60405180910390f35b6102c96108cf565b005b6102e560048036038101906102e091906117b4565b610c4f565b6040516102f29190611573565b60405180910390f35b606060085f3373ffffffffffffffffffffffffffffffffffffffff1673ffffffffffffffffffffffffffffffffffffffff1681526020019081526020015f20805480602002602001604051908101604052809291908181526020015f905b828210156104a8578382905f5260205f2090600202016040518060400160405290815f820180546103899061181f565b80601f01602080910402602001604051908101604052809291908181526020018280546103b59061181f565b80156104005780601f106103d757610100808354040283529160200191610400565b820191905f5260205f20905b8154815290600101906020018083116103e357829003601f168201915b505050505081526020016001820180546104199061181f565b80601f01602080910402602001604051908101604052809291908181526020018280546104459061181f565b80156104905780601f1061046757610100808354040283529160200191610490565b820191905f5260205f20905b81548152906001019060200180831161047357829003601f168201915b50505050508152505081526020019060010190610359565b50505050905090565b6060600380546104c09061181f565b80601f01602080910402602001604051908101604052809291908181526020018280546104ec9061181f565b80156105375780601f1061050e57610100808354040283529160200191610537565b820191905f5260205f20905b81548152906001019060200180831161051a57829003601f168201915b5050505050905090565b5f8061054b610cd1565b9050610558818585610cd8565b600191505092915050565b5f600254905090565b5f80610576610cd1565b9050610583858285610cea565b61058e858585610d7c565b60019150509392505050565b5f6012905090565b600981815481106105b1575f80fd5b905f5260205f20015f91509050805f015f9054906101000a900473ffffffffffffffffffffffffffffffffffffffff16905081565b6008602052815f5260405f2081815481106105ff575f80fd5b905f5260205f2090600202015f9150915050805f01805461061f9061181f565b80601f016020809104026020016040519081016040528092919081815260200182805461064b9061181f565b80156106965780601f1061066d57610100808354040283529160200191610696565b820191905f5260205f20905b81548152906001019060200180831161067957829003601f168201915b5050505050908060010180546106ab9061181f565b80601f01602080910402602001604051908101604052809291908181526020018280546106d79061181f565b80156107225780601f106106f957610100808354040283529160200191610722565b820191905f5260205f20905b81548152906001019060200180831161070557829003601f168201915b5050505050905082565b60606009805480602002602001604051908101604052809291908181526020015f905b828210156107cf578382905f5260205f20016040518060200160405290815f82015f9054906101000a900473ffffffffffffffffffffffffffffffffffffffff1673ffffffffffffffffffffffffffffffffffffffff1673ffffffffffffffffffffffffffffffffffffffff16815250508152602001906001019061074f565b50505050905090565b5f805f8373ffffffffffffffffffffffffffffffffffffffff1673ffffffffffffffffffffffffffffffffffffffff1681526020019081526020015f20549050919050565b60606004805461082c9061181f565b80601f01602080910402602001604051908101604052809291908181526020018280546108589061181f565b80156108a35780601f1061087a576101008083540402835291602001916108a3565b820191905f5260205f20905b81548152906001019060200180831161088657829003601f168201915b5050505050905090565b5f806108b7610cd1565b90506108c4818585610d7c565b600191505092915050565b6005546108db336107d8565b10156108e5575f80fd5b6108f2335f600554610e6c565b5f424143604051602001610908939291906118c5565b604051602081830303815290604052805190602001205f1c905060038161092f919061192e565b905060085f3373ffffffffffffffffffffffffffffffffffffffff1673ffffffffffffffffffffffffffffffffffffffff1681526020019081526020015f2060405180604001604052806007848154811061098d5761098c61195e565b5b905f5260205f200180546109a09061181f565b80601f01602080910402602001604051908101604052809291908181526020018280546109cc9061181f565b8015610a175780601f106109ee57610100808354040283529160200191610a17565b820191905f5260205f20905b8154815290600101906020018083116109fa57829003601f168201915b5050505050815260200160068481548110610a3557610a3461195e565b5b905f5260205f20018054610a489061181f565b80601f0160208091040260200160405190810160405280929190818152602001828054610a749061181f565b8015610abf5780601f10610a9657610100808354040283529160200191610abf565b820191905f5260205f20905b815481529060010190602001808311610aa257829003601f168201915b5050505050815250908060018154018082558091505060019003905f5260205f2090600202015f909190919091505f820151815f019081610b009190611b55565b506020820151816001019081610b169190611b55565b5050505f805b600980549050811015610bb5573373ffffffffffffffffffffffffffffffffffffffff1660098281548110610b5457610b5361195e565b5b905f5260205f20015f015f9054906101000a900473ffffffffffffffffffffffffffffffffffffffff1673ffffffffffffffffffffffffffffffffffffffff1603610ba25760019150610bb5565b8080610bad90611c51565b915050610b1c565b5080610c4b57600960405180602001604052803373ffffffffffffffffffffffffffffffffffffffff16815250908060018154018082558091505060019003905f5260205f20015f909190919091505f820151815f015f6101000a81548173ffffffffffffffffffffffffffffffffffffffff021916908373ffffffffffffffffffffffffffffffffffffffff16021790555050505b5050565b5f60015f8473ffffffffffffffffffffffffffffffffffffffff1673ffffffffffffffffffffffffffffffffffffffff1681526020019081526020015f205f8373ffffffffffffffffffffffffffffffffffffffff1673ffffffffffffffffffffffffffffffffffffffff1681526020019081526020015f2054905092915050565b5f33905090565b610ce58383836001611085565b505050565b5f610cf58484610c4f565b90507fffffffffffffffffffffffffffffffffffffffffffffffffffffffffffffffff8114610d765781811015610d67578281836040517ffb8f41b2000000000000000000000000000000000000000000000000000000008152600401610d5e93929190611c98565b60405180910390fd5b610d7584848484035f611085565b5b50505050565b5f73ffffffffffffffffffffffffffffffffffffffff168373ffffffffffffffffffffffffffffffffffffffff1603610dec575f6040517f96c6fd1e000000000000000000000000000000000000000000000000000000008152600401610de3919061164a565b60405180910390fd5b5f73ffffffffffffffffffffffffffffffffffffffff168273ffffffffffffffffffffffffffffffffffffffff1603610e5c575f6040517fec442f05000000000000000000000000000000000000000000000000000000008152600401610e53919061164a565b60405180910390fd5b610e67838383610e6c565b505050565b5f73ffffffffffffffffffffffffffffffffffffffff168373ffffffffffffffffffffffffffffffffffffffff1603610ebc578060025f828254610eb09190611ccd565b92505081905550610f8a565b5f805f8573ffffffffffffffffffffffffffffffffffffffff1673ffffffffffffffffffffffffffffffffffffffff1681526020019081526020015f2054905081811015610f45578381836040517fe450d38c000000000000000000000000000000000000000000000000000000008152600401610f3c93929190611c98565b60405180910390fd5b8181035f808673ffffffffffffffffffffffffffffffffffffffff1673ffffffffffffffffffffffffffffffffffffffff1681526020019081526020015f2081905550505b5f73ffffffffffffffffffffffffffffffffffffffff168273ffffffffffffffffffffffffffffffffffffffff1603610fd1578060025f828254039250508190555061101b565b805f808473ffffffffffffffffffffffffffffffffffffffff1673ffffffffffffffffffffffffffffffffffffffff1681526020019081526020015f205f82825401925050819055505b8173ffffffffffffffffffffffffffffffffffffffff168373ffffffffffffffffffffffffffffffffffffffff167fddf252ad1be2c89b69c2b068fc378daa952ba7f163c4a11628f55a4df523b3ef836040516110789190611573565b60405180910390a3505050565b5f73ffffffffffffffffffffffffffffffffffffffff168473ffffffffffffffffffffffffffffffffffffffff16036110f5575f6040517fe602df050000000000000000000000000000000000000000000000000000000081526004016110ec919061164a565b60405180910390fd5b5f73ffffffffffffffffffffffffffffffffffffffff168373ffffffffffffffffffffffffffffffffffffffff1603611165575f6040517f94280d6200000000000000000000000000000000000000000000000000000000815260040161115c919061164a565b60405180910390fd5b8160015f8673ffffffffffffffffffffffffffffffffffffffff1673ffffffffffffffffffffffffffffffffffffffff1681526020019081526020015f205f8573ffffffffffffffffffffffffffffffffffffffff1673ffffffffffffffffffffffffffffffffffffffff1681526020019081526020015f2081905550801561124e578273ffffffffffffffffffffffffffffffffffffffff168473ffffffffffffffffffffffffffffffffffffffff167f8c5be1e5ebec7d5bd14f71427d1e84f3dd0314c0f7b2291e5b200ac8c7c3b925846040516112459190611573565b60405180910390a35b50505050565b5f81519050919050565b5f82825260208201905092915050565b5f819050602082019050919050565b5f81519050919050565b5f82825260208201905092915050565b5f5b838110156112b4578082015181840152602081019050611299565b5f8484015250505050565b5f601f19601f8301169050919050565b5f6112d98261127d565b6112e38185611287565b93506112f3818560208601611297565b6112fc816112bf565b840191505092915050565b5f604083015f8301518482035f86015261132182826112cf565b9150506020830151848203602086015261133b82826112cf565b9150508091505092915050565b5f6113538383611307565b905092915050565b5f602082019050919050565b5f61137182611254565b61137b818561125e565b93508360208202850161138d8561126e565b805f5b858110156113c857848403895281516113a98582611348565b94506113b48361135b565b925060208a01995050600181019050611390565b50829750879550505050505092915050565b5f6020820190508181035f8301526113f28184611367565b905092915050565b5f82825260208201905092915050565b5f6114148261127d565b61141e81856113fa565b935061142e818560208601611297565b611437816112bf565b840191505092915050565b5f6020820190508181035f83015261145a818461140a565b905092915050565b5f80fd5b5f73ffffffffffffffffffffffffffffffffffffffff82169050919050565b5f61148f82611466565b9050919050565b61149f81611485565b81146114a9575f80fd5b50565b5f813590506114ba81611496565b92915050565b5f819050919050565b6114d2816114c0565b81146114dc575f80fd5b50565b5f813590506114ed816114c9565b92915050565b5f806040838503121561150957611508611462565b5b5f611516858286016114ac565b9250506020611527858286016114df565b9150509250929050565b5f8115159050919050565b61154581611531565b82525050565b5f60208201905061155e5f83018461153c565b92915050565b61156d816114c0565b82525050565b5f6020820190506115865f830184611564565b92915050565b5f805f606084860312156115a3576115a2611462565b5b5f6115b0868287016114ac565b93505060206115c1868287016114ac565b92505060406115d2868287016114df565b9150509250925092565b5f60ff82169050919050565b6115f1816115dc565b82525050565b5f60208201905061160a5f8301846115e8565b92915050565b5f6020828403121561162557611624611462565b5b5f611632848285016114df565b91505092915050565b61164481611485565b82525050565b5f60208201905061165d5f83018461163b565b92915050565b5f6040820190508181035f83015261167b818561140a565b9050818103602083015261168f818461140a565b90509392505050565b5f81519050919050565b5f82825260208201905092915050565b5f819050602082019050919050565b6116ca81611485565b82525050565b602082015f8201516116e45f8501826116c1565b50505050565b5f6116f583836116d0565b60208301905092915050565b5f602082019050919050565b5f61171782611698565b61172181856116a2565b935061172c836116b2565b805f5b8381101561175c57815161174388826116ea565b975061174e83611701565b92505060018101905061172f565b5085935050505092915050565b5f6020820190508181035f830152611781818461170d565b905092915050565b5f6020828403121561179e5761179d611462565b5b5f6117ab848285016114ac565b91505092915050565b5f80604083850312156117ca576117c9611462565b5b5f6117d7858286016114ac565b92505060206117e8858286016114ac565b9150509250929050565b7f4e487b71000000000000000000000000000000000000000000000000000000005f52602260045260245ffd5b5f600282049050600182168061183657607f821691505b602082108103611849576118486117f2565b5b50919050565b5f819050919050565b611869611864826114c0565b61184f565b82525050565b5f61187982611466565b9050919050565b5f8160601b9050919050565b5f61189682611880565b9050919050565b5f6118a78261188c565b9050919050565b6118bf6118ba8261186f565b61189d565b82525050565b5f6118d08286611858565b6020820191506118e082856118ae565b6014820191506118f08284611858565b602082019150819050949350505050565b7f4e487b71000000000000000000000000000000000000000000000000000000005f52601260045260245ffd5b5f611938826114c0565b9150611943836114c0565b92508261195357611952611901565b5b828206905092915050565b7f4e487b71000000000000000000000000000000000000000000000000000000005f52603260045260245ffd5b7f4e487b71000000000000000000000000000000000000000000000000000000005f52604160045260245ffd5b5f819050815f5260205f209050919050565b5f6020601f8301049050919050565b5f82821b905092915050565b5f60088302611a147fffffffffffffffffffffffffffffffffffffffffffffffffffffffffffffffff826119d9565b611a1e86836119d9565b95508019841693508086168417925050509392505050565b5f819050919050565b5f611a59611a54611a4f846114c0565b611a36565b6114c0565b9050919050565b5f819050919050565b611a7283611a3f565b611a86611a7e82611a60565b8484546119e5565b825550505050565b5f90565b611a9a611a8e565b611aa5818484611a69565b505050565b5b81811015611ac857611abd5f82611a92565b600181019050611aab565b5050565b601f821115611b0d57611ade816119b8565b611ae7846119ca565b81016020851015611af6578190505b611b0a611b02856119ca565b830182611aaa565b50505b505050565b5f82821c905092915050565b5f611b2d5f1984600802611b12565b1980831691505092915050565b5f611b458383611b1e565b9150826002028217905092915050565b611b5e8261127d565b67ffffffffffffffff811115611b7757611b7661198b565b5b611b81825461181f565b611b8c828285611acc565b5f60209050601f831160018114611bbd575f8415611bab578287015190505b611bb58582611b3a565b865550611c1c565b601f198416611bcb866119b8565b5f5b82811015611bf257848901518255600182019150602085019450602081019050611bcd565b86831015611c0f5784890151611c0b601f891682611b1e565b8355505b6001600288020188555050505b505050505050565b7f4e487b71000000000000000000000000000000000000000000000000000000005f52601160045260245ffd5b5f611c5b826114c0565b91507fffffffffffffffffffffffffffffffffffffffffffffffffffffffffffffffff8203611c8d57611c8c611c24565b5b600182019050919050565b5f606082019050611cab5f83018661163b565b611cb86020830185611564565b611cc56040830184611564565b949350505050565b5f611cd7826114c0565b9150611ce2836114c0565b9250828201905080821115611cfa57611cf9611c24565b5b9291505056fea2646970667358221220bd6fb1dbf710882cc1253b1b5dabdf072df35f55089ec87fdc0f7dd88ef5fa3a64736f6c6343000814003368747470733a2f2f66312e746f6b656e706f73742e6b722f323032332f30392f396c6f7332676b356e742e706e6768747470733a2f2f63646e2e6e626e74762e636f2e6b722f6e6577732f70686f746f2f3230323330372f333030313034335f3230313531335f3332312e6a706768747470733a2f2f6e696d6167652e672d656e6577732e636f6d2f7068707761732f726573746d625f616c6c6964786d616b652e7068703f6964783d352673696d673d323032333130313231333131303630323632386335666137356566383632313131383031323536312e6a7067",
					"opcodes": "PUSH1 0x80 PUSH1 0x40 MSTORE PUSH8 0x8AC7230489E80000 PUSH1 0x5 SSTORE PUSH1 0x40 MLOAD DUP1 PUSH1 0x60 ADD PUSH1 0x40 MSTORE DUP1 PUSH1 0x40 MLOAD DUP1 PUSH1 0x40 ADD PUSH1 0x40 MSTORE DUP1 PUSH1 0x7 DUP2 MSTORE PUSH1 0x20 ADD PUSH32 0x4D4172626C657800000000000000000000000000000000000000000000000000 DUP2 MSTORE POP DUP2 MSTORE PUSH1 0x20 ADD PUSH1 0x40 MLOAD DUP1 PUSH1 0x40 ADD PUSH1 0x40 MSTORE DUP1 PUSH1 0x5 DUP2 MSTORE PUSH1 0x20 ADD PUSH32 0x474D544545000000000000000000000000000000000000000000000000000000 DUP2 MSTORE POP DUP2 MSTORE PUSH1 0x20 ADD PUSH1 0x40 MLOAD DUP1 PUSH1 0x40 ADD PUSH1 0x40 MSTORE DUP1 PUSH1 0x5 DUP2 MSTORE PUSH1 0x20 ADD PUSH32 0x4D41544943000000000000000000000000000000000000000000000000000000 DUP2 MSTORE POP DUP2 MSTORE POP PUSH1 0x6 SWAP1 PUSH1 0x3 PUSH3 0xDC SWAP3 SWAP2 SWAP1 PUSH3 0x4AD JUMP JUMPDEST POP PUSH1 0x40 MLOAD DUP1 PUSH1 0x60 ADD PUSH1 0x40 MSTORE DUP1 PUSH1 0x40 MLOAD DUP1 PUSH1 0xA0 ADD PUSH1 0x40 MSTORE DUP1 PUSH1 0x6F DUP2 MSTORE PUSH1 0x20 ADD PUSH3 0x2B89 PUSH1 0x6F SWAP2 CODECOPY DUP2 MSTORE PUSH1 0x20 ADD PUSH1 0x40 MLOAD DUP1 PUSH1 0x60 ADD PUSH1 0x40 MSTORE DUP1 PUSH1 0x2E DUP2 MSTORE PUSH1 0x20 ADD PUSH3 0x2B1B PUSH1 0x2E SWAP2 CODECOPY DUP2 MSTORE PUSH1 0x20 ADD PUSH1 0x40 MLOAD DUP1 PUSH1 0x60 ADD PUSH1 0x40 MSTORE DUP1 PUSH1 0x40 DUP2 MSTORE PUSH1 0x20 ADD PUSH3 0x2B49 PUSH1 0x40 SWAP2 CODECOPY DUP2 MSTORE POP PUSH1 0x7 SWAP1 PUSH1 0x3 PUSH3 0x155 SWAP3 SWAP2 SWAP1 PUSH3 0x4AD JUMP JUMPDEST POP CALLVALUE DUP1 ISZERO PUSH3 0x162 JUMPI PUSH0 DUP1 REVERT JUMPDEST POP PUSH1 0x40 MLOAD PUSH3 0x2BF8 CODESIZE SUB DUP1 PUSH3 0x2BF8 DUP4 CODECOPY DUP2 DUP2 ADD PUSH1 0x40 MSTORE DUP2 ADD SWAP1 PUSH3 0x188 SWAP2 SWAP1 PUSH3 0x717 JUMP JUMPDEST DUP2 DUP2 DUP2 PUSH1 0x3 SWAP1 DUP2 PUSH3 0x19B SWAP2 SWAP1 PUSH3 0x9D1 JUMP JUMPDEST POP DUP1 PUSH1 0x4 SWAP1 DUP2 PUSH3 0x1AD SWAP2 SWAP1 PUSH3 0x9D1 JUMP JUMPDEST POP POP POP PUSH3 0x1EF CALLER PUSH3 0x1C5 PUSH3 0x1F7 PUSH1 0x20 SHL PUSH1 0x20 SHR JUMP JUMPDEST PUSH1 0xA PUSH3 0x1D3 SWAP2 SWAP1 PUSH3 0xC3E JUMP JUMPDEST PUSH3 0x186A0 PUSH3 0x1E3 SWAP2 SWAP1 PUSH3 0xC8E JUMP JUMPDEST PUSH3 0x1FF PUSH1 0x20 SHL PUSH1 0x20 SHR JUMP JUMPDEST POP POP PUSH3 0xDD7 JUMP JUMPDEST PUSH0 PUSH1 0x12 SWAP1 POP SWAP1 JUMP JUMPDEST PUSH0 PUSH20 0xFFFFFFFFFFFFFFFFFFFFFFFFFFFFFFFFFFFFFFFF AND DUP3 PUSH20 0xFFFFFFFFFFFFFFFFFFFFFFFFFFFFFFFFFFFFFFFF AND SUB PUSH3 0x272 JUMPI PUSH0 PUSH1 0x40 MLOAD PUSH32 0xEC442F0500000000000000000000000000000000000000000000000000000000 DUP2 MSTORE PUSH1 0x4 ADD PUSH3 0x269 SWAP2 SWAP1 PUSH3 0xD1B JUMP JUMPDEST PUSH1 0x40 MLOAD DUP1 SWAP2 SUB SWAP1 REVERT JUMPDEST PUSH3 0x285 PUSH0 DUP4 DUP4 PUSH3 0x289 PUSH1 0x20 SHL PUSH1 0x20 SHR JUMP JUMPDEST POP POP JUMP JUMPDEST PUSH0 PUSH20 0xFFFFFFFFFFFFFFFFFFFFFFFFFFFFFFFFFFFFFFFF AND DUP4 PUSH20 0xFFFFFFFFFFFFFFFFFFFFFFFFFFFFFFFFFFFFFFFF AND SUB PUSH3 0x2DD JUMPI DUP1 PUSH1 0x2 PUSH0 DUP3 DUP3 SLOAD PUSH3 0x2D0 SWAP2 SWAP1 PUSH3 0xD36 JUMP JUMPDEST SWAP3 POP POP DUP2 SWAP1 SSTORE POP PUSH3 0x3AE JUMP JUMPDEST PUSH0 DUP1 PUSH0 DUP6 PUSH20 0xFFFFFFFFFFFFFFFFFFFFFFFFFFFFFFFFFFFFFFFF AND PUSH20 0xFFFFFFFFFFFFFFFFFFFFFFFFFFFFFFFFFFFFFFFF AND DUP2 MSTORE PUSH1 0x20 ADD SWAP1 DUP2 MSTORE PUSH1 0x20 ADD PUSH0 KECCAK256 SLOAD SWAP1 POP DUP2 DUP2 LT ISZERO PUSH3 0x369 JUMPI DUP4 DUP2 DUP4 PUSH1 0x40 MLOAD PUSH32 0xE450D38C00000000000000000000000000000000000000000000000000000000 DUP2 MSTORE PUSH1 0x4 ADD PUSH3 0x360 SWAP4 SWAP3 SWAP2 SWAP1 PUSH3 0xD81 JUMP JUMPDEST PUSH1 0x40 MLOAD DUP1 SWAP2 SUB SWAP1 REVERT JUMPDEST DUP2 DUP2 SUB PUSH0 DUP1 DUP7 PUSH20 0xFFFFFFFFFFFFFFFFFFFFFFFFFFFFFFFFFFFFFFFF AND PUSH20 0xFFFFFFFFFFFFFFFFFFFFFFFFFFFFFFFFFFFFFFFF AND DUP2 MSTORE PUSH1 0x20 ADD SWAP1 DUP2 MSTORE PUSH1 0x20 ADD PUSH0 KECCAK256 DUP2 SWAP1 SSTORE POP POP JUMPDEST PUSH0 PUSH20 0xFFFFFFFFFFFFFFFFFFFFFFFFFFFFFFFFFFFFFFFF AND DUP3 PUSH20 0xFFFFFFFFFFFFFFFFFFFFFFFFFFFFFFFFFFFFFFFF AND SUB PUSH3 0x3F7 JUMPI DUP1 PUSH1 0x2 PUSH0 DUP3 DUP3 SLOAD SUB SWAP3 POP POP DUP2 SWAP1 SSTORE POP PUSH3 0x441 JUMP JUMPDEST DUP1 PUSH0 DUP1 DUP5 PUSH20 0xFFFFFFFFFFFFFFFFFFFFFFFFFFFFFFFFFFFFFFFF AND PUSH20 0xFFFFFFFFFFFFFFFFFFFFFFFFFFFFFFFFFFFFFFFF AND DUP2 MSTORE PUSH1 0x20 ADD SWAP1 DUP2 MSTORE PUSH1 0x20 ADD PUSH0 KECCAK256 PUSH0 DUP3 DUP3 SLOAD ADD SWAP3 POP POP DUP2 SWAP1 SSTORE POP JUMPDEST DUP2 PUSH20 0xFFFFFFFFFFFFFFFFFFFFFFFFFFFFFFFFFFFFFFFF AND DUP4 PUSH20 0xFFFFFFFFFFFFFFFFFFFFFFFFFFFFFFFFFFFFFFFF AND PUSH32 0xDDF252AD1BE2C89B69C2B068FC378DAA952BA7F163C4A11628F55A4DF523B3EF DUP4 PUSH1 0x40 MLOAD PUSH3 0x4A0 SWAP2 SWAP1 PUSH3 0xDBC JUMP JUMPDEST PUSH1 0x40 MLOAD DUP1 SWAP2 SUB SWAP1 LOG3 POP POP POP JUMP JUMPDEST DUP3 DUP1 SLOAD DUP3 DUP3 SSTORE SWAP1 PUSH0 MSTORE PUSH1 0x20 PUSH0 KECCAK256 SWAP1 DUP2 ADD SWAP3 DUP3 ISZERO PUSH3 0x4F8 JUMPI SWAP2 PUSH1 0x20 MUL DUP3 ADD JUMPDEST DUP3 DUP2 GT ISZERO PUSH3 0x4F7 JUMPI DUP3 MLOAD DUP3 SWAP1 DUP2 PUSH3 0x4E6 SWAP2 SWAP1 PUSH3 0x9D1 JUMP JUMPDEST POP SWAP2 PUSH1 0x20 ADD SWAP2 SWAP1 PUSH1 0x1 ADD SWAP1 PUSH3 0x4CC JUMP JUMPDEST JUMPDEST POP SWAP1 POP PUSH3 0x507 SWAP2 SWAP1 PUSH3 0x50B JUMP JUMPDEST POP SWAP1 JUMP JUMPDEST JUMPDEST DUP1 DUP3 GT ISZERO PUSH3 0x52E JUMPI PUSH0 DUP2 DUP2 PUSH3 0x524 SWAP2 SWAP1 PUSH3 0x532 JUMP JUMPDEST POP PUSH1 0x1 ADD PUSH3 0x50C JUMP JUMPDEST POP SWAP1 JUMP JUMPDEST POP DUP1 SLOAD PUSH3 0x540 SWAP1 PUSH3 0x7D1 JUMP JUMPDEST PUSH0 DUP3 SSTORE DUP1 PUSH1 0x1F LT PUSH3 0x553 JUMPI POP PUSH3 0x572 JUMP JUMPDEST PUSH1 0x1F ADD PUSH1 0x20 SWAP1 DIV SWAP1 PUSH0 MSTORE PUSH1 0x20 PUSH0 KECCAK256 SWAP1 DUP2 ADD SWAP1 PUSH3 0x571 SWAP2 SWAP1 PUSH3 0x575 JUMP JUMPDEST JUMPDEST POP JUMP JUMPDEST JUMPDEST DUP1 DUP3 GT ISZERO PUSH3 0x58E JUMPI PUSH0 DUP2 PUSH0 SWAP1 SSTORE POP PUSH1 0x1 ADD PUSH3 0x576 JUMP JUMPDEST POP SWAP1 JUMP JUMPDEST PUSH0 PUSH1 0x40 MLOAD SWAP1 POP SWAP1 JUMP JUMPDEST PUSH0 DUP1 REVERT JUMPDEST PUSH0 DUP1 REVERT JUMPDEST PUSH0 DUP1 REVERT JUMPDEST PUSH0 DUP1 REVERT JUMPDEST PUSH0 PUSH1 0x1F NOT PUSH1 0x1F DUP4 ADD AND SWAP1 POP SWAP2 SWAP1 POP JUMP JUMPDEST PUSH32 0x4E487B7100000000000000000000000000000000000000000000000000000000 PUSH0 MSTORE PUSH1 0x41 PUSH1 0x4 MSTORE PUSH1 0x24 PUSH0 REVERT JUMPDEST PUSH3 0x5F3 DUP3 PUSH3 0x5AB JUMP JUMPDEST DUP2 ADD DUP2 DUP2 LT PUSH8 0xFFFFFFFFFFFFFFFF DUP3 GT OR ISZERO PUSH3 0x615 JUMPI PUSH3 0x614 PUSH3 0x5BB JUMP JUMPDEST JUMPDEST DUP1 PUSH1 0x40 MSTORE POP POP POP JUMP JUMPDEST PUSH0 PUSH3 0x629 PUSH3 0x592 JUMP JUMPDEST SWAP1 POP PUSH3 0x637 DUP3 DUP3 PUSH3 0x5E8 JUMP JUMPDEST SWAP2 SWAP1 POP JUMP JUMPDEST PUSH0 PUSH8 0xFFFFFFFFFFFFFFFF DUP3 GT ISZERO PUSH3 0x659 JUMPI PUSH3 0x658 PUSH3 0x5BB JUMP JUMPDEST JUMPDEST PUSH3 0x664 DUP3 PUSH3 0x5AB JUMP JUMPDEST SWAP1 POP PUSH1 0x20 DUP2 ADD SWAP1 POP SWAP2 SWAP1 POP JUMP JUMPDEST PUSH0 JUMPDEST DUP4 DUP2 LT ISZERO PUSH3 0x690 JUMPI DUP1 DUP3 ADD MLOAD DUP2 DUP5 ADD MSTORE PUSH1 0x20 DUP2 ADD SWAP1 POP PUSH3 0x673 JUMP JUMPDEST PUSH0 DUP5 DUP5 ADD MSTORE POP POP POP POP JUMP JUMPDEST PUSH0 PUSH3 0x6B1 PUSH3 0x6AB DUP5 PUSH3 0x63C JUMP JUMPDEST PUSH3 0x61E JUMP JUMPDEST SWAP1 POP DUP3 DUP2 MSTORE PUSH1 0x20 DUP2 ADD DUP5 DUP5 DUP5 ADD GT ISZERO PUSH3 0x6D0 JUMPI PUSH3 0x6CF PUSH3 0x5A7 JUMP JUMPDEST JUMPDEST PUSH3 0x6DD DUP5 DUP3 DUP6 PUSH3 0x671 JUMP JUMPDEST POP SWAP4 SWAP3 POP POP POP JUMP JUMPDEST PUSH0 DUP3 PUSH1 0x1F DUP4 ADD SLT PUSH3 0x6FC JUMPI PUSH3 0x6FB PUSH3 0x5A3 JUMP JUMPDEST JUMPDEST DUP2 MLOAD PUSH3 0x70E DUP5 DUP3 PUSH1 0x20 DUP7 ADD PUSH3 0x69B JUMP JUMPDEST SWAP2 POP POP SWAP3 SWAP2 POP POP JUMP JUMPDEST PUSH0 DUP1 PUSH1 0x40 DUP4 DUP6 SUB SLT ISZERO PUSH3 0x730 JUMPI PUSH3 0x72F PUSH3 0x59B JUMP JUMPDEST JUMPDEST PUSH0 DUP4 ADD MLOAD PUSH8 0xFFFFFFFFFFFFFFFF DUP2 GT ISZERO PUSH3 0x750 JUMPI PUSH3 0x74F PUSH3 0x59F JUMP JUMPDEST JUMPDEST PUSH3 0x75E DUP6 DUP3 DUP7 ADD PUSH3 0x6E5 JUMP JUMPDEST SWAP3 POP POP PUSH1 0x20 DUP4 ADD MLOAD PUSH8 0xFFFFFFFFFFFFFFFF DUP2 GT ISZERO PUSH3 0x782 JUMPI PUSH3 0x781 PUSH3 0x59F JUMP JUMPDEST JUMPDEST PUSH3 0x790 DUP6 DUP3 DUP7 ADD PUSH3 0x6E5 JUMP JUMPDEST SWAP2 POP POP SWAP3 POP SWAP3 SWAP1 POP JUMP JUMPDEST PUSH0 DUP2 MLOAD SWAP1 POP SWAP2 SWAP1 POP JUMP JUMPDEST PUSH32 0x4E487B7100000000000000000000000000000000000000000000000000000000 PUSH0 MSTORE PUSH1 0x22 PUSH1 0x4 MSTORE PUSH1 0x24 PUSH0 REVERT JUMPDEST PUSH0 PUSH1 0x2 DUP3 DIV SWAP1 POP PUSH1 0x1 DUP3 AND DUP1 PUSH3 0x7E9 JUMPI PUSH1 0x7F DUP3 AND SWAP2 POP JUMPDEST PUSH1 0x20 DUP3 LT DUP2 SUB PUSH3 0x7FF JUMPI PUSH3 0x7FE PUSH3 0x7A4 JUMP JUMPDEST JUMPDEST POP SWAP2 SWAP1 POP JUMP JUMPDEST PUSH0 DUP2 SWAP1 POP DUP2 PUSH0 MSTORE PUSH1 0x20 PUSH0 KECCAK256 SWAP1 POP SWAP2 SWAP1 POP JUMP JUMPDEST PUSH0 PUSH1 0x20 PUSH1 0x1F DUP4 ADD DIV SWAP1 POP SWAP2 SWAP1 POP JUMP JUMPDEST PUSH0 DUP3 DUP3 SHL SWAP1 POP SWAP3 SWAP2 POP POP JUMP JUMPDEST PUSH0 PUSH1 0x8 DUP4 MUL PUSH3 0x863 PUSH32 0xFFFFFFFFFFFFFFFFFFFFFFFFFFFFFFFFFFFFFFFFFFFFFFFFFFFFFFFFFFFFFFFF DUP3 PUSH3 0x826 JUMP JUMPDEST PUSH3 0x86F DUP7 DUP4 PUSH3 0x826 JUMP JUMPDEST SWAP6 POP DUP1 NOT DUP5 AND SWAP4 POP DUP1 DUP7 AND DUP5 OR SWAP3 POP POP POP SWAP4 SWAP3 POP POP POP JUMP JUMPDEST PUSH0 DUP2 SWAP1 POP SWAP2 SWAP1 POP JUMP JUMPDEST PUSH0 DUP2 SWAP1 POP SWAP2 SWAP1 POP JUMP JUMPDEST PUSH0 PUSH3 0x8B9 PUSH3 0x8B3 PUSH3 0x8AD DUP5 PUSH3 0x887 JUMP JUMPDEST PUSH3 0x890 JUMP JUMPDEST PUSH3 0x887 JUMP JUMPDEST SWAP1 POP SWAP2 SWAP1 POP JUMP JUMPDEST PUSH0 DUP2 SWAP1 POP SWAP2 SWAP1 POP JUMP JUMPDEST PUSH3 0x8D4 DUP4 PUSH3 0x899 JUMP JUMPDEST PUSH3 0x8EC PUSH3 0x8E3 DUP3 PUSH3 0x8C0 JUMP JUMPDEST DUP5 DUP5 SLOAD PUSH3 0x832 JUMP JUMPDEST DUP3 SSTORE POP POP POP POP JUMP JUMPDEST PUSH0 SWAP1 JUMP JUMPDEST PUSH3 0x902 PUSH3 0x8F4 JUMP JUMPDEST PUSH3 0x90F DUP2 DUP5 DUP5 PUSH3 0x8C9 JUMP JUMPDEST POP POP POP JUMP JUMPDEST JUMPDEST DUP2 DUP2 LT ISZERO PUSH3 0x936 JUMPI PUSH3 0x92A PUSH0 DUP3 PUSH3 0x8F8 JUMP JUMPDEST PUSH1 0x1 DUP2 ADD SWAP1 POP PUSH3 0x915 JUMP JUMPDEST POP POP JUMP JUMPDEST PUSH1 0x1F DUP3 GT ISZERO PUSH3 0x985 JUMPI PUSH3 0x94F DUP2 PUSH3 0x805 JUMP JUMPDEST PUSH3 0x95A DUP5 PUSH3 0x817 JUMP JUMPDEST DUP2 ADD PUSH1 0x20 DUP6 LT ISZERO PUSH3 0x96A JUMPI DUP2 SWAP1 POP JUMPDEST PUSH3 0x982 PUSH3 0x979 DUP6 PUSH3 0x817 JUMP JUMPDEST DUP4 ADD DUP3 PUSH3 0x914 JUMP JUMPDEST POP POP JUMPDEST POP POP POP JUMP JUMPDEST PUSH0 DUP3 DUP3 SHR SWAP1 POP SWAP3 SWAP2 POP POP JUMP JUMPDEST PUSH0 PUSH3 0x9A7 PUSH0 NOT DUP5 PUSH1 0x8 MUL PUSH3 0x98A JUMP JUMPDEST NOT DUP1 DUP4 AND SWAP2 POP POP SWAP3 SWAP2 POP POP JUMP JUMPDEST PUSH0 PUSH3 0x9C1 DUP4 DUP4 PUSH3 0x996 JUMP JUMPDEST SWAP2 POP DUP3 PUSH1 0x2 MUL DUP3 OR SWAP1 POP SWAP3 SWAP2 POP POP JUMP JUMPDEST PUSH3 0x9DC DUP3 PUSH3 0x79A JUMP JUMPDEST PUSH8 0xFFFFFFFFFFFFFFFF DUP2 GT ISZERO PUSH3 0x9F8 JUMPI PUSH3 0x9F7 PUSH3 0x5BB JUMP JUMPDEST JUMPDEST PUSH3 0xA04 DUP3 SLOAD PUSH3 0x7D1 JUMP JUMPDEST PUSH3 0xA11 DUP3 DUP3 DUP6 PUSH3 0x93A JUMP JUMPDEST PUSH0 PUSH1 0x20 SWAP1 POP PUSH1 0x1F DUP4 GT PUSH1 0x1 DUP2 EQ PUSH3 0xA47 JUMPI PUSH0 DUP5 ISZERO PUSH3 0xA32 JUMPI DUP3 DUP8 ADD MLOAD SWAP1 POP JUMPDEST PUSH3 0xA3E DUP6 DUP3 PUSH3 0x9B4 JUMP JUMPDEST DUP7 SSTORE POP PUSH3 0xAAD JUMP JUMPDEST PUSH1 0x1F NOT DUP5 AND PUSH3 0xA57 DUP7 PUSH3 0x805 JUMP JUMPDEST PUSH0 JUMPDEST DUP3 DUP2 LT ISZERO PUSH3 0xA80 JUMPI DUP5 DUP10 ADD MLOAD DUP3 SSTORE PUSH1 0x1 DUP3 ADD SWAP2 POP PUSH1 0x20 DUP6 ADD SWAP5 POP PUSH1 0x20 DUP2 ADD SWAP1 POP PUSH3 0xA59 JUMP JUMPDEST DUP7 DUP4 LT ISZERO PUSH3 0xAA0 JUMPI DUP5 DUP10 ADD MLOAD PUSH3 0xA9C PUSH1 0x1F DUP10 AND DUP3 PUSH3 0x996 JUMP JUMPDEST DUP4 SSTORE POP JUMPDEST PUSH1 0x1 PUSH1 0x2 DUP9 MUL ADD DUP9 SSTORE POP POP POP JUMPDEST POP POP POP POP POP POP JUMP JUMPDEST PUSH32 0x4E487B7100000000000000000000000000000000000000000000000000000000 PUSH0 MSTORE PUSH1 0x11 PUSH1 0x4 MSTORE PUSH1 0x24 PUSH0 REVERT JUMPDEST PUSH0 DUP2 PUSH1 0x1 SHR SWAP1 POP SWAP2 SWAP1 POP JUMP JUMPDEST PUSH0 DUP1 DUP3 SWAP2 POP DUP4 SWAP1 POP JUMPDEST PUSH1 0x1 DUP6 GT ISZERO PUSH3 0xB3F JUMPI DUP1 DUP7 DIV DUP2 GT ISZERO PUSH3 0xB17 JUMPI PUSH3 0xB16 PUSH3 0xAB5 JUMP JUMPDEST JUMPDEST PUSH1 0x1 DUP6 AND ISZERO PUSH3 0xB27 JUMPI DUP1 DUP3 MUL SWAP2 POP JUMPDEST DUP1 DUP2 MUL SWAP1 POP PUSH3 0xB37 DUP6 PUSH3 0xAE2 JUMP JUMPDEST SWAP5 POP PUSH3 0xAF7 JUMP JUMPDEST SWAP5 POP SWAP5 SWAP3 POP POP POP JUMP JUMPDEST PUSH0 DUP3 PUSH3 0xB59 JUMPI PUSH1 0x1 SWAP1 POP PUSH3 0xC2B JUMP JUMPDEST DUP2 PUSH3 0xB68 JUMPI PUSH0 SWAP1 POP PUSH3 0xC2B JUMP JUMPDEST DUP2 PUSH1 0x1 DUP2 EQ PUSH3 0xB81 JUMPI PUSH1 0x2 DUP2 EQ PUSH3 0xB8C JUMPI PUSH3 0xBC2 JUMP JUMPDEST PUSH1 0x1 SWAP2 POP POP PUSH3 0xC2B JUMP JUMPDEST PUSH1 0xFF DUP5 GT ISZERO PUSH3 0xBA1 JUMPI PUSH3 0xBA0 PUSH3 0xAB5 JUMP JUMPDEST JUMPDEST DUP4 PUSH1 0x2 EXP SWAP2 POP DUP5 DUP3 GT ISZERO PUSH3 0xBBB JUMPI PUSH3 0xBBA PUSH3 0xAB5 JUMP JUMPDEST JUMPDEST POP PUSH3 0xC2B JUMP JUMPDEST POP PUSH1 0x20 DUP4 LT PUSH2 0x133 DUP4 LT AND PUSH1 0x4E DUP5 LT PUSH1 0xB DUP5 LT AND OR ISZERO PUSH3 0xBFC JUMPI DUP3 DUP3 EXP SWAP1 POP DUP4 DUP2 GT ISZERO PUSH3 0xBF6 JUMPI PUSH3 0xBF5 PUSH3 0xAB5 JUMP JUMPDEST JUMPDEST PUSH3 0xC2B JUMP JUMPDEST PUSH3 0xC0B DUP5 DUP5 DUP5 PUSH1 0x1 PUSH3 0xAEE JUMP JUMPDEST SWAP3 POP SWAP1 POP DUP2 DUP5 DIV DUP2 GT ISZERO PUSH3 0xC25 JUMPI PUSH3 0xC24 PUSH3 0xAB5 JUMP JUMPDEST JUMPDEST DUP2 DUP2 MUL SWAP1 POP JUMPDEST SWAP4 SWAP3 POP POP POP JUMP JUMPDEST PUSH0 PUSH1 0xFF DUP3 AND SWAP1 POP SWAP2 SWAP1 POP JUMP JUMPDEST PUSH0 PUSH3 0xC4A DUP3 PUSH3 0x887 JUMP JUMPDEST SWAP2 POP PUSH3 0xC57 DUP4 PUSH3 0xC32 JUMP JUMPDEST SWAP3 POP PUSH3 0xC86 PUSH32 0xFFFFFFFFFFFFFFFFFFFFFFFFFFFFFFFFFFFFFFFFFFFFFFFFFFFFFFFFFFFFFFFF DUP5 DUP5 PUSH3 0xB48 JUMP JUMPDEST SWAP1 POP SWAP3 SWAP2 POP POP JUMP JUMPDEST PUSH0 PUSH3 0xC9A DUP3 PUSH3 0x887 JUMP JUMPDEST SWAP2 POP PUSH3 0xCA7 DUP4 PUSH3 0x887 JUMP JUMPDEST SWAP3 POP DUP3 DUP3 MUL PUSH3 0xCB7 DUP2 PUSH3 0x887 JUMP JUMPDEST SWAP2 POP DUP3 DUP3 DIV DUP5 EQ DUP4 ISZERO OR PUSH3 0xCD1 JUMPI PUSH3 0xCD0 PUSH3 0xAB5 JUMP JUMPDEST JUMPDEST POP SWAP3 SWAP2 POP POP JUMP JUMPDEST PUSH0 PUSH20 0xFFFFFFFFFFFFFFFFFFFFFFFFFFFFFFFFFFFFFFFF DUP3 AND SWAP1 POP SWAP2 SWAP1 POP JUMP JUMPDEST PUSH0 PUSH3 0xD03 DUP3 PUSH3 0xCD8 JUMP JUMPDEST SWAP1 POP SWAP2 SWAP1 POP JUMP JUMPDEST PUSH3 0xD15 DUP2 PUSH3 0xCF7 JUMP JUMPDEST DUP3 MSTORE POP POP JUMP JUMPDEST PUSH0 PUSH1 0x20 DUP3 ADD SWAP1 POP PUSH3 0xD30 PUSH0 DUP4 ADD DUP5 PUSH3 0xD0A JUMP JUMPDEST SWAP3 SWAP2 POP POP JUMP JUMPDEST PUSH0 PUSH3 0xD42 DUP3 PUSH3 0x887 JUMP JUMPDEST SWAP2 POP PUSH3 0xD4F DUP4 PUSH3 0x887 JUMP JUMPDEST SWAP3 POP DUP3 DUP3 ADD SWAP1 POP DUP1 DUP3 GT ISZERO PUSH3 0xD6A JUMPI PUSH3 0xD69 PUSH3 0xAB5 JUMP JUMPDEST JUMPDEST SWAP3 SWAP2 POP POP JUMP JUMPDEST PUSH3 0xD7B DUP2 PUSH3 0x887 JUMP JUMPDEST DUP3 MSTORE POP POP JUMP JUMPDEST PUSH0 PUSH1 0x60 DUP3 ADD SWAP1 POP PUSH3 0xD96 PUSH0 DUP4 ADD DUP7 PUSH3 0xD0A JUMP JUMPDEST PUSH3 0xDA5 PUSH1 0x20 DUP4 ADD DUP6 PUSH3 0xD70 JUMP JUMPDEST PUSH3 0xDB4 PUSH1 0x40 DUP4 ADD DUP5 PUSH3 0xD70 JUMP JUMPDEST SWAP5 SWAP4 POP POP POP POP JUMP JUMPDEST PUSH0 PUSH1 0x20 DUP3 ADD SWAP1 POP PUSH3 0xDD1 PUSH0 DUP4 ADD DUP5 PUSH3 0xD70 JUMP JUMPDEST SWAP3 SWAP2 POP POP JUMP JUMPDEST PUSH2 0x1D36 DUP1 PUSH3 0xDE5 PUSH0 CODECOPY PUSH0 RETURN INVALID PUSH1 0x80 PUSH1 0x40 MSTORE CALLVALUE DUP1 ISZERO PUSH2 0xF JUMPI PUSH0 DUP1 REVERT JUMPDEST POP PUSH1 0x4 CALLDATASIZE LT PUSH2 0xE8 JUMPI PUSH0 CALLDATALOAD PUSH1 0xE0 SHR DUP1 PUSH4 0x545E163E GT PUSH2 0x8A JUMPI DUP1 PUSH4 0x95D89B41 GT PUSH2 0x64 JUMPI DUP1 PUSH4 0x95D89B41 EQ PUSH2 0x273 JUMPI DUP1 PUSH4 0xA9059CBB EQ PUSH2 0x291 JUMPI DUP1 PUSH4 0xBFAEDE13 EQ PUSH2 0x2C1 JUMPI DUP1 PUSH4 0xDD62ED3E EQ PUSH2 0x2CB JUMPI PUSH2 0xE8 JUMP JUMPDEST DUP1 PUSH4 0x545E163E EQ PUSH2 0x1F4 JUMPI DUP1 PUSH4 0x5DFAC4E4 EQ PUSH2 0x225 JUMPI DUP1 PUSH4 0x70A08231 EQ PUSH2 0x243 JUMPI PUSH2 0xE8 JUMP JUMPDEST DUP1 PUSH4 0x18160DDD GT PUSH2 0xC6 JUMPI DUP1 PUSH4 0x18160DDD EQ PUSH2 0x158 JUMPI DUP1 PUSH4 0x23B872DD EQ PUSH2 0x176 JUMPI DUP1 PUSH4 0x313CE567 EQ PUSH2 0x1A6 JUMPI DUP1 PUSH4 0x365B98B2 EQ PUSH2 0x1C4 JUMPI PUSH2 0xE8 JUMP JUMPDEST DUP1 PUSH4 0x3E276AF EQ PUSH2 0xEC JUMPI DUP1 PUSH4 0x6FDDE03 EQ PUSH2 0x10A JUMPI DUP1 PUSH4 0x95EA7B3 EQ PUSH2 0x128 JUMPI JUMPDEST PUSH0 DUP1 REVERT JUMPDEST PUSH2 0xF4 PUSH2 0x2FB JUMP JUMPDEST PUSH1 0x40 MLOAD PUSH2 0x101 SWAP2 SWAP1 PUSH2 0x13DA JUMP JUMPDEST PUSH1 0x40 MLOAD DUP1 SWAP2 SUB SWAP1 RETURN JUMPDEST PUSH2 0x112 PUSH2 0x4B1 JUMP JUMPDEST PUSH1 0x40 MLOAD PUSH2 0x11F SWAP2 SWAP1 PUSH2 0x1442 JUMP JUMPDEST PUSH1 0x40 MLOAD DUP1 SWAP2 SUB SWAP1 RETURN JUMPDEST PUSH2 0x142 PUSH1 0x4 DUP1 CALLDATASIZE SUB DUP2 ADD SWAP1 PUSH2 0x13D SWAP2 SWAP1 PUSH2 0x14F3 JUMP JUMPDEST PUSH2 0x541 JUMP JUMPDEST PUSH1 0x40 MLOAD PUSH2 0x14F SWAP2 SWAP1 PUSH2 0x154B JUMP JUMPDEST PUSH1 0x40 MLOAD DUP1 SWAP2 SUB SWAP1 RETURN JUMPDEST PUSH2 0x160 PUSH2 0x563 JUMP JUMPDEST PUSH1 0x40 MLOAD PUSH2 0x16D SWAP2 SWAP1 PUSH2 0x1573 JUMP JUMPDEST PUSH1 0x40 MLOAD DUP1 SWAP2 SUB SWAP1 RETURN JUMPDEST PUSH2 0x190 PUSH1 0x4 DUP1 CALLDATASIZE SUB DUP2 ADD SWAP1 PUSH2 0x18B SWAP2 SWAP1 PUSH2 0x158C JUMP JUMPDEST PUSH2 0x56C JUMP JUMPDEST PUSH1 0x40 MLOAD PUSH2 0x19D SWAP2 SWAP1 PUSH2 0x154B JUMP JUMPDEST PUSH1 0x40 MLOAD DUP1 SWAP2 SUB SWAP1 RETURN JUMPDEST PUSH2 0x1AE PUSH2 0x59A JUMP JUMPDEST PUSH1 0x40 MLOAD PUSH2 0x1BB SWAP2 SWAP1 PUSH2 0x15F7 JUMP JUMPDEST PUSH1 0x40 MLOAD DUP1 SWAP2 SUB SWAP1 RETURN JUMPDEST PUSH2 0x1DE PUSH1 0x4 DUP1 CALLDATASIZE SUB DUP2 ADD SWAP1 PUSH2 0x1D9 SWAP2 SWAP1 PUSH2 0x1610 JUMP JUMPDEST PUSH2 0x5A2 JUMP JUMPDEST PUSH1 0x40 MLOAD PUSH2 0x1EB SWAP2 SWAP1 PUSH2 0x164A JUMP JUMPDEST PUSH1 0x40 MLOAD DUP1 SWAP2 SUB SWAP1 RETURN JUMPDEST PUSH2 0x20E PUSH1 0x4 DUP1 CALLDATASIZE SUB DUP2 ADD SWAP1 PUSH2 0x209 SWAP2 SWAP1 PUSH2 0x14F3 JUMP JUMPDEST PUSH2 0x5E6 JUMP JUMPDEST PUSH1 0x40 MLOAD PUSH2 0x21C SWAP3 SWAP2 SWAP1 PUSH2 0x1663 JUMP JUMPDEST PUSH1 0x40 MLOAD DUP1 SWAP2 SUB SWAP1 RETURN JUMPDEST PUSH2 0x22D PUSH2 0x72C JUMP JUMPDEST PUSH1 0x40 MLOAD PUSH2 0x23A SWAP2 SWAP1 PUSH2 0x1769 JUMP JUMPDEST PUSH1 0x40 MLOAD DUP1 SWAP2 SUB SWAP1 RETURN JUMPDEST PUSH2 0x25D PUSH1 0x4 DUP1 CALLDATASIZE SUB DUP2 ADD SWAP1 PUSH2 0x258 SWAP2 SWAP1 PUSH2 0x1789 JUMP JUMPDEST PUSH2 0x7D8 JUMP JUMPDEST PUSH1 0x40 MLOAD PUSH2 0x26A SWAP2 SWAP1 PUSH2 0x1573 JUMP JUMPDEST PUSH1 0x40 MLOAD DUP1 SWAP2 SUB SWAP1 RETURN JUMPDEST PUSH2 0x27B PUSH2 0x81D JUMP JUMPDEST PUSH1 0x40 MLOAD PUSH2 0x288 SWAP2 SWAP1 PUSH2 0x1442 JUMP JUMPDEST PUSH1 0x40 MLOAD DUP1 SWAP2 SUB SWAP1 RETURN JUMPDEST PUSH2 0x2AB PUSH1 0x4 DUP1 CALLDATASIZE SUB DUP2 ADD SWAP1 PUSH2 0x2A6 SWAP2 SWAP1 PUSH2 0x14F3 JUMP JUMPDEST PUSH2 0x8AD JUMP JUMPDEST PUSH1 0x40 MLOAD PUSH2 0x2B8 SWAP2 SWAP1 PUSH2 0x154B JUMP JUMPDEST PUSH1 0x40 MLOAD DUP1 SWAP2 SUB SWAP1 RETURN JUMPDEST PUSH2 0x2C9 PUSH2 0x8CF JUMP JUMPDEST STOP JUMPDEST PUSH2 0x2E5 PUSH1 0x4 DUP1 CALLDATASIZE SUB DUP2 ADD SWAP1 PUSH2 0x2E0 SWAP2 SWAP1 PUSH2 0x17B4 JUMP JUMPDEST PUSH2 0xC4F JUMP JUMPDEST PUSH1 0x40 MLOAD PUSH2 0x2F2 SWAP2 SWAP1 PUSH2 0x1573 JUMP JUMPDEST PUSH1 0x40 MLOAD DUP1 SWAP2 SUB SWAP1 RETURN JUMPDEST PUSH1 0x60 PUSH1 0x8 PUSH0 CALLER PUSH20 0xFFFFFFFFFFFFFFFFFFFFFFFFFFFFFFFFFFFFFFFF AND PUSH20 0xFFFFFFFFFFFFFFFFFFFFFFFFFFFFFFFFFFFFFFFF AND DUP2 MSTORE PUSH1 0x20 ADD SWAP1 DUP2 MSTORE PUSH1 0x20 ADD PUSH0 KECCAK256 DUP1 SLOAD DUP1 PUSH1 0x20 MUL PUSH1 0x20 ADD PUSH1 0x40 MLOAD SWAP1 DUP2 ADD PUSH1 0x40 MSTORE DUP1 SWAP3 SWAP2 SWAP1 DUP2 DUP2 MSTORE PUSH1 0x20 ADD PUSH0 SWAP1 JUMPDEST DUP3 DUP3 LT ISZERO PUSH2 0x4A8 JUMPI DUP4 DUP3 SWAP1 PUSH0 MSTORE PUSH1 0x20 PUSH0 KECCAK256 SWAP1 PUSH1 0x2 MUL ADD PUSH1 0x40 MLOAD DUP1 PUSH1 0x40 ADD PUSH1 0x40 MSTORE SWAP1 DUP2 PUSH0 DUP3 ADD DUP1 SLOAD PUSH2 0x389 SWAP1 PUSH2 0x181F JUMP JUMPDEST DUP1 PUSH1 0x1F ADD PUSH1 0x20 DUP1 SWAP2 DIV MUL PUSH1 0x20 ADD PUSH1 0x40 MLOAD SWAP1 DUP2 ADD PUSH1 0x40 MSTORE DUP1 SWAP3 SWAP2 SWAP1 DUP2 DUP2 MSTORE PUSH1 0x20 ADD DUP3 DUP1 SLOAD PUSH2 0x3B5 SWAP1 PUSH2 0x181F JUMP JUMPDEST DUP1 ISZERO PUSH2 0x400 JUMPI DUP1 PUSH1 0x1F LT PUSH2 0x3D7 JUMPI PUSH2 0x100 DUP1 DUP4 SLOAD DIV MUL DUP4 MSTORE SWAP2 PUSH1 0x20 ADD SWAP2 PUSH2 0x400 JUMP JUMPDEST DUP3 ADD SWAP2 SWAP1 PUSH0 MSTORE PUSH1 0x20 PUSH0 KECCAK256 SWAP1 JUMPDEST DUP2 SLOAD DUP2 MSTORE SWAP1 PUSH1 0x1 ADD SWAP1 PUSH1 0x20 ADD DUP1 DUP4 GT PUSH2 0x3E3 JUMPI DUP3 SWAP1 SUB PUSH1 0x1F AND DUP3 ADD SWAP2 JUMPDEST POP POP POP POP POP DUP2 MSTORE PUSH1 0x20 ADD PUSH1 0x1 DUP3 ADD DUP1 SLOAD PUSH2 0x419 SWAP1 PUSH2 0x181F JUMP JUMPDEST DUP1 PUSH1 0x1F ADD PUSH1 0x20 DUP1 SWAP2 DIV MUL PUSH1 0x20 ADD PUSH1 0x40 MLOAD SWAP1 DUP2 ADD PUSH1 0x40 MSTORE DUP1 SWAP3 SWAP2 SWAP1 DUP2 DUP2 MSTORE PUSH1 0x20 ADD DUP3 DUP1 SLOAD PUSH2 0x445 SWAP1 PUSH2 0x181F JUMP JUMPDEST DUP1 ISZERO PUSH2 0x490 JUMPI DUP1 PUSH1 0x1F LT PUSH2 0x467 JUMPI PUSH2 0x100 DUP1 DUP4 SLOAD DIV MUL DUP4 MSTORE SWAP2 PUSH1 0x20 ADD SWAP2 PUSH2 0x490 JUMP JUMPDEST DUP3 ADD SWAP2 SWAP1 PUSH0 MSTORE PUSH1 0x20 PUSH0 KECCAK256 SWAP1 JUMPDEST DUP2 SLOAD DUP2 MSTORE SWAP1 PUSH1 0x1 ADD SWAP1 PUSH1 0x20 ADD DUP1 DUP4 GT PUSH2 0x473 JUMPI DUP3 SWAP1 SUB PUSH1 0x1F AND DUP3 ADD SWAP2 JUMPDEST POP POP POP POP POP DUP2 MSTORE POP POP DUP2 MSTORE PUSH1 0x20 ADD SWAP1 PUSH1 0x1 ADD SWAP1 PUSH2 0x359 JUMP JUMPDEST POP POP POP POP SWAP1 POP SWAP1 JUMP JUMPDEST PUSH1 0x60 PUSH1 0x3 DUP1 SLOAD PUSH2 0x4C0 SWAP1 PUSH2 0x181F JUMP JUMPDEST DUP1 PUSH1 0x1F ADD PUSH1 0x20 DUP1 SWAP2 DIV MUL PUSH1 0x20 ADD PUSH1 0x40 MLOAD SWAP1 DUP2 ADD PUSH1 0x40 MSTORE DUP1 SWAP3 SWAP2 SWAP1 DUP2 DUP2 MSTORE PUSH1 0x20 ADD DUP3 DUP1 SLOAD PUSH2 0x4EC SWAP1 PUSH2 0x181F JUMP JUMPDEST DUP1 ISZERO PUSH2 0x537 JUMPI DUP1 PUSH1 0x1F LT PUSH2 0x50E JUMPI PUSH2 0x100 DUP1 DUP4 SLOAD DIV MUL DUP4 MSTORE SWAP2 PUSH1 0x20 ADD SWAP2 PUSH2 0x537 JUMP JUMPDEST DUP3 ADD SWAP2 SWAP1 PUSH0 MSTORE PUSH1 0x20 PUSH0 KECCAK256 SWAP1 JUMPDEST DUP2 SLOAD DUP2 MSTORE SWAP1 PUSH1 0x1 ADD SWAP1 PUSH1 0x20 ADD DUP1 DUP4 GT PUSH2 0x51A JUMPI DUP3 SWAP1 SUB PUSH1 0x1F AND DUP3 ADD SWAP2 JUMPDEST POP POP POP POP POP SWAP1 POP SWAP1 JUMP JUMPDEST PUSH0 DUP1 PUSH2 0x54B PUSH2 0xCD1 JUMP JUMPDEST SWAP1 POP PUSH2 0x558 DUP2 DUP6 DUP6 PUSH2 0xCD8 JUMP JUMPDEST PUSH1 0x1 SWAP2 POP POP SWAP3 SWAP2 POP POP JUMP JUMPDEST PUSH0 PUSH1 0x2 SLOAD SWAP1 POP SWAP1 JUMP JUMPDEST PUSH0 DUP1 PUSH2 0x576 PUSH2 0xCD1 JUMP JUMPDEST SWAP1 POP PUSH2 0x583 DUP6 DUP3 DUP6 PUSH2 0xCEA JUMP JUMPDEST PUSH2 0x58E DUP6 DUP6 DUP6 PUSH2 0xD7C JUMP JUMPDEST PUSH1 0x1 SWAP2 POP POP SWAP4 SWAP3 POP POP POP JUMP JUMPDEST PUSH0 PUSH1 0x12 SWAP1 POP SWAP1 JUMP JUMPDEST PUSH1 0x9 DUP2 DUP2 SLOAD DUP2 LT PUSH2 0x5B1 JUMPI PUSH0 DUP1 REVERT JUMPDEST SWAP1 PUSH0 MSTORE PUSH1 0x20 PUSH0 KECCAK256 ADD PUSH0 SWAP2 POP SWAP1 POP DUP1 PUSH0 ADD PUSH0 SWAP1 SLOAD SWAP1 PUSH2 0x100 EXP SWAP1 DIV PUSH20 0xFFFFFFFFFFFFFFFFFFFFFFFFFFFFFFFFFFFFFFFF AND SWAP1 POP DUP2 JUMP JUMPDEST PUSH1 0x8 PUSH1 0x20 MSTORE DUP2 PUSH0 MSTORE PUSH1 0x40 PUSH0 KECCAK256 DUP2 DUP2 SLOAD DUP2 LT PUSH2 0x5FF JUMPI PUSH0 DUP1 REVERT JUMPDEST SWAP1 PUSH0 MSTORE PUSH1 0x20 PUSH0 KECCAK256 SWAP1 PUSH1 0x2 MUL ADD PUSH0 SWAP2 POP SWAP2 POP POP DUP1 PUSH0 ADD DUP1 SLOAD PUSH2 0x61F SWAP1 PUSH2 0x181F JUMP JUMPDEST DUP1 PUSH1 0x1F ADD PUSH1 0x20 DUP1 SWAP2 DIV MUL PUSH1 0x20 ADD PUSH1 0x40 MLOAD SWAP1 DUP2 ADD PUSH1 0x40 MSTORE DUP1 SWAP3 SWAP2 SWAP1 DUP2 DUP2 MSTORE PUSH1 0x20 ADD DUP3 DUP1 SLOAD PUSH2 0x64B SWAP1 PUSH2 0x181F JUMP JUMPDEST DUP1 ISZERO PUSH2 0x696 JUMPI DUP1 PUSH1 0x1F LT PUSH2 0x66D JUMPI PUSH2 0x100 DUP1 DUP4 SLOAD DIV MUL DUP4 MSTORE SWAP2 PUSH1 0x20 ADD SWAP2 PUSH2 0x696 JUMP JUMPDEST DUP3 ADD SWAP2 SWAP1 PUSH0 MSTORE PUSH1 0x20 PUSH0 KECCAK256 SWAP1 JUMPDEST DUP2 SLOAD DUP2 MSTORE SWAP1 PUSH1 0x1 ADD SWAP1 PUSH1 0x20 ADD DUP1 DUP4 GT PUSH2 0x679 JUMPI DUP3 SWAP1 SUB PUSH1 0x1F AND DUP3 ADD SWAP2 JUMPDEST POP POP POP POP POP SWAP1 DUP1 PUSH1 0x1 ADD DUP1 SLOAD PUSH2 0x6AB SWAP1 PUSH2 0x181F JUMP JUMPDEST DUP1 PUSH1 0x1F ADD PUSH1 0x20 DUP1 SWAP2 DIV MUL PUSH1 0x20 ADD PUSH1 0x40 MLOAD SWAP1 DUP2 ADD PUSH1 0x40 MSTORE DUP1 SWAP3 SWAP2 SWAP1 DUP2 DUP2 MSTORE PUSH1 0x20 ADD DUP3 DUP1 SLOAD PUSH2 0x6D7 SWAP1 PUSH2 0x181F JUMP JUMPDEST DUP1 ISZERO PUSH2 0x722 JUMPI DUP1 PUSH1 0x1F LT PUSH2 0x6F9 JUMPI PUSH2 0x100 DUP1 DUP4 SLOAD DIV MUL DUP4 MSTORE SWAP2 PUSH1 0x20 ADD SWAP2 PUSH2 0x722 JUMP JUMPDEST DUP3 ADD SWAP2 SWAP1 PUSH0 MSTORE PUSH1 0x20 PUSH0 KECCAK256 SWAP1 JUMPDEST DUP2 SLOAD DUP2 MSTORE SWAP1 PUSH1 0x1 ADD SWAP1 PUSH1 0x20 ADD DUP1 DUP4 GT PUSH2 0x705 JUMPI DUP3 SWAP1 SUB PUSH1 0x1F AND DUP3 ADD SWAP2 JUMPDEST POP POP POP POP POP SWAP1 POP DUP3 JUMP JUMPDEST PUSH1 0x60 PUSH1 0x9 DUP1 SLOAD DUP1 PUSH1 0x20 MUL PUSH1 0x20 ADD PUSH1 0x40 MLOAD SWAP1 DUP2 ADD PUSH1 0x40 MSTORE DUP1 SWAP3 SWAP2 SWAP1 DUP2 DUP2 MSTORE PUSH1 0x20 ADD PUSH0 SWAP1 JUMPDEST DUP3 DUP3 LT ISZERO PUSH2 0x7CF JUMPI DUP4 DUP3 SWAP1 PUSH0 MSTORE PUSH1 0x20 PUSH0 KECCAK256 ADD PUSH1 0x40 MLOAD DUP1 PUSH1 0x20 ADD PUSH1 0x40 MSTORE SWAP1 DUP2 PUSH0 DUP3 ADD PUSH0 SWAP1 SLOAD SWAP1 PUSH2 0x100 EXP SWAP1 DIV PUSH20 0xFFFFFFFFFFFFFFFFFFFFFFFFFFFFFFFFFFFFFFFF AND PUSH20 0xFFFFFFFFFFFFFFFFFFFFFFFFFFFFFFFFFFFFFFFF AND PUSH20 0xFFFFFFFFFFFFFFFFFFFFFFFFFFFFFFFFFFFFFFFF AND DUP2 MSTORE POP POP DUP2 MSTORE PUSH1 0x20 ADD SWAP1 PUSH1 0x1 ADD SWAP1 PUSH2 0x74F JUMP JUMPDEST POP POP POP POP SWAP1 POP SWAP1 JUMP JUMPDEST PUSH0 DUP1 PUSH0 DUP4 PUSH20 0xFFFFFFFFFFFFFFFFFFFFFFFFFFFFFFFFFFFFFFFF AND PUSH20 0xFFFFFFFFFFFFFFFFFFFFFFFFFFFFFFFFFFFFFFFF AND DUP2 MSTORE PUSH1 0x20 ADD SWAP1 DUP2 MSTORE PUSH1 0x20 ADD PUSH0 KECCAK256 SLOAD SWAP1 POP SWAP2 SWAP1 POP JUMP JUMPDEST PUSH1 0x60 PUSH1 0x4 DUP1 SLOAD PUSH2 0x82C SWAP1 PUSH2 0x181F JUMP JUMPDEST DUP1 PUSH1 0x1F ADD PUSH1 0x20 DUP1 SWAP2 DIV MUL PUSH1 0x20 ADD PUSH1 0x40 MLOAD SWAP1 DUP2 ADD PUSH1 0x40 MSTORE DUP1 SWAP3 SWAP2 SWAP1 DUP2 DUP2 MSTORE PUSH1 0x20 ADD DUP3 DUP1 SLOAD PUSH2 0x858 SWAP1 PUSH2 0x181F JUMP JUMPDEST DUP1 ISZERO PUSH2 0x8A3 JUMPI DUP1 PUSH1 0x1F LT PUSH2 0x87A JUMPI PUSH2 0x100 DUP1 DUP4 SLOAD DIV MUL DUP4 MSTORE SWAP2 PUSH1 0x20 ADD SWAP2 PUSH2 0x8A3 JUMP JUMPDEST DUP3 ADD SWAP2 SWAP1 PUSH0 MSTORE PUSH1 0x20 PUSH0 KECCAK256 SWAP1 JUMPDEST DUP2 SLOAD DUP2 MSTORE SWAP1 PUSH1 0x1 ADD SWAP1 PUSH1 0x20 ADD DUP1 DUP4 GT PUSH2 0x886 JUMPI DUP3 SWAP1 SUB PUSH1 0x1F AND DUP3 ADD SWAP2 JUMPDEST POP POP POP POP POP SWAP1 POP SWAP1 JUMP JUMPDEST PUSH0 DUP1 PUSH2 0x8B7 PUSH2 0xCD1 JUMP JUMPDEST SWAP1 POP PUSH2 0x8C4 DUP2 DUP6 DUP6 PUSH2 0xD7C JUMP JUMPDEST PUSH1 0x1 SWAP2 POP POP SWAP3 SWAP2 POP POP JUMP JUMPDEST PUSH1 0x5 SLOAD PUSH2 0x8DB CALLER PUSH2 0x7D8 JUMP JUMPDEST LT ISZERO PUSH2 0x8E5 JUMPI PUSH0 DUP1 REVERT JUMPDEST PUSH2 0x8F2 CALLER PUSH0 PUSH1 0x5 SLOAD PUSH2 0xE6C JUMP JUMPDEST PUSH0 TIMESTAMP COINBASE NUMBER PUSH1 0x40 MLOAD PUSH1 0x20 ADD PUSH2 0x908 SWAP4 SWAP3 SWAP2 SWAP1 PUSH2 0x18C5 JUMP JUMPDEST PUSH1 0x40 MLOAD PUSH1 0x20 DUP2 DUP4 SUB SUB DUP2 MSTORE SWAP1 PUSH1 0x40 MSTORE DUP1 MLOAD SWAP1 PUSH1 0x20 ADD KECCAK256 PUSH0 SHR SWAP1 POP PUSH1 0x3 DUP2 PUSH2 0x92F SWAP2 SWAP1 PUSH2 0x192E JUMP JUMPDEST SWAP1 POP PUSH1 0x8 PUSH0 CALLER PUSH20 0xFFFFFFFFFFFFFFFFFFFFFFFFFFFFFFFFFFFFFFFF AND PUSH20 0xFFFFFFFFFFFFFFFFFFFFFFFFFFFFFFFFFFFFFFFF AND DUP2 MSTORE PUSH1 0x20 ADD SWAP1 DUP2 MSTORE PUSH1 0x20 ADD PUSH0 KECCAK256 PUSH1 0x40 MLOAD DUP1 PUSH1 0x40 ADD PUSH1 0x40 MSTORE DUP1 PUSH1 0x7 DUP5 DUP2 SLOAD DUP2 LT PUSH2 0x98D JUMPI PUSH2 0x98C PUSH2 0x195E JUMP JUMPDEST JUMPDEST SWAP1 PUSH0 MSTORE PUSH1 0x20 PUSH0 KECCAK256 ADD DUP1 SLOAD PUSH2 0x9A0 SWAP1 PUSH2 0x181F JUMP JUMPDEST DUP1 PUSH1 0x1F ADD PUSH1 0x20 DUP1 SWAP2 DIV MUL PUSH1 0x20 ADD PUSH1 0x40 MLOAD SWAP1 DUP2 ADD PUSH1 0x40 MSTORE DUP1 SWAP3 SWAP2 SWAP1 DUP2 DUP2 MSTORE PUSH1 0x20 ADD DUP3 DUP1 SLOAD PUSH2 0x9CC SWAP1 PUSH2 0x181F JUMP JUMPDEST DUP1 ISZERO PUSH2 0xA17 JUMPI DUP1 PUSH1 0x1F LT PUSH2 0x9EE JUMPI PUSH2 0x100 DUP1 DUP4 SLOAD DIV MUL DUP4 MSTORE SWAP2 PUSH1 0x20 ADD SWAP2 PUSH2 0xA17 JUMP JUMPDEST DUP3 ADD SWAP2 SWAP1 PUSH0 MSTORE PUSH1 0x20 PUSH0 KECCAK256 SWAP1 JUMPDEST DUP2 SLOAD DUP2 MSTORE SWAP1 PUSH1 0x1 ADD SWAP1 PUSH1 0x20 ADD DUP1 DUP4 GT PUSH2 0x9FA JUMPI DUP3 SWAP1 SUB PUSH1 0x1F AND DUP3 ADD SWAP2 JUMPDEST POP POP POP POP POP DUP2 MSTORE PUSH1 0x20 ADD PUSH1 0x6 DUP5 DUP2 SLOAD DUP2 LT PUSH2 0xA35 JUMPI PUSH2 0xA34 PUSH2 0x195E JUMP JUMPDEST JUMPDEST SWAP1 PUSH0 MSTORE PUSH1 0x20 PUSH0 KECCAK256 ADD DUP1 SLOAD PUSH2 0xA48 SWAP1 PUSH2 0x181F JUMP JUMPDEST DUP1 PUSH1 0x1F ADD PUSH1 0x20 DUP1 SWAP2 DIV MUL PUSH1 0x20 ADD PUSH1 0x40 MLOAD SWAP1 DUP2 ADD PUSH1 0x40 MSTORE DUP1 SWAP3 SWAP2 SWAP1 DUP2 DUP2 MSTORE PUSH1 0x20 ADD DUP3 DUP1 SLOAD PUSH2 0xA74 SWAP1 PUSH2 0x181F JUMP JUMPDEST DUP1 ISZERO PUSH2 0xABF JUMPI DUP1 PUSH1 0x1F LT PUSH2 0xA96 JUMPI PUSH2 0x100 DUP1 DUP4 SLOAD DIV MUL DUP4 MSTORE SWAP2 PUSH1 0x20 ADD SWAP2 PUSH2 0xABF JUMP JUMPDEST DUP3 ADD SWAP2 SWAP1 PUSH0 MSTORE PUSH1 0x20 PUSH0 KECCAK256 SWAP1 JUMPDEST DUP2 SLOAD DUP2 MSTORE SWAP1 PUSH1 0x1 ADD SWAP1 PUSH1 0x20 ADD DUP1 DUP4 GT PUSH2 0xAA2 JUMPI DUP3 SWAP1 SUB PUSH1 0x1F AND DUP3 ADD SWAP2 JUMPDEST POP POP POP POP POP DUP2 MSTORE POP SWAP1 DUP1 PUSH1 0x1 DUP2 SLOAD ADD DUP1 DUP3 SSTORE DUP1 SWAP2 POP POP PUSH1 0x1 SWAP1 SUB SWAP1 PUSH0 MSTORE PUSH1 0x20 PUSH0 KECCAK256 SWAP1 PUSH1 0x2 MUL ADD PUSH0 SWAP1 SWAP2 SWAP1 SWAP2 SWAP1 SWAP2 POP PUSH0 DUP3 ADD MLOAD DUP2 PUSH0 ADD SWAP1 DUP2 PUSH2 0xB00 SWAP2 SWAP1 PUSH2 0x1B55 JUMP JUMPDEST POP PUSH1 0x20 DUP3 ADD MLOAD DUP2 PUSH1 0x1 ADD SWAP1 DUP2 PUSH2 0xB16 SWAP2 SWAP1 PUSH2 0x1B55 JUMP JUMPDEST POP POP POP PUSH0 DUP1 JUMPDEST PUSH1 0x9 DUP1 SLOAD SWAP1 POP DUP2 LT ISZERO PUSH2 0xBB5 JUMPI CALLER PUSH20 0xFFFFFFFFFFFFFFFFFFFFFFFFFFFFFFFFFFFFFFFF AND PUSH1 0x9 DUP3 DUP2 SLOAD DUP2 LT PUSH2 0xB54 JUMPI PUSH2 0xB53 PUSH2 0x195E JUMP JUMPDEST JUMPDEST SWAP1 PUSH0 MSTORE PUSH1 0x20 PUSH0 KECCAK256 ADD PUSH0 ADD PUSH0 SWAP1 SLOAD SWAP1 PUSH2 0x100 EXP SWAP1 DIV PUSH20 0xFFFFFFFFFFFFFFFFFFFFFFFFFFFFFFFFFFFFFFFF AND PUSH20 0xFFFFFFFFFFFFFFFFFFFFFFFFFFFFFFFFFFFFFFFF AND SUB PUSH2 0xBA2 JUMPI PUSH1 0x1 SWAP2 POP PUSH2 0xBB5 JUMP JUMPDEST DUP1 DUP1 PUSH2 0xBAD SWAP1 PUSH2 0x1C51 JUMP JUMPDEST SWAP2 POP POP PUSH2 0xB1C JUMP JUMPDEST POP DUP1 PUSH2 0xC4B JUMPI PUSH1 0x9 PUSH1 0x40 MLOAD DUP1 PUSH1 0x20 ADD PUSH1 0x40 MSTORE DUP1 CALLER PUSH20 0xFFFFFFFFFFFFFFFFFFFFFFFFFFFFFFFFFFFFFFFF AND DUP2 MSTORE POP SWAP1 DUP1 PUSH1 0x1 DUP2 SLOAD ADD DUP1 DUP3 SSTORE DUP1 SWAP2 POP POP PUSH1 0x1 SWAP1 SUB SWAP1 PUSH0 MSTORE PUSH1 0x20 PUSH0 KECCAK256 ADD PUSH0 SWAP1 SWAP2 SWAP1 SWAP2 SWAP1 SWAP2 POP PUSH0 DUP3 ADD MLOAD DUP2 PUSH0 ADD PUSH0 PUSH2 0x100 EXP DUP2 SLOAD DUP2 PUSH20 0xFFFFFFFFFFFFFFFFFFFFFFFFFFFFFFFFFFFFFFFF MUL NOT AND SWAP1 DUP4 PUSH20 0xFFFFFFFFFFFFFFFFFFFFFFFFFFFFFFFFFFFFFFFF AND MUL OR SWAP1 SSTORE POP POP POP JUMPDEST POP POP JUMP JUMPDEST PUSH0 PUSH1 0x1 PUSH0 DUP5 PUSH20 0xFFFFFFFFFFFFFFFFFFFFFFFFFFFFFFFFFFFFFFFF AND PUSH20 0xFFFFFFFFFFFFFFFFFFFFFFFFFFFFFFFFFFFFFFFF AND DUP2 MSTORE PUSH1 0x20 ADD SWAP1 DUP2 MSTORE PUSH1 0x20 ADD PUSH0 KECCAK256 PUSH0 DUP4 PUSH20 0xFFFFFFFFFFFFFFFFFFFFFFFFFFFFFFFFFFFFFFFF AND PUSH20 0xFFFFFFFFFFFFFFFFFFFFFFFFFFFFFFFFFFFFFFFF AND DUP2 MSTORE PUSH1 0x20 ADD SWAP1 DUP2 MSTORE PUSH1 0x20 ADD PUSH0 KECCAK256 SLOAD SWAP1 POP SWAP3 SWAP2 POP POP JUMP JUMPDEST PUSH0 CALLER SWAP1 POP SWAP1 JUMP JUMPDEST PUSH2 0xCE5 DUP4 DUP4 DUP4 PUSH1 0x1 PUSH2 0x1085 JUMP JUMPDEST POP POP POP JUMP JUMPDEST PUSH0 PUSH2 0xCF5 DUP5 DUP5 PUSH2 0xC4F JUMP JUMPDEST SWAP1 POP PUSH32 0xFFFFFFFFFFFFFFFFFFFFFFFFFFFFFFFFFFFFFFFFFFFFFFFFFFFFFFFFFFFFFFFF DUP2 EQ PUSH2 0xD76 JUMPI DUP2 DUP2 LT ISZERO PUSH2 0xD67 JUMPI DUP3 DUP2 DUP4 PUSH1 0x40 MLOAD PUSH32 0xFB8F41B200000000000000000000000000000000000000000000000000000000 DUP2 MSTORE PUSH1 0x4 ADD PUSH2 0xD5E SWAP4 SWAP3 SWAP2 SWAP1 PUSH2 0x1C98 JUMP JUMPDEST PUSH1 0x40 MLOAD DUP1 SWAP2 SUB SWAP1 REVERT JUMPDEST PUSH2 0xD75 DUP5 DUP5 DUP5 DUP5 SUB PUSH0 PUSH2 0x1085 JUMP JUMPDEST JUMPDEST POP POP POP POP JUMP JUMPDEST PUSH0 PUSH20 0xFFFFFFFFFFFFFFFFFFFFFFFFFFFFFFFFFFFFFFFF AND DUP4 PUSH20 0xFFFFFFFFFFFFFFFFFFFFFFFFFFFFFFFFFFFFFFFF AND SUB PUSH2 0xDEC JUMPI PUSH0 PUSH1 0x40 MLOAD PUSH32 0x96C6FD1E00000000000000000000000000000000000000000000000000000000 DUP2 MSTORE PUSH1 0x4 ADD PUSH2 0xDE3 SWAP2 SWAP1 PUSH2 0x164A JUMP JUMPDEST PUSH1 0x40 MLOAD DUP1 SWAP2 SUB SWAP1 REVERT JUMPDEST PUSH0 PUSH20 0xFFFFFFFFFFFFFFFFFFFFFFFFFFFFFFFFFFFFFFFF AND DUP3 PUSH20 0xFFFFFFFFFFFFFFFFFFFFFFFFFFFFFFFFFFFFFFFF AND SUB PUSH2 0xE5C JUMPI PUSH0 PUSH1 0x40 MLOAD PUSH32 0xEC442F0500000000000000000000000000000000000000000000000000000000 DUP2 MSTORE PUSH1 0x4 ADD PUSH2 0xE53 SWAP2 SWAP1 PUSH2 0x164A JUMP JUMPDEST PUSH1 0x40 MLOAD DUP1 SWAP2 SUB SWAP1 REVERT JUMPDEST PUSH2 0xE67 DUP4 DUP4 DUP4 PUSH2 0xE6C JUMP JUMPDEST POP POP POP JUMP JUMPDEST PUSH0 PUSH20 0xFFFFFFFFFFFFFFFFFFFFFFFFFFFFFFFFFFFFFFFF AND DUP4 PUSH20 0xFFFFFFFFFFFFFFFFFFFFFFFFFFFFFFFFFFFFFFFF AND SUB PUSH2 0xEBC JUMPI DUP1 PUSH1 0x2 PUSH0 DUP3 DUP3 SLOAD PUSH2 0xEB0 SWAP2 SWAP1 PUSH2 0x1CCD JUMP JUMPDEST SWAP3 POP POP DUP2 SWAP1 SSTORE POP PUSH2 0xF8A JUMP JUMPDEST PUSH0 DUP1 PUSH0 DUP6 PUSH20 0xFFFFFFFFFFFFFFFFFFFFFFFFFFFFFFFFFFFFFFFF AND PUSH20 0xFFFFFFFFFFFFFFFFFFFFFFFFFFFFFFFFFFFFFFFF AND DUP2 MSTORE PUSH1 0x20 ADD SWAP1 DUP2 MSTORE PUSH1 0x20 ADD PUSH0 KECCAK256 SLOAD SWAP1 POP DUP2 DUP2 LT ISZERO PUSH2 0xF45 JUMPI DUP4 DUP2 DUP4 PUSH1 0x40 MLOAD PUSH32 0xE450D38C00000000000000000000000000000000000000000000000000000000 DUP2 MSTORE PUSH1 0x4 ADD PUSH2 0xF3C SWAP4 SWAP3 SWAP2 SWAP1 PUSH2 0x1C98 JUMP JUMPDEST PUSH1 0x40 MLOAD DUP1 SWAP2 SUB SWAP1 REVERT JUMPDEST DUP2 DUP2 SUB PUSH0 DUP1 DUP7 PUSH20 0xFFFFFFFFFFFFFFFFFFFFFFFFFFFFFFFFFFFFFFFF AND PUSH20 0xFFFFFFFFFFFFFFFFFFFFFFFFFFFFFFFFFFFFFFFF AND DUP2 MSTORE PUSH1 0x20 ADD SWAP1 DUP2 MSTORE PUSH1 0x20 ADD PUSH0 KECCAK256 DUP2 SWAP1 SSTORE POP POP JUMPDEST PUSH0 PUSH20 0xFFFFFFFFFFFFFFFFFFFFFFFFFFFFFFFFFFFFFFFF AND DUP3 PUSH20 0xFFFFFFFFFFFFFFFFFFFFFFFFFFFFFFFFFFFFFFFF AND SUB PUSH2 0xFD1 JUMPI DUP1 PUSH1 0x2 PUSH0 DUP3 DUP3 SLOAD SUB SWAP3 POP POP DUP2 SWAP1 SSTORE POP PUSH2 0x101B JUMP JUMPDEST DUP1 PUSH0 DUP1 DUP5 PUSH20 0xFFFFFFFFFFFFFFFFFFFFFFFFFFFFFFFFFFFFFFFF AND PUSH20 0xFFFFFFFFFFFFFFFFFFFFFFFFFFFFFFFFFFFFFFFF AND DUP2 MSTORE PUSH1 0x20 ADD SWAP1 DUP2 MSTORE PUSH1 0x20 ADD PUSH0 KECCAK256 PUSH0 DUP3 DUP3 SLOAD ADD SWAP3 POP POP DUP2 SWAP1 SSTORE POP JUMPDEST DUP2 PUSH20 0xFFFFFFFFFFFFFFFFFFFFFFFFFFFFFFFFFFFFFFFF AND DUP4 PUSH20 0xFFFFFFFFFFFFFFFFFFFFFFFFFFFFFFFFFFFFFFFF AND PUSH32 0xDDF252AD1BE2C89B69C2B068FC378DAA952BA7F163C4A11628F55A4DF523B3EF DUP4 PUSH1 0x40 MLOAD PUSH2 0x1078 SWAP2 SWAP1 PUSH2 0x1573 JUMP JUMPDEST PUSH1 0x40 MLOAD DUP1 SWAP2 SUB SWAP1 LOG3 POP POP POP JUMP JUMPDEST PUSH0 PUSH20 0xFFFFFFFFFFFFFFFFFFFFFFFFFFFFFFFFFFFFFFFF AND DUP5 PUSH20 0xFFFFFFFFFFFFFFFFFFFFFFFFFFFFFFFFFFFFFFFF AND SUB PUSH2 0x10F5 JUMPI PUSH0 PUSH1 0x40 MLOAD PUSH32 0xE602DF0500000000000000000000000000000000000000000000000000000000 DUP2 MSTORE PUSH1 0x4 ADD PUSH2 0x10EC SWAP2 SWAP1 PUSH2 0x164A JUMP JUMPDEST PUSH1 0x40 MLOAD DUP1 SWAP2 SUB SWAP1 REVERT JUMPDEST PUSH0 PUSH20 0xFFFFFFFFFFFFFFFFFFFFFFFFFFFFFFFFFFFFFFFF AND DUP4 PUSH20 0xFFFFFFFFFFFFFFFFFFFFFFFFFFFFFFFFFFFFFFFF AND SUB PUSH2 0x1165 JUMPI PUSH0 PUSH1 0x40 MLOAD PUSH32 0x94280D6200000000000000000000000000000000000000000000000000000000 DUP2 MSTORE PUSH1 0x4 ADD PUSH2 0x115C SWAP2 SWAP1 PUSH2 0x164A JUMP JUMPDEST PUSH1 0x40 MLOAD DUP1 SWAP2 SUB SWAP1 REVERT JUMPDEST DUP2 PUSH1 0x1 PUSH0 DUP7 PUSH20 0xFFFFFFFFFFFFFFFFFFFFFFFFFFFFFFFFFFFFFFFF AND PUSH20 0xFFFFFFFFFFFFFFFFFFFFFFFFFFFFFFFFFFFFFFFF AND DUP2 MSTORE PUSH1 0x20 ADD SWAP1 DUP2 MSTORE PUSH1 0x20 ADD PUSH0 KECCAK256 PUSH0 DUP6 PUSH20 0xFFFFFFFFFFFFFFFFFFFFFFFFFFFFFFFFFFFFFFFF AND PUSH20 0xFFFFFFFFFFFFFFFFFFFFFFFFFFFFFFFFFFFFFFFF AND DUP2 MSTORE PUSH1 0x20 ADD SWAP1 DUP2 MSTORE PUSH1 0x20 ADD PUSH0 KECCAK256 DUP2 SWAP1 SSTORE POP DUP1 ISZERO PUSH2 0x124E JUMPI DUP3 PUSH20 0xFFFFFFFFFFFFFFFFFFFFFFFFFFFFFFFFFFFFFFFF AND DUP5 PUSH20 0xFFFFFFFFFFFFFFFFFFFFFFFFFFFFFFFFFFFFFFFF AND PUSH32 0x8C5BE1E5EBEC7D5BD14F71427D1E84F3DD0314C0F7B2291E5B200AC8C7C3B925 DUP5 PUSH1 0x40 MLOAD PUSH2 0x1245 SWAP2 SWAP1 PUSH2 0x1573 JUMP JUMPDEST PUSH1 0x40 MLOAD DUP1 SWAP2 SUB SWAP1 LOG3 JUMPDEST POP POP POP POP JUMP JUMPDEST PUSH0 DUP2 MLOAD SWAP1 POP SWAP2 SWAP1 POP JUMP JUMPDEST PUSH0 DUP3 DUP3 MSTORE PUSH1 0x20 DUP3 ADD SWAP1 POP SWAP3 SWAP2 POP POP JUMP JUMPDEST PUSH0 DUP2 SWAP1 POP PUSH1 0x20 DUP3 ADD SWAP1 POP SWAP2 SWAP1 POP JUMP JUMPDEST PUSH0 DUP2 MLOAD SWAP1 POP SWAP2 SWAP1 POP JUMP JUMPDEST PUSH0 DUP3 DUP3 MSTORE PUSH1 0x20 DUP3 ADD SWAP1 POP SWAP3 SWAP2 POP POP JUMP JUMPDEST PUSH0 JUMPDEST DUP4 DUP2 LT ISZERO PUSH2 0x12B4 JUMPI DUP1 DUP3 ADD MLOAD DUP2 DUP5 ADD MSTORE PUSH1 0x20 DUP2 ADD SWAP1 POP PUSH2 0x1299 JUMP JUMPDEST PUSH0 DUP5 DUP5 ADD MSTORE POP POP POP POP JUMP JUMPDEST PUSH0 PUSH1 0x1F NOT PUSH1 0x1F DUP4 ADD AND SWAP1 POP SWAP2 SWAP1 POP JUMP JUMPDEST PUSH0 PUSH2 0x12D9 DUP3 PUSH2 0x127D JUMP JUMPDEST PUSH2 0x12E3 DUP2 DUP6 PUSH2 0x1287 JUMP JUMPDEST SWAP4 POP PUSH2 0x12F3 DUP2 DUP6 PUSH1 0x20 DUP7 ADD PUSH2 0x1297 JUMP JUMPDEST PUSH2 0x12FC DUP2 PUSH2 0x12BF JUMP JUMPDEST DUP5 ADD SWAP2 POP POP SWAP3 SWAP2 POP POP JUMP JUMPDEST PUSH0 PUSH1 0x40 DUP4 ADD PUSH0 DUP4 ADD MLOAD DUP5 DUP3 SUB PUSH0 DUP7 ADD MSTORE PUSH2 0x1321 DUP3 DUP3 PUSH2 0x12CF JUMP JUMPDEST SWAP2 POP POP PUSH1 0x20 DUP4 ADD MLOAD DUP5 DUP3 SUB PUSH1 0x20 DUP7 ADD MSTORE PUSH2 0x133B DUP3 DUP3 PUSH2 0x12CF JUMP JUMPDEST SWAP2 POP POP DUP1 SWAP2 POP POP SWAP3 SWAP2 POP POP JUMP JUMPDEST PUSH0 PUSH2 0x1353 DUP4 DUP4 PUSH2 0x1307 JUMP JUMPDEST SWAP1 POP SWAP3 SWAP2 POP POP JUMP JUMPDEST PUSH0 PUSH1 0x20 DUP3 ADD SWAP1 POP SWAP2 SWAP1 POP JUMP JUMPDEST PUSH0 PUSH2 0x1371 DUP3 PUSH2 0x1254 JUMP JUMPDEST PUSH2 0x137B DUP2 DUP6 PUSH2 0x125E JUMP JUMPDEST SWAP4 POP DUP4 PUSH1 0x20 DUP3 MUL DUP6 ADD PUSH2 0x138D DUP6 PUSH2 0x126E JUMP JUMPDEST DUP1 PUSH0 JUMPDEST DUP6 DUP2 LT ISZERO PUSH2 0x13C8 JUMPI DUP5 DUP5 SUB DUP10 MSTORE DUP2 MLOAD PUSH2 0x13A9 DUP6 DUP3 PUSH2 0x1348 JUMP JUMPDEST SWAP5 POP PUSH2 0x13B4 DUP4 PUSH2 0x135B JUMP JUMPDEST SWAP3 POP PUSH1 0x20 DUP11 ADD SWAP10 POP POP PUSH1 0x1 DUP2 ADD SWAP1 POP PUSH2 0x1390 JUMP JUMPDEST POP DUP3 SWAP8 POP DUP8 SWAP6 POP POP POP POP POP POP SWAP3 SWAP2 POP POP JUMP JUMPDEST PUSH0 PUSH1 0x20 DUP3 ADD SWAP1 POP DUP2 DUP2 SUB PUSH0 DUP4 ADD MSTORE PUSH2 0x13F2 DUP2 DUP5 PUSH2 0x1367 JUMP JUMPDEST SWAP1 POP SWAP3 SWAP2 POP POP JUMP JUMPDEST PUSH0 DUP3 DUP3 MSTORE PUSH1 0x20 DUP3 ADD SWAP1 POP SWAP3 SWAP2 POP POP JUMP JUMPDEST PUSH0 PUSH2 0x1414 DUP3 PUSH2 0x127D JUMP JUMPDEST PUSH2 0x141E DUP2 DUP6 PUSH2 0x13FA JUMP JUMPDEST SWAP4 POP PUSH2 0x142E DUP2 DUP6 PUSH1 0x20 DUP7 ADD PUSH2 0x1297 JUMP JUMPDEST PUSH2 0x1437 DUP2 PUSH2 0x12BF JUMP JUMPDEST DUP5 ADD SWAP2 POP POP SWAP3 SWAP2 POP POP JUMP JUMPDEST PUSH0 PUSH1 0x20 DUP3 ADD SWAP1 POP DUP2 DUP2 SUB PUSH0 DUP4 ADD MSTORE PUSH2 0x145A DUP2 DUP5 PUSH2 0x140A JUMP JUMPDEST SWAP1 POP SWAP3 SWAP2 POP POP JUMP JUMPDEST PUSH0 DUP1 REVERT JUMPDEST PUSH0 PUSH20 0xFFFFFFFFFFFFFFFFFFFFFFFFFFFFFFFFFFFFFFFF DUP3 AND SWAP1 POP SWAP2 SWAP1 POP JUMP JUMPDEST PUSH0 PUSH2 0x148F DUP3 PUSH2 0x1466 JUMP JUMPDEST SWAP1 POP SWAP2 SWAP1 POP JUMP JUMPDEST PUSH2 0x149F DUP2 PUSH2 0x1485 JUMP JUMPDEST DUP2 EQ PUSH2 0x14A9 JUMPI PUSH0 DUP1 REVERT JUMPDEST POP JUMP JUMPDEST PUSH0 DUP2 CALLDATALOAD SWAP1 POP PUSH2 0x14BA DUP2 PUSH2 0x1496 JUMP JUMPDEST SWAP3 SWAP2 POP POP JUMP JUMPDEST PUSH0 DUP2 SWAP1 POP SWAP2 SWAP1 POP JUMP JUMPDEST PUSH2 0x14D2 DUP2 PUSH2 0x14C0 JUMP JUMPDEST DUP2 EQ PUSH2 0x14DC JUMPI PUSH0 DUP1 REVERT JUMPDEST POP JUMP JUMPDEST PUSH0 DUP2 CALLDATALOAD SWAP1 POP PUSH2 0x14ED DUP2 PUSH2 0x14C9 JUMP JUMPDEST SWAP3 SWAP2 POP POP JUMP JUMPDEST PUSH0 DUP1 PUSH1 0x40 DUP4 DUP6 SUB SLT ISZERO PUSH2 0x1509 JUMPI PUSH2 0x1508 PUSH2 0x1462 JUMP JUMPDEST JUMPDEST PUSH0 PUSH2 0x1516 DUP6 DUP3 DUP7 ADD PUSH2 0x14AC JUMP JUMPDEST SWAP3 POP POP PUSH1 0x20 PUSH2 0x1527 DUP6 DUP3 DUP7 ADD PUSH2 0x14DF JUMP JUMPDEST SWAP2 POP POP SWAP3 POP SWAP3 SWAP1 POP JUMP JUMPDEST PUSH0 DUP2 ISZERO ISZERO SWAP1 POP SWAP2 SWAP1 POP JUMP JUMPDEST PUSH2 0x1545 DUP2 PUSH2 0x1531 JUMP JUMPDEST DUP3 MSTORE POP POP JUMP JUMPDEST PUSH0 PUSH1 0x20 DUP3 ADD SWAP1 POP PUSH2 0x155E PUSH0 DUP4 ADD DUP5 PUSH2 0x153C JUMP JUMPDEST SWAP3 SWAP2 POP POP JUMP JUMPDEST PUSH2 0x156D DUP2 PUSH2 0x14C0 JUMP JUMPDEST DUP3 MSTORE POP POP JUMP JUMPDEST PUSH0 PUSH1 0x20 DUP3 ADD SWAP1 POP PUSH2 0x1586 PUSH0 DUP4 ADD DUP5 PUSH2 0x1564 JUMP JUMPDEST SWAP3 SWAP2 POP POP JUMP JUMPDEST PUSH0 DUP1 PUSH0 PUSH1 0x60 DUP5 DUP7 SUB SLT ISZERO PUSH2 0x15A3 JUMPI PUSH2 0x15A2 PUSH2 0x1462 JUMP JUMPDEST JUMPDEST PUSH0 PUSH2 0x15B0 DUP7 DUP3 DUP8 ADD PUSH2 0x14AC JUMP JUMPDEST SWAP4 POP POP PUSH1 0x20 PUSH2 0x15C1 DUP7 DUP3 DUP8 ADD PUSH2 0x14AC JUMP JUMPDEST SWAP3 POP POP PUSH1 0x40 PUSH2 0x15D2 DUP7 DUP3 DUP8 ADD PUSH2 0x14DF JUMP JUMPDEST SWAP2 POP POP SWAP3 POP SWAP3 POP SWAP3 JUMP JUMPDEST PUSH0 PUSH1 0xFF DUP3 AND SWAP1 POP SWAP2 SWAP1 POP JUMP JUMPDEST PUSH2 0x15F1 DUP2 PUSH2 0x15DC JUMP JUMPDEST DUP3 MSTORE POP POP JUMP JUMPDEST PUSH0 PUSH1 0x20 DUP3 ADD SWAP1 POP PUSH2 0x160A PUSH0 DUP4 ADD DUP5 PUSH2 0x15E8 JUMP JUMPDEST SWAP3 SWAP2 POP POP JUMP JUMPDEST PUSH0 PUSH1 0x20 DUP3 DUP5 SUB SLT ISZERO PUSH2 0x1625 JUMPI PUSH2 0x1624 PUSH2 0x1462 JUMP JUMPDEST JUMPDEST PUSH0 PUSH2 0x1632 DUP5 DUP3 DUP6 ADD PUSH2 0x14DF JUMP JUMPDEST SWAP2 POP POP SWAP3 SWAP2 POP POP JUMP JUMPDEST PUSH2 0x1644 DUP2 PUSH2 0x1485 JUMP JUMPDEST DUP3 MSTORE POP POP JUMP JUMPDEST PUSH0 PUSH1 0x20 DUP3 ADD SWAP1 POP PUSH2 0x165D PUSH0 DUP4 ADD DUP5 PUSH2 0x163B JUMP JUMPDEST SWAP3 SWAP2 POP POP JUMP JUMPDEST PUSH0 PUSH1 0x40 DUP3 ADD SWAP1 POP DUP2 DUP2 SUB PUSH0 DUP4 ADD MSTORE PUSH2 0x167B DUP2 DUP6 PUSH2 0x140A JUMP JUMPDEST SWAP1 POP DUP2 DUP2 SUB PUSH1 0x20 DUP4 ADD MSTORE PUSH2 0x168F DUP2 DUP5 PUSH2 0x140A JUMP JUMPDEST SWAP1 POP SWAP4 SWAP3 POP POP POP JUMP JUMPDEST PUSH0 DUP2 MLOAD SWAP1 POP SWAP2 SWAP1 POP JUMP JUMPDEST PUSH0 DUP3 DUP3 MSTORE PUSH1 0x20 DUP3 ADD SWAP1 POP SWAP3 SWAP2 POP POP JUMP JUMPDEST PUSH0 DUP2 SWAP1 POP PUSH1 0x20 DUP3 ADD SWAP1 POP SWAP2 SWAP1 POP JUMP JUMPDEST PUSH2 0x16CA DUP2 PUSH2 0x1485 JUMP JUMPDEST DUP3 MSTORE POP POP JUMP JUMPDEST PUSH1 0x20 DUP3 ADD PUSH0 DUP3 ADD MLOAD PUSH2 0x16E4 PUSH0 DUP6 ADD DUP3 PUSH2 0x16C1 JUMP JUMPDEST POP POP POP POP JUMP JUMPDEST PUSH0 PUSH2 0x16F5 DUP4 DUP4 PUSH2 0x16D0 JUMP JUMPDEST PUSH1 0x20 DUP4 ADD SWAP1 POP SWAP3 SWAP2 POP POP JUMP JUMPDEST PUSH0 PUSH1 0x20 DUP3 ADD SWAP1 POP SWAP2 SWAP1 POP JUMP JUMPDEST PUSH0 PUSH2 0x1717 DUP3 PUSH2 0x1698 JUMP JUMPDEST PUSH2 0x1721 DUP2 DUP6 PUSH2 0x16A2 JUMP JUMPDEST SWAP4 POP PUSH2 0x172C DUP4 PUSH2 0x16B2 JUMP JUMPDEST DUP1 PUSH0 JUMPDEST DUP4 DUP2 LT ISZERO PUSH2 0x175C JUMPI DUP2 MLOAD PUSH2 0x1743 DUP9 DUP3 PUSH2 0x16EA JUMP JUMPDEST SWAP8 POP PUSH2 0x174E DUP4 PUSH2 0x1701 JUMP JUMPDEST SWAP3 POP POP PUSH1 0x1 DUP2 ADD SWAP1 POP PUSH2 0x172F JUMP JUMPDEST POP DUP6 SWAP4 POP POP POP POP SWAP3 SWAP2 POP POP JUMP JUMPDEST PUSH0 PUSH1 0x20 DUP3 ADD SWAP1 POP DUP2 DUP2 SUB PUSH0 DUP4 ADD MSTORE PUSH2 0x1781 DUP2 DUP5 PUSH2 0x170D JUMP JUMPDEST SWAP1 POP SWAP3 SWAP2 POP POP JUMP JUMPDEST PUSH0 PUSH1 0x20 DUP3 DUP5 SUB SLT ISZERO PUSH2 0x179E JUMPI PUSH2 0x179D PUSH2 0x1462 JUMP JUMPDEST JUMPDEST PUSH0 PUSH2 0x17AB DUP5 DUP3 DUP6 ADD PUSH2 0x14AC JUMP JUMPDEST SWAP2 POP POP SWAP3 SWAP2 POP POP JUMP JUMPDEST PUSH0 DUP1 PUSH1 0x40 DUP4 DUP6 SUB SLT ISZERO PUSH2 0x17CA JUMPI PUSH2 0x17C9 PUSH2 0x1462 JUMP JUMPDEST JUMPDEST PUSH0 PUSH2 0x17D7 DUP6 DUP3 DUP7 ADD PUSH2 0x14AC JUMP JUMPDEST SWAP3 POP POP PUSH1 0x20 PUSH2 0x17E8 DUP6 DUP3 DUP7 ADD PUSH2 0x14AC JUMP JUMPDEST SWAP2 POP POP SWAP3 POP SWAP3 SWAP1 POP JUMP JUMPDEST PUSH32 0x4E487B7100000000000000000000000000000000000000000000000000000000 PUSH0 MSTORE PUSH1 0x22 PUSH1 0x4 MSTORE PUSH1 0x24 PUSH0 REVERT JUMPDEST PUSH0 PUSH1 0x2 DUP3 DIV SWAP1 POP PUSH1 0x1 DUP3 AND DUP1 PUSH2 0x1836 JUMPI PUSH1 0x7F DUP3 AND SWAP2 POP JUMPDEST PUSH1 0x20 DUP3 LT DUP2 SUB PUSH2 0x1849 JUMPI PUSH2 0x1848 PUSH2 0x17F2 JUMP JUMPDEST JUMPDEST POP SWAP2 SWAP1 POP JUMP JUMPDEST PUSH0 DUP2 SWAP1 POP SWAP2 SWAP1 POP JUMP JUMPDEST PUSH2 0x1869 PUSH2 0x1864 DUP3 PUSH2 0x14C0 JUMP JUMPDEST PUSH2 0x184F JUMP JUMPDEST DUP3 MSTORE POP POP JUMP JUMPDEST PUSH0 PUSH2 0x1879 DUP3 PUSH2 0x1466 JUMP JUMPDEST SWAP1 POP SWAP2 SWAP1 POP JUMP JUMPDEST PUSH0 DUP2 PUSH1 0x60 SHL SWAP1 POP SWAP2 SWAP1 POP JUMP JUMPDEST PUSH0 PUSH2 0x1896 DUP3 PUSH2 0x1880 JUMP JUMPDEST SWAP1 POP SWAP2 SWAP1 POP JUMP JUMPDEST PUSH0 PUSH2 0x18A7 DUP3 PUSH2 0x188C JUMP JUMPDEST SWAP1 POP SWAP2 SWAP1 POP JUMP JUMPDEST PUSH2 0x18BF PUSH2 0x18BA DUP3 PUSH2 0x186F JUMP JUMPDEST PUSH2 0x189D JUMP JUMPDEST DUP3 MSTORE POP POP JUMP JUMPDEST PUSH0 PUSH2 0x18D0 DUP3 DUP7 PUSH2 0x1858 JUMP JUMPDEST PUSH1 0x20 DUP3 ADD SWAP2 POP PUSH2 0x18E0 DUP3 DUP6 PUSH2 0x18AE JUMP JUMPDEST PUSH1 0x14 DUP3 ADD SWAP2 POP PUSH2 0x18F0 DUP3 DUP5 PUSH2 0x1858 JUMP JUMPDEST PUSH1 0x20 DUP3 ADD SWAP2 POP DUP2 SWAP1 POP SWAP5 SWAP4 POP POP POP POP JUMP JUMPDEST PUSH32 0x4E487B7100000000000000000000000000000000000000000000000000000000 PUSH0 MSTORE PUSH1 0x12 PUSH1 0x4 MSTORE PUSH1 0x24 PUSH0 REVERT JUMPDEST PUSH0 PUSH2 0x1938 DUP3 PUSH2 0x14C0 JUMP JUMPDEST SWAP2 POP PUSH2 0x1943 DUP4 PUSH2 0x14C0 JUMP JUMPDEST SWAP3 POP DUP3 PUSH2 0x1953 JUMPI PUSH2 0x1952 PUSH2 0x1901 JUMP JUMPDEST JUMPDEST DUP3 DUP3 MOD SWAP1 POP SWAP3 SWAP2 POP POP JUMP JUMPDEST PUSH32 0x4E487B7100000000000000000000000000000000000000000000000000000000 PUSH0 MSTORE PUSH1 0x32 PUSH1 0x4 MSTORE PUSH1 0x24 PUSH0 REVERT JUMPDEST PUSH32 0x4E487B7100000000000000000000000000000000000000000000000000000000 PUSH0 MSTORE PUSH1 0x41 PUSH1 0x4 MSTORE PUSH1 0x24 PUSH0 REVERT JUMPDEST PUSH0 DUP2 SWAP1 POP DUP2 PUSH0 MSTORE PUSH1 0x20 PUSH0 KECCAK256 SWAP1 POP SWAP2 SWAP1 POP JUMP JUMPDEST PUSH0 PUSH1 0x20 PUSH1 0x1F DUP4 ADD DIV SWAP1 POP SWAP2 SWAP1 POP JUMP JUMPDEST PUSH0 DUP3 DUP3 SHL SWAP1 POP SWAP3 SWAP2 POP POP JUMP JUMPDEST PUSH0 PUSH1 0x8 DUP4 MUL PUSH2 0x1A14 PUSH32 0xFFFFFFFFFFFFFFFFFFFFFFFFFFFFFFFFFFFFFFFFFFFFFFFFFFFFFFFFFFFFFFFF DUP3 PUSH2 0x19D9 JUMP JUMPDEST PUSH2 0x1A1E DUP7 DUP4 PUSH2 0x19D9 JUMP JUMPDEST SWAP6 POP DUP1 NOT DUP5 AND SWAP4 POP DUP1 DUP7 AND DUP5 OR SWAP3 POP POP POP SWAP4 SWAP3 POP POP POP JUMP JUMPDEST PUSH0 DUP2 SWAP1 POP SWAP2 SWAP1 POP JUMP JUMPDEST PUSH0 PUSH2 0x1A59 PUSH2 0x1A54 PUSH2 0x1A4F DUP5 PUSH2 0x14C0 JUMP JUMPDEST PUSH2 0x1A36 JUMP JUMPDEST PUSH2 0x14C0 JUMP JUMPDEST SWAP1 POP SWAP2 SWAP1 POP JUMP JUMPDEST PUSH0 DUP2 SWAP1 POP SWAP2 SWAP1 POP JUMP JUMPDEST PUSH2 0x1A72 DUP4 PUSH2 0x1A3F JUMP JUMPDEST PUSH2 0x1A86 PUSH2 0x1A7E DUP3 PUSH2 0x1A60 JUMP JUMPDEST DUP5 DUP5 SLOAD PUSH2 0x19E5 JUMP JUMPDEST DUP3 SSTORE POP POP POP POP JUMP JUMPDEST PUSH0 SWAP1 JUMP JUMPDEST PUSH2 0x1A9A PUSH2 0x1A8E JUMP JUMPDEST PUSH2 0x1AA5 DUP2 DUP5 DUP5 PUSH2 0x1A69 JUMP JUMPDEST POP POP POP JUMP JUMPDEST JUMPDEST DUP2 DUP2 LT ISZERO PUSH2 0x1AC8 JUMPI PUSH2 0x1ABD PUSH0 DUP3 PUSH2 0x1A92 JUMP JUMPDEST PUSH1 0x1 DUP2 ADD SWAP1 POP PUSH2 0x1AAB JUMP JUMPDEST POP POP JUMP JUMPDEST PUSH1 0x1F DUP3 GT ISZERO PUSH2 0x1B0D JUMPI PUSH2 0x1ADE DUP2 PUSH2 0x19B8 JUMP JUMPDEST PUSH2 0x1AE7 DUP5 PUSH2 0x19CA JUMP JUMPDEST DUP2 ADD PUSH1 0x20 DUP6 LT ISZERO PUSH2 0x1AF6 JUMPI DUP2 SWAP1 POP JUMPDEST PUSH2 0x1B0A PUSH2 0x1B02 DUP6 PUSH2 0x19CA JUMP JUMPDEST DUP4 ADD DUP3 PUSH2 0x1AAA JUMP JUMPDEST POP POP JUMPDEST POP POP POP JUMP JUMPDEST PUSH0 DUP3 DUP3 SHR SWAP1 POP SWAP3 SWAP2 POP POP JUMP JUMPDEST PUSH0 PUSH2 0x1B2D PUSH0 NOT DUP5 PUSH1 0x8 MUL PUSH2 0x1B12 JUMP JUMPDEST NOT DUP1 DUP4 AND SWAP2 POP POP SWAP3 SWAP2 POP POP JUMP JUMPDEST PUSH0 PUSH2 0x1B45 DUP4 DUP4 PUSH2 0x1B1E JUMP JUMPDEST SWAP2 POP DUP3 PUSH1 0x2 MUL DUP3 OR SWAP1 POP SWAP3 SWAP2 POP POP JUMP JUMPDEST PUSH2 0x1B5E DUP3 PUSH2 0x127D JUMP JUMPDEST PUSH8 0xFFFFFFFFFFFFFFFF DUP2 GT ISZERO PUSH2 0x1B77 JUMPI PUSH2 0x1B76 PUSH2 0x198B JUMP JUMPDEST JUMPDEST PUSH2 0x1B81 DUP3 SLOAD PUSH2 0x181F JUMP JUMPDEST PUSH2 0x1B8C DUP3 DUP3 DUP6 PUSH2 0x1ACC JUMP JUMPDEST PUSH0 PUSH1 0x20 SWAP1 POP PUSH1 0x1F DUP4 GT PUSH1 0x1 DUP2 EQ PUSH2 0x1BBD JUMPI PUSH0 DUP5 ISZERO PUSH2 0x1BAB JUMPI DUP3 DUP8 ADD MLOAD SWAP1 POP JUMPDEST PUSH2 0x1BB5 DUP6 DUP3 PUSH2 0x1B3A JUMP JUMPDEST DUP7 SSTORE POP PUSH2 0x1C1C JUMP JUMPDEST PUSH1 0x1F NOT DUP5 AND PUSH2 0x1BCB DUP7 PUSH2 0x19B8 JUMP JUMPDEST PUSH0 JUMPDEST DUP3 DUP2 LT ISZERO PUSH2 0x1BF2 JUMPI DUP5 DUP10 ADD MLOAD DUP3 SSTORE PUSH1 0x1 DUP3 ADD SWAP2 POP PUSH1 0x20 DUP6 ADD SWAP5 POP PUSH1 0x20 DUP2 ADD SWAP1 POP PUSH2 0x1BCD JUMP JUMPDEST DUP7 DUP4 LT ISZERO PUSH2 0x1C0F JUMPI DUP5 DUP10 ADD MLOAD PUSH2 0x1C0B PUSH1 0x1F DUP10 AND DUP3 PUSH2 0x1B1E JUMP JUMPDEST DUP4 SSTORE POP JUMPDEST PUSH1 0x1 PUSH1 0x2 DUP9 MUL ADD DUP9 SSTORE POP POP POP JUMPDEST POP POP POP POP POP POP JUMP JUMPDEST PUSH32 0x4E487B7100000000000000000000000000000000000000000000000000000000 PUSH0 MSTORE PUSH1 0x11 PUSH1 0x4 MSTORE PUSH1 0x24 PUSH0 REVERT JUMPDEST PUSH0 PUSH2 0x1C5B DUP3 PUSH2 0x14C0 JUMP JUMPDEST SWAP2 POP PUSH32 0xFFFFFFFFFFFFFFFFFFFFFFFFFFFFFFFFFFFFFFFFFFFFFFFFFFFFFFFFFFFFFFFF DUP3 SUB PUSH2 0x1C8D JUMPI PUSH2 0x1C8C PUSH2 0x1C24 JUMP JUMPDEST JUMPDEST PUSH1 0x1 DUP3 ADD SWAP1 POP SWAP2 SWAP1 POP JUMP JUMPDEST PUSH0 PUSH1 0x60 DUP3 ADD SWAP1 POP PUSH2 0x1CAB PUSH0 DUP4 ADD DUP7 PUSH2 0x163B JUMP JUMPDEST PUSH2 0x1CB8 PUSH1 0x20 DUP4 ADD DUP6 PUSH2 0x1564 JUMP JUMPDEST PUSH2 0x1CC5 PUSH1 0x40 DUP4 ADD DUP5 PUSH2 0x1564 JUMP JUMPDEST SWAP5 SWAP4 POP POP POP POP JUMP JUMPDEST PUSH0 PUSH2 0x1CD7 DUP3 PUSH2 0x14C0 JUMP JUMPDEST SWAP2 POP PUSH2 0x1CE2 DUP4 PUSH2 0x14C0 JUMP JUMPDEST SWAP3 POP DUP3 DUP3 ADD SWAP1 POP DUP1 DUP3 GT ISZERO PUSH2 0x1CFA JUMPI PUSH2 0x1CF9 PUSH2 0x1C24 JUMP JUMPDEST JUMPDEST SWAP3 SWAP2 POP POP JUMP INVALID LOG2 PUSH5 0x6970667358 0x22 SLT KECCAK256 0xBD PUSH16 0xB1DBF710882CC1253B1B5DABDF072DF3 PUSH0 SSTORE ADDMOD SWAP15 0xC8 PUSH32 0xDC0F7DD88EF5FA3A64736F6C6343000814003368747470733A2F2F66312E746F PUSH12 0x656E706F73742E6B722F3230 ORIGIN CALLER 0x2F ADDRESS CODECOPY 0x2F CODECOPY PUSH13 0x6F7332676B356E742E706E6768 PUSH21 0x7470733A2F2F63646E2E6E626E74762E636F2E6B72 0x2F PUSH15 0x6577732F70686F746F2F3230323330 CALLDATACOPY 0x2F CALLER ADDRESS ADDRESS BALANCE ADDRESS CALLVALUE CALLER PUSH0 ORIGIN ADDRESS BALANCE CALLDATALOAD BALANCE CALLER PUSH0 CALLER ORIGIN BALANCE 0x2E PUSH11 0x706768747470733A2F2F6E PUSH10 0x6D6167652E672D656E65 PUSH24 0x732E636F6D2F7068707761732F726573746D625F616C6C69 PUSH5 0x786D616B65 0x2E PUSH17 0x68703F6964783D352673696D673D323032 CALLER BALANCE ADDRESS BALANCE ORIGIN BALANCE CALLER BALANCE BALANCE ADDRESS CALLDATASIZE ADDRESS ORIGIN CALLDATASIZE ORIGIN CODESIZE PUSH4 0x35666137 CALLDATALOAD PUSH6 0x663836323131 BALANCE CODESIZE ADDRESS BALANCE ORIGIN CALLDATALOAD CALLDATASIZE BALANCE 0x2E PUSH11 0x7067000000000000000000 "
				},
				"gasEstimates": {
					"creation": {
						"codeDepositCost": "1495600",
						"executionCost": "infinite",
						"totalCost": "infinite"
					},
					"external": {
						"allowance(address,address)": "infinite",
						"approve(address,uint256)": "infinite",
						"balanceOf(address)": "2896",
						"buyMusme()": "infinite",
						"decimals()": "405",
						"getMusme()": "infinite",
						"getMusmeUser()": "infinite",
						"musmes(address,uint256)": "infinite",
						"name()": "infinite",
						"symbol()": "infinite",
						"totalSupply()": "2455",
						"transfer(address,uint256)": "infinite",
						"transferFrom(address,address,uint256)": "infinite",
						"users(uint256)": "5056"
					}
				},
				"methodIdentifiers": {
					"allowance(address,address)": "dd62ed3e",
					"approve(address,uint256)": "095ea7b3",
					"balanceOf(address)": "70a08231",
					"buyMusme()": "bfaede13",
					"decimals()": "313ce567",
					"getMusme()": "03e276af",
					"getMusmeUser()": "5dfac4e4",
					"musmes(address,uint256)": "545e163e",
					"name()": "06fdde03",
					"symbol()": "95d89b41",
					"totalSupply()": "18160ddd",
					"transfer(address,uint256)": "a9059cbb",
					"transferFrom(address,address,uint256)": "23b872dd",
					"users(uint256)": "365b98b2"
				}
			},
			"storageLayout": {
				"storage": [
					{
						"astId": 355,
						"contract": "contracts/CoinMusme.sol:CoinMusme",
						"label": "_balances",
						"offset": 0,
						"slot": "0",
						"type": "t_mapping(t_address,t_uint256)"
					},
					{
						"astId": 361,
						"contract": "contracts/CoinMusme.sol:CoinMusme",
						"label": "_allowances",
						"offset": 0,
						"slot": "1",
						"type": "t_mapping(t_address,t_mapping(t_address,t_uint256))"
					},
					{
						"astId": 363,
						"contract": "contracts/CoinMusme.sol:CoinMusme",
						"label": "_totalSupply",
						"offset": 0,
						"slot": "2",
						"type": "t_uint256"
					},
					{
						"astId": 365,
						"contract": "contracts/CoinMusme.sol:CoinMusme",
						"label": "_name",
						"offset": 0,
						"slot": "3",
						"type": "t_string_storage"
					},
					{
						"astId": 367,
						"contract": "contracts/CoinMusme.sol:CoinMusme",
						"label": "_symbol",
						"offset": 0,
						"slot": "4",
						"type": "t_string_storage"
					},
					{
						"astId": 39,
						"contract": "contracts/CoinMusme.sol:CoinMusme",
						"label": "tokenPrice",
						"offset": 0,
						"slot": "5",
						"type": "t_uint256"
					},
					{
						"astId": 46,
						"contract": "contracts/CoinMusme.sol:CoinMusme",
						"label": "musmeName",
						"offset": 0,
						"slot": "6",
						"type": "t_array(t_string_storage)dyn_storage"
					},
					{
						"astId": 53,
						"contract": "contracts/CoinMusme.sol:CoinMusme",
						"label": "musmeUrl",
						"offset": 0,
						"slot": "7",
						"type": "t_array(t_string_storage)dyn_storage"
					},
					{
						"astId": 59,
						"contract": "contracts/CoinMusme.sol:CoinMusme",
						"label": "musmes",
						"offset": 0,
						"slot": "8",
						"type": "t_mapping(t_address,t_array(t_struct(Museme)33_storage)dyn_storage)"
					},
					{
						"astId": 63,
						"contract": "contracts/CoinMusme.sol:CoinMusme",
						"label": "users",
						"offset": 0,
						"slot": "9",
						"type": "t_array(t_struct(User)36_storage)dyn_storage"
					}
				],
				"types": {
					"t_address": {
						"encoding": "inplace",
						"label": "address",
						"numberOfBytes": "20"
					},
					"t_array(t_string_storage)dyn_storage": {
						"base": "t_string_storage",
						"encoding": "dynamic_array",
						"label": "string[]",
						"numberOfBytes": "32"
					},
					"t_array(t_struct(Museme)33_storage)dyn_storage": {
						"base": "t_struct(Museme)33_storage",
						"encoding": "dynamic_array",
						"label": "struct CoinMusme.Museme[]",
						"numberOfBytes": "32"
					},
					"t_array(t_struct(User)36_storage)dyn_storage": {
						"base": "t_struct(User)36_storage",
						"encoding": "dynamic_array",
						"label": "struct CoinMusme.User[]",
						"numberOfBytes": "32"
					},
					"t_mapping(t_address,t_array(t_struct(Museme)33_storage)dyn_storage)": {
						"encoding": "mapping",
						"key": "t_address",
						"label": "mapping(address => struct CoinMusme.Museme[])",
						"numberOfBytes": "32",
						"value": "t_array(t_struct(Museme)33_storage)dyn_storage"
					},
					"t_mapping(t_address,t_mapping(t_address,t_uint256))": {
						"encoding": "mapping",
						"key": "t_address",
						"label": "mapping(address => mapping(address => uint256))",
						"numberOfBytes": "32",
						"value": "t_mapping(t_address,t_uint256)"
					},
					"t_mapping(t_address,t_uint256)": {
						"encoding": "mapping",
						"key": "t_address",
						"label": "mapping(address => uint256)",
						"numberOfBytes": "32",
						"value": "t_uint256"
					},
					"t_string_storage": {
						"encoding": "bytes",
						"label": "string",
						"numberOfBytes": "32"
					},
					"t_struct(Museme)33_storage": {
						"encoding": "inplace",
						"label": "struct CoinMusme.Museme",
						"members": [
							{
								"astId": 30,
								"contract": "contracts/CoinMusme.sol:CoinMusme",
								"label": "url",
								"offset": 0,
								"slot": "0",
								"type": "t_string_storage"
							},
							{
								"astId": 32,
								"contract": "contracts/CoinMusme.sol:CoinMusme",
								"label": "name",
								"offset": 0,
								"slot": "1",
								"type": "t_string_storage"
							}
						],
						"numberOfBytes": "64"
					},
					"t_struct(User)36_storage": {
						"encoding": "inplace",
						"label": "struct CoinMusme.User",
						"members": [
							{
								"astId": 35,
								"contract": "contracts/CoinMusme.sol:CoinMusme",
								"label": "account",
								"offset": 0,
								"slot": "0",
								"type": "t_address"
							}
						],
						"numberOfBytes": "32"
					},
					"t_uint256": {
						"encoding": "inplace",
						"label": "uint256",
						"numberOfBytes": "32"
					}
				}
			},
			"userdoc": {
				"kind": "user",
				"methods": {},
				"version": 1
			}
		}
	}
}